S00A00006570642E733337B1
S2140000000080002099010000C5010000C501000025
S214000010C5010000C5010000C5010000C5010000C3
S214000020C5010000C5010000C5010000C5010000B3
S214000030C5010000C5010000C5010000C5010000A3
S214000040C501000035870000C5010000418700009B
S21400005089870000598700004D8700007D870000D3
S214000060C5010000652A0000AD370000912D000094
S214000070C5010000C5010000C5010000C501000063
S214000080C5010000892A0000C5010000C501000066
S214000090C5010000C5010000C5010000C501000043
S2140000A0C5010000C5010000C5010000658700000D
S2140000B07187000059340000C5010000C50100002A
S2140000C0E19D0000C501000010B5054C237833B94A
S2140000D0044B13B10448AFF300800123237010BD16
S2140000E09001002000000000B0050100084B10B58C
S2140000F01BB108480849AFF300800848036803B9F5
S21400010010BD074B002BFBD0BDE81040184700BFC2
S21400011000000000B0050100940100208C010020C2
S21400012000000000154B002B08BF134B9D46A3F59F
S214000130803A00218B460F461348144A121A0BF0D9
S21400014067F80F4B002B00D098470E4B002B00D0C3
S21400015098470020002104000D000D48002802D01A
S2140001600C48AFF300800AF0F7FF2000290000F0EB
S21400017033FD0AF0E7FE00BF000008000080002004
S2140001800000000000000000900100200C1200207B
S2140001900000000000000000064880470649074AA5
S2140001A0074B9A42BEBF51F8040B42F8040BF8E71F
S2140001B0FFF7B8FF49020000BC0501000000002060
S2140001C090010020FEE700BF0048704700F049029B
S2140001D00D4AD2F8943003F00703032B0AD0042B01
S2140001E003D0022B03D1094B02E0094B00E0094B78
S2140001F0186801E04FF40040D2F80031C3F304233E
S2140002000133B0FBF3F0704700400E4000000020C2
S214000210040000200800002008B5FFF7D9FF054BB2
S214000220D3F80831C3F308230133B0FBF3F0024BD5
S214000230186008BD00400E40280F0020014B1868CB
S214000240704700BF00000020034AD2F8883043F40D
S2140002507003C2F88830704700ED00E04FF40040AD
S21400026070474FF47A707047014B1868704700BFAC
S21400027004000020704773B504460D46164642B18A
S2140002800AF05AFE0022026001A920460BF0F6FE94
S21400029010E00AF051FE01A90660324620460BF037
S2140002A077FFED000123AB40013B0340834201D0C2
S2140002B000200CE00AF040FE0368002BF8D1204630
S2140002C00BF04EFE019B1B1B1B1A5842584102B0F6
S2140002D070BD00210A460BF05BBF733904290FD8A6
S2140002E0DFE801F0070E05030A00022105E0012100
S2140002F003E00421012201E004210022FFF7BBBF36
S2140003000020704730B50C46631A9BB293420AD25F
S21400031014F8013B044D83EA102335F8133083EAC2
S214000320002080B2F0E730BD40E5000030B585B073
S21400033004AC054644F80C2D8A1E92B229460020CD
S214000340FFF7E0FF21460422FFF7DCFF04A90222A4
S21400035021F8020D05F118000AF024FFB0FA80F02B
S214000360400905B030BD000008B58A1E0346194690
S21400037092B20020FFF7C6FF02490422BDE80840FB
S214000380FFF7C0BF6D1000202DE9F04F87B0824602
S21400039002A80D4602F05EFC814603A802F062FC4D
S2140003A0D5F804B07049074658460BF0ADFDDDF8A9
S2140003B00C80044610B10024264625E06B482968C8
S2140003C0029E0BF0EFFB6A480BF0ECFB44450AD0AC
S2140003D014B168480BF0E6FB57F8341066480BF08B
S2140003E0E1FB0134F2E765480BF080FC64480BF053
S2140003F07DFC0024B44200F0B38059F83410614804
S2140004000BF0D0FB0134F5E744450DD007EBC403F1
S21400041057F83400019359460BF076FD019B0134E2
S214000420002808BF1E46EFE726B92868564A50211E
S2140004305B4666E0D5F80880544C414620460BF0F3
S21400044063FD0746A8B9BAF1040F03D02868504ADE
S21400045051211BE0E8687721FFF73FFF0028F5D021
S214000460E86804948DF81470FFF733FFADF81600B3
S21400047029E0484C414620460BF046FD074620BB87
S214000480BAF1050F05D02868434A532107F01EF934
S21400049066E0E8687521FFF720FF0028F3D028699A
S2140004A07521FFF71AFF0028EDD00123E8688DF8C4
S2140004B014300494FFF70DFF8DF817002869FFF736
S2140004C008FF8DF8160004AC22E0344841460BF0D5
S2140004D01BFDC8B10027DDF808A03C4657450BD0E9
S2140004E059F8370041460BF00FFD09EBC70B002803
S2140004F008BF5C460137F1E74CB92868284A542102
S214000500434607F0E3F82BE00127044600E0002707
S2140005102448012101F0C8F80022B079F179134689
S21400052002F048F847B1307902F0A4FB28681E496B
S214000530326807F0B9F813E023792BB13079717976
S214000540E279A37902F09EFBB079F17904220023C8
S21400055002F030F8286815493268236807F0A4F8D6
S21400056007B0BDE8F08F00BFEDE70000F2E700003F
S2140005700FE8000016E80000D1E7000019E80000C8
S21400058024E800005EE8000064E800009CE8000044
S2140005907FE80000C4E80000A7E80000FBE80000D1
S2140005A0CFE8000000250800EDE80000FFE80000A6
S2140005B0062802D10122044B03E0072802D1034B90
S2140005C001221A70704700BFAC010020B401002061
S2140005D01FB5064A07CA01AB83E807000320194681
S2140005E0FFF7D2FE05B05DF804FB00BF10E900007F
S2140005F073B5174C2368002B00F0F481154D2B784B
S214000600012B01BF2268144B13402360236899070F
S2140006103DD507F016FA0020014607F011FB0F4BF8
S214000620002201201A8000F08BFE60B10C4BD978B6
S2140006309878814216D00022B3F80D3000920A4610
S21400064004F020FD0EE000F07BFE0028EED116E060
S214000650E4010020F5010020FEE8F9FFF00100208B
S2140006607A100020B14A0023137001222A70B04A83
S2140006701370B04A93780133937000F0DDFD00F0FC
S214000680DBFD236823F00203236007F0DAF9236812
S214000690DA031DD507F0D5F90020014607F0D0FA99
S2140006A06B78A24E0133DBB26B7033780133337054
S2140006B000F0CAFD08B905F06FFA3378C72B84BF7F
S2140006C000232B70236823F48033236007F0B9F9E6
S2140006D02368994D5B050AD507F0B3F9642000F04E
S2140006E051FB2B6823F480632B6007F0AAF923687C
S2140006F0914D1E050FD507F0A4F903F0F3FD06464D
S21400070003F0FAFD304603F031FE2B6823F4006355
S2140007102B6007F096F92368874ED80516D5874DC7
S21400072007F08FF9012000F02DFB2A78F020012138
S21400073006F062FD336823F4807333602B78012B58
S2140007400CBF002301232B7007F07BF92368D90721
S2140007502CD500207A4D014607F072FA07F071F9A1
S21400076003F0A2FC6B78012B04D100200146024660
S21400077007F005FA06F0D8FB23686D7823F001032E
S214000780012D236010D16E4BD3F8033063B103F014
S214000790B3FD6C4B1A8892B20AB11D88ADB21D80AB
S2140007A0188880B203F0E2FD07F04BF92368624D2B
S2140007B05A0707D507F045F92B6823F004032B608A
S2140007C007F03FF923685C4D5B0609D507F039F959
S2140007D006F0C0FC2B6823F040032B6007F031F9CD
S2140007E02368554DDE0609D507F02BF904F0F4F919
S2140007F02B6823F010032B6007F023F923684E4E76
S21400080058032AD507F01DF905F0ACF9012805466E
S2140008101DD104F03DFBD0B107F013F9284600F0D7
S214000820B1FA002000F018FE284600F015FE07F08A
S21400083008F9454BD87805F087F9444B022019781B
S21400084003F064FF18B1336843F002033360236893
S21400085023F48023236007F0F4F82368364D190646
S21400086015D507F0EEF8042000F0F6FD052000F0A0
S214000870F3FD2B6823F080032B602B6823F0100316
S2140008802B602B6823F080032B6007F0DAF82368D0
S214000890294D9A060BD507F0D4F802F09BFF06F018
S2140008A0B1FF2B6823F020032B6007F0CAF82368FB
S2140008B0214D1B0717D507F0C4F8254A254BD2F85B
S2140008C00310C3F80210D17A1974117B5974517B46
S2140008D0927B9973DA7306F095FF2B6823F0080372
S2140008E02B6007F0AEF82368134D9E0507D507F07A
S2140008F0A8F82B6823F400732B6007F0A2F823688F
S214000900DD0435D507F09DF80022F020012106F021
S21400091073FC114B5A781B789A4221BF0F4B104A32
S2140009201B78DBB228BF13701CE000BFEC01002070
S214000930E10100209E0F0020E4010020C0010020FD
S214000940DA010020FA0100207A100020C5010020FC
S2140009502010002067100020FF0F0020C10100209B
S214000960E9010020236823F48053236007F069F828
S2140009702368214D18040BD507F063F800F08EFDB0
S21400098004F03EF82B6823F400432B6007F059F878
S214000990236899030CD507F054F807F091F908B9C5
S2140009A007F0C8F9236823F40033236007F049F8FA
S2140009B02368114D5A0407D507F043F82B6823F433
S2140009C080432B6007F03DF823680B4D9B047FF5B2
S2140009D010AE07F036F82B6823F400532B6007F0B0
S2140009E030F806E6054B42F210721A8004F020F941
S2140009F007F032F8FDE500BFE401002046000020C5
S214000A0010B503200F210422002301F0D3FD00209F
S214000A10052104220346BDE8104001F0CBBD704717
S214000A2070470000820742BF074B01221A70430737
S214000A3042BF054B01221A7010F0700F1EBF024B0A
S214000A4001221A70704700BF0C0000200048704753
S214000A50440F00200844704770477047704770473F
S214000A6070470000504BDB6C1B0E8E2BF7B515D86D
S214000A704E494F4AD1F8B00040F00403C1F8B030F8
S214000A804FF05013136013631366C2F89030C2F829
S214000A90C030C2F8F030C1F8B00001E08F2B06D1AC
S214000AA0424AD36A23F07F0343F02003D36201F067
S214000AB0FDFF01213F48404F00F0F6FD042000F006
S214000AC09DFD02F09BF9012002F08EF9052006211B
S214000AD00222012301F06EFD0222012305200721D8
S214000AE001F068FD03F0BEFA03F0DAFA01F094FFB5
S214000AF00620324901F09EFF0720304901F09AFF98
S214000B00012406210A46052000230094019401F0E2
S214000B1005FD07210A46052000230094019401F0F4
S214000B20FDFC03200F210422002301F043FD0020DA
S214000B3005210422034601F03DFD214808F08CFE05
S214000B403E6808F095FE1F4B53F8260008F056FB4B
S214000B501D4B53F8260008F023FB054600B1FEE7C0
S214000B601A4B53F8260008F025FB3E602946184E1F
S214000B70762008F0DFFE21462A46284608F0C2FE08
S214000B80FFF726FD00F042FD02F000FB304602F0C3
S214000B90ABFA009530680F4B21464FF4FA5202F03C
S214000BA079FB03B0F0BD00BFB081E00F00400E40FF
S214000BB000A0004000250800B0010020B10500009C
S214000BC01CE90000B80100201000002024000020CE
S214000BD01C100020F97A000008B5FFF743FF06F066
S214000BE031FF06F02DFF03F08FFB06F02CFF06F01A
S214000BF0BCFC012000F062FB00F074FC06F000FF75
S214000C0003F0ACFB02F056FE04F028F803F0CCFE2E
S214000C1000F036FB00210F2207480AF0F9FA06F02A
S214000C2047FFFFF727FB054A136843F002031360EC
S214000C30FFF7E6FEFFF7DCFC9E0F0020E401002035
S214000C40042200235B080028B8BF43F000430101DC
S214000C5048BF43F00063010248BF43F400030103AA
S214000C6048BF43F40023010448BF43F40043010592
S214000C7048BF43F40063010648BF43F08003010702
S214000C8048BF43F00803013A4FEA4000DAD11A079A
S214000C9003F0F00102EB137202EB015203F47061F1
S214000CA002EB013203F4704102EB011203F47021EF
S214000CB003F0706002EB111203F4700302EB1333BF
S214000CC003EB105070470000F8B507460E46144672
S214000CD01D4608F0CDFDFF2F0DD017F0010F204A5E
S214000CE037D1204B03FB07F01F4B034493601F4B89
S214000CF0186808F05FFA26B1012E05D11C4B9868DB
S214000D0003E01B4B586800E0002008F049FA00B1E9
S214000D10FEE79CB1637820781B0443EA0063E07822
S214000D200343A07843EA0020FFF78AFF114B586080
S214000D300F4BD86808F034FA00B1FEE7FF2D0ED04E
S214000D400D4B013D5D600A4B186908F029FA30B179
S214000D50FEE7936803F5F42303F59073C6E7F8BD42
S214000D602800002020A1070000180D8F2400002076
S214000D7010000020380000204C000020704770470C
S214000D8002F090BC13B500230446ADF80630ADF86B
S214000D900630BDF806309BB2A34208D24FF47A70F4
S214000DA002F080FCBDF8063001339BB2EFE702B0DC
S214000DB010BD02200A210422012301F0FBBB000023
S214000DC0002010B503460221042201F0F3FB0220A6
S214000DD009210422002301F0EDFB00200346032135
S214000DE0042201F0E7FB022009210422002301F07F
S214000DF0E1FB03200D210422002301F0DBFB03208E
S214000E000E210422002301F0D5FB03200E2104222C
S214000E10002301F0CFFB052003210122002301F06F
S214000E20C9FB054B01221A6005200321042200237A
S214000E30BDE8104001F0BEBB8C1F1442002008B570
S214000E4002210346042201F0B5FB022009210422F8
S214000E50012301F0AFFB022009210422012301F047
S214000E60A9FB03200D210422002301F0A3FB03208D
S214000E700E210422002301F09DFB01220023052001
S214000E80032101F097FB034B00221A60BDE80840DF
S214000E9000F0D4B88C1F144210B5002002210422A2
S214000EA0012301F087FB022009210422012301F01F
S214000EB081FB002003210422012301F07BFB02209A
S214000EC009210422012301F075FB03200D210422D1
S214000ED0012301F06FFB03200E210422002301F002
S214000EE069FB03200E210422012301F063FB052089
S214000EF003210122002301F05DFB054A0123136054
S214000F00052003210422BDE8104001F053BB00BFBA
S214000F108C1F144208B5022001230A21042201F086
S214000F2049FBBDE80840FFF74BBF10B50E21042271
S214000F300123032001F03EFB6420FFF723FF02207D
S214000F400A2104220023BDE8104001F033BB38B567
S214000F5005460824002303200D21042201F02AFB65
S214000F602B064CBF012300230E210422032001F090
S214000F7021FB0120FFF704FF013C03200D21042282
S214000F8001236D0001F016FB14F0FF04EDB2E1D171
S214000F9038BD10B50921044604220220002301F0C2
S214000FA009FB002003460321042201F003FB204630
S214000FB0FFF7CDFF0220092104220123BDE81040DF
S214000FC001F0F8BA10B509210446042202200023D5
S214000FD001F0F0FA032104220123002001F0EAFACE
S214000FE02046FFF7B4FF0220092104220123BDE8B2
S214000FF0104001F0DFBA000010B506F022FD002018
S2140010000146024606F0BAFD1420FFF7BBFE0A248E
S214001010094B1B68012B06D12CB1C820013C06F0F9
S214001020A9FDE4B2F4E700200146024606F0A6FD5C
S21400103004B9FEE710BD00BF8C1F144208B502219C
S21400104004220123002001F0B5FA1420FFF79AFECF
S214001050002003460221042201F0ACFA1420FFF718
S21400106091FE002001230221042201F0A3FA14209D
S214001070BDE80840FFF786BE10B53220FFF789FFAF
S2140010800024044B185D0134FFF79CFF1D2CF8D19B
S21400109010BD00BF54EB000008B54E20FFF779FFE7
S2140010A00020FFF78FFF4F20FFF773FF0020FFF7AA
S2140010B089FF0020FFF786FF2420BDE80840FFF7E1
S2140010C068BF000008B52220FFF763FFC720FFF7C0
S2140010D079FF2020FFF75DFF0A20FFF753FE00BFD1
S2140010E0034B1B68012B1EBF024B0A221A7008BD59
S2140010F08C1F1442F401002070B50646FFF7CCFFA3
S21400110041F2702421460E4A1023304600F058F96A
S214001110012021460B4A102300F052F90025084B07
S214001120F020E8540135FFF74DFF102DF7D1103CA5
S21400113014F1100FE6D1BDE87040FFF7C3BF00BF43
S214001140BF0F0020DD0F002008B50120FFF721FFAC
S2140011502720FFF737FF0120FFF734FF0020FFF7B7
S21400116031FF3A20FFF715FF1A20FFF72BFF3B2031
S214001170FFF70FFF0820FFF725FF1120FFF709FFF5
S2140011800320FFF71FFF4420FFF703FF0020FFF7B1
S21400119019FF0F20FFF716FF4520FFF7FAFE002085
S2140011A0FFF710FF0020FFF70DFF2720FFF70AFFCD
S2140011B00120FFF707FFF020FFF7EBFE1A20FFF7EE
S2140011C001FF0320FFF7E5FEAA20FFF7FBFE2C2019
S2140011D0FFF7DFFE6E20FFF7F5FE3C20FFF7D9FE97
S2140011E03320FFF7EFFEBDE80840FFF745BF08B520
S2140011F0FFF724FE1220FFF7CCFEFFF7FDFEFFF7F9
S214001200A3FF2120FFF7C5FE8320FFF7DBFE0020AB
S214001210BDE80840FFF770BF08B51020FFF7B9FE1D
S2140012200120BDE80840FFF7CDBE08B5FFF7F4FF84
S214001230BDE80840FFF730BE08B506F002FCBDE882
S2140012400840FFF7D4BF000010B50A4B5A783C2A76
S21400125000D1FEE7084A1068012808D000245C7018
S2140012601C70064B1C70FFF7E0FF204610BD187080
S21400127010BD00BFF50100208C1F1442E1010020C4
S21400128008B5FFF752FEFFF7D9FD1220FFF781FEE3
S214001290FFF7B2FEBDE80840FFF7C7BF0A44914219
S2140012A003D0012301F8013BF9E770477047704708
S2140012B07047704789B2FFF7F1BF704770477047B5
S2140012C02DE9F14F1C4CA3420CBF4FF480544FF451
S2140012D08074B0FBF4F504FB150506460F469046F1
S2140012E0994655B1AB18A3428CBF651B15462A46D6
S2140012F0C8472E442F44C5EB0808B8FBF4F5B246A1
S214001300AB46B91B5144BBF1000F06D050462246EF
S214001310C8470BF1FF3BA244F3E704FB05F104FBCF
S21400132015828819394422B14B4601B0BDE8F04F0A
S214001330184701B0BDE8F08F3D130000FFF7B8BFB7
S2140013400A289DBF024B03EB8000406800207047D0
S214001350600F00200A289FBF034B1B6B03EBC000E7
S214001360406888BF00207047600F00200A2838B504
S2140013700D461C4616D88BB192B10B4B1B78762BBC
S21400138010D1FFF7E7FF84420CD885420AD26319D2
S21400139008D2AB4206D3834288BF441B204638BDE2
S2140013A0104638BD002038BD600F00200A289DBFBB
S2140013B0024B1B6B53F8300000207047600F002074
S2140013C02DE9F04180460F461646FFF7CFFF04464C
S2140013D050B1074B40461D68FFF7E8FF3D442844E0
S2140013E031462246FFF766FF2046BDE8F08100BF83
S2140013F0BC0100202DE9F84304460D469146FFF750
S214001400B5FF0646F8B1114F2046FFF7CFFF0A2C6E
S21400141096BF07EB84034FF00008D3F804800C4B0C
S2140014201B682B44184435440A4B49463246FFF79E
S21400143047FF45457B7888BF07EB840443F00103EC
S21400144088BF65607B703046BDE8F883600F00207B
S214001450BC010020B31200000A2838B5044616D88E
S2140014600B4B1D68FFF7A2FF05442046FFF772FFEF
S214001470084B024600212846FFF722FF064B03EBE7
S2140014808404002262605A7842F001025A7038BD25
S214001490BC0100203D130000600F002070B50D4C0D
S2140014A06378DA0715D50C4D286823F001036370BE
S2140014B0214600F578303422084BFFF701FF2868F4
S2140014C0074B214600F578303422BDE87040FFF720
S2140014D0F7BE70BD600F0020BC0100203D13000069
S2140014E0B3120000F8B5194B194E1868314600F5CE
S2140014F078303422FFF7DEFE3378762B12D0154D87
S2140015000FCD34460FC40FCD0FC40FCD0FC42B68BC
S2140015102360FFF7CCFE76233370737843F0010325
S21400152073700FE004360024E5B22846FFF712FF7A
S21400153056F8047B874202D92846FFF78DFF013410
S2140015400B2CF1D1BDE8F840FFF7A8BFBC01002086
S214001550600F0020CCEB0000002008B501460422F6
S214001560012301F027F801210A460B46002001F06E
S21400157021F8042201230020052101F01BF8054A6A
S21400158003235367936F23F4F85323F01F039367E3
S21400159008BD00BF0000014030B5114D0FCD87B02B
S2140015A06C460FC495E803000E4B84E80300002445
S2140015B01C600D4B0D481C60012100F075F80C48AE
S2140015C0012100F071F80B48012100F06DF80A487F
S2140015D0694601F089F9FFF7BFFF204607B030BD26
S2140015E0C8EC0000FC01002000020020404105007D
S2140015F000250800002204000000014008B543074B
S21400160001D5FFF7C9FF002008BD000008B50B484C
S214001610012100F049F80A48012100F045F80421AC
S2140016200A460520002300F0C5FF052001460422D7
S214001630002300F0BFFF002008BD00BF40410500AA
S214001640002508000B4B0C4941F6713210B51C6C96
S2140016501A645A68094A02448A4294BF4FF080715D
S21400166000215A6822F040720A435A600CB10022E8
S2140016701A6410BD00000E407F9FD5007F4573FEA4
S21400168008B5FEF7A1FDBDE80840FFF7DBBF000088
S214001690044BD3F84421D20703D4D3F84021104298
S2140016A0FBD1704700400E40C0F30322013A70B5EC
S2140016B003460E46092A26D8DFE802F01808252534
S2140016C0050B0E25111500200F4C11E000200F4CC5
S2140016D00EE001200E4C0BE010200E4C08E04FF4FC
S2140016E080300D4C04E000200C4C01E00C4C002037
S2140016F0C3F3043508B1FFF7CBFF04F1047405EB20
S214001700C404A400266070BDB0400E40C0400E4029
S214001710E0400E40E8400E40F0400E4050410E4083
S21400172000400E40C0F30313013B062B34D8DFE81D
S21400173003F004080E14181E2700184BD3F80001F7
S21400174002E0164BD3F81401C0F304207047134B85
S214001750D3F80001C0F300607047104BD3F80C01BB
S21400176002E00E4BD3F80801C0F3082070470C4B7C
S214001770984211D1094BD3F8203103F00F0307E04C
S214001780084B984208D1054BD3F8283103F00303E1
S21400179001209840013870470020704700400E40F6
S2140017A0600612007007140008B5FFF7BBFF013093
S2140017B008BD000000F00F000138052835D8DFE826
S2140017C000F0030D1734222C1B4BD3F8943003F093
S2140017D00703023B022B2AD8184A12E0164BD3F80E
S2140017E0803003F00703013B032B22D8144A08E09D
S2140017F0114BD3F8843003F00703013B032B18D8B2
S214001800104AD05C70470C4BD3F8883003F00703BF
S214001810013B032B0DD80C4AF3E7074B1B6F13F065
S214001820010F14BF082007207047002070470520CE
S21400183070470120704700BF00400E40E0EC0000FB
S214001840E3EC0000E7EC0000EBEC000010B504460B
S214001850FFF7B0FF1B4B9C4209D01B4B9C420AD0A3
S2140018601A4B9C420CD11A4BD3F8800006E0184B5A
S214001870D3F8840002E0164BD3F8880000F0070087
S214001880013803281CD8DFE800F002060E0ABDE87F
S2140018901040FEF7E3BCBDE81040FEF7E5BCBDE82F
S2140018A01040FEF7DEBC0A4BD3F80031DB0103D54F
S2140018B0FEF7B2FC800810BDFEF7AEFC400810BD77
S2140018C0002010BD03001A0005001E0002001800CC
S2140018D000400E4000F47810B0F5602F08B566D0D2
S2140018E017D8B0F5802F32D00AD800285BD0B0F5D4
S2140018F0003F5FD1FEF76CFC2F4BD3F808312BE08E
S214001900B0F5202F2BD0B0F5402F45D0B0F5002FE6
S21400191048E0B0F5A01F32D00ED8B0F5801F27D013
S214001920B0F5901F46D12548FFF790FF224BD3F81D
S214001930202102F00F022AE0B0F5D01F1DD0B0F52E
S214001940F01F15D0B0F5C01F34D11C4811E0FEF7CB
S2140019503FFC194BD3F80C31C3F3082306E0FEF71F
S21400196037FC154BD3F81431C3F30423013310E0CE
S2140019701348BDE80840FFF769BF1248F9E7114869
S214001980FFF764FF0C4BD3F8282102F00302012373
S2140019909340B0FBF3F008BD0B48FFF70BFF07289A
S2140019A005D0082806D1BDE80840FEF711BC074B55
S2140019B0186808BD002008BD00400E400200180050
S2140019C005001E0003001A0006000C005C00002044
S2140019D0C0F30313013B70B50C46072B00F293804F
S2140019E0DFE803F004151F2935566E82464E474D34
S2140019F0FFF746FE012333602B60454BD3F80011FA
S214001A0021F4F85141EA0424C3F8004131E0404B88
S214001A10D3F8141121F4F85141EA0424C3F8144110
S214001A2070BD3B4BD3F8001121F0807141EA04648D
S214001A30C3F8004170BD364BD3F80C1121F4FF31CA
S214001A4021F4807141EA0421C3F80C1170BD2E4EBA
S214001A502E4DFFF715FE012333602B602C4BD3F879
S214001A60081121F4FF3121F4807141EA0421C3F802
S214001A700811FEF7D1FBFFF7E5FD2648FFF72AFF22
S214001A80254B984294BF002001203060286070BD2E
S214001A90224B98422BD0224B984200D070BD042097
S214001AA0FFF7F6FD1A4AD2F82031013423F00F036F
S214001AB0B4FA84F4C4F11F041C43C2F8204170BD7C
S214001AC0184B98421FD14020FFF7E2FD104AD2F88B
S214001AD02831013423F00303B4FA84F4C4F11F045C
S214001AE01C43C2F8284170BD0C4B98420BD14FF4F2
S214001AF08020FFF7CDFD064BD3F8301121F00F0103
S214001B000C43C3F8304170BD4000C8436020C84352
S214001B1000400E40000508000048E801800910005B
S214001B2060061200700714000139FFF751BF00006D
S214001B300138032843D8DFE800F0022B111EC1F35A
S214001B4008011F4B1B68002BFBD11E4A136A23F4A7
S214001B50FF7323F0010319431162704701F07F0100
S214001B60194B1B68002BFBD1164A136923F07F0321
S214001B7019431161704701F07F01144B1B68002B5D
S214001B80FBD1104A936923F07F0319439161704794
S214001B900C4AD2F89030536A23F0300343F0100317
S214001BA05362C1F3C31303330F2B28BF0F2341EA3D
S214001BB00371074B074A1A6003F1007319607047F8
S214001BC06828C84300400E406028C8436428C843BD
S214001BD030400E44FF0700F00F4B1B6813F0300F29
S214001BE006D0202907D0302902D009B10B4B04E0DB
S214001BF04FF4400301E04FF400030949D1F8902068
S214001C001A409A42F9D15B0246BFD1F8A000C0F351
S214001C1080200120704700BF24400E40FF03C1070C
S214001C2000400E4002280AD129B1064B4FF48060CE
S214001C30C3F8A800596612B10220FFF7CDBF0120F5
S214001C40704700BF00400E40F8B5042875D8DFE89E
S214001C5000F008030F296F0080264024062307257E
S214001C6024E04FF400764FF48074082309251DE025
S214001C70002952D031494B6A13F0300F09D14B6A14
S214001C80DB070AD54B6A23F0300343F010034B62A0
S214001C9003E00424022303250AE004240223032588
S214001CA0012606E00124022600232546002936D018
S214001CB0002622490C662249194489000B68002B2D
S214001CC0FCD01AB9BDE8F84000F012BA1C4B2B4401
S214001CD09F003B68002BFCD00228F3D1002EF1D0E9
S214001CE0164D696A11F0010104D020210122FFF788
S214001CF099FF01E0FFF770FFD5F89C6002200021F5
S214001D000122FFF7A1FF0220C6F30A01FFF710FF2A
S214001D102C663B68002BFCD0D4E708260223074A33
S214001D201666074A1A4492001368002BFCD1C9E7CE
S214001D302026102404230525B8E7F8BD00400E40F1
S214001D408004F21000F00F00013810B5042870D897
S214001D50DFE800F003743F6F76000239032971D87C
S214001D60DFE801F01802050F0120032414E0364ACC
S214001D700123136002F5005220320220136004464D
S214001D800AE0314B01241C6003F500532033032086
S214001D901C6001E00020042401210A46FFF754FFDE
S214001DA0FFF76EFC294B2A485C67FFF793FD294B2B
S214001DB09842254B94BF00200120186003F500537D
S214001DC02033186000F094F9FEF726FAFFF73AFC85
S214001DD02FE0214C0139082934D8DFE801F0280724
S214001DE00E33331533330500042321E00121002090
S214001DF00A46FFF729FF02231AE0012001460246A1
S214001E00FFF722FF012313E0FEF706FA114B984274
S214001E100D4B94BF00200120186003F500532033BB
S214001E201860A3F5266301221A60032300E000234E
S214001E302360054B1B68094B1B6810BD084CC9E79F
S214001E40084CC7E710BD00BF4000C84300400E4026
S214001E50000508000048E80184400E406020C843A2
S214001E6080400E4088400E4010B504461120FFF713
S214001E70A1FC002101220220FFF7E6FE2378227C47
S214001E80002B14BF4FF480730023022A08BF43F0D0
S214001E9001031E4A40F20111116002F1007207218F
S214001EA013601B4BE27A196003F1007319491A603C
S214001EB0637AA28843EAC223174A116002F10072CD
S214001EC01360237AE288D91CDB0143EAC223A27A94
S214001ED00F2928BF0F211343104A43EA01736FF0FE
S214001EE07F61116002F100720D491360637B227BF3
S214001EF01B0343EA0243E27B1343A27B43EA02133B
S214001F00084A116002F10072136010BD24400E44AE
S214001F1028400E447FF80F002C400E4430400E44FC
S214001F20FFF00F0034400E44214B45F60E02D3F866
S214001F308011C3F880211F4A106840F255120240F3
S214001F401A661D4A128802F00702032A01F00101F0
S214001F5004D0042A0BD0022A23D10EE05A6A92003B
S214001F601FD4D3F890201006FBD5032217E0D3F831
S214001F7090209205FBD5042211E00D4BD3F890304B
S214001F801B07FAD50D4B1B6813F0300F06D10C4B10
S214001F901B6803F44003B3F5400FF8D10222044B4C
S214001FA05A6719B1024B0022C3F88021704700BF60
S214001FB000400E40100200200E02002024400E407A
S214001FC090400E401848194BC26C1B88C2F303227F
S214001FD02833013202EB820103EB6303B3FBF1F318
S214001FE0C16C013B072B21F0EE6128BF072341F4AB
S214001FF0801141EA0363C3640D4BB3F90030002B34
S21400200010DB2833510001EB520203EB6303B3FBF2
S214002010F2F3026D072B28BF072322F0700242EA74
S21400202003130365704700BF00300E400C0200200B
S21400203006020020084B1A78012A0BD1074A126CB8
S21400204002F00302012A03D1054A1268D203FBD527
S21400205002221A70704700BF1402002000300E40A3
S2140020607C300E40054A064BD16C1960D36C23F4C5
S2140020707F4343F4EE43D364FFF7A4BF00300E4023
S2140020800802002038B5144B144AD3F8901011609B
S214002090D3F89440124A134BA4B21C80136943F041
S2140020A0040313610546FFF7DDFFFFF7C3FF30BFEC
S2140020B00D4B1A680D4BDA64FFF784FF1DB1BDE8BF
S2140020C03840FFF731BF04F00704012C03D0BDE809
S2140020D03840FEF7A1B838BD00400E401002002080
S2140020E000ED00E00E0200200802002000300E4046
S2140020F0044B054AD3F890101160D3F89420034B94
S2140021001A80704700400E40100200200E02002089
S214002110074A936FDB07FBD4011C064B18BF01214F
S2140021201960136C23F0030318431064704700BF54
S21400213000300E40B40AC6436A4B2DE9F74F9B6B3E
S214002140019203F00F03022B804601D00020C6E068
S214002150A0F5E163B3F5966FF8D80022144613464F
S21400216049B901990124002900F09D80DFF87CA17F
S2140021704FF0080903E0DFF878A14FF00109B8F541
S214002180E16F94BF00200120574948B1002C40F071
S2140021908F8040F6B83C4FF4E1654FF0010E07E043
S2140021A0002C40F091804FF4E16C4FF49665A64603
S2140021B04C4EDFF840B1F66C06F040564EEA060785
S2140021C05F4521D008D8012F1BD026D3B7F1805FFA
S2140021D02BD1D1F86C3125E0DFF81CB15F4516D065
S2140021E005D8B7F1005F20D1D1F8703111E0B7F112
S2140021F0405F15D0DFF804B15F4516D1D1F87831CD
S21400220010E0D1F8743104E0D1F874310AE0D1F866
S2140022107831C3F30722DBB207E0D1F86C31F8E778
S214002220D1F870311A0EC3F30743096D2E4FC9B2A9
S214002230032903D8D7F87C1148B10AE0360F022EDE
S214002240D7F8801108D0032E09D0012E01D0C9B2CC
S21400225006E0C1F3072103E0C1F3074100E0090EE1
S214002260090311F4702F7FF471AF1E4EF06E20F448
S214002270704001436545F166BFF468AFC5EB0800E2
S214002280D11A4143C5EB0C05B1FBF5F51D4495424B
S2140022903FF65CAF9D42FFF459AF05FA09F545EAF3
S2140022A00E05CAF80050002C3FF45BAF204616E03F
S2140022B0D1F8683140F6B83C1A0E4FF4E165C3F326
S2140022C007434FF0020ED9E7D1F868314FF4E16CBE
S2140022D0C3F307224FF49665DBB28646CEE703B01B
S2140022E0BDE8F08F00300E40B081E00F5C300E404D
S2140022F064300E4001000010010000200100003094
S214002300194B1A6FD96CC90702F0070206D5012AC5
S21400231004D9132818D91438132811E0DB6CD90710
S21400232006D4012A04D809280ED90A38092807E055
S2140023300D4BDB6C13F0010309D0012A06D82728C1
S2140023408CBF1023082302E0042300E00023064885
S214002350013BC26C190341EA032322F47F42134374
S214002360C364FFF72FBE00BF00300E40054A064B81
S2140023701B68136F23F007031843044B1067188875
S214002380FFF7BEBF00300E408009C643040200209F
S214002390524B027873B59A639B6B03F00F0393421C
S2140023A0044601D0002595E04D4ED6F86C31013339
S2140023B01DD04C4B1A68043B1B681A604A4B1A68BF
S2140023C0043B1B681A60494B1A68043B1B681A607A
S2140023D0474B1A68043B1B681A60464B1A68043B56
S2140023E01B681A60444B1A68043B1B681A60E38833
S2140023F04A2B0BD9B3F5FA7F0AD340F6C3129342A1
S21400240094BF4FF000534FF0405303E0002301E029
S2140024104FF08053314DB4F90C00E96C21F0405276
S21400242022F001020028A8BF42F001021343EB6429
S214002430EB6E43F08073EB660420FFF797FF2B6E7E
S21400244023F0C0432B66EB6C43F00603EB64F56C9D
S21400245001A8C5F3074500F031F9A5F110030B2BD1
S21400246003D905F0FD05512D17D19DF8050001286B
S21400247013D19DF80430022B0FD820490B7863B98E
S2140024801F4A164D136843F0010313602B6E1D4A56
S2140024901A401D4B13432B6608701C4B218919806C
S2140024A01B4BA2891A801B4BA0881880FFF728FFB9
S2140024B0012160880A46FFF73FFE054600283FF4E4
S2140024C071AFA37A144A6078003318BF01231360F3
S2140024D0FFF71EFE284602B070BD00BF00300E405B
S2140024E0B081E00F3C80E00F4480E00F4C80E00FAE
S2140024F05480E00F5C80E00F6480E00F1402002040
S21400250044300E40000F0EF0B4C0400B0C0200200A
S21400251006020020040200209407C643072930B5AF
S2140025204FF00F0406D88D00AC40A840194D2C6023
S214002530194C07E0A1F10805AD00AC40A840174DC6
S2140025402C60174C2060072A88BF083A4FF0030417
S21400255001EA040097BF920092009440904085BF25
S214002560944090400F4A104A146002F100721060C6
S2140025700E4A0A44920013609DF80C30C2F8803070
S21400258001238B400A49C1F824349DF81030C2F864
S214002590003330BD00A4004400A4004604A4004458
S2140025A004A4004608A400440CA40044802085101F
S2140025B000A00040F0B562B1302404FB00F51F4CCB
S2140025C02C4401EBC404A40013B10125256000E0EF
S2140025D023603024444304F18044072904F5204452
S2140025E00CD867684FEA810E0F2505FA0EF527EA24
S2140025F0050602FA0EF5354365600CE001F18045EC
S214002600083DA768AD000F26AE4027EA060602FA88
S21400261005F53543A5607AB93022504333B1074BF0
S214002620034401EBC3018900012304E0034A02448A
S21400263001EBC20189000B60F0BD00BF0CA0104288
S2140026408B784A789B0143EA82030A781343CA7858
S21400265043EA02130A7943EAC2234A7943EA023379
S2140026608A79043043EA42430001014A1350704716
S21400267000200440014B1860704700BF00008442F1
S214002680837842781B0143EA820302781343C278B8
S21400269043EA4213027943EA0223427943EA0233C9
S2140026A0827943EAC233C27943EA0243027A43EAB2
S2140026B04243014A13607047002004400B4A5369A6
S2140026C003F00F011369C3F3811343EA8103837098
S2140026D0136903F03F034370936903F0F001D36975
S2140026E0C3F303130B430370704700BFD0FF0FE024
S2140026F030B50C780CB90223436000234362CB78D4
S2140027008A781B0443EA02630A7A13438A7943EA07
S2140027108223CA7943EA02234A78002A14BF402259
S214002720002213434A7A002A14BF80220022134351
S2140027308A7A002A14BF202200221343CA7A002A6B
S21400274014BF1022002213430A79002A4A7914BFC4
S2140027504FF400550025002A43EA050314BF4FF046
S214002760805200221A430B7B002B14BF0823002341
S214002770134303600CB10123436030BD537810B59A
S21400278014781B0643EA846394792343947843EAD7
S2140027900443D47843EA0433147943EA842354790F
S2140027A043EA0423D479002C14BF4FF0804400245D
S2140027B02343147A002C14BF4FF000540024234304
S2140027C0547A927A002C14BF102400240631002A72
S2140027D043EA040314BF04220022090113434350B2
S2140027E010BD000070B5044616461D4619B91448BB
S2140027F0FFF770F80146202D07D001D85DB170BDF7
S214002800402D04D0602D04D070BD082204E00622BE
S21400281002E0042200E01022236823F06003236015
S21400282072434901236801EB5201B1FBF2F20549FC
S214002830203AD20011401D432560616170BD00BF83
S21400284040410500F8FF7F00F8B50446154619B963
S2140028500E48FFF73FF80146C8012A460023490EF6
S21400286008F09CF8B0F1800641F1FF37310A41EAE2
S214002870076107480A02024004F1140000F1806371
S21400288000F1C060024919600260F8BD40410500D1
S214002890F8FF7F00CB4303F005035B00C360C16015
S2140028A07047000040F6AA63C36041F205020023A9
S2140028B003604260094A83604361C3648264084AD5
S2140028C0436790428367C36708BF03658365054B0C
S2140028D0984204BF0023C365704700BFF9FF01009C
S2140028E0000001400004014038B50C460546FFF7DD
S2140028F0D9FFA37C1BB12B6843F080432B60E37C9D
S2140029001BB1237D43F08003AB65637B228A61683D
S2140029101A43E38913436B60A268237B2846FFF7BC
S21400292061FFE37D1B0503F4E002A37D1B0703F0B4
S214002930E04313432B66637D1BB12B6843F480335F
S2140029402B602378EB6038BD38B50C460546FFF79C
S214002950A9FF238AA27B296843F00103002A9BB2C1
S21400296014BF4FF4806200220B431343227D2B607A
S2140029702B68002A14BF4FF00052002213432B602E
S214002980A37C1BB1E37C43F08003AB65237B6168CB
S214002990A26843F480536B602846FFF755FF637BBD
S2140029A00BB11023EB60E37D1B0503F4E002A37D6F
S2140029B01B0703F0E04313432B66637D1BB12B68B4
S2140029C043F480332B602378EB6038BD03691B0625
S2140029D0FCD5C069C0B2704703695B06FCD541638D
S2140029E0704703695B06FCD5C163704710B50446A3
S2140029F074B194FAA4F0B0FA80F00123834024EA7C
S214002A000304044B53F82030002BF1D09847EFE72F
S214002A1010BD00BF1C020020054B4FF40032C3F867
S214002A2080211A604FF40072C3F880211A60704744
S214002A3000E100E072B6094B1A68B2F1FF3F1CBF16
S214002A4001321A601B68064A42F8201023B1034A76
S214002A50013B136003B962B6704700BF180200203E
S214002A601C020020074AD2F82804D2F81C3418406A
S214002A7020F42A5020F02A004004400CC2F8240417
S214002A80FFF7B4BF00A00040074AD2F82804D2F8E7
S214002A901C34184020F4AA4020F055000004000C16
S214002AA0C2F82404FFF7A2BF00A0004008B500F05B
S214002AB019F800F00BFEBDE8084000F067BB82B0D6
S214002AC000EB40000021CDE90001DDE9002312F112
S214002AD0FF3043F1FF311343CDE90001F5D102B0D9
S214002AE070470000F0B54F4B91B002AA03F10805FD
S214002AF0174618685968144603C40833AB42224682
S214002B00F7D118689B88A380474B206006AA03F17C
S214002B101005164618685968144603C40833AB42B5
S214002B202246F7D11B882380404C0FCC0BAD0FC537
S214002B3023682B603846FFF72BFC3046FFF794F9E6
S214002B400BA805F005FC11200421FFF7FBF8002177
S214002B500A460320FFF778F854F8040F344D6168EE
S214002B60344C6B4603C3684605F0A6FB01200246BC
S214002B700146FFF769F830480321FFF7E3F82F48CE
S214002B800321FFF7DFF82E480121FEF78DFD2D48C3
S214002B900121FEF789FD2C480121FEF785FD2B4813
S214002BA00121FEF781FD20462949FFF7CDFE0B23C4
S214002BB0636703F10B23A367022006210422002388
S214002BC0FFF7F8FC0220024607210023FFF7F2FC7D
S214002BD00220082104220023FFF7ECFC04210A4609
S214002BE001230020FFF7E6FC002742F21070FFF7F3
S214002BF066FFAB2120462F60FFF7EEFE012620463B
S214002C00FFF7E4FE2E601E20FFF759FF2046B9218D
S214002C102F60FFF7E1FE2046FFF7D8FE2E6011B0CA
S214002C20F0BD00BFF0EC0000FEEC000010ED000070
S214002C3090011442000401400200180003001A002C
S214002C400005080040410500002508000032040089
S214002C5060ED000008B1052303600148704700BF1F
S214002C609000002008B1062303600148704700BFAB
S214002C7060000020024B03449B0000221A6070474D
S214002C804000F310F8B504460E46144801211746D6
S214002C901D46FEF709FD124820448000002303600D
S214002CA004F110020F4B45EA072543F82250A2080C
S214002CB0103304F0030453F82250E400FF21A1402F
S214002CC025EA010143F8221053F82250A64046EAAE
S214002CD0050143F8221001230360F8BD0035080003
S214002CE04000F31000600E4000207047FEE74FF4EF
S214002CF000534B600020704701207047002070474B
S214002D00F8B50E468F180D46BD42A5EB060406D054
S214002D1000F0DAF8431C02D005F8010BF4E7002CAB
S214002D2014BF20464FF0FF30F8BD70B50E4615466E
S214002D300C46A31BAB4204DA14F8010B00F0FAF8B9
S214002D40F7E7284670BD000008B50D4B1A680AB9AB
S214002D500C4A1A601A681318EFF308818B420BD9D5
S214002D60094B1B68986808F001F908491922FFF713
S214002D70DCFF012008F0E6F8014910460B6008BDAC
S214002D805C020020101200204401002078ED0000B4
S214002D90104838B503691B061BD50F4C2568FFF78E
S214002DA015FE0E4B58552368013323600C4B1A68EA
S214002DB001321A602268082A04BF002222601B68BB
S214002DC0082BC1BF064A002323601360C4BF054A10
S214002DD0136038BD000001406C0200206102002034
S214002DE07402002070020020034B10B101221A70FA
S214002DF070471870704700BF6002002030B52A4840
S214002E002A4D87B00121FEF74FFC29480121FEF725
S214002E104BFC0020014604220123FFF7CBFB0020D9
S214002E2001210A460346FFF7C5FB0FCD6C460FC4CB
S214002E3095E80300042284E803000123002005210E
S214002E40FFF7B8FB1B481C4C0121FEF72DFC06A91A
S214002E50002501F8185D2046FFF746FD032363674B
S214002E60A36F164A23F4F85323F01F03A3674FF407
S214002E7000610423A364C2F88011E36C43F00403EA
S214002E80E364204611600521FFF704FD0C4B1B6828
S214002E902946986802222B4608F06AFF094B012251
S214002EA01A7007B030BD00BF4041050094ED000029
S214002EB000250800002204000000014000E100E0B8
S214002EC04401002069020020154B1B7810B50BB991
S214002ED0FFF794FF72B6134B1A68511C1CBF0132E1
S214002EE01A60114A1168002910DD1049104C086854
S214002EF0205C0C6801340C600C68082C04BF0024AD
S214002F000C6011680139C0B2116001E04FF0FF306B
S214002F101B6823B1034A013B136003B962B610BDB8
S214002F2069020020180200207402002070020020AF
S214002F306102002038B50F4B1B7804460BB9FFF72B
S214002F405DFF0D4B1A781D462AB10A2C03D10B489B
S214002F500D21FFF741FD09482146FFF73DFD2B787F
S214002F602BB10D2C03D105480A21FFF735FD20466D
S214002F7038BD00BF6902002060020020000001404A
S214002F8072B6044B1A68511C1CBF01321A601868CE
S214002F90704700BF18020020034B186818B10138AC
S214002FA0186000B962B67047180200202DE9F04F8D
S214002FB0254B03F1A00100225A711A79002A3ED04F
S214002FC053E906894FF0000BCB4508BF404506D2B3
S214002FD0B8EB000469EB0B0543E906452FE0DA7908
S214002FE00AB91A7127E053E9046718EB060453F888
S214002FF0086C53F8042C49EB0705241A65EB0B05FF
S214003000002E43E9064508DD3244F32A43F8042C33
S21400301011D9013445F1000508E0921BF32A43F864
S214003020042C08D914F1FF3445F1FF3543E9064571
S214003030F43A43F8042C1A680AB101225A7128336C
S2140030408B42B8D1BDE8F08FA002002038B5074CFF
S2140030500025637F1BB1A369216A2846984701357E
S214003060042D04F12804F4D138BD00BF88020020E6
S214003070F0B500214FF0FF324FF0FF33164C0C44F2
S214003080257F3DB1D4E900459D4208BF94423CBF30
S21400309022462B462831A029F0D1104900240C7076
S2140030A05C1C08BFB2F1FF3F0C4614D000279F42BD
S2140030B00B496FF0640608BF9642086038BF324678
S2140030C00849042502440D6201234A6523704B6AB1
S2140030D043F004034B62F0BD880200207802002013
S2140030E02C0300200020044038B50546FFF748FFB3
S2140030F000230A49282202FB0312947F24B10133DD
S214003100042BF6D1064C05E01DB1012191772B600A
S21400311000E0044CFFF740FF204638BD8802002040
S214003120011000F0041000F013B54FF47A624FF46B
S21400313000410023E1FB0023104619464FF4FA52E3
S214003140002307F02BFC00236FF064028B4208BFBD
S21400315082420BD20C4B9C689A680092009A121B13
S2140031606632F9D9653041F1FF31ECE750EA0103E8
S21400317007D0054B9C689A680192019A121B8242FE
S214003180F9D3002002B010BD00200440204B70B5DB
S2140031901C78002C3AD101251E481D702946FEF7E2
S2140031A083FA1D4E1D480221FEF7CCFD0323294657
S2140031B01B483371FEF778FA3046FFF761FA284667
S2140031C01849FFF73DFA184B18485A6A22F4FF626E
S2140031D022F007025A6240F2FF721A62144A9C609A
S2140031E04FF00051C2F8801111605A6A2A435A62A1
S2140031F02146A02208F00CF80E4B1C700E4B1C70DB
S2140032000E4B1C600E4B1C600E4B1C60002070BDED
S2140032107902002000050800B800002005001E0006
S21400322080091000C1000020002004408802002011
S21400323000E100E080020020780200202803002041
S214003240840200207C020020032838B504460D4680
S21400325013D8A1B1FFF794FE0A4B282202FB0434D0
S2140032601834A3791BB9FFF797FE074838BD2379B2
S2140032702B70FFF791FE002038BD044838BD044887
S21400328038BD00BF88020020031000F0021000F0D6
S214003290041000F02DE9F84F0328074689469246A9
S2140032A09B460A9E00F2A480FFF76AFE524B282433
S2140032B004FB07349846A27F22B9FFF76DFE4F48FD
S2140032C0BDE8F88FBAF1000F0AD1BBF1000F02D0AB
S2140032D038463146D847FFF75FFE0020BDE8F88F36
S2140032E0474B4FF47A609D68C4F818B04FF400431B
S2140032F00021E3FB0A014FF4FA52002307F04EFBCD
S214003300B9F1010FC4E9020109D14FF47A7303FB46
S2140033100AFAF42303FB10A323617A2363612823AC
S21400332003FB078301301A4641F100011E62354B4C
S214003330E2E806011B7882F8079001241471002B3E
S214003340C9D1314C236801331EBF23680133236083
S2140033502E4B1A789946B2B900272D4B6FF06406AB
S2140033608F4208BF86421D6038BF3046244B042279
S21400337028441A6258655A6A42F004025A620123C7
S21400338089F800302BE02368012B28D1282303FB83
S214003390078300261E771A4ADFF874A0536A23F0C4
S2140033A004035362DAF80000281AFFF7FFFDFFF760
S2140033B04DFE26B9282303FB078301221A772846E9
S2140033C0FFF756FE0E4BDAF800209D685B6DA91AD3
S2140033D09B1A99F8002001360AB19942DBD8236877
S2140033E0094A002B3FF477AF1368013B136072E77E
S2140033F00848BDE8F88F00BF88020020031000F0E0
S21400340000200440800200202803002078020020CC
S2140034102C030020021000F0032838B5044612D80A
S214003420FFF7AEFD094B282202FB04341834A379BB
S2140034301BB9FFF7B1FD064838BD00252571FFF71B
S214003440ABFD284638BD034838BD00BF88020020C3
S214003450031000F0021000F02DE9F041FFF790FD98
S214003460194AD2F8188018F0040F1FD0174B976827
S214003470012119701E46144C154D636A23F004038F
S21400348063622868381AFFF791FDFFF7DFFD3846BC
S214003490FFF7EEFD2A68A768636DB91A9B1A0D4AF6
S2140034A012780AB19942E6D80023337018F0010F5B
S2140034B006D0054B01221A62074A136801331360CF
S2140034C0BDE8F041FFF768BD002004408002002000
S2140034D02C03002078020020840200202DE9F04F03
S2140034E0674A684C10685168127A87B003AB03C30A
S2140034F01A70D4F8B030D80706D463480121FEF716
S214003500D3F84FF0010901E04FF000095F48FEF7DD
S21400351051F9032107465D48D4F89060FEF712FC87
S2140035205B48FEF741F9D4F8F0300190D90706F071
S214003530400606D456480121FEF7B6F84FF00108BB
S21400354001E04FF0000872B6524D2B685A1C1CBFA3
S21400355001332B60504B1C6814F001044FF000023E
S2140035600FD0196800915C6A1A605A6240F2FF72C6
S2140035701A624A4B4FF00052C3F880214FF0010AFE
S21400358001E00094A24600238DF80E308DF80F302F
S21400359003A808238DF81030FFF772F8404B4FF45D
S2140035A080521A601A6852001A606AB13A4A9068E5
S2140035B0D2F808E038497045FAD08A6818680138A9
S2140035C0FDD889689142EDD01A6852081A601A68C8
S2140035D00920013820D052081ED0196811431960FE
S2140035E02D49D1F808B0D1F808C0DFF8ACE0E345C3
S2140035F0F9D02B49DEF808C0D1F800B0BBF1010BBA
S214003600FCD8DEF808E0E6451EBFD1F800E02EEA5A
S214003610020EC1F800E0DCE72B6823B11D4A013B2F
S214003620136003B962B6BAF1000F08D018480199C2
S214003630FEF77AFA184B009A1A605C6202E050466F
S214003640FFF718F8B8F1000F03D011480021FEF775
S2140036502BF8032F03D00D483946FEF773FB26B927
S214003660012031463246FEF7EFFAB9F1000F03D0DB
S21400367005480021FEF718F807B0BDE8F08F00BF38
S214003680ACED000000400E400005080005001E00DE
S21400369080091000180200200020044000E100E02D
S2140036A0C800002003460849002B0CD0013B8822A6
S2140036B01202003253430A68D80AD20A50438009DD
S2140036C001D00138FDD87047C800002010B588B07A
S2140036D000210D2204A807F09BFD01240B220021E7
S2140036E001A88DF8104007F093FD022323488DF8BB
S2140036F00A302146FDF7D8FF21484FF6FF73C36115
S214003700002101AAFFF73AF800238DF812301C4872
S21400371004A9FEF7EDFF1B48FEF7DCF89DF8123013
S214003720194AD8400133DBB20A2B10608DF81230EC
S214003730144602D8154B9842E9D81548FEF7CAF841
S2140037402268144BB3FBF0F313480021E2FB03019D
S214003750124A002307F022F9114B094A1860114B50
S21400376000201870936923F0100393610E4B4FF4FA
S2140037708062C3F880211A6008B010BD0002040001
S21400378000800140404105003403002080841E0074
S2140037905000020000B0710B20A1070040420F004D
S2140037A0300300203803002000E100E0054BDA6813
S2140037B0D20641BF10225A61034B012248BF1A703D
S2140037C0704700BF008001403803002070477047F4
S2140037D07047000038B50F4C102221460020FCF739
S2140037E091FDA51E24F8020C4FF48050FFF7EEFF63
S2140037F0294612224FF48050FFF7E9FF4FF482501B
S214003800FFF7E4FF29464FF482501222BDE8384005
S214003810FFF7DDBF6910002070B506460A240C4D80
S214003820304629461222FFF7D3FF0020A91C10229B
S214003830FCF768FD2B88834208D020460A34A4B2E1
S214003840FDF7A0FA282CEAD1002070BD012070BD3B
S214003850671000207FB5154B6A4603F108066D46D3
S21400386018685968144603C40833B3422246F7D191
S214003870186899889B792060A180A3714FF48050C6
S214003880FFF7CAFF08B101200DE04FF48250FFF7A2
S214003890C3FF0028F7D1064829460F2207F082FC0E
S2140038A0B0FA80F0400904B070BD00BFB5ED00006E
S2140038B0691000201FB5104B104CD3F80F00019074
S2140038C0D3F813000290D3F8170003900021204687
S2140038D0102207F09DFC02986060019820609622F6
S2140038E00398E273A27322732222A060627304B06C
S2140038F0BDE81040FFF76EBFB5ED00006910002070
S214003900084B1A7810B50AB1002010BD0122064CEB
S2140039101A7054F8043F002BF6D098470028F8D0C9
S21400392010BD00BF6C030020C80000200E4B1B78A3
S21400393030B5ABB1002815DC0C4B2C2202FB003353
S21400394003F128050A461C4603CCAC4210605160C1
S214003950234602F10802F6D120681060002030BD30
S214003960034830BD034830BD6C03002040030020F0
S2140039700500118002001180104B1B7830B5C3B1D2
S2140039800F4B1968002916DC4A1C1A600D4A0346BC
S2140039902C2000FB012203F12805186859681446FC
S2140039A003C40833AB422246F7D1186820600020D3
S2140039B030BD054830BD054830BD00BF6C03002053
S2140039C03C03002040030020050011800100118008
S2140039D0802910B50DD1084908480C6804EB02127E
S2140039E082424FF000008BBF18601C6004480A60DB
S2140039F010BD044810BD00BFD40000206D0B002091
S214003A0001001180020011800048704704001180F8
S214003A1008B500F023F900F0DBF8002008BD70B50B
S214003A200E461D460024AC4206EB041005D00021CD
S214003A30102207F0EDFB0134F5E7002070BD2DE9FC
S214003A40F3410F4603200E21099E00F033F90620AD
S214003A5000F009F9089C0134A4B202AD230243F039
S214003A60010325F8023D0221284600F0D9F84FF060
S214003A700008B04507EB081016D0102100F0D0F86B
S214003A80731E98451DBF631C43441B024FF6FF730D
S214003A9018BF43F0FF0328460221ADF8063008F1B0
S214003AA0010800F0BDF8E4E7022000F0DCF80E2183
S214003AB0032000F00DF9002002B0BDE8F08108B543
S214003AC00D21032000F012F9002008BD08B50320E0
S214003AD019B10F2100F0EEF802E00F2100F0F8F81F
S214003AE0002008BD10B58CB000F0B8F800F070F8F3
S214003AF000F0C8F8002213460821022000F0CCF897
S214003B00002213460621022000F0C6F800221346C3
S214003B100E21032000F0C0F8002213460F210320D8
S214003B2000F0BAF800220D211346032000F0B4F886
S214003B301F480021802200F09BF8002835D11D4B3D
S214003B40019301238DF8143080230293049303938A
S214003B50194B0693194B0793194B0893194B099366
S214003B60194B8DF815000A9301A8184B0B93FFF715
S214003B7003FF0446C0B90F21032000F09BF80E2176
S214003B80032000F097F8062000F06DF80CA8042338
S214003B90022120F82E3D00F043F8022000F063F8E2
S214003BA003200E2100F094F820460CB010BD00BF94
S214003BB0BF3A0000D0ED0000CD3A0000D139000039
S214003BC0093A00003F3A00001F3A0000113A000090
S214003BD030B50F4D0FCD87B06C460FC495E8030087
S214003BE084E803000B4C0C480121FDF75DFD0B4BF0
S214003BF0029320466946FEF7A7FE0A236367A36F73
S214003C0023F01F2343F00B230020A36707B030BD2B
S214003C10E8ED00000004014000320400E0673500D3
S214003C2038B505460C4684B1012C0B4801D0EA078E
S214003C3005D515F8011BFEF7CFFE013CF3E735F876
S214003C40021BFEF7CEFE023CEDE7034B1B699B060C
S214003C50FBD5002038BD00BF0004014008B5FFF7C3
S214003C603DFC002008BD08B5FFF71CFD002008BD80
S214003C7008B500F017FA0028014808BF002008BD64
S214003C800200138008B503480121FDF70DFD002052
S214003C9008BD00BF0025080010B514462AB9C0B2FA
S214003CA00422FEF787FC204610BD014810BD00BF69
S214003CB0010013803023C0B25843044B034401EB89
S214003CC0C301890001230B60002070470CA010423E
S214003CD03023C0B25843044B034401EBC3018900B0
S214003CE000200860704700BF0CA01042012303FAB2
S214003CF001F2C0B23023584300F1804000F5204066
S214003D008261002070470000044B1B781BB1044BF7
S214003D100360002070470120704700BFAC0B0020F6
S214003D20A00B002070B50D4C247884B10C4C26886E
S214003D308518B5420DDC6688CD18B54209DC52B14F
S214003D404BB1A080E18022816381002070BD0120FC
S214003D5070BD042070BD052070BD00BFAC0B0020F8
S214003D60A00B00202DE9F74F534A0D9E1278002A2B
S214003D7000F09C80514A1568002D00F09780504A4C
S214003D80547C002C40F094809468127C012A4D4AA2
S214003D901CBFB3FA83F35B091F1C4FEAD404D38815
S214003DA0009401EB030818BF0127009BC7F1000928
S214003DB01FFA88F85FFA89F903FB08554FF0000CE4
S214003DC09246002E70D0BAF80840BAF80430241A8A
S214003DD0B44228BF34461844072CA6EB040680B22B
S214003DE01CD8044467B1A0424BD2C20800F00701B9
S214003DF001238B40A95C01300B43AB5480B2F2E741
S214003E00A0423ED2C10800F00702012393406A5C3C
S214003E10013022EA03036B5480B2F1E74FEAD00E7A
S214003E2010F0070005EB0E030FD00122824015F8B4
S214003E300E10013AD2B229EA020B0A404BEA020BF4
S214003E40083805F80EB0013304445FEAD40B0DD0F1
S214003E50184649465A46CDF804C007F0D9F9B4EBDF
S214003E60CB0403465B44DDF804C00AD00122A2401E
S214003E701978013AD2B221EA020102EA09020A439B
S214003E801A700CEB080359110F4A03F01F030120A8
S214003E90984052F82130034342F82130009B0CF141
S214003EA0010C1D4400208CE7304602E0012000E0B3
S214003EB00A2003B0BDE8F08FAC0B0020700B00208A
S214003EC0740B0020A00B0020C41000200148002125
S214003ED043691847740B002070B50A4C05460A481B
S214003EE0234686694168C268B04723683BB12B60A9
S214003EF0FF211022054807F08BF9002070BD0B202B
S214003F0070BD00BF700B0020740B0020C410002092
S214003F10F7B5174E33781BBBFFF7F2FC044608BB19
S214003F20144D2946FFF702FDF8B9134F3846FFF740
S214003F30D3FF0446B0B93B68B3B1104BA988AA8931
S214003F4019805A8019815A819880D8804A43012363
S214003F50337001920090014602460346FFF702FFC7
S214003F60002002E0204600E00B2003B0F0BD00BFBA
S214003F70AC0B0020740B0020700B0020A00B002060
S214003F80FFF7A4BFF8B50C46054638B331B308684A
S214003F908A68904224DA4968E368994220DA2E68F3
S214003FA0B788B8421EDBF788B9421BDB37899742D1
S214003FB018DD76899E4215DD89B280B20B44024434
S214003FC00132013392B29BB2FFF7ACFE211D0EC93F
S214003FD02668EE6029616A61AB61F8BD0520F8BD10
S214003FE00420F8BD0320F8BD30B5054687B0E8B11B
S214003FF0002343606FF07F43836001A8FFF784FED1
S214004000B8B9019B2B601A885B8802900390013A2E
S214004010013B284602A904920593FFF7B3FF044626
S21400402030B92846044900F009F801E0052000E010
S214004030204607B030BD00BF00EE000008B578B1DE
S2140040401C3019B9102207F0E3F809E001F110035B
S21400405051F8042B40F8042B9942F9D1002008BDF2
S214004060052008BD10B5FFF74BFC00B1FEE7FFF7D3
S2140040704FFF00B1FEE7084C2046FFF7B5FF00B142
S214004080FEE76FF07F43A060636020460349BDE80B
S2140040901040FFF7D3BF00BFB00B002000EE0000BB
S2140040A0FFF76EBF0020704770470000064A0123E6
S2140040B0137000235370D370137153719371034AB6
S2140040C01380034A13707047DA010020D8010020DD
S2140040D0EE01002030B5144A1188144D144B2C788C
S2140040E0287803EB540300F001006FF003041B7AFA
S2140040F060430430034113F00F0311D12C780131D3
S21400410089B204F0FF004CB90A4B108001225870A7
S2140041101A70D87018715871987130BD2B70DCE722
S2140041201180184630BD00BFD8010020EE010020E7
S2140041300D100020DA010020044BDA79044B0AB98E
S214004140012200E000229A70704700BF4D10002048
S214004150DA01002008B5114B1A7A1AB95A7A0AB948
S2140041605A890AB19B89BBB1002002F04DFBFFF7CC
S214004170E3FF0B4A002301205070D3701371537174
S2140041809371084A1380084A136843F40063136067
S214004190BDE8084003F0EAB908BD00BF4D10002096
S2140041A0DA010020D8010020E401002013B5104CED
S2140041B000212046152207F02BF81E2262730422E7
S2140041C0A272032305222370E273012302AAE3727C
S2140041D023734EF648410023A373237422F8021D6E
S2140041E01288A4F80120034A937002B010BD00BFE5
S2140041F0A6100020DA01002070B51B4B1B4CD3F82C
S21400420003201B4821880132C3F80320C688B14228
S2140042102546194600D26EB90024012320464C706C
S2140042200B702C80CC700C714C718C7103F09EF965
S214004230204670BD01780131B2FBF1F401FB142178
S21400424041B90C490A780132D2B20A7001221A70BA
S214004250808870BDD20755BF012200221A701A70DE
S21400426054BFC078807870BDDA010020D8010020E5
S2140042700D100020EE01002038B5184A1848D2F874
S214004280033004780133C2F80330C588013405FBD7
S21400429004F18B42114600D265B900240123204662
S2140042A04C700B70CC700C714C718C7103F05EF915
S2140042B0204638BDB3FBF4F104FB11341CB90123CE
S2140042C01370808838BDDB0755BF012300231370A9
S2140042D0137054BFC078807838BD00BFDA01002064
S2140042E00D100020034B9B780BB1FFF785BFFFF73F
S2140042F0C3BF00BFDA010020024B9B780BB1FFF76B
S214004300E9BE7047DA0100207047000038B5032583
S214004310114C00211522204606F07AFF4FF440503B
S21400432021461522FCF7C6FF002021461322FBF784
S214004330E9FFB4F81330834208D00320013DFCF7B0
S21400434021FD15F0FF05E3D1FFF730FFA07ABDE8A9
S214004350384002F059BA00BFA610002008B5FFF793
S214004360D5FFBDE8084003F0E5BC0000014608B9EB
S214004370024604E0034B1A88034B587892B203F0C7
S214004380FEBB00BF9D100020DA01002010B50446D9
S21400439008462368591C08D02179814205D1A3F12B
S2140043A008018A4201D39A420BD322F00701224623
S2140043B02071082342F8051BFDF702F8236808332E
S2140043C0236010BD2DE9F04F85B0DDF840E0019385
S2140043D084899EF80280B0F80890B0F806A004F130
S2140043E0010C08F0030B1FFA89F71FFA8CFCBBF1CF
S2140043F0030FC7EB0C0508BF6FF30108ADB22B46E1
S214004400458908BF8EF802809EF802801FFA8AF05F
S214004410C8F3810B6E1CBBF1030FA6EB000608BFAA
S2140044206FF38308B6B208BF8EF8028096423EBF8E
S2140044309EF802806FF301088EF8028091F80E80D5
S214004440984588BF9EF80280019B84BF6FF383085F
S2140044508EF802809846B8F1030F00F2C780DFE8B6
S21400446008F0022E5A8F2D1A0135AA42DABFB21A68
S21400447092B200229EF80230ADF80A205208ADF83B
S2140044800C2003F0030504AA002602EB4502ADF853
S214004490086032F8082CADF8089010448A7BE41BBC
S2140044A0A41A01340221C2EB0C0C94FBF1F427444D
S2140044B0C3F38103ADF80A70ADF80CC027E0C97BE2
S2140044C09EF80230ADF80CA0C1EB050E2D1A013592
S2140044D06D1A022195FBF1F52844ADF80A00A51ADD
S2140044E0C3F38106E41B04A8A21A00EB4606ADF847
S2140044F008E0013292FBF1F4274436F8080CADF8D8
S214004500089003F00303ADF80A50ADF80C7004AA47
S21400451002EB430331E0281A01308242D8BFB21AB8
S2140045209EF80230C87BD4BF92B20022ADF80A20B3
S2140045305208ADF80C202D1A04AA03F0030002EB73
S21400454040020026ADF8086032F8080C8A7BADF809
S2140045500C900135281AC3F38105A31AE41B9BB2FD
S214004560A41A671CADF80830022497FBF4F41C1B51
S21400457004ABADF80A4003EB450333F8083C32E0E1
S21400458091F80F809EF802E0897BADF808A02B1A00
S214004590C8EB0303CEF3810C0226013393FBF6F33C
S2140045A0184404AB03EB4C0CC8EB0505631AE41B7C
S2140045B0ADF80A00ADF80C509BB2A41A791A3CF874
S2140045C0080CADF8083011440EF0030E013494FBCD
S2140045D0F6F29A1A04AB03EB4E0EADF80A10ADF8DD
S2140045E00C203EF8083C03EBC01000E0002005B0AD
S2140045F0BDE8F08FF8B5012B0D46044616461F465B
S2140046009DF818104FD801EBC10112230220490073
S214004610254AFCF7D5FE254B3FB9012C12D0032CBA
S21400462005D014B3022C18D027E0012C08D15A8FDD
S214004630D3F82E1001EBC211C3F82E10B61A09E0FB
S214004640032C09D15A8FD3F82E10B61AA1EBC61236
S214004650C3F82E205E8710E02CB91A8FD3F82E10E0
S214004660501B014405E0022C07D11A8FD3F82E10F8
S2140046701144AD1AC3F82E101D8793F83E200C4C3B
S21400468042F010026FF3451283F83E202178064A66
S21400469001EBC101122302204900FCF7ABFE237890
S2140046A001332370F8BDF8BDED0F0020BF0F0020CA
S2140046B0C501002030B5049C039B6578059C012D40
S2140046C0647809D002D3022D0BD014E014F0300F1A
S2140046D000EBC11019D00AE014F0300F104414D1CA
S2140046E00FE0D97B14F0300FA0EBC1100DD19B7BEF
S2140046F0D21A104430BD9A7B14F0300FA0EB0200A3
S21400470003D0DB7BC91A00EBC11030BD2DE9F04F9A
S214004710894C87B04FF0FF3302900391237063708B
S214004720A370E37023766376A376E3764FF00008F3
S214004730039B984551D003F084F9122303FB08F13C
S2140047407E4A02987C4DFCF73BFE94F83500276BBA
S214004750FCF72CFE064694F83500FCF7FBFD3044CB
S214004760B7EBC00F01D307221AE0EA6A49F27F438B
S2140047709A4201D9082213E0EB8E2E8F95F8350069
S2140047805E432B6B03EBC606FCF710FE074695F858
S2140047903500FCF7DFFD3844B6EBC00F04D3092222
S2140047A0674B00201A70C3E0D5F82CA02A8F4FEA7A
S2140047B0DA131A44B2F5947F88BFC3F594735E4A41
S2140047C088BF2B87D18E0AF07F03194480291146B3
S2140047D00CD9C3F18003D38608E0A169207F594A2B
S2140047E008390823FCF706FE0120A1E0D1F8309036
S2140047F000270AEBC71301934F4B1A8FBBB29A429E
S21400480040F2938003F01DF94FF0000B4A4DEA8EFC
S2140048101FFA8BF39342294680F081800A6803EBE7
S214004820090C511C4FEADC060AD095F835002979A8
S214004830884205D1A2F108018E4201D396420BD3DD
S2140048403D48059390F83510CDF810C03246FFF776
S2140048509DFD059BDDF810C006F0070626446FEAAE
S2140048600C02717902F0070241FA02FC94F83B2030
S214004870160695F83C200CF0010C48BF8CF0010C95
S214004880D00648BFC2F3401C019A9D182A4A936975
S214004890591C4FEAD50612D0107F92F83420824277
S2140048A0A3F1080103D18E4201D39E4207D3254AC5
S2140048B0CDF810C00823FCF79DFDDDF810C01E4A99
S2140048C091694B1C13460AD092F834E0107F864557
S2140048D005D1A1F10800864201D38E420BD392F88F
S2140048E03410194805933246CDF810C0FFF74EFD38
S2140048F0059BDDF810C006F007061E44ED4305F0E4
S2140049000705727F0123AB400CFA05FC22EA03037D
S2140049104CEA030C86F81DC00BF1010B76E7073254
S21400492022F007029144013763E708F10108FFE629
S21400493007B0BDE8F08F00BFBF0F0020EB0F0020D0
S214004940F4010020DC0F0020D70F0020FCF7F8BC95
S2140049501FB50324FF210A2201A806F059FC4FF4D4
S2140049600050FCF7A5FC4FF400500E490A22FCF755
S214004970A0FC4FF4005001A90A22FCF79BFC094852
S21400498001A90A2206F00EFC38B10520013CFCF70E
S214004990F9F914F0FF04DDD100E00124204604B04C
S2140049A010BD00BFB50F00201FB50A2201A94FF4A5
S2140049B00050FCF77FFC0A4BDDF8061000221A8038
S2140049C0084B1A705A70084A914205D140224FF49B
S2140049D000501A70FCF76CFC05B05DF804FB00BFD5
S2140049E0EA0100209C0F002077997799034B5A78AC
S2140049F0012A02BF00221A705A7070479C0F0020CE
S214004A0008B50C4BD3F802200B4B9A420DD00B4B3B
S214004A1008480F221A70FF210A2206F0F9FB4FF40D
S214004A200050BDE80840FCF743BCFFF791FF0128A3
S214004A30EDD108BDB50F002088668866F401002019
S214004A4031B1884204D34FF0010002D9014B1870EF
S214004A5000207047F401002008B5054B1888998897
S214004A60FFF7EEFF10B101F08DFD012008BD00BF7D
S214004A70AD0F00202DE9F043C829ADF2044D804665
S214004A800E461746994605D16846FF214FF48062C8
S214004A9006F0BEFB0024BC4218D23D1BB5F5806F65
S214004AA028BF4FF48065C82E06D0304604EB0901B7
S214004AB06A462B46FCF784FCB8F800006946AAB2A2
S214004AC0FBF720FC2C44A8F80000E4E70DF2044DA8
S214004AD0BDE8F08330B585B000240320ADF8024071
S214004AE0FFF734FF0925B0FBF5F0C5B2E3B2AB42E1
S214004AF010D204EBC40101AA09230320FCF760FCD2
S214004B000DF102009DF80C10029A019BFFF7B2FF10
S214004B100134EBE7BDF8020005B030BDF7B502ACD6
S214004B20002324F8023D254B20465A681B680A21BC
S214004B30FFF7A0FF20462249022206F033FB08B109
S214004B40052220E0FFF7C6FF1E49ADF80600022248
S214004B50204606F027FB05460028F1D11A4EADF890
S214004B60060037783846FCF7F5FB2B4602463946F2
S214004B702046FFF77FFF20461449022206F012FB6C
S214004B80054620B10B22124B00201A7013E0ADF838
S214004B90060030787778FCF7DDFB394602462B4670
S214004BA02046FFF767FF20460A49022206F0FAFA77
S214004BB00028E7D1012003B0F0BD00BF431000205D
S214004BC03A1000203C1000207A1000203E100020F2
S214004BD0F40100204010002010B5FFF73DFF04460A
S214004BE0F0B102F02EFF0F4B187800F0AFFB012853
S214004BF0044609D00C4B03221A700C4A136823F49F
S214004C008023136000240BE002F01BFFFFF786FFF3
S214004C1020B9064A136823F48023136002F011FFBC
S214004C20204610BD03100020F4010020E4010020FF
S214004C3013B5084C23785BB1074B187801F01EFCBF
S214004C408DF807009DF80700FCF706FC002323708C
S214004C5002B010BD340000207910002008B50A4BC1
S214004C600A221A70094B04201870FCF7F5FB052081
S214004C70FCF7F2FB064B0748002119700822BDE836
S214004C80084006F0C5BA00BF0310002079100020C7
S214004C90F40100203A100020034B5A78082A0CBF73
S214004CA0092208225A7070477A1000204FF0FF3011
S214004CB0704730B58BB007AA0B230C460546FCF7A9
S214004CC07FFBBDF82110DDF81D300293013904AAE0
S214004CD009230534032001EBC10101948DF80C5023
S214004CE0FCF76EFB059B5A1C06D1049A013203D1D1
S214004CF09DF81820FF2A0CD0029A934217D1019BE8
S214004D00049A9A4213D19DF818209DF80C309A42C6
S214004D100DD1BDF821100139032001EBC10101AA14
S214004D200923FCF767FBDDF81D00053001E04FF0B6
S214004D30FF300BB030BD000010B58AB002AA1E23AB
S214004D40FCF73EFBBDF80930ADF806300D4B0DF113
S214004D500B020DF11F011C4652F8040B43F8040B1E
S214004D608A42F9D112781A70064913220020FBF7FE
S214004D70C9FAA4F8130002F073FDBDF8060003306C
S214004D800AB010BDA61000202DE9F041ADF5067D55
S214004D900023ADF80230354B0746884601AA03F1DA
S214004DA0100518685968144603C40833AB422246F7
S214004DB0F7D11B8823802E4C00214FF4007206A8E2
S214004DC006F026FA08F1010600210A22204606F01F
S214004DD01FFA0223384631460DF10202FCF7F0FABC
S214004DE0BDF80230B3F5E04F03D0224B0D221A7007
S214004DF035E06FF07702A27022711F4A6623E370D7
S214004E0063711368002543F4004338461360257029
S214004E106570FCF7CBFA3044C4F8060001A807F02A
S214004E209FF801A982B22088FBF76CFA2080BDF8B3
S214004E300230AB4213D908F10301294406AA4FF405
S214004E4000733846FCF7BCFA208806A94FF40072B7
S214004E50FBF758FA05F500752080ADB2E7E7BDF818
S214004E60020003300DF5067DBDE8F08130F100004C
S214004E70B50F0020F4010020E4010020034B5B780E
S214004E80082B0CBF09200820FCF7E6BA7A10002091
S214004E90074BD9781A798A4207D106495B7C8A5C27
S214004EA01A4214BF0120002070470120704700BF3F
S214004EB07A10002042F100002DE9F047B1F5007F9E
S214004EC0044688461E46DDF82090099F02D9002039
S214004ED0BDE8F087114643464A460A207602FCF7AC
S214004EE06FFA204631463A464FF40073FCF768FAEC
S214004EF04C460025C9EB04039BB2434515D2B5F5D5
S214004F00007FE4D207EB050A20465146022206F04F
S214004F1049F938B92368CAF80030A388AAF80430DB
S214004F200634E7E70635ADB2E9E7054B3146587873
S214004F303A464FF40073FCF75DFA0120BDE8F087AF
S214004F407A1000202DE9F0410746884616460024D0
S214004F500C4BE35C1F420FD16502294632464FF4E4
S214004F6000734046FCF72CFA074B29465878324621
S214004F704FF40073FCF73EFA0134082CE8D1BDE884
S214004F80F08100BF42F100007A1000202DE9F047C2
S214004F903A4DADF5826D042303AA0C460646FCF78F
S214004FA00FFA95F80180FFF777FE9DF80F30012B7A
S214004FB004F104042FD00027B946BDF80D30013B9C
S214004FC099450DF5047A1ED2214602AA03233046DF
S214004FD0FCF7F6F99DF80830294ABDF80910D25CAE
S214004FE00334174304AA8DE8040440462246FFF71C
S214004FF063FF01283BD1BDF809301C4403334B4402
S2140050001FFA83F9D9E7384641465246FFF79AFF1A
S214005010FFF734FF25E0FFF731FF0027BDF80D301E
S214005020013B9F421DD2214602AA03230334304689
S214005030FCF7C6F9214604AABDF809303046FCF74D
S214005040BFF99DF80810BDF809306878490204AA2F
S214005050FCF7D0F9BDF809301C4403333B449FB23B
S214005060DCE7BDF80D00FF236B74033001E04FF062
S214005070FF300DF5826DBDE8F08700BF7A10002086
S21400508042F1000010B5084CA4F80D30BDF8083009
S214005090A070E1702271A4F80F3002F047FB0030D8
S2140050A018BF012010BD00BF7A10002010B58CB0CC
S2140050B004AA1E23FCF784F9BDF81130164AADF891
S2140050C00E300DF127010DF1130353F8040B42F8CF
S2140050D0040B8B42F9D1114B114C00221A70114A65
S2140050E0D3890BB9A1781174A078117C2279002499
S2140050F00094FFF7C7FF50B10B4A136843F48023B0
S2140051001360FFF727F8BDF80E00033001E04FF0FC
S214005110FF300CB010BD00BF51100020F20100207F
S2140051207A1000204D100020E40100201FB5042353
S21400513003AAFCF745F90C4A9DF80F0000231370EC
S2140051400A4A014612790093FFF79CFF30B1084ADD
S214005150136843F480231360042001E04FF0FF300F
S21400516005B05DF804FB00BFF20100207A100020B5
S214005170E40100202DE9F041ADF5067D042303AAE5
S21400518006460C46FCF71CF99DF80F30082B02D992
S2140051904FF0FF3082E0434D2B78062B0CBF0723E1
S2140051A006232B702B78062B0CBF07200620FCF757
S2140051B053F9FFF771FDFFF761FE3B48FF21082218
S2140051C006F026F8FF2304346B7400279DF80F20A2
S2140051D0FBB29A4253D92146052304AA3046FCF76F
S2140051E0EFF806A8FF214FF4007206F011F8BDF89C
S2140051F01330B3F5007F04F10504C9D89DF81220DA
S214005200A9184A718BB1214606AA3046FCF7D8F891
S2140052109DF81210234B49021878BDF8133006AAE1
S214005220FCF7E8F8BDF813301C44214630460DF173
S2140052300A020223FCF7C4F8BDF80A800234B8F16B
S214005240000F1AD0B8F5007FA2D8FF214FF40072E5
S21400525006A805F0DDFF214606AA43463046FCF7C1
S214005260AFF89DF81210BDF80A306878490206AA11
S214005270FCF7C0F8BDF80A301C440137A6E7002446
S214005280A878E9782A79B5F80D300094FFF7FAFE89
S21400529000283FF47DAFBDF80D0003300DF5067D08
S2140052A0BDE8F0817A1000207F1000202DE9F04143
S2140052B0224CADF5826D05460F466678FFF7ECFC8E
S2140052C02846394603AA0423FCF77AF89DF80F30DF
S2140052D01B4ABDF80D1012F80380013904AA84ADEC
S2140052E000920195304689B23A1DFFF7E5FD012888
S2140052F002D04FF0FF301CE0404631462A46FFF70A
S21400530021FEFFF7BBFD0F4A9DF80F000023137028
S214005310014622790093FFF7B5FE0028E9D00A4A35
S214005320BDF80D00136843F480231360FF236374F5
S21400533003300DF5826DBDE8F08100BF7A100020C5
S21400534042F10000F2010020E40100202DE9F743BD
S2140053501D4F1E4E3B68336081464FF000083D6887
S21400536002AA45440024012302F8014D4846294676
S214005370FCF726F89DF80730762B0CD13368144AD4
S214005380C3F101032B4473604846691C0823FCF7ED
S21400539017F820460EE05A1E072A06D80D4A484639
S2140053A052F823302946984704E00B4B03221A7024
S2140053B04FF0FF3000288044D1DC0CBF01200020D5
S2140053C003B0BDE8F08300BFD001002043100020EA
S2140053D03A1000204CF10000F401002070B5374B65
S2140053E0ADF50C7D0CAC4102224618784FF40073E4
S2140053F0FBF7E6FF0025002107A8122205F008FFAC
S214005400635BADF80230BDF802104FF6FF739942A9
S21400541051D0013901EBC10101AA09230320FBF792
S214005420CFFF01999DF80C00254E023104AA0C23EB
S214005430FBF7C6FF9DF80C308DF82530019BBDF8B4
S21400544014100E33DB000893049B03F00F035A1E60
S214005450534253418DF82430BDF8163003EBC11289
S2140054600792BDF81A200132D21ABDF81830ADF8EE
S214005470262001335B1AADF828309DF82B303178A2
S2140054806FF3C7138DF82B309DF82C3003F0EF0325
S21400549043F0200301EBC1018DF82C3002201223CB
S2140054A0490007AAFBF7A6FF337802350133B5F5A6
S2140054B0007F33709FD10DF50C7D70BD7A100020F3
S2140054C0C50100201FB5411E01EBC10101AA092339
S2140054D00320FBF775FF019805B05DF804FBF7B5F0
S2140054E00F461446FFF7EEFF0026C51DF3B2A7F1E0
S2140054F02F029A4206F101060FDD294602230A20F2
S21400550001AAFBF75DFF9DF804100731CB109DF84C
S214005510051001FB03518D1CE8E79DF804309DF84B
S2140055200520A3730821073393FBF1F303FB125303
S214005530E273C4F8063003B0F0BD13B5044602A803
S21400554040F8041D00682060A17801F00F01A170EA
S2140055500021E17003F00F01C3F341131170537083
S21400556002B010BD043808282CD8DFE800F0050784
S2140055700A0C1014191F2500012300E002230B70EB
S21400558070470323FBE701230B70042306E0022386
S2140055900B70052302E003230B7006234B70704745
S2140055A001230B7004234B7007230AE002230B70C1
S2140055B005234B70082304E003230B7006234B706F
S2140055C009238B7070472DE9F84F9A469DF83830BE
S2140055D00C9C9DF834B005468946904613B10A9B4C
S2140055E01E8A01E00A9BDE8900274745FAB229D0C9
S2140055F02978914200D13AB96978914200D11AB916
S214005600A97891420ED16AB10A9B2278588A0B9BE0
S21400561002EB02121A44C0B24946FFF760FF227836
S2140056200132227022780B9B0AEB0B0102EB02126E
S214005630C95D1A44F0B2FFF752FF22780132227099
S2140056400137D2E7BDE8F88F2DE9F0470F4601781D
S21400565088B0144601F007020023012A8146119DF6
S214005660DDF84880139EADF81C308DF81E3057DCF0
S2140056709DF840A043780AF1010AC4EB0A0A19070C
S2140056805FFA8AFA03D5504607A9FFF76BFF002397
S214005690049307A8332152463B46CDF80080019676
S2140056A002950394FFF78FFF2A7811236FF01001FD
S2140056B013FB02123244D07B149A10702A7813FB24
S2140056C0021333449A7B159B1A7099F801305A07D7
S2140056D00CD52A78B8F8120002EB0212C0B23221BA
S2140056E03244FFF7FCFE2B7801332B70002499F828
S2140056F00030E2B25B099A4266DAC3F10B03134448
S2140057002A78B8F81000DBB202EB0212F95CC0B2DD
S2140057103244FFF7E4FE2B7801332B700134E6E7C2
S21400572001F00701C4F10B020229D2B227D1437857
S2140057309B0714D0072A08D13B19302203F8012C06
S214005740C4F10C02631ED2B2DCB202238DF81C3008
S21400575004238DF81D3000238DF81E3005E0042349
S2140057608DF81C3006238DF81D300123CDF80080FF
S214005770019602950394049307A8342121E0D9B238
S214005780C2F10600814203F1010304DA601E411AE9
S21400579030207854F3E702238DF81C300423641A73
S2140057A08DF81D3000230A448DF81E30E4B2012324
S2140057B0CDF80080019602950394049307A835213E
S2140057C0D2B23B46FFF7FFFE08B0BDE8F087000008
S2140057D02DE9F04FADF56B7D15AE044600214FF474
S2140057E0AA72304605F014FDB84B0DF5D4795878FA
S2140057F061024A464FF40073FBF7E2FD4FF00008E3
S2140058000DF125050024B8F5017F2C7000F0958178
S21400581009EB080339F80800D3F8023006934FF670
S214005820FF73984200F08981C0B2FFF74BFE0FAFBE
S21400583001463A4618230A20FBF7C2FD0BA87969F1
S214005840D7F802300AAAFFF778FE9DF82D20069BAF
S21400585002F03001202901BF64F382028DF82D206A
S2140058609DF82C2064F3471208BF8DF82C209DF875
S2140058702D209DF82C4023F0004A0CA8C2F380038C
S214005880FF210C22079305F0C3FC002264098DF863
S2140058903B20BAF1000F00D124B14FF00A0B53465B
S2140058A05A4618E030228DF83A204FF00A0B0922AB
S2140058B031E0C4B90A210FFA82FEB3FBF1F00DF114
S2140058C0300C01FB1031013A303192B20CF80E1058
