S0120000647574796379636C655F322E7333377B
S11300000080002099010000C5010000C501000026
S1130010C5010000C5010000C5010000C5010000C4
S1130020C5010000C5010000C5010000C5010000B4
S1130030C5010000C5010000C5010000C5010000A4
S1130040C501000085460000C5010000914600007E
S1130050D9460000A94600009D460000CD46000098
S1130060C501000049220000AD2F000075250000E5
S1130070C5010000C5010000C5010000C501000064
S1130080C50100006D220000C5010000C50100008B
S1130090C5010000C5010000C5010000C501000044
S11300A0C5010000C5010000C5010000B5460000FF
S11300B0C1460000592C0000C5010000C501000024
S11300C0BD5C0000C501000010B5054C237833B9B0
S11300D0044B13B10448AFF300800123237010BD17
S11300E08001002000000000B0C40000084B10B5DF
S11300F01BB108480849AFF300800848036803B9F6
S113010010BD074B002BFBD0BDE81040184700BFC3
S113011000000000B0C40000840100207801002029
S113012000000000154B002B08BF134B9D46A3F5A0
S1130130803A00218B460F461348144A121A06F0DF
S1130140C5FF0F4B002B00D098470E4B002B00D05F
S113015098470020002104000D000D48002802D01B
S11301600C48AFF3008006F065FF2000290000F082
S113017035FB06F055FE00BF00000800008000209B
S1130180000000000000000080010020681400202E
S11301900000000000000000064880470649074AA6
S11301A0074B9A42BEBF51F8040B42F8040BF8E720
S11301B0FFF7B8FF49020000BCC4000000000020A3
S11301C07C010020FEE700BF0048704700F04902B0
S11301D00D4AD2F8943003F00703032B0AD0042B02
S11301E003D0022B03D1094B02E0094B00E0094B79
S11301F0186801E04FF40040D2F80031C3F304233F
S11302000133B0FBF3F0704700400E4000000020C3
S1130210040000200800002008B5FFF7D9FF054BB3
S1130220D3F80831C3F308230133B0FBF3F0024BD6
S1130230186008BD00400E40040F0020014B1868F0
S1130240704700BF00000020034AD2F8883043F40E
S11302507003C2F88830704700ED00E04FF40040AE
S113026070474FF47A707047014B1868704700BFAD
S11302700400002073B504460D46164642B106F04C
S1130280C9FD0022026001A9204607F087FE10E0A4
S113029006F0C0FD01A906603246204607F008FFBB
S11302A0ED000123AB40013B0340834201D0002019
S11302B00CE006F0AFFD0368002BF8D1204607F0F0
S11302C0DFFD019B1B1B1B1A5842584102B070BD35
S11302D000210A4607F0ECBE733904290FD8DFE881
S11302E001F0070E05030A00022105E0012103E0E5
S11302F00421012201E004210022FFF7BBBF0020FA
S1130300704700002DE9F04F87B0824602A80D46E1
S113031002F092F8814603A802F096F8D5F804B0EA
S113032070490746584607F07FFDDDF80C80044607
S113033010B10024264625E06B482968029E07F088
S11303408FFB6A4807F08CFB44450AD014B1684817
S113035007F086FB57F83410664807F081FB013438
S1130360F2E7654807F020FC644807F01DFC002410
S1130370B44200F0B38059F83410614807F070FBC0
S11303800134F5E744450DD007EBC40357F83400B6
S11303900193594607F048FD019B0134002808BF2A
S11303A01E46EFE726B92868564A50215B4666E0A8
S11303B0D5F80880544C4146204607F035FD0746E1
S11303C0A8B9BAF1040F03D02868504A51211BE0A0
S11303D0E8687721FFF780FF0028F5D0E8680494E7
S11303E08DF81470FFF774FFADF8160029E0484C3F
S11303F04146204607F018FD074620BBBAF1050F19
S113040005D02868434A532103F01AFC66E0E868E3
S11304107521FFF761FF0028F3D028697521FFF7E4
S11304205BFF0028EDD00123E8688DF814300494B4
S1130430FFF74EFF8DF817002869FFF749FF8DF885
S1130440160004AC22E03448414607F0EDFCC8B184
S11304500027DDF808A03C4657450BD059F8370073
S1130460414607F0E1FC09EBC70B002808BF5C46D6
S11304700137F1E74CB92868284A5421434603F070
S1130480DFFB2BE00127044600E00027244801217C
S113049000F0FCFC0022B079F179134601F07CFCF9
S11304A047B1307901F0D8FF28681E49326803F05B
S11304B0B5FB13E023792BB130797179E279A37913
S11304C001F0D2FFB079F1790422002301F064FC39
S11304D0286815493268236803F0A0FB07B0BDE81B
S11304E0F08F00BF05A800000AA8000027A800009C
S11304F02EA80000E9A7000031A800003CA80000D5
S113050076A800007CA80000B4A8000097A800000A
S1130510DCA80000BFA8000013A90000E7A80000A1
S11305200025080005A9000017A90000062802D12B
S11305300122044B03E0072802D1034B01221A7065
S1130540704700BFA4010020BC01002030B5104D4D
S113055091B0044603F098FA0E4803F0A7FA28462F
S113056003F0A4FA40210C4A2346684607F0E6FB50
S1130570684603F09BFA284603F098FA074B53F8B1
S1130580240003F093FA03F07DFA11B030BD00BFEC
S113059026A8000058A900006DA900000C00002046
S11305A010B590B003F070FA3A483B4C03F07EFA71
S11305B03A4803F07BFA3A4803F078FA394B227848
S11305C053F8220003F072FA344803F06FFA2378E8
S11305D0B3B9354803F06AFA344B354A1B684021F5
S11305E0684607F0ABFB684603F060FA2B4803F05B
S11305F05DFA304803F05AFA684640212E4A3BE03F
S1130600012B17D1284803F051FA2C4B2C4A1B68B4
S11306104021684607F092FB684603F047FA1F48FA
S113062003F044FA234803F041FA68464021254A7E
S1130630254B22E0022B29D11B4803F037FA234B28
S1130640204A1B684021684607F078FB684603F09F
S11306502DFA1F4B1F4A1B684021684607F06EFBAA
S1130660684603F023FA0D4803F020FA114803F01A
S11306701DFA194A68464021184B1B6807F05EFBB7
S1130680684603F013FA054803F010FA03F0FAF988
S113069010B010BD58A90000B401002026A8000025
S11306A077A900002800002088A90000C8010020C4
S11306B097A90000A5A90000B4A90000A801002082
S11306C0C2A90000D1A900009C010020A0010020C3
S11306D0CC010020DEA90000ECA90000AC01002040
S11306E0022810B5044608D104F0DAFF08B104F07A
S11306F09DFF114802F0E0F803E00F4B186802F088
S11307002DF90E4B01221A700D4A002313700D4A65
S113071014700D4A13600D4A13600D4A13600D4A9C
S113072013600D4A13600D4A13600D4ABDE8104072
S11307301360FFF735BF00BF200F00201400002016
S1130740BD010020B4010020C8010020A001002048
S1130750CC0100209C010020A8010020C001002041
S1130760AC01002010B50A4C2378032B04D0062BCF
S113077004D04BB9032305E0002303E03C2002F03E
S1130780BBF80423237010BD0020FFF7DFFEFEE753
S1130790BD01002070B5104B93E807008AB001AE8C
S11307A086E8070003F10C0207CA183304AD85E894
S11307B0070093E8070007AC84E8070031460320EC
S11307C0FFF7A0FD29460320FFF79CFD03202146E7
S11307D0FFF798FD0AB070BD28A90000AB4BDB6C95
S11307E01B0E8E2BF7B515D8A949AA4AD1F8B0002B
S11307F040F00403C1F8B0304FF05013136013639A
S11308001366C2F89030C2F8C030C2F8F030C1F8B4
S1130810B00001E08F2B06D19D4AD36A23F07F03F9
S113082043F02003D36201F033FD01219A489B4F2A
S113083000F02CFB042000F0EFFA05200621022230
S1130840012301F0A9FA022201230520072101F066
S1130850A3FA03F0F9F801F0D1FC0620904901F065
S1130860DBFC07208E4901F0D7FC012406210A464F
S1130870052000230094019401F042FA07210A465E
S1130880002305200094019401F03AFA854804F00D
S113089073FF3D6804F07CFF834B53F8250004F09C
S11308A055FC824B53F8250004F022FC064618B18F
S11308B02046FFF74BFEFEE77D4B53F8250004F07E
S11308C021FC314676203D6004F0A2FFFFF762FF71
S11308D0FFF766FE72B6774D774C2B685A1C1CBF27
S11308E001332B60754B1878A8B100221A70744B31
S11308F01B7823B92378042B29D0042309E0012B86
S113090025D12378052B22D06E4A13680133136056
S1130910052323701BE06C4B1A78C2B1187023783E
S11309205A1E012A13D9043B022B10D9644B1B789D
S11309300BB9012005E0012B01D1022001E0022BBB
S113094002D1FFF7CDFE02E0FFF700FEFEE72B68C1
S113095023B1584A013B136003B962B65B4B22785A
S1130960197891425A4902D108780028B2D000205F
S113097008705349097800294AD11A7004F090FE8E
S113098008B104F053FE2378042B3DD801A252F899
S113099023F000BFA9090000C5090000D508000024
S11309A0CB090000E3090000012140F6485004F09F
S11309B04DFE04F0EDFE474A136923F0040313616E
S11309C030BF87E742F2107007E004F0E1FE424BCB
S11309D0187804F02AFF4FF4C860012104F036FEB1
S11309E078E73E4C3E4B236000251D701023A38006
S11309F004F0CEFE204604F031FF374B2946187828
S1130A002A4604F04AFF65E70020FFF79FFDFEE752
S1130A10022940F08380334E334D1A7028683146E2
S1130A2002F012F8337813B1286802F0F5F823784D
S1130A30062B6FD8DFE803F0046E6E121D6E6000A3
S1130A400021009140F6C412284B286802F022F8D5
S1130A5004F09EFE012000F007FF39E704F098FE41
S1130A601D4B187804F0E1FE0021009128680F2244
S1130A704CE01F4A1A4B1F4C12681A702360102353
S1130A80A38004F085FE20466DE000BFB081E00F36
S1130A9000400E4000A0004000250800B8010020DE
S1130AA02D0500004CA90000D001002034000020D6
S1130AB038000020F0010020BD010020A401002026
S1130AC0B40100209C010020BC010020C4010020CE
S1130AD01400002000ED00E0B0010020100F002001
S1130AE015000020240F0020200F002065070000BF
S1130AF0A0010020080F002004F04AFE204B1878C3
S1130B0004F093FE0021009128681E221D4B01F081
S1130B10C1FFDDE60020FFF719FDFEE701297FF4A0
S1130B20D9AE1A7004F0BCFD08B104F07FFD23783F
S1130B30032B05D0052B0ED0F3B904F029FEC7E62C
S1130B400121114804F082FD04F022FE0C4B1878B8
S1130B5004F06BFEBCE60D4A0D4B0E4812681A7089
S1130B6003601023838004F079FE054B002118787C
S1130B700A4604F092FEABE60020FFF7E7FCFEE72E
S1130B80B001002065070000F04902009C0100202C
S1130B9015000020180F002008B50D4B1B78012B01
S1130BA002D100220B4B0CE08BB90A4B1A78042AB1
S1130BB009D8DFE802F0030508050500032200E078
S1130BC000221A7008BD0020FFF7C0FCFEE708BD34
S1130BD0B4010020BD010020164B1B783BB9164917
S1130BE00A6801320A60154A1370FFF7D9BC012B59
S1130BF011D1134911480A68952ADDBF01320A60F0
S1130C0005220023D9BF02700E4A0B600323D4BF10
S1130C10137003707047022B0AD1074A136801331B
S1130C201360094A136801331360044B00221A70DD
S1130C30704700BFB4010020AC010020BD010020BA
S1130C40C001002014000020CC010020084B1B78B8
S1130C50012B05D1074B1B68952B07DC052203E00C
S1130C6010F0060F02D00022034B1A70704700BF29
S1130C70B4010020C0010020BD01002008B5174BBD
S1130C801B784BB916490A6801320A60154A137079
S1130C90BDE80840FFF784BC012B0BD1124A837ACC
S1130CA012689A4201BF114A13680133136000228B
S1130CB00C4B10E0022B0FD10D4B827A1968914234
S1130CC018BF1A600B4B186801F0A6FF054B0622EB
S1130CD01A70094B01221A7008BD00BFB40100202C
S1130CE0C8010020BD0100209C010020A8010020B3
S1130CF0A0010020200F00201400002008B5124B92
S1130D001B7893B9820741BF104A01231370104A1C
S1130D1048BF1370430742BF0D4B02221A7010F0F4
S1130D20700F10D000220A4B0CE0012BF7D0022BDD
S1130D3009D1084B186801F06FFF054B06221A70A1
S1130D40024B01221A7008BDB401002014000020D7
S1130D50BD010020200F002000487047280F00200C
S1130D600844704770477047704770477047704732
S1130D7070470000002008B501460422012301F059
S1130D800BF801210A460B46002001F005F8042265
S1130D9001230020052100F0FFFF054A03235367C8
S1130DA0936F23F4F85323F01F03936708BD00BF28
S1130DB00000014030B5114D0FCD87B06C460FC413
S1130DC095E803000E4B84E8030000241C600D4BDF
S1130DD00D481C60012100F059F80C48012100F075
S1130DE055F80B48012100F051F80A48694601F012
S1130DF06DF9FFF7BFFF204607B030BDA0AC00007F
S1130E00D4010020D801002040410500002508003D
S1130E10002204000000014008B5430701D5FFF794
S1130E20C9FF002008BD00000B4B0C4941F671328C
S1130E3010B51C6C1A645A68094A02448A4294BF69
S1130E404FF0807100215A6822F040720A435A60C0
S1130E500CB100221A6410BD00000E407F9FD50023
S1130E607F4573FE08B5FFF7AFF9BDE80840FFF70B
S1130E70DBBF0000044BD3F84421D20703D4D3F8DA
S1130E8040211042FBD1704700400E40C0F30322C2
S1130E90013A70B503460E46092A26D8DFE802F067
S1130EA018082525050B0E25111500200F4C11E0FF
S1130EB000200F4C0EE001200E4C0BE010200E4CD5
S1130EC008E04FF480300D4C04E000200C4C01E0AD
S1130ED00C4C0020C3F3043508B1FFF7CBFF04F139
S1130EE0047405EBC404A400266070BDB0400E4039
S1130EF0C0400E40E0400E40E8400E40F0400E403E
S1130F0050410E4000400E40C0F30313013B062B3A
S1130F1034D8DFE803F004080E14181E2700184B19
S1130F20D3F8000102E0164BD3F81401C0F30420F7
S1130F307047134BD3F80001C0F300607047104BA7
S1130F40D3F80C0102E00E4BD3F80801C0F30820DB
S1130F5070470C4B984211D1094BD3F8203103F060
S1130F600F0307E0084B984208D1054BD3F828310A
S1130F7003F00303012098400138704700207047B4
S1130F8000400E40600612007007140008B5FFF719
S1130F90BBFF013008BD000000F00F000138052838
S1130FA035D8DFE800F0030D1734222C1B4BD3F89F
S1130FB0943003F00703023B022B2AD8184A12E0AC
S1130FC0164BD3F8803003F00703013B032B22D8E0
S1130FD0144A08E0114BD3F8843003F00703013BB3
S1130FE0032B18D8104AD05C70470C4BD3F88830C8
S1130FF003F00703013B032B0DD80C4AF3E7074B1F
S11310001B6F13F0010F14BF082007207047002046
S11310107047052070470120704700BF00400E4014
S1131020B8AC0000BBAC0000BFAC0000C3AC000017
S113103010B50446FFF7B0FF1B4B9C4209D01B4B75
S11310409C420AD01A4B9C420CD11A4BD3F8800014
S113105006E0184BD3F8840002E0164BD3F888005E
S113106000F00700013803281CD8DFE800F002066E
S11310700E0ABDE81040FFF7F1B8BDE81040FFF7D5
S1131080F3B8BDE81040FFF7ECB80A4BD3F80031D1
S1131090DB0103D5FFF7C0F8800810BDFFF7BCF8EB
S11310A0400810BD002010BD03001A0005001E00FA
S11310B00200180000400E4000F47810B0F5602FD4
S11310C008B566D017D8B0F5802F32D00AD80028DA
S11310D05BD0B0F5003F5FD1FFF77AF82F4BD3F820
S11310E008312BE0B0F5202F2BD0B0F5402F45D0A0
S11310F0B0F5002F48E0B0F5A01F32D00ED8B0F5FF
S1131100801F27D0B0F5901F46D12548FFF790FFE8
S1131110224BD3F8202102F00F022AE0B0F5D01FB1
S11311201DD0B0F5F01F15D0B0F5C01F34D11C4848
S113113011E0FFF74DF8194BD3F80C31C3F3082332
S113114006E0FFF745F8154BD3F81431C3F3042335
S1131150013310E01348BDE80840FFF769BF1248A7
S1131160F9E71148FFF764FF0C4BD3F8282102F08C
S1131170030201239340B0FBF3F008BD0B48FFF7D3
S11311800BFF072805D0082806D1BDE80840FFF763
S11311901FB8074B186808BD002008BD00400E406A
S11311A00200180005001E0003001A0006000C00CF
S11311B048000020C0F30313013B70B50C46072B15
S11311C000F29380DFE803F004151F2935566E8280
S11311D0464E474DFFF746FE012333602B60454BD7
S11311E0D3F8001121F4F85141EA0424C3F8004172
S11311F031E0404BD3F8141121F4F85141EA0424AE
S1131200C3F8144170BD3B4BD3F8001121F0807139
S113121041EA0464C3F8004170BD364BD3F80C11A5
S113122021F4FF3121F4807141EA0421C3F80C1147
S113123070BD2E4E2E4DFFF715FE012333602B603B
S11312402C4BD3F8081121F4FF3121F4807141EAC9
S11312500421C3F80811FEF7DFFFFFF7E5FD264878
S1131260FFF72AFF254B984294BF002001203060ED
S1131270286070BD224B98422BD0224B984200D05C
S113128070BD0420FFF7F6FD1A4AD2F8203101346C
S113129023F00F03B4FA84F4C4F11F041C43C2F80E
S11312A0204170BD184B98421FD14020FFF7E2FD4A
S11312B0104AD2F82831013423F00303B4FA84F439
S11312C0C4F11F041C43C2F8284170BD0C4B984262
S11312D00BD14FF48020FFF7CDFD064BD3F830112E
S11312E021F00F010C43C3F8304170BD4000C843E6
S11312F06020C84300400E40000508000048E80193
S11313008009100060061200700714000139FFF70D
S113131051BF00000138032843D8DFE800F0022B56
S1131320111EC1F308011F4B1B68002BFBD11E4A81
S1131330136A23F4FF7323F0010319431162704706
S113134001F07F01194B1B68002BFBD1164A13696E
S113135023F07F0319431161704701F07F01144B9F
S11313601B68002BFBD1104A936923F07F031943B8
S1131370916170470C4AD2F89030536A23F03003DD
S113138043F010035362C1F3C31303330F2B28BF7D
S11313900F2341EA0371074B074A1A6003F10073F4
S11313A0196070476828C84300400E406028C8434D
S11313B06428C84330400E44FF0700F00F4B1B68FD
S11313C013F0300F06D0202907D0302902D009B1FC
S11313D00B4B04E04FF4400301E04FF400030949D0
S11313E0D1F890201A409A42F9D15B0246BFD1F855
S11313F0A000C0F380200120704700BF24400E40AD
S1131400FF03C10700400E4002280AD129B1064B50
S11314104FF48060C3F8A800596612B10220FFF7A8
S1131420CDBF0120704700BF00400E40F8B504282E
S113143075D8DFE800F008030F296F0080264024E8
S11314400623072524E04FF400764FF48074082324
S113145009251DE0002952D031494B6A13F0300FA1
S113146009D14B6ADB070AD54B6A23F0300343F0FA
S113147010034B6203E00424022303250AE004243E
S113148002230325012606E0012402260023254623
S1131490002936D0002622490C66224919448900C5
S11314A00B68002BFCD01AB9BDE8F84000F012BA62
S11314B01C4B2B449F003B68002BFCD00228F3D12B
S11314C0002EF1D0164D696A11F0010104D02021DB
S11314D00122FFF799FF01E0FFF770FFD5F89C6048
S11314E0022000210122FFF7A1FF0220C6F30A0116
S11314F0FFF710FF2C663B68002BFCD0D4E70826CE
S11315000223074A1666074A1A4492001368002BFE
S1131510FCD1C9E72026102404230525B8E7F8BD2B
S113152000400E408004F21000F00F00013810B5A6
S1131530042870D8DFE800F003743F6F76000239A6
S1131540032971D8DFE801F01802050F01200324F4
S113155014E0364A0123136002F5005220320220BF
S1131560136004460AE0314B01241C6003F5005368
S1131570203303201C6001E00020042401210A46DA
S1131580FFF754FFFFF76EFC294B2A485C67FFF70F
S113159093FD294B9842254B94BF002001201860ED
S11315A003F500532033186000F094F9FEF734FE7D
S11315B0FFF73AFC2FE0214C0139082934D8DFE841
S11315C001F028070E33331533330500042321E0DB
S11315D0012100200A46FFF729FF02231AE0012017
S11315E001460246FFF722FF012313E0FEF714FE33
S11315F0114B98420D4B94BF00200120186003F555
S1131600005320331860A3F5266301221A600323D4
S113161000E000232360054B1B68094B1B6810BDC9
S1131620084CC9E7084CC7E710BD00BF4000C843D9
S113163000400E40000508000048E80184400E40C8
S11316406020C84380400E4088400E4010B50446D8
S11316501120FFF7A1FC002101220220FFF7E6FE82
S11316602378227C002B14BF4FF480730023022ABA
S113167008BF43F001031E4A40F20111116002F158
S11316800072072113601B4BE27A196003F10073A7
S113169019491A60637AA28843EAC223174A11607F
S11316A002F100721360237AE288D91CDB0143EA59
S11316B0C223A27A0F2928BF0F211343104A43EAF9
S11316C001736FF07F61116002F100720D491360C4
S11316D0637B227B1B0343EA0243E27B1343A27B2B
S11316E043EA0213084A116002F10072136010BD4C
S11316F024400E4428400E447FF80F002C400E4432
S113170030400E44FFF00F0034400E44214B45F6A8
S11317100E02D3F88011C3F880211F4A106840F2EA
S1131720551202401A661D4A128802F00702032A63
S113173001F0010104D0042A0BD0022A23D10EE0C7
S11317405A6A92001FD4D3F890201006FBD50322C6
S113175017E0D3F890209205FBD5042211E00D4B3D
S1131760D3F890301B07FAD50D4B1B6813F0300FDC
S113177006D10C4B1B6803F44003B3F5400FF8D1BA
S11317800222044B5A6719B1024B0022C3F880218C
S1131790704700BF00400E40E8010020E601002031
S11317A024400E4090400E401848194BC26C1B88D0
S11317B0C2F303222833013202EB820103EB6303F9
S11317C0B3FBF1F3C16C013B072B21F0EE6128BFA1
S11317D0072341F4801141EA0363C3640D4BB3F959
S11317E00030002B10DB2833510001EB520203EBD5
S11317F06303B3FBF2F3026D072B28BF072322F028
S1131800700242EA03130365704700BF00300E40C4
S1131810E4010020DE010020084B1A78012A0BD1D4
S1131820074A126C02F00302012A03D1054A126826
S1131830D203FBD502221A70704700BFEC010020CE
S113184000300E407C300E40054A064BD16C1960C6
S1131850D36C23F47F4343F4EE43D364FFF7A4BF74
S113186000300E40E001002038B5144B144AD3F880
S113187090101160D3F89440124A134BA4B21C8008
S1131880136943F0040313610546FFF7DDFFFFF717
S1131890C3FF30BF0D4B1A680D4BDA64FFF784FFAA
S11318A01DB1BDE83840FFF731BF04F00704012C37
S11318B003D0BDE83840FEF7AFBC38BD00400E4051
S11318C0E801002000ED00E0E6010020E001002036
S11318D000300E40044B054AD3F890101160D3F841
S11318E09420034B1A80704700400E40E80100200A
S11318F0E6010020074A936FDB07FBD4011C064B6B
S113190018BF01211960136C23F0030318431064FA
S1131910704700BF00300E40B40AC6436A4B2DE93D
S1131920F74F9B6B019203F00F03022B804601D00B
S11319300020C6E0A0F5E163B3F5966FF8D8002265
S11319401446134649B901990124002900F09D80E9
S1131950DFF87CA14FF0080903E0DFF878A14FF02D
S11319600109B8F5E16F94BF00200120574948B13F
S1131970002C40F08F8040F6B83C4FF4E1654FF006
S1131980010E07E0002C40F091804FF4E16C4FF41D
S11319909665A6464C4EDFF840B1F66C06F040560C
S11319A04EEA06075F4521D008D8012F1BD026D365
S11319B0B7F1805F2BD1D1F86C3125E0DFF81CB191
S11319C05F4516D005D8B7F1005F20D1D1F870314A
S11319D011E0B7F1405F15D0DFF804B15F4516D1CF
S11319E0D1F8783110E0D1F8743104E0D1F87431D1
S11319F00AE0D1F87831C3F30722DBB207E0D1F86B
S1131A006C31F8E7D1F870311A0EC3F30743096D4E
S1131A102E4FC9B2032903D8D7F87C1148B10AE084
S1131A20360F022ED7F8801108D0032E09D0012ECC
S1131A3001D0C9B206E0C1F3072103E0C1F30741B5
S1131A4000E0090E090311F4702F7FF471AF1E4EEC
S1131A50F06E20F4704001436545F166BFF468AF51
S1131A60C5EB0800D11A4143C5EB0C05B1FBF5F5F4
S1131A701D4495423FF65CAF9D42FFF459AF05FA11
S1131A8009F545EA0E05CAF80050002C3FF45BAF97
S1131A90204616E0D1F8683140F6B83C1A0E4FF4EF
S1131AA0E165C3F307434FF0020ED9E7D1F868317B
S1131AB04FF4E16CC3F307224FF49665DBB286461C
S1131AC0CEE703B0BDE8F08F00300E40B081E00FE8
S1131AD05C300E4064300E40010000100100002014
S1131AE001000030194B1A6FD96CC90702F00702C4
S1131AF006D5012A04D9132818D91438132811E05B
S1131B00DB6CD90706D4012A04D809280ED90A386F
S1131B10092807E00D4BDB6C13F0010309D0012AFF
S1131B2006D827288CBF1023082302E0042300E0F2
S1131B3000230648013BC26C190341EA032322F443
S1131B407F421343C364FFF72FBE00BF00300E4033
S1131B50054A064B1B68136F23F007031843044B15
S1131B6010671888FFF7BEBF00300E408009C643D7
S1131B70DC010020524B027873B59A639B6B03F02F
S1131B800F039342044601D0002595E04D4ED6F84C
S1131B906C3101331DD04C4B1A68043B1B681A602E
S1131BA04A4B1A68043B1B681A60494B1A68043B89
S1131BB01B681A60474B1A68043B1B681A60464B43
S1131BC01A68043B1B681A60444B1A68043B1B6880
S1131BD01A60E3884A2B0BD9B3F5FA7F0AD340F68F
S1131BE0C312934294BF4FF000534FF0405303E0AD
S1131BF0002301E04FF08053314DB4F90C00E96C3F
S1131C0021F0405222F001020028A8BF42F0010254
S1131C101343EB64EB6E43F08073EB660420FFF731
S1131C2097FF2B6E23F0C0432B66EB6C43F0060347
S1131C30EB64F56C01A8C5F3074500F031F9A5F193
S1131C4010030B2B03D905F0FD05512D17D19DF879
S1131C500500012813D19DF80430022B0FD8204928
S1131C600B7863B91F4A164D136843F001031360E0
S1131C702B6E1D4A1A401D4B13432B6608701C4BD8
S1131C80218919801B4BA2891A801B4BA0881880BC
S1131C90FFF728FF012160880A46FFF73FFE05464B
S1131CA000283FF471AFA37A144A6078003318BF58
S1131CB001231360FFF71EFE284602B070BD00BF6B
S1131CC000300E40B081E00F3C80E00F4480E00F14
S1131CD04C80E00F5480E00F5C80E00F6480E00FE4
S1131CE0EC01002044300E40000F0EF0B4C0400B55
S1131CF0E4010020DE010020DC0100209407C6433B
S1131D00072930B54FF00F0406D88D00AC40A84029
S1131D10194D2C60194C07E0A1F10805AD00AC4049
S1131D20A840174D2C60174C2060072A88BF083A3A
S1131D304FF0030401EA040097BF9200920094401C
S1131D40904085BF944090400F4A104A146002F1BD
S1131D50007210600E4A0A44920013609DF80C3021
S1131D60C2F8803001238B400A49C1F824349DF81D
S1131D701030C2F8003330BD00A4004400A4004673
S1131D8004A4004404A4004608A400440CA4004491
S1131D908020851000A00040F0B562B1302404FB1F
S1131DA000F51F4C2C4401EBC404A40013B101251D
S1131DB0256000E023603024444304F18044072973
S1131DC004F520440CD867684FEA810E0F2505FA04
S1131DD00EF527EA050602FA0EF5354365600CE0B8
S1131DE001F18045083DA768AD000F26AE4027EA03
S1131DF0060602FA05F53543A5607AB93022504348
S1131E0033B1074B034401EBC3018900012304E010
S1131E10034A024401EBC20189000B60F0BD00BF1C
S1131E200CA010428B784A789B0143EA82030A781B
S1131E301343CA7843EA02130A7943EAC2234A796C
S1131E4043EA02338A79043043EA42430001014AF7
S1131E501350704700200440014B1860704700BFC6
S1131E6000008442837842781B0143EA82030278AB
S1131E701343C27843EA4213027943EA02234279C4
S1131E8043EA0233827943EAC233C27943EA024322
S1131E90027A43EA4243014A136070470020044037
S1131EA00B4A536903F00F011369C3F3811343EA27
S1131EB081038370136903F03F034370936903F054
S1131EC0F001D369C3F303130B430370704700BFDE
S1131ED0D0FF0FE030B50C780CB902234360002327
S1131EE04362CB788A781B0443EA02630A7A134379
S1131EF08A7943EA8223CA7943EA02234A78002A88
S1131F0014BF4022002213434A7A002A14BF8022BD
S1131F10002213438A7A002A14BF2022002213438A
S1131F20CA7A002A14BF1022002213430A79002A15
S1131F304A7914BF4FF400550025002A43EA0503EB
S1131F4014BF4FF0805200221A430B7B002B14BFA6
S1131F5008230023134303600CB10123436030BD05
S1131F60537810B514781B0643EA846394792343A9
S1131F70947843EA0443D47843EA0433147943EA73
S1131F808423547943EA0423D479002C14BF4FF0FA
S1131F90804400242343147A002C14BF4FF00054CF
S1131FA000242343547A927A002C14BF1024002472
S1131FB00631002A43EA040314BF04220022090163
S1131FC01343435010BD000070B5044616461D4629
S1131FD019B91448FFF770F80146202D07D001D82D
S1131FE05DB170BD402D04D0602D04D070BD0822B9
S1131FF004E0062202E0042200E01022236823F019
S11320006003236072434901236801EB5201B1FB71
S1132010F2F20549203AD20011401D432560616166
S113202070BD00BF40410500F8FF7F00F8B50446CD
S1132030154619B90E48FFF73FF80146C8012A466C
S11320400023490E04F018FCB0F1800641F1FF377B
S1132050310A41EA076107480A02024004F1140008
S113206000F1806300F1C060024919600260F8BDAC
S113207040410500F8FF7F00CB4303F005035B00FC
S1132080C360C1607047000040F6AA63C36041F2B8
S11320900502002303604260094A83604361C3640C
S11320A08264084A436790428367C36708BF036535
S11320B08365054B984204BF0023C365704700BF86
S11320C0F9FF0100000001400004014038B50C464E
S11320D00546FFF7D9FFA37C1BB12B6843F080436F
S11320E02B60E37C1BB1237D43F08003AB65637BF2
S11320F0228A61681A43E38913436B60A268237BD5
S11321002846FFF761FFE37D1B0503F4E002A37D8E
S11321101B0703F0E04313432B66637D1BB12B685D
S113212043F480332B602378EB6038BD38B50C461C
S11321300546FFF7A9FF238AA27B296843F0010320
S1132140002A9BB214BF4FF4806200220B43134356
S1132150227D2B602B68002A14BF4FF0005200220E
S113216013432B60A37C1BB1E37C43F08003AB657A
S1132170237B6168A26843F480536B602846FFF7B1
S113218055FF637B0BB11023EB60E37D1B0503F468
S1132190E002A37D1B0703F0E04313432B66637D3A
S11321A01BB12B6843F480332B602378EB6038BD7C
S11321B003691B06FCD5C069C0B2704703695B069E
S11321C0FCD54163704703695B06FCD5C163704766
S11321D010B5044674B194FAA4F0B0FA80F0012367
S11321E0834024EA0304044B53F82030002BF1D03D
S11321F09847EFE710BD00BFF4010020054B4FF4F2
S11322000032C3F880211A604FF40072C3F88021B1
S11322101A60704700E100E072B6094B1A68B2F127
S1132220FF3F1CBF01321A601B68064A42F82010A7
S113223023B1034A013B136003B962B6704700BF80
S1132240F0010020F4010020074AD2F82804D2F853
S11322501C34184020F42A5020F02A004004400C7A
S1132260C2F82404FFF7B4BF00A00040074AD2F824
S11322702804D2F81C34184020F4AA4020F0550059
S11322800004000CC2F82404FFF7A2BF00A0004021
S113229008B500F019F800F019FEBDE8084000F098
S11322A075BB82B000EB40000021CDE90001DDE9FF
S11322B0002312F1FF3043F1FF311343CDE9000154
S11322C0F5D102B070470000F0B54F4B91B002AAAF
S11322D003F10805174618685968144603C40833FF
S11322E0AB422246F7D118689B88A380474B2060F5
S11322F006AA03F11005164618685968144603C463
S11323000833AB422246F7D11B882380404C0FCCC4
S11323100BAD0FC523682B603846FFF72BFC304606
S1132320FFF794F90BA801F0BBFF11200421FFF77C
S1132330FBF800210A460320FFF778F854F8040F4D
S1132340344D6168344C6B4603C3684601F05CFF4E
S1132350012002460146FFF769F830480321FFF7E0
S1132360E3F82F480321FFF7DFF82E480121FEF799
S11323708DFD2D480121FEF789FD2C480121FEF732
S113238085FD2B480121FEF781FD20462949FFF7F1
S1132390CDFE0B23636703F10B23A3670220062101
S11323A004220023FFF7F8FC022002460721002341
S11323B0FFF7F2FC0220082104220023FFF7ECFCC3
S11323C004210A4601230020FFF7E6FC002742F21D
S11323D01070FFF766FFAB2120462F60FFF7EEFE7B
S11323E001262046FFF7E4FE2E601E20FFF759FF6A
S11323F02046B9212F60FFF7E1FE2046FFF7D8FE03
S11324002E6011B0F0BD00BFC8AC0000D6AC000017
S1132410E8AC0000900114420004014002001800DE
S113242003001A00000508004041050000250800CB
S1132430003204001CAD000008B10523036001480C
S1132440704700BF7C00002008B1062303600148E8
S1132450704700BF4C000020024B03449B00002245
S11324601A6070474000F310F8B504460E4614484D
S1132470012117461D46FEF709FD1248204480003D
S11324800023036004F110020F4B45EA072543F8CB
S11324902250A208103304F0030453F82250E4003D
S11324A0FF21A14025EA010143F8221053F82250EC
S11324B0A64046EA050143F8221001230360F8BD53
S11324C0003508004000F31000600E400020704703
S11324D0FEE74FF400534B60002070470120704723
S11324E000207047F8B50E468F180D46BD42A5EB87
S11324F0060406D000F0D0F8431C02D005F8010B06
S1132500F4E7002C14BF20464FF0FF30F8BD70B53F
S11325100E4615460C46A31BAB4204DA14F8010B15
S113252000F0F0F8F7E7284670BD000008B50D4B41
S11325301A680AB90C4A1A601A681318EFF308816A
S11325408B420BD9094B1B68986804F07DFC084941
S11325501922FFF7DCFF012004F062FC0149104658
S11325600B6008BD340200206814002030010020F4
S113257034AD0000104838B503691B061BD50F4C59
S11325802568FFF715FE0E4B585523680133236069
S11325900C4B1A6801321A602268082A04BF002210
S11325A022601B68082BC1BF064A00232360136006
S11325B0C4BF054A136038BD000001404402002036
S11325C0390200204C0200204802002030B52A487D
S11325D02A4D87B00121FEF759FC29480121FEF755
S11325E055FC0020014604220123FFF7D5FB0020FF
S11325F001210A460346FFF7CFFB0FCD6C460FC4FB
S113260095E80300042284E8030001230020052147
S1132610FFF7C2FB1B481C4C0121FEF737FC06A93F
S1132620002501F8185D2046FFF750FD032363677A
S1132630A36F164A23F4F85323F01F03A3674FF440
S113264000610423A364C2F88011E36C43F0040323
S1132650E364204611600521FFF70EFD0C4B1B6857
S11326602946986802222B4605F0E0FA094B01221C
S11326701A7007B030BD00BF4041050050AD0000E6
S113268000250800002204000000014000E100E0F1
S11326903001002041020020154B1B7810B50BB906
S11326A0FFF794FF72B6134B1A68511C1CBF01321A
S11326B01A60114A1168002910DD1049104C08688D
S11326C0205C0C6801340C600C68082C04BF0024E6
S11326D00C6011680139C0B2116001E04FF0FF30A5
S11326E01B6823B1034A013B136003B962B610BDF2
S11326F041020020F00100204C020020480200208A
S11327003902002038B50F4B1B7804460BB9FFF78C
S11327105DFF0D4B1A781D462AB10A2C03D10B48D4
S11327200D21FFF74BFD09482146FFF747FD2B78A4
S11327302BB10D2C03D105480A21FFF73FFD20469C
S113274038BD00BF410200203802002000000140D3
S113275072B6044B1A68511C1CBF01321A60186807
S1132760704700BFF0010020034B186818B101380E
S1132770186000B962B67047F00100202DE9F04FEF
S1132780254B03F1A00100225A711A79002A3ED088
S113279053E906894FF0000BCB4508BF404506D2EC
S11327A0B8EB000469EB0B0543E906452FE0DA7941
S11327B00AB91A7127E053E9046718EB060453F8C1
S11327C0086C53F8042C49EB0705241A65EB0B0538
S11327D0002E43E9064508DD3244F32A43F8042C6D
S11327E011D9013445F1000508E0921BF32A43F89E
S11327F0042C08D914F1FF3445F1FF3543E90645AB
S1132800F43A43F8042C1A680AB101225A712833A5
S11328108B42B8D1BDE8F08F7802002038B5074C60
S11328200025637F1BB1A369216A284698470135B7
S1132830042D04F12804F4D138BD00BF6002002047
S1132840F0B500214FF0FF324FF0FF33164C0C442B
S1132850257F3DB1D4E900459D4208BF94423CBF69
S113286022462B462831A029F0D1104900240C70AF
S11328705C1C08BFB2F1FF3F0C4614D000279F42F6
S11328800B496FF0640608BF9642086038BF3246B1
S11328900849042502440D6201234A6523704B6AEA
S11328A043F004034B62F0BD60020020500200209C
S11328B0040300200020044038B50546FFF748FF14
S11328C000230A49282202FB0312947F24B1013316
S11328D0042BF6D1064C05E01DB1012191772B6044
S11328E000E0044CFFF740FF204638BD60020020A2
S11328F0011000F0041000F013B54FF47A624FF4A5
S113290000410023E1FB0023104619464FF4FA521C
S1132910002303F0B1FF00236FF064028B4208BF71
S113292082420BD20C4B9C689A680092009A121B4C
S11329306632F9D9653041F1FF31ECE750EA010321
S113294007D0054B9C689A680192019A121B824237
S1132950F9D3002002B010BD00200440032838B58C
S113296004460CD8FFF7F4FE064B282202FB04347D
S113297000252577A577FFF7F7FE284638BD0248DE
S113298038BD00BF60020020021000F0204B70B57B
S11329901C78002C3AD101251E481D702946FEF7EB
S11329A075FA1D4E1D480221FEF7BEFD032329467C
S11329B01B483371FEF76AFA3046FFF753FA28468C
S11329C01849FFF72FFA184B18485A6A22F4FF6285
S11329D022F007025A6240F2FF721A62144A9C60A3
S11329E04FF00051C2F8801111605A6A2A435A62AA
S11329F02146A02204F06AFB0E4B1C700E4B1C7087
S1132A000E4B1C600E4B1C600E4B1C60002070BDF6
S1132A105102002000050800A400002005001E004B
S1132A2080091000AD000020002004406002002056
S1132A3000E100E0580200205002002000030020C2
S1132A405C02002054020020032838B504460D46D9
S1132A5013D8A1B1FFF77CFE0A4B282202FB0434F1
S1132A601834A3791BB9FFF77FFE074838BD2379D3
S1132A702B70FFF779FE002038BD044838BD0448A8
S1132A8038BD00BF60020020031000F0021000F007
S1132A90041000F02DE9F84F0328074689469246B2
S1132AA09B460A9E00F2A480FFF752FE524B282454
S1132AB004FB07349846A27F22B9FFF755FE4F481E
S1132AC0BDE8F88FBAF1000F0AD1BBF1000F02D0B4
S1132AD038463146D847FFF747FE0020BDE8F88F57
S1132AE0474B4FF47A609D68C4F818B04FF4004324
S1132AF00021E3FB0A014FF4FA52002303F0BCFE69
S1132B00B9F1010FC4E9020109D14FF47A7303FB4F
S1132B100AFAF42303FB10A323617A2363612823B5
S1132B2003FB078301301A4641F100011E62354B55
S1132B30E2E806011B7882F8079001241471002B47
S1132B40C9D1314C236801331EBF2368013323608C
S1132B502E4B1A789946B2B900272D4B6FF06406B4
S1132B608F4208BF86421D6038BF3046244B042282
S1132B7028441A6258655A6A42F004025A620123D0
S1132B8089F800302BE02368012B28D1282303FB8C
S1132B90078300261E771A4ADFF874A0536A23F0CD
S1132BA004035362DAF80000281AFFF7E7FDFFF781
S1132BB035FE26B9282303FB078301221A7728460A
S1132BC0FFF73EFE0E4BDAF800209D685B6DA91AF4
S1132BD09B1A99F8002001360AB19942DBD8236880
S1132BE0094A002B3FF477AF1368013B136072E787
S1132BF00848BDE8F88F00BF60020020031000F011
S1132C00002004405802002000030020500200204D
S1132C1004030020021000F0032838B5044612D83B
S1132C20FFF796FD094B282202FB04341834A379DC
S1132C301BB9FFF799FD064838BD00252571FFF73C
S1132C4093FD284638BD034838BD00BF600200200C
S1132C50031000F0021000F02DE9F041FFF778FDB9
S1132C60194AD2F8188018F0040F1FD0174B976830
S1132C70012119701E46144C154D636A23F0040398
S1132C8063622868381AFFF779FDFFF7C7FD3846F5
S1132C90FFF7D6FD2A68A768636DB91A9B1A0D4A17
S1132CA012780AB19942E6D80023337018F0010F64
S1132CB006D0054B01221A62074A136801331360D8
S1132CC0BDE8F041FFF750BD002004405802002049
S1132CD004030020500200205C0200202DE9F04F84
S1132CE0674A684C10685168127A87B003AB03C313
S1132CF01A70D4F8B030D80706D463480121FEF71F
S1132D00C5F84FF0010901E04FF000095F48FEF7F4
S1132D1043F9032107465D48D4F89060FEF704FCAC
S1132D205B48FEF733F9D4F8F0300190D90706F088
S1132D30400606D456480121FEF7A8F84FF00108D2
S1132D4001E04FF0000872B6524D2B685A1C1CBFAC
S1132D5001332B60504B1C6814F001044FF0000247
S1132D600FD0196800915C6A1A605A6240F2FF72CF
S1132D701A624A4B4FF00052C3F880214FF0010A07
S1132D8001E00094A24600238DF80E308DF80F3038
S1132D9003A808238DF81030FFF764F8404B4FF474
S1132DA080521A601A6852001A606AB13A4A9068EE
S1132DB0D2F808E038497045FAD08A6818680138B2
S1132DC0FDD889689142EDD01A6852081A601A68D1
S1132DD00920013820D052081ED019681143196007
S1132DE02D49D1F808B0D1F808C0DFF8ACE0E345CC
S1132DF0F9D02B49DEF808C0D1F800B0BBF1010BC3
S1132E00FCD8DEF808E0E6451EBFD1F800E02EEA63
S1132E10020EC1F800E0DCE72B6823B11D4A013B38
S1132E20136003B962B6BAF1000F08D018480199CB
S1132E30FEF76CFA184B009A1A605C6202E0504686
S1132E40FFF70AF8B8F1000F03D011480021FEF78C
S1132E501DF8032F03D00D483946FEF765FB26B94C
S1132E60012031463246FEF7E1FAB9F1000F03D0F2
S1132E7005480021FEF70AF807B0BDE8F08F00BF4F
S1132E8068AD000000400E400005080005001E006B
S1132E9080091000F00100200020044000E100E05F
S1132EA0B400002003460849002B0CD0013B8822C3
S1132EB01202003253430A68D80AD20A50438009E6
S1132EC001D00138FDD87047B400002010B588B097
S1132ED000210D2204A804F0F9F801240B2200219A
S1132EE001A88DF8104004F0F1F8022323488DF86E
S1132EF00A302146FDF7CAFF21484FF6FF73C3612C
S1132F00002101AAFFF72CF800238DF812301C4889
S1132F1004A9FEF7DFFF1B48FEF7CEF89DF8123038
S1132F20194AD8400133DBB20A2B10608DF81230F5
S1132F30144602D8154B9842E9D81548FEF7BCF858
S1132F402268144BB3FBF0F313480021E2FB0301A6
S1132F50124A002303F090FC114B094A1860114BEC
S1132F6000201870936923F0100393610E4B4FF403
S1132F708062C3F880211A6008B010BD000204000A
S1132F8000800140404105000C03002080841E00A5
S1132F905000020000B0710B20A1070040420F0056
S1132FA0080300201003002000E100E0054BDA686C
S1132FB0D20641BF10225A61034B012248BF1A7046
S1132FC0704700BF0080014010030020084B1A78AE
S1132FD010B50AB1002010BD0122064C1A7054F835
S1132FE0043F002BF6D098470028F8D010BD00BF4E
S1132FF044030020B40000200E4B1B7830B5ABB165
S1133000002815DC0C4B2C2202FB003303F12805AD
S11330100A461C4603CCAC4210605160234602F1C0
S11330200802F6D120681060002030BD034830BD8E
S1133030034830BD4403002018030020050011801C
S113304002001180104B1B7830B5C3B10F4B1968C7
S1133050002916DC4A1C1A600D4A03462C2000FB8A
S1133060012203F1280518685968144603C408337B
S1133070AB422246F7D118682060002030BD0548D5
S113308030BD054830BD00BF4403002014030020B8
S1133090180300200500118001001180802910B55B
S11330A00DD1084908480C6804EB021282424FF023
S11330B000008BBF18601C6004480A6010BD0448FF
S11330C010BD00BFC0000020450B0020010011808E
S11330D002001180004870470400118008B500F018
S11330E023F900F0DBF8002008BD70B50E461D463C
S11330F00024AC4206EB041005D00021102203F09A
S1133100E5FF0134F5E7002070BD2DE9F3410F46DA
S113311003200E21099E00F033F9062000F009F97E
S1133120089C0134A4B202AD230243F0010325F844
S1133130023D0221284600F0D9F84FF00008B045BE
S113314007EB081016D0102100F0D0F8731E984534
S11331501DBF631C43441B024FF6FF7318BF43F0AB
S1133160FF0328460221ADF8063008F1010800F0FB
S1133170BDF8E4E7022000F0DCF80E21032000F0A3
S11331800DF9002002B0BDE8F08108B50D2103203F
S113319000F012F9002008BD08B5032019B10F2171
S11331A000F0EEF802E00F2100F0F8F8002008BD6E
S11331B010B58CB000F0B8F800F070F800F0C8F862
S11331C0002213460821022000F0CCF80022134606
S11331D00621022000F0C6F8002213460E21032027
S11331E000F0C0F8002213460F21032000F0BAF8C3
S11331F000220D211346032000F0B4F81F480021DB
S1133200802200F09BF8002835D11D4B0193012347
S11332108DF814308023029304930393194B06937F
S1133220194B0793194B0893194B0993194B8DF8B4
S113323015000A9301A8184B0B93FFF703FF0446EC
S1133240C0B90F21032000F09BF80E21032000F0E9
S113325097F8062000F06DF80CA80423022120F84A
S11332602E3D00F043F8022000F063F803200E2105
S113327000F094F820460CB010BD00BF8B31000064
S113328071AD0000993100009D300000D530000080
S11332900B310000EB300000DD30000030B50F4D85
S11332A00FCD87B06C460FC495E8030084E8030093
S11332B00B4C0C480121FDF7E9FD0B4B0293204612
S11332C06946FEF733FF0A236367A36F23F01F23C6
S11332D043F00B230020A36707B030BD88AD000086
S11332E00004014000320400E067350038B50546AB
S11332F00C4684B1012C0B4801D0EA0705D515F81A
S1133300011BFEF75BFF013CF3E735F8021BFEF7F8
S11333105AFF023CEDE7034B1B699B06FBD50020DB
S113332038BD00BF0004014008B5FFF7D7FC0020FA
S113333008BD08B5FFF7B6FD002008BD08B500F0CC
S1133340D7FB0028014808BF002008BD02001380F5
S113335008B503480121FDF799FD002008BD00BF11
S11333600025080010B514462AB9C0B20422FEF79D
S113337013FD204610BD014810BD00BF010013809D
S11333803023C0B25843044B034401EBC30189000A
S113339001230B60002070470CA010423023C0B200
S11333A05843044B034401EBC30189000020086027
S11333B0704700BF0CA01042012303FA01F2C0B20F
S11333C03023584300F1804000F520408261002002
S11333D070470000044B1B781BB1044B03600020B2
S11333E070470120704700BF840B0020780B002039
S11333F070B50D4C247884B10C4C26888518B542E0
S11334000DDC6688CD18B54209DC52B14BB1A08001
S1133410E18022816381002070BD012070BD042001
S113342070BD052070BD00BF840B0020780B002008
S11334302DE9F74F534A0D9E1278002A00F09C8024
S1133440514A1568002D00F09780504A547C002C96
S113345040F094809468127C012A4D4A1CBFB3FA50
S113346083F35B091F1C4FEAD404D388009401EB57
S1133470030818BF0127009BC7F100091FFA88F849
S11334805FFA89F903FB08554FF0000C9246002EB1
S113349070D0BAF80840BAF80430241AB44228BFED
S11334A034461844072CA6EB040680B21CD8044406
S11334B067B1A0424BD2C20800F0070101238B4040
S11334C0A95C01300B43AB5480B2F2E7A0423ED278
S11334D0C10800F00702012393406A5C013022EA2C
S11334E003036B5480B2F1E74FEAD00E10F00700EB
S11334F005EB0E030FD00122824015F80E10013A9D
S1133500D2B229EA020B0A404BEA020B083805F84A
S11335100EB0013304445FEAD40B0DD0184649467B
S11335205A46CDF804C003F0D1FDB4EBCB040346F6
S11335305B44DDF804C00AD00122A2401978013AA4
S1133540D2B221EA020102EA09020A431A700CEB20
S1133550080359110F4A03F01F030120984052F841
S11335602130034342F82130009B0CF1010C1D442F
S113357000208CE7304602E0012000E00A2003B07E
S1133580BDE8F08F840B0020480B00204C0B00207A
S1133590780B00202813002070B50A4C05460A4811
S11335A0234686694168C268B04723683BB12B60F3
S11335B0FF211022054803F089FD002070BD0B2077
S11335C070BD00BF480B00204C0B002028130020C6
S11335D0F7B5174E33781BBBFFF7F8FC044608BB5E
S11335E0144D2946FFF708FDF8B9134F3846FFF785
S11335F0D3FF0446B0B93B68B3B1104BA988AA897C
S113360019805A8019815A819880D8804A430123AD
S1133610337001920090014602460346FFF708FF0B
S1133620002002E0204600E00B2003B0F0BD00BF04
S1133630840B00204C0B0020480B0020780B00204A
S11336402DE9F743234E244FB5683C680023ED0869
S11336504FF001081946F2681E4803EB0109914531
S113366020D214F0010201D0013312E083B1DFF85B
S11336706CE0DEF800E08DE80A0005FB01E1D0F81B
S113368020C04368E04708BB09F10101034600E09C
S113369001315A18D2060ABF57F82840640808F1C5
S11336A00108D8E733B90C480021102203F00EFDBD
S11336B000200BE0094A12688DE80A0005FB01218D
S11336C0046A43680022A0470028ECD003B0BDE898
S11336D0F08300BF4C0B002028130020480B00206F
S11336E0F8B50C46054638B331B308688A68904289
S11336F024DA4968E368994220DA2E68B788B84228
S11337001EDBF788B9421BDB3789974218DD7689BF
S11337109E4215DD89B280B20B440244013201336A
S113372092B29BB2FFF764FE211D0EC92668EE60BB
S113373029616A61AB61F8BD0520F8BD0420F8BDBC
S11337400320F8BD30B5054687B0E8B100234360D7
S11337506FF07F43836001A8FFF73CFEB8B9019B7B
S11337602B601A885B8802900390013A013B28463B
S113377002A904920593FFF7B3FF044630B9284623
S1133780044900F04DF901E0052000E0204607B0AF
S113379030BD00BFA0AD000030B1036800201A881E
S11337A05B880146FFF724BE0520704737B5054600
S11337B090B14468FFF7F0FF014670B92A68E3B29C
S11337C00093558913896B430193C4F30742C4F3EF
S11337D00723FFF72DFE00E0052003B030BD73B5CD
S11337E00E461546044688B10C3000F02FF878B127
S11337F0A368DAB2009201220192B0B2C3F3074285
S1133800A9B2C3F30723FFF713FE02E0052000E08B
S1133810012002B070BD73B50E4615461C4680B13A
S11338200C3000F013F870B1E3B20093012301935C
S1133830B0B2A9B2C4F30742C4F30723FFF7F8FDFB
S113384002E0052000E0012002B070BD78B10368F9
S113385099420BDB8368994208DC43689A4205DB92
S1133860C0688242CCBF002001207047002070470E
S11338702DE9F04F85B09B469DF83830029392466F
S11338800446002800F08980A1F12005EBB25E2BEC
S113389000F2858090F82830022B06D13A2906D010
S11338A0202906D030398DB204E0ADB202E00A25F9
S11338B000E00B25238CAB4271DDE36900934FF0EC
S11338C00008474694F825301FFA88F29342019283
S11338D05FD994F82230012B05D0022B07D1009B2D
S11338E033F8159006E0009B13F8059002E0009B66
S11338F033F825904FF0000C94F824301FFA8CF61E
S1133900B34228D919F0010F0AD0019BCDF80CC09D
S113391020460AEB06010BEB0302FFF760FF0BE006
S1133920029B7BB120460AEB06011BFA88F263680E
S1133930CDF80CC0FFF76FFF012831D8DDF80CC0BB
S113394000B901374FEA59090CF1010CD4E7029B85
S11339504BB90136B6B294F8242094F827301344B6
S11339609E42F4DB0EE0019B20460BEB03020AEBC4
S113397006016368FFF74FFF012811D80028E8D13A
S11339800137E6E794F823100D44ADB208F10108BD
S113399098E7B7FA87F0400902E0052000E002202A
S11339A005B0BDE8F08F2DE9F74F0C9E9DF834A0CB
S11339B09B46054670B369B390F8283063B30C4650
S11339C001EB02095F464FF000084C451ED014F885
S11339D0011B0A2907D195F825301E4495F8263095
S11339E05F461E44F1E7CDF800A028463A46334628
S11339F0FFF73EFF012810D808B908F1010895F82F
S1133A00242095F8273013441F44DEE7B8FA88F0E1
S1133A10400902E0052000E0022003B0BDE8F08F79
S1133A2008B578B11C3019B9102203F04FFB09E036
S1133A3001F1100351F8042B40F8042B9942F9D1F9
S1133A40002008BD052008BD10B5FFF7BFFA00B17E
S1133A50FEE7FFF7BDFD00B1FEE7084C2046FFF787
S1133A6071FE00B1FEE76FF07F43A0606360204603
S1133A700349BDE81040FFF7D3BF00BF8C0B002003
S1133A80A0AD0000FFF7DCBD08B50548FFF78EFECA
S1133A90044B05221A60044B02221A6008BD00BFC1
S1133AA08C0B0020B80B0020880B002073B50D4C44
S1133AB00D4D064604F0E4F92368009300230193B6
S1133AC00A4B0246314628461B68FFF76CFF95F8FF
S1133AD0263095F825201A4423681344236002B045
S1133AE070BD00BF880B00208C0B0020B80B002099
S1133AF0002070472DE9F74F81460C467B2017467E
S1133B009A4603F0C5FF1CB14048214603F0A8FFC4
S1133B100024BB46A046002F5ED058462C2104F05A
S1133B20A1F9074610B1CBEB000603E0584604F0B8
S1133B30A7F90646364DC8F58073F21C93424544F6
S1133B4048D3681E5B461946CBEB030446B10A789A
S1133B500A2A03F1010303D100F8012F013EF2E721
S1133B607B232B550134324626442819741C03F058
S1133B7087FA4FF07D0B002305F806B028462B5535
S1133B803A2104F06FF9064618B9B9F1000F1BD1B8
S1133B902FE0431C18463A21019304F063F958BB03
S1133BA0B9F1010F019B07D1AE1B3444681C1946BF
S1133BB0224603F070FA07E0B9F1020F01BF741B4B
S1133BC086F800B070700134002C05DBA04407F1C6
S1133BD0010BA0E76FF00A040D48514604F076FA91
S1133BE0002C04DA61420B4803F03AFF07E000249A
S1133BF005E06FF00B04EFE76FF00C04ECE7064808
S1133C0003F0D2FF204603B0BDE8F08FD0B000002F
S1133C10BC0B0020D7B00000D5B000000EB403B533
S1133C2003AB014653F8042B01930020FFF762FF16
S1133C30B0FA80F0400902B05DF804EB03B07047BD
S1133C400CB473B506AB044653F8046B01937B20A4
S1133C500D4603F01DFF1CB10D48214603F000FF83
S1133C600C4803F0FDFE0199304604F02FFA7D2044
S1133C7003F00EFF2946084803F0F2FE074803F05C
S1133C8093FF012002B0BDE8704002B0704700BF4E
S1133C90D0B00000ECB00000F4B00000D5B00000DB
S1133CA0184B1B7810B5184C43B3782826DD174AF7
S1133CB0D2F8043123F45F4323F07D03C2F80431C6
S1133CC0D2F81C3123F45F4323F07D03C2F81C3186
S1133CD0D2F804119338052390FBF3F309339B00C6
S1133CE041F457411943C2F80411D2F81C1141F4AC
S1133CF057410B43C2F81C31012300E00023236029
S1133D0010BD00BFC40000208C12084300400840CE
S1133D10124BD3F8002122F00602C3F80021D3F895
S1133D20002142F00402C3F80021D3F80C2122F050
S1133D300702C3F80C21D3F80C2142F00502C3F8A2
S1133D400C21D3F8082122F0C002C3F80821D3F8CB
S1133D50082142F08102C3F808217047004008405E
S1133D60134BD3F8002122F00602C3F80021D3F844
S1133D70002142F00202C3F80021D3F80C2122F002
S1133D800702C3F80C21D3F80C2142F00602C3F851
S1133D900C21D3F8082122F4800222F0C102C3F8D6
S1133DA00821D3F8042122F44042C3F804217047C7
S1133DB000400840094BD3F8242122F4EE42C3F812
S1133DC02421D3F8242142F48A42C3F82421D3F8CD
S1133DD0202142F00102C3F820217047004008402E
S1133DE0054B1B78022B01D1FFF7E4BF012B01D156
S1133DF0FFF7B6BFFFF78CBF3813002030B5204A59
S1133E00204DD2F888212B68D24323F0F95323F4B0
S1133E10FE13C0F3431102F4FE12B2FA82F2C2F1AD
S1133E20130243F47F53914243F0080300F4004427
S1133E3005D811B310F01F0008BF012002E0E2B161
S1133E4011461F2001228A40013A43EA0063D2B29C
S1133E5043EA82332B600C4B40EA4110D3F808212B
S1133E6034B142F48002C3F8082140F4004030BD6C
S1133E7022F48002C3F8082130BD01210846E1E79D
S1133E8000400E40C00F002100400840B1F900304E
S1133E909842A8BF1846A0F1C803282293FBF2F267
S1133EA05242072AA8BF072201EBC2010028B1F938
S1133EB00630896800FB0313C8BF03F5FA73072AA9
S1133EC04FF47A70B3FBF0F005D0034B1B78022B50
S1133ED018BF40F40040704738130020012331F824
S1133EE03320824202D30133082BF8D1013B01EB8A
S1133EF0C30120F400404FF47A7358434B68C01A4E
S1133F000028C8BF00F5FA70B1F9023090FBF3F055
S1133F107047000010B5184C184A2168822821F413
S1133F207F5323F0080311DCC1F3873143EA811383
S1133F301E2823600FDCD2F8083123F00103C2F8F5
S1133F400831D2F8203123F001030EE043F47F530B
S1133F5043F008032360D2F8083143F00103C2F8A8
S1133F600831D2F8203143F00103C2F82031BDE812
S1133F701040FFF795BE00BFC00F0021004008406D
S1133F8038B51E4DB5F9043018442B78012B13D1E4
S1133F901B4B1C4A1B681A4006231B4931F913406A
S1133FA0A04201DA013BF8D131F91340013342EA6E
S1133FB00363134A136016E06C780BB9234600E0E0
S1133FC0A31C124A442404FB03242146FFF75EFF8A
S1133FD0FFF714FF212802D1B4F9024003E0211DA8
S1133FE0FFF77CFF04462046FFF794FFAB88E41AF2
S1133FF0034B6C801A68064B1A6038BD38130020D6
S1134000C00F00213F00C0E014B2000004B1000062
S1134010BC0C002008B5FFF7B3FF024BB3F9020054
S113402008BD00BF3813002010490B685A0810B5AA
S113403023F47F1302F4FE1423430B6000F088FE84
S11340400B4B38B1D3F8002122F47F122243C3F87A
S1134050002106E0D3F8182122F47F122243C3F88A
S113406018214FF00072DA6110BD00BFC00F0021AB
S113407000400840044B1A68044B1A60044A136A4F
S113408023F0806313627047BC0C0020C00F002132
S11340900040084008B500F05BFE0C4B40B1D3F87B
S11340A0002122F0004222F40012C3F8002107E0AC
S11340B0D3F8182122F0004222F40012C3F8182188
S11340C01A6A22F000621A6208BD00BF004008406C
S11340D0014BD888704700BF38130020064B426854
S11340E0DA669A6E22F47F6222F00F029A66996E63
S11340F002680A439A66704700600840F0B50E4CA7
S1134100E06EE26EE16EA56EA76EA66EC0B2C2F35B
S11341100724231AC7F303129340C1F30742121B67
S1134120C6F303218A40521102EB631305F00F0218
S1134130904003EB6010F0BD0060084073B51F4D64
S11341402B78022B044604D0012B0CBF3226B42654
S113415000E096260CB9012318E0FCF76FF8FF2362
S11341604FF47A72B0FBF2F04443B4FBF6F464010A
S1134170B4FBF2F21AB101335208DBB2FAE75BB2D4
S11341800F2B02DC002B01DAE5E70F231B02684644
S1134190360400930196FFF7A1FFFFF7AFFF044633
S11341A0FCF74CF842F2107363436422B0FBF2F064
S11341B0B3FBF0F0E88080B202B070BD3813002089
S11341C008B500F0B5FD01380D4B052812D8DFE81D
S11341D000F003110C0C0E0E0A4A1278012A4FF05B
S11341E0440205D00021996007E0002200E0332258
S11341F09A6002E0F7229A60A2225A6008BD00BFCA
S1134200C00F00213813002010B5044608B900205F
S113421010BD00F0CBF90C221C48002102F056FF1F
S113422023781B4A022B04D1D2F8883113F4001FDF
S113423011E0012B04D1D2F8883113F4400F0AE0C5
S1134240144B5B6AD2F8882103F0010383F0010365
S113425002F480021343DAD10F4A236813606368BF
S11342605360E088FFF76AFFFFF7BAFDB4F9020074
S1134270FFF7D0FE094AD2F8583123F00703C2F8F9
S11342805831FFF79DFF012010BD00BFC00F002172
S113429000400E40B081E00F381300200040084079
S11342A070B5044600284BD02648012100F0B0FE2A
S11342B001212548FCF7EAFD244B62681A60244B6F
S11342C02578F822DA67A27BE17A120442EA012215
S11342D0217A0A439A677DB91E4A207B0221116024
S11342E007225A67617B04222B46FDF755FDE07BCC
S11342F0217C04222B4609E0012D0AD1154AE07BDA
S1134300156005225A67217C04220023FDF744FD31
S11343100EE0022D05D10F4A0521116001225A67D2
S113432006E0032D04D10B4900220A605A6770BDD0
S1134330607AA17A04220123BDE87040FDF72CBD08
S113434070BD00BF0034060000250800C40C002026
S113435000000840C00C002038B50E4D0E4B2868F4
S1134360DC6F48B10D4800F071FE2B6800EB530080
S1134370B0FBF3F001380002094B01221A60094A2C
S113438024F47F43126823F0030313431843024BBE
S1134390D86738BDC40C0020000008400034060073
S11343A0F8120843C00C0020044BD3F89430002BBF
S11343B0BCBF034BC3F88000704700BF00400840F7
S11343C00000084072B6044B1A68511C1CBF01322D
S11343D01A601868704700BFF0010020034B18688A
S11343E018B10138186000B962B67047F0010020B6
S11343F070B50C46154606462544FFF7E3FF2146F3
S1134400A94209D03023734303F1804303F5012308
S113441011F8012B9A61F3E7BDE87040FFF7DEBFA6
S11344203023584303F1844303F5C01303F6F873B0
S113443003445B0101221A607047016070470368FE
S1134440194301607047036859400160704703686D
S113445019400160704738B505460C46FFF7B2FFB6
S11344602B682340A342FBD1BDE83840FFF7B6BF19
S113447010B520EAE074084800F0E8FD4FF47A73C0
S1134480B0FBF3F0444304F57A644FF4FA50B4FB00
S1134490F0F080B210BD00BF60510700084601F083
S11344A09DBB00F1047001EBC001890001230B6086
S11344B0704700F1047001EBC001890000230B6018
S11344C07047000007B501A8FDF7EAFC154B164A32
S11344D0C3F8442148F2E672C3F838214FF4086265
S11344E0C3F83421114AC3F8A0209DF80530012BEC
S11344F00F4B05D19DF80420012A9CBF28221A6580
S11345004AF63F429A600B4B4FF0C0729A62A3F591
S113451040530022C3F8FC20074AC3F89C2003B090
S11345205DF804FB00400840C0E653117A27000FF1
S11345300030084000700840806D6303F0B5164CED
S11345404FF004556368E567012385B0C4F88030F3
S11345500E460746FFF736FF3946B200284602F0FA
S11345608FFDFFF73BFF0D4B23660D4C94E80700CE
S113457001AD85E80700002194220A4802F0A6FD57
S113458095E8070084E807003C20FFF771FF064B1D
S11345904042186205B0F0BD00400840CC0F002135
S11345A0C00F00216C0F00219C0F002108B5114899
S11345B0012100F02DFD1048012100F029FD0F48D4
S11345C0012100F025FD0E48012100F021FD0D48D8
S11345D0012100F01DFD0C48012100F019FD0B48DC
S11345E0012100F015FD0A480121BDE8084000F052
S11345F00FBD00BF0034060000040600004406009E
S1134600007406000064060000540600002406003E
S113461000840600F8B500F1080454F8083C5A1C5C
S113462021D0C3F30361124AC3F3074652F82110A1
S11346309DB2012E45EA01050BD954F8047CFFF71D
S1134640C1FE3946B200284602F01AFDFFF7C6FE45
S113465007E01B0F074A54F8041C52F8233028467D
S113466098470834D9E7BDE8F840FFF7A9BD00BF73
S113467024B200002CB20000014B43F82010704714
S1134680CC0C0020014B1B68184700BFCC0C002049
S1134690014B5B68184700BFCC0C0020014B5B69E1
S11346A0184700BFCC0C0020014B5B69184700BFC2
S11346B0CC0C0020014B5B6A184700BFCC0C0020D7
S11346C0014BDB69184700BFCC0C0020014BDB68B1
S11346D0184700BFCC0C0020014B9B68184700BF53
S11346E0CC0C0020F8B50E460746002015461C46A3
S11346F0FFF796FE002039463246FFF779FEC4B133
S1134700C6F580720B4992B294424F600E808D6060
S11347104C808A814FF00000294605D9FFF768FED6
S1134720054B01221A60F8BD2246BDE8F840FFF7A8
S11347305FBEF8BD980E0020901D02430020014684
S113474002460346FFF7CEBF38B50C4605460320A4
S1134750FFF766FE224603202946FFF749FE024B77
S11347600422C3F8B82038BD0010084000200146D8
S1134770FFF7EABF034AD2F8EC3023F48063C2F8AF
S1134780EC30704700100840044B002258601A8037
S113479010B1034B01221A60704700BF900E002035
S11347A0802D0243014B5868704700BF900E0020D3
S11347B008B5054B002201201A80FFF731FE0220C4
S11347C0BDE80840FFF72CBE900E0020234A70B5C8
S11347D0D2F8E030D2F8EC402340C2F8E830D2F806
S11347E0EC401C40600715D51D4EB5897288B16830
S11347F0521B92B2E02A29444FF0000005D9E0226E
S1134800E035FFF7F5FDB58104E0FFF7F1FD154B49
S113481000221A60610501D500F014FA124B2340FE
S11348200BB1FFF7C5FF14F0090F04D00F4B0122A1
S11348301A60FFF783FFA20701D5FFF77FFF14F08B
S1134840106F04D0094B01221A60FFF78FFFA301F8
S113485003D5BDE87040FFF789BF70BD0010084064
S1134860980E0020901D0243000A0A001401084318
S11348700D4BDB6C13F0200F0CBF00200420D90675
S113488044BF0230C0B21A0744BF0230C0B2590755
S113489044BF0230C0B29A0744BF0130C0B2DB0744
S11348A044BF0130C0B2704700000840044BD3F845
S11348B08000C0F30C00022894BF00200120704740
S11348C000100840024B186DC0F30C00704700BF85
S11348D000100840024B186AC0F30C00704700BF78
S11348E000100840014B586CC0B2704700100840DB
S11348F0800000F1804000F50020D0F8A03023F4BF
S11349004073C0F8A030D0F8A03043EA0121C0F8C9
S1134910A010704770B5354CFFF748FE0226344BA3
S113492026636363AF236365324B266000256360AF
S1134930314A42F220036362256662663D22C4F86E
S113494084202E4AC4F890502846C4F8942029465E
S1134950C4F8B430FFF7CCFF01202946FFF7C8FFA5
S113496030460121FFF7C4FF01210320FFF7C0FFF8
S1134970234B1A6C22F0F0021A641A6C42F0A00263
S11349801A64204B204ADA60204B8022C3F880212D
S113499028461A60FFF744FD0120FFF741FD304629
S11349A0FFF73EFD0320FFF73BFDD4F8EC20184B46
S11349B01343C4F8EC30FFF7DDFEFFF783FD154A1F
S11349C0D2F8983043F00303C2F89830124B02F146
S11349D04072A2F59B42C3F8945001231360A2F5E0
S11349E087521360536042F8043C70BD00100840C5
S11349F0401300200C0D00200C0E00204E0E002051
S1134A0000000840CC0C0020CD47000000E100E08D
S1134A100B0A0B0B006008400040084010B50A4424
S1134A20914206D030244443024B1B5901F8013B08
S1134A30F6E710BD1410084003460A460120194643
S1134A40FFF7ECBF13B504463CB10DF1070001219B
S1134A50013CFFF7F1FFA4B2F6E702B010BD10B5B8
S1134A600446FFF723FF28B94FF0FF33A0702370EB
S1134A70637010BD022021460322FFF7CFFF238875
S1134A80DBB2238010BDFFF793BE0000632870B52E
S1134A9006D943F2C823984228BF1846044600E0CA
S1134AA06424094B094E1C80FFF712FB201A85B2BF
S1134AB028B2FFF7DDFC3082A5F1140000B2FFF745
S1134AC0D7FC7082204670BDC80C00209C0F0021CA
S1134AD0632870B506D943F2C823984228BF184604
S1134AE0054600E06425FFF7F3FA281A84B220B2E1
S1134AF0FFF7BEFC044E3081A4F1140000B2FFF7AE
S1134B00B7FC7081284670BD9C0F002170B5044627
S1134B10FFF7DEFA43F2C82343F2C722944294BF5C
S1134B2022461A46904203D9FFF7D2FA84B202E031
S1134B309C4228BF1C46FFF7CBFA201A85B228B244
S1134B40FFF796FC044EB083A5F1140000B2FFF702
S1134B508FFCF083204670BD9C0F0021632810B5A4
S1134B6006D943F2C823984228BF1846044600E0F9
S1134B706424201F00B2FFF77BFC024B58612046DF
S1134B8010BD00BF9C0F0021632810B505D943F266
S1134B90C823984228BF184600E06420044C2080B3
S1134BA0043800B2FFF764FC024B1860208810BD83
S1134BB04C0E00209C0F002110B543F2C8248442FF
S1134BC028BF044620B2FFF753FC024B586020462E
S1134BD010BD00BF9C0F002110B543F2C8248442CD
S1134BE028BF044620B2FFF743FC024B98612046DD
S1134BF010BD00BF9C0F002138B5FFF7E3FB0F4B3E
S1134C000F4A1D6894681B68EDB2DBB244F3891443
S1134C10002B18BF002DA4B214BF01250025FFF7F7
S1134C20DDFBB4F57E4F02D1002DE6D103E0002D6B
S1134C3008BF4FF47E4420B238BD00BF0040084096
S1134C4000700840F8B5FFF73DFE04463CB3FFF79B
S1134C5049FE1D4A136813B1013B13601DE01B4953
S1134C600A6812B91A4B1B78BBB1C0F30713194E6B
S1134C70194DF75C00F00F00013A335C28680A60B4
S1134C803B4450FA83F315482B60036808330360F0
S1134C90FFF7B2FF124B80101873013CD6E70F4B9D
S1134CA01A680F4B59688A4238BF4FF0FF325A6076
S1134CB0094A9B6811680A4A994236BF4FF0FF338C
S1134CC091609360F8BD00BF4C1400204414002090
S1134CD0B80E00204CB200004814002040140020FC
S1134CE0A80E0020104A936BC3F3C253013B032B5D
S1134CF09CBF0E49C85C936B03F0070310B588BFD3
S1134D000720042B09D8DFE803F00308080606008F
S1134D1000EB400402E0C40000E08400FBF78EFADC
S1134D20B0FBF4F010BD00BF0060084065B20000A5
S1134D30064B5B6B03F00700C3F3C50313F00702D4
S1134D4018BF5043DB0818BF584370470030084071
S1134D50034BD3F8380180F01000C0F30010704703
S1134D60004008400000000070B50446FFF7E0FF73
S1134D70064600230EA1D1E90001324601F060FD90
S1134D800025844275EB01030DDB324600230AA1A2
S1134D90D1E9000101F054FDA04271EB0503ACBF61
S1134DA00120002070BD002070BD00BFAFF3008063
S1134DB00037178900000000007DDAAC0000000015
S1134DC010B50446FBF73AFA6422B4FBF0F300FB97
S1134DD013446243B2FBF0F000B9013B0848026B94
S1134DE022F4EE620263016B5A080133013A5B0854
S1134DF041EA0212013B42EA0323036310BD00BFF0
S1134E00004008407FB5224A224C10685168127A4B
S1134E1001AB03C320491A700868204A2049936BE8
S1134E20096800FB0310136B13F4801F1D4B1B68F0
S1134E3004AA08BF5B4218441B4BB0FBF3F31344B2
S1134E4004A913F80B3C194AD840B0FBF2F20A4407
S1134E50D4F8A41012F80B6C154A21F4775121F000
S1134E603F011568C4F8A410D4F8A41000EB55024F
S1134E7041EA0333B2FBF5F2013A134343EA8623D2
S1134E80C4F8A43004B0BDE87040FFF799BF00BF78
S1134E905CB20000004008405C1400200030084070
S1134EA0541400205014002040BE4025401B5F13C2
S1134EB0C80000202DE9F8430D460446FFF738FFEB
S1134EC006462046FFF750FF324B334FD3F83821C4
S1134ED0012E0CBF22F0100242F01002C3F8382158
S1134EE0FBF7ACF92D4B81461C6074434A46002302
S1134EF0E004610B01F0C0FCF862FFF7F3FE284BFD
S1134F00F2041860710BA2FB002300FB0133194665
S1134F10104600234A4601F0AFFCD7F83080214BFD
S1134F20C0F3130008F4801840EA08003863E8046A
S1134F301D60A0FB06016B0B06FB03114A46002310
S1134F4001F09AFC184BF8631A781AB93A6D02F01A
S1134F503F021A700F4AD2F89420D20616D5134A8B
S1134F60B4FBF2F41A78124B04FB04F1534340F2FD
S1134F7053524A434CF20C6101FB142404F5C91446
S1134F8004F55564B3FBF4F4034B1C65BDE8F84326
S1134F90FFF738BF00400840003008405414002098
S1134FA0501400205C1400205814002000366E01B8
S1134FB080969800084B5B68C3F30363042BF9D015
S1134FC00A2BF7D0054B986319B103F5805380225F
S1134FD09A60FFF717BF00BF004008400030084048
S1134FE0014B01221A60704788120843064B18606F
S1134FF000F5F42000F59070044BB0FBF3F0033897
S1135000C0B2FCF7A5BD00BFC800002040420F009D
S1135010C0F30322012A10B503460C4607D0042A24
S113502001D1084A04E0BDE81040FBF72FBF064A4F
S113503002F10472C3F3043303EBC2039B001C604C
S113504010BD00BFC8400E4000400E4008B500F43B
S11350507813B3F5802F1FD009D8BBB1B3F5003F47
S113506032D1FBF7B5F81A4BD3F808311EE0B3F58B
S1135070002F17D0B3F5202F1BD0B3F5C02F23D1A9
S1135080FBF7A6F8124BD3F810310FE0FBF7A0F8AA
S11350900F4BD3F8003111E0FBF79AF80C4BD3F81F
S11350A00C3103E0BDE80840FBF792B8C3F30823D2
S11350B006E0FBF78DF8064BD3F81431C3F3042351
S11350C00133B0FBF3F008BDBDE80840FBF7F4BFC3
S11350D000400E40C0F30313062B01D0FBF714BFAE
S11350E0024BD3F81001C0F30820704700400E4073
S11350F008B5FFF78FFA024B01221A70002008BD91
S1135100B90E002010B5044600F070FB23689868BF
S11351105968FFF7CFFEFFF71BFE08B1084800E00F
S11351200848FFF763FF084B1A782AB100224FF4AE
S113513080301A7000F0E2FB2368187810BD00BFBD
S1135140C0CF6A00E0673500B90E002001F0B6BA9E
S113515072B6044B1A68511C1CBF01321A601868DD
S1135160704700BFF0010020034B186818B10138E4
S1135170186000B962B67047F001002007B501F06D
S113518053FA00F0FDFC02AB43F8040D1846FBF79C
S113519023FD03B05DF804FB202000F05ABB02207D
S11351A000F057BB042000F054BBC0B2FBF74EBD67
S11351B0024B5868C0F30360FBF7D8BD00400840B9
S11351C008B5044B01221A7001F024FBBDE8084025
S11351D0FBF7E2BCC40E0020012000F08FBB0000EE
S11351E0012808D002280ED1074B1B68DA050AD51E
S11351F04FF4807005E0044B1B689B0503D54FF406
S1135200007000F026BB7047C00E002030B5C1020C
S113521085B0044602D5402000F01BFBA20201D554
S1135220FBF7A5FD630337D501F0FAFA002833D064
S11352301A4B1B495C6B1A6BD1F88C1040239340BA
S1135240013BC1F381119AB2164B03291B688DF8F7
S1135250041004F100540DD1002099B2083901441E
S11352601140655C04A901440130082801F80A5C76
S1135270F3D10EE002290FD19BB2991E1140013BDC
S1135280615CADF806101340E35C41EA0321ADF81C
S1135290061001A8FBF76CFD05B030BD00100840F6
S11352A000400840040F002110B50446042000F01B
S11352B0BDFB61020FD52720FFF776F801F064F8F3
S11352C0124B1B6803F07F43B3F1007F18D1104BDE
S11352D001221A6014E0E20204D52820BDE810403F
S11352E0FFF762B8E30410D500F030FC094BDB6D26
S11352F013F4A00F09D12A20FFF756F801F044F85F
S11353000420BDE81040FBF7A1BC10BD0C0F002128
S113531004000843005008402DE9F04788B0FFF727
S1135320A7FA804601A8FFF79AFBBDF804504FF690
S1135330FF739D4274D0C8EB0505ADB205F10C00B6
S1135340FBF70AFD00240646AC4220D204F10A0908
S1135350C4EB050A3046494602AACDF808A0FBF77B
S1135360FFFC029B074613B9CDF808A01F46BDF801
S11353700810384601F046F8002F02460444494616
S1135380304608BF0022A4B2FBF7ECFCDCE703A91B
S1135390404601F047F80C273046002102AA029744
S11353A0FBF7DEFC044610B1029B0B2B03D8002153
S11353B030460A462CE01C4B0581DA6E1B6E0279DE
S11353C083F08003C3F3C01363F34102174B0271EC
S11353D001221A609DF812300279003318BF0123AC
S11353E063F3000202719DF8113043719DF8063099
S11353F00025C3F3C003D2B263F382028571027144
S1135400069800F0BDFBE5712060294630463A4617
S1135410FBF7A8FC3046FBF731FC3046FBF7A3FC56
S113542008B0BDE8F08700BF000008401C0D004331
S1135430024B01221A60102000F00BBA1C0D00432D
S113544010B50446FAF7FAFE636898421DD1104C71
S113545001F074F9237843F007032370A37843F031
S11354601003A37000F062FAC30748BFA378094889
S113547044BF43F00203A37000F034FF206800F03F
S11354807FFEFBF771FC002010BD012010BD00BFA2
S1135490BC0E00206CB20000012803D006D3022801
S11354A002D07047002103E0012100E000210846FA
S11354B001F04CB8184B5B6803F07063B3F1C06F34
S11354C028D010D8B3F1407F24D005D8B3F1807F21
S11354D020D0B3F1007F04E0B3F1806F1AD0B3F1B0
S11354E0A06F15D116E0B3F1106F0FD005D8B3F14A
S11354F0E06F0FD0B3F1006F07E0B3F1306F05D068
S1135500B3F1406F02D0B3F1206F01D10220704794
S113551000207047012070470040084038B5FFF76D
S113552017FE032000F0ECFA18B1FFF71DFE00256A
S11355301BE000F01BFB05460028F6D10C4B5C6811
S1135540FFF712FE14F0404F0FD104F07063B3F173
S1135550C06F0AD002D8B3F1407F04E0B3F1106FFA
S113556003D0B3F1406F18BF0125284638BD00BFF2
S11355700040084070B50646FFF7EAFD0B4B0122D8
S11355801A600B4AD2F8884014F480341D4606D1C0
S11355903068B18822462346FFF7A4F800E00324CC
S11355A000232B60FFF7E0FD204670BD0011084387
S11355B00040084008B5154A5378C0F3400161F330
S11355C04103C0F3800161F38203C0F3C00161F3BE
S11355D0C30353701378C0F3001161F3C303C0F322
S11355E0401161F30413917810F4407F41F00401F9
S11355F0917014BF0121002161F345131370044B12
S11356001860106800F0BCFD002008BDBC0E00202E
S1135610C00E002010B5044600F0F4F8012803D0B1
S1135620A0686168FFF746FC002010BD08B501F0D2
S1135630F1F8054B9A786FF345129A701868BDE833
S1135640084000F09DBD00BFBC0E002038B50C1C06
S113565018BF01240229054603D1FFF7E7FF002004
S113566038BDFFF775FD0C4B9A7842F020029A7012
S1135670186800F085FD094B002228461A7000F0D6
S113568084FA214601F0C0F80446FFF76DFD84F06A
S11356900100C0B238BD00BFBC0E0020C40E002003
S11356A001F0BBB870B5054600F0ACF8012817D07E
S11356B0FFF734FF0C4B18B15A6812F0706FF7D132
S11356C0596811F070640DD1084B1E682EB100F0BA
S11356D093F82844C0B22146B047284600F01AFF88
S11356E0002070BD022070BD00400840C80E00209C
S11356F0094B1B6813F0FF0F10B5044601D1FFF7E7
S113570057F82046FFF7CEFF044618B900F0E2FE32
S1135710204610BD022010BD00400840024B18680E
S1135720C0F34010704700BF000F0021024B80F00F
S113573001001860704700BF2011084370B50D4682
S113574014461E46FFF7AEFF70B92DB1FFF7E6FF12
S113575010B12878FFF7EAFF44B13046A04740B1C2
S1135760044B00221A6070BD022070BD00F02EFEB2
S1135770204670BD2011084310B50446806800F02F
S1135780011000F0A9F82046BDE81040FFF758BE0C
S11357900120FFF781BEFFF78DBE000038B5114B25
S11357A01B68044693B11868D8B15B6873B10022D2
S11357B00588A1B28D4202D845888D4208D20132B3
S11357C09A4200F10C00F3D1002038BD184638BDD0
S11357D0054C2368834202D02060FFF71BFF20683A
S11357E038BD38BDCC0E0020D00E0020014B18600F
S11357F0704700BFCC0E0020014B1B68187870471F
S1135800D00E0020014B1868704700BF60140020C0
S113581010B50446FFF7BFFF012804D02046BDE8B9
S11358201040FFF7C7BE022010BD10B50446FFF7B5
S113583075FE50B12046FFF7B1FF40B10078201A41
S1135840C0B2BDE81040FFF753BF022010BD0120D5
S113585010BDC0B208B1FBF751BA7047FFF78ABE5A
S11358602DE9F04104460F4616461D46FFF756FE45
S113587068B12046FFF792FF60B10078201A3946DC
S113588032462B46C0B2BDE8F041FFF757BF0220B5
S1135890BDE8F0810120BDE8F08110B50C46134647
S11358A000212246BDE81040FFF7DABF72B6044B70
S11358B01A68511C1CBF01321A601868704700BF77
S11358C0F0010020034B186818B10138186000B9C2
S11358D062B67047F001002010B50446FFF7E6FFFA
S11358E0044B1C60044B0022BDE810401A60FFF713
S11358F0E9BF00BFD40E0020D80E002010B5044626
S1135900FFF7D4FF074B084A1B681C401368234366
S11359101360FFF7D7FF1CB1BDE81040FBF725BAB1
S113592010BD00BFD40E0020D80E0020014B186813
S1135930704700BFD40E002072B6044B1A68511C85
S11359401CBF01321A601868704700BFF0010020C4
S1135950034B186818B10138186000B962B6704773
S1135960F001002038B5104D104C28460121FFF7F6
S11359704FFB0F4B23602846FFF768FB0D4A4FF49B
S11359807A73B0FBF3F01060400200F5FA70B0FBDC
S1135990F3F020F0FF03A3F58073C0B218436FF057
S11359A00043A062236338BD000406000050084091
S11359B000110100CC000020044B4FF08052C3F8CA
S11359C080211A60024B01221A60704700E100E056
S11359D080000A43054B4FF08052C3F88021C3F87E
S11359E08020034B01221A60704700BF00E100E0F1
S11359F088000A43024BD86800F00100704700BFDA
S1135A0000500840024B00221A615A619A617047A3
S1135A1000500840044B1A6B8142A1EB00033CBFC9
S1135A2001329B181846704700500840054B42024B
S1135A30134400221A604FF48073034A8340536670
S1135A40704700BF800E0A43005008402DE9F84F0C
S1135A50054691460C46FFF76FFF2846FFF7E6FF21
S1135A60B9F1010F04D1244B9B6901331C4402E0BA
S1135A70B9F1020F3DD0204B1E6BB44288BFA41B6A
S1135A804FF4807888BF04F1FF34B60808FA05F8AB
S1135A9000272A01194BDFF860A09C50103B1344E7
S1135AA011225A60DAF818B020465946FFF7B2FFBF
S1135AB0B04207D8DAF8603018EA030F0CBF0123AC
S1135AC0002300E000230137B9F1010F07EB0B04B9
S1135AD004D1062F02D0002BDBD108E03BB12846CD
S1135AE0FFF7A4FFFFF734FF0020BDE8F88FFFF7AE
S1135AF02FFF0120BDE8F88F005008408050084077
S1135B00024B0001185800F001007047745008401F
S1135B1001F460010001024B41F003011950704788
S1135B2074500840014B00221A6770470050084027
S1135B30014B024ADA667047005008400000010138
S1135B40014B0001185870478050084008B52220C6
S1135B50FEF72AFCFFF7F0FE034B01221A60BDE8B2
S1135B600840FFF7F5BE00BFC8000A43034BDB68DB
S1135B7013F0060F14BF01200020704700500840A6
S1135B8000184FF000014941704700F0010303EB96
S1135B9050007047104B2DE9F0419E691D6B04467F
S1135BA0FFF728FFA8B104F0010303EB54046D08C8
S1135BB0AC42A04628BFA846074B9F6930463946E9
S1135BC0FFF728FF4045F7D3A04202D2241A3E46ED
S1135BD0EEE7BDE8F08100BF0050084038B5054647
S1135BE0FFF708FF044618B9FFF7BCFEFFF7E4FE11
S1135BF02846FFF7CFFF2CB9FFF7ECFEBDE838408D
S1135C00FFF700BF38BD000072B6044B1A68511C80
S1135C101CBF01321A601868704700BFF0010020F1
S1135C20034B186818B10138186000B962B67047A0
S1135C30F00100200C4A002310B513600B4A0F2119
S1135C405362136113605160094A14685CB11360B4
S1135C50FFF7DAFF074A936923EA04039361BDE877
S1135C601040FFF7DDBF10BDDC0E002000800840AF
S1135C70E00E002000300E40F8B50D4B01221E68E6
S1135C801A600C4A9569003518BF01251C465DB1A0
S1135C90FFF7BAFF084B1F6800221A60FFF7C0FF26
S1135CA0FFF7C8FF07B1B84706B926602846F8BD14
S1135CB00419C84300800840DC0E0020FFF7DCBF55
S1135CC00D4A536D1268D9B2FF2907D0C2F30743B6
S1135CD05AB2013204BF9021192301E09021192303
S1135CE0064A02205BB293FBF0F30B44D3752323E3
