S01500007261696C746573745F65667233322E73333776
S2140000000080002099010000C5010000C501000025
S214000010C5010000C5010000C5010000C5010000C3
S214000020C5010000C5010000C5010000C5010000B3
S214000030C5010000C5010000C5010000C5010000A3
S214000040C50100007D7A0000C5010000897A000025
S214000050D17A0000A17A0000957A0000C57A0000E7
S214000060C501000089530000755E0000C1560000FF
S214000070C5010000C5010000C5010000C501000063
S214000080C5010000AD530000C5010000C501000019
S214000090C5010000C5010000C5010000C501000043
S2140000A0C5010000C5010000C5010000AD7A0000D2
S2140000B0B97A0000215B0000C5010000C501000000
S2140000C05DAB0000C501000010B5054C237833B9C0
S2140000D0044B13B10448AFF300800123237010BD16
S2140000E09009002000000000B8540100084B10B52D
S2140000F01BB108480849AFF300800848036803B9F5
S21400010010BD074B002BFBD0BDE81040184700BFC2
S21400011000000000B8540100940900208C0900205B
S21400012000000000154B002B08BF134B9D46A3F59F
S214000130803A00218B460F461348144A121A0DF0D7
S21400014025F90F4B002B00D098470E4B002B00D004
S21400015098470020002104000D000D48002802D01A
S2140001600C48AFF300800DF0B5F82000290002F02F
S214000170F1FF0CF089FF00BF00000800008000209F
S214000180000000000000000090090020982F0020CA
S2140001900000000000000000064880470649074AA5
S2140001A0074B9A42BEBF51F8040B42F8040BF8E71F
S2140001B0FFF7B8FF49020000EC54010000000020E1
S2140001C090090020FEE700BF0048704700F0490293
S2140001D00D4AD2F8943003F00703032B0AD0042B01
S2140001E003D0022B03D1094B02E0094B00E0094B78
S2140001F0186801E04FF40040D2F80031C3F304233E
S2140002000133B0FBF3F0704700400E4000000020C2
S214000210040000200800002008B5FFF7D9FF054BB2
S214000220D3F80831C3F308230133B0FBF3F0024BD5
S214000230186008BD00400E40202E0020014B1868B4
S214000240704700BF00000020034AD2F8883043F40D
S2140002507003C2F88830704700ED00E04FF40040AD
S21400026070474FF47A707047014B1868704700BFAC
S2140002700400002070B5002088B00C46096803F022
S2140002807BF9002858D02D4B66680FCB04AD85E867
S2140002900F0030462A4904220DF042F810B98DF8B6
S2140002A013000DE03046274902220DF039F818B940
S2140002B001238DF8133003E02068234A202125E02F
S2140002C0A06803F0BDFC43F2C82680B2B04203D952
S2140002D020681E4A212119E0ADF81400E06803F0FA
S2140002E0AFFC80B2B04203D92068194A22210DE043
S2140002F0ADF81600206903F0A3FCADF818002846F8
S21400030009F0BEFC014620B12068124A06F07CFEC9
S21400031012E0BDF814300093BDF816300193BDF816
S214000320183002939DF813500B4B20680B490C4A6B
S21400033053F8253006F056FE08B070BDE8040100FC
S214000340F8040100B4150100FD0401001D050100BC
S214000350320501004C0501001C0000207B05010051
S2140003605732010038B500200C46096803F004F93E
S21400037080B109F03DFC05460B2002F0EFFC064B71
S214000380064A20680649002D08BF1A46BDE83840D0
S21400039006F028BE38BD00BF57320100C505010073
S2140003A0CE0501002DE9F34148680C4603F048FCF1
S2140003B0071CA06818BF012703F042FC061CE06873
S2140003C018BF012603F03CFC051C206918BF012558
S2140003D003F036FC10F1000818BF4FF00108F800D3
S2140003E016B140F00400C0B20DB140F00200B8F102
S2140003F0000F01D040F0010009F035FC38B120684C
S214000400104A232102B0BDE8F04106F0FDBD206889
S2140004100D4B0E4C0E49B8F1000F14BF22461A467B
S214000420002D14BF25461D4601920095002F14BFCF
S21400043022461A46002E18BF234606F0D3FD02B009
S214000440BDE8F081DA050100C5050100573201005C
S2140004500006010038B548680C4603F0F1FB051CA1
S21400046018BF0125284609F0F2FB30B12068084A7B
S2140004702421BDE8384006F0C7BD064B064A206872
S2140004800649002D08BF1A46BDE8384006F0AABD4A
S21400049038060100C5050100573201005C06010060
S2140004A038B548680C4603F0CBFB051C18BF012581
S2140004B0284609F0C0FB30B12068084A2421BDE870
S2140004C0384006F0A1BD064B064A20680649002DB6
S2140004D008BF1A46BDE8384006F084BD6F06010026
S2140004E0C5050100573201009206010010B54868A4
S2140004F00C4603F0A5FB80B209F097FB054A064BB5
S2140005000649002818BF1A462068BDE8104006F0C5
S21400051069BD00BFC505010057320100A4060100F1
S21400052010B548680C4603F08BFB80B209F07FFBE1
S214000530054A064B0649002818BF1A462068BDE83B
S214000540104006F04FBD00BFC50501005732010040
S214000550B506010037B50D46012455F8240003F012
S2140005606FFB0DEB04030134092C03F8010CF4D1E6
S214000570684609F05EFB054B054A0649002818BF89
S2140005801A46286806F02EFD03B030BD573201002B
S214000590C5050100CD06010010B548680C4603F0FD
S2140005A04FFBC0B208F084FA28B120680549BDE8C0
S2140005B0104006F017BD2068034A3521BDE81040FC
S2140005C006F022BDE4060100FD06010010B50C464B
S2140005D008F07AFA054A064B0649002818BF1A465C
S2140005E02068BDE8104006F0FDBC00BFC505010050
S2140005F0573201002007010010B548680C4603F08A
S2140006001FFB10B908F05EFA01E008F059FA21461F
S2140006100120BDE81040FFF7D9BF00002DE9F04FDC
S21400062008682549254F85B006F0B2FC00264FEA3B
S214000630860A00253B78DFF8A080E3B105EB0A0BBD
S21400064000244FEACB0BA1463B7899450CDA1C4BAD
S2140006501C494B4408EB040013F80B200DF02CFD4E
S21400066009F101090444EFE7002C06DD44440023A9
S21400067004F8013C01E088F80030134A1349387842
S214000680134B2A449B5D12F80A40124A002C18BFEE
S2140006900A468DE80101029207482A46314601358E
S2140006A006F08EFC042DC5D101370EB90126BEE733
S2140006B005B0BDE8F08F00BF34070100AC0900208C
S2140006C0AE0900206D0701001E0A00205732010007
S2140006D0260A0020C5050100EE090020234B2DE95F
S2140006E0F04700241C705C70214B224E1C705C701E
S2140006F005460F46402221461F480CF047FE21467D
S21400070008221E480CF042FE786803F099FA052D80
S214000710D8BFAC1EF060C8BF042407F10808002547
S214000720A54212DA15F0010FD8F800000CBFD6F873
S21400073004A0D6F808A003F083FA4FEA650908F18A
S21400074004080AF809000135EAE70A4808F08CF9B7
S21400075028B139460120BDE8F047FFF75FBF38688B
S214000760074A3021BDE8F04706F04EBC260A0020B6
S214000770AC0900200C000020AE0900201E0A002054
S214000780750701002DE9F341804648680C4603F0E2
S21400079057FAC7B2A06803F053FA022F02D8C5B2C0
S2140007A0042D03D920681C4A312123E0B8F10B0F31
S2140007B003DD2068194A32211CE0002300930193D0
S2140007C00326464509DA54F8260003F039FA0DEBFD
S2140007D00603013603F8030CF3E705EB8706104B18
S2140007E0384629466A469B5D08F072F928B92068A3
S2140007F00C4A332106F008FC0BE00B4A6B4603CB91
S21400080002EBC60542F83600696001202146FFF774
S21400081005FF02B0BDE8F0819E070100C307010096
S2140008201E0A0020E1070100AE090020F0B5486866
S21400083085B00E4603F004FAC4B2B06803F000FABE
S214000840C7B2F06803F0FCF9C5B23946204615B9C0
S21400085008F042F901E008F03DF938B93068124A6C
S214000860342105B0BDE8F04006F0CEBB003507EBFE
S21400087084030E4A30680E4E18BF0125D5540D4B22
S214000880195D0D4B1A5D0D4B002D14BF1D463546E8
S2140008900B4B02938DE8060003950A4922463B4619
S2140008A006F0A0FB05B0F0BDFE0701001E0A002002
S2140008B0C5050100260A0020AC09002057320100B9
S2140008C0EE0900203407010073B50C4600200968C5
S2140008D002F052FE00284DD06568274928460422BB
S2140008E00CF01EFD10B9254B18700DE02846244963
S2140008F002220CF015FD18B9204B01221A7003E0F5
S2140009002068204A202123E0A06803F099F943F2EA
S214000910C82680B2B04203D920681B4A212117E0BE
S214000920164D6880E06803F08BF980B2B04203D9B8
S2140009302068164A22210BE0A880206903F080F97F
S214000940E880284609F0F3F8014630B12068104ADE
S21400095002B0BDE8704006F057BBAA882E786B88B8
S2140009600092EA8801920B4A20680B4952F826202A
S21400097006F038FB02B070BDF8040100280A00201B
S214000980B4150100FD0401001D050100320501003B
S214000990200801001C00002087050100F7B50C4662
S2140009A009F0C3F8074609F0F4F8054609F0F7F829
S2140009B022680A4B0A4C0B4E0B49002814BF1846F7
S2140009C0204600901046094A002D08BF2346002FF7
S2140009D008BF324606F006FB03B0F0BD4D08010026
S2140009E054080100C50501005D08010057320100EA
S2140009F010B50C4609F082F8014618B12068044A82
S214000A0006F002FB21460120BDE81040FFF7C6BFF6
S214000A108E08010070B548680C4603F011F90646CA
S214000A20A06803F00DF916F0FF0FC5B202D009F06A
S214000A30ACF801E009F0ABF815B109F0ACF801E04C
S214000A4009F0ABF821460120BDE87040FFF7A6BFCD
S214000A5070B54868104E0D4603F0F2F80446A868D4
S214000A6003F0EEF8E2B200320C4B0D4918BF01223B
S214000A70C0B2041C1A700B4B286818BF01241C70E7
S214000A80094B002A14BF32461A46002C18BF3346BC
S214000A90BDE8704006F0A6BAA6080100381500208A
S214000AA0B108010046150020AB08010010B50C4641
S214000AB009F04EF9054A064B0649002818BF1A46A3
S214000AC02068BDE8104006F08DBA00BFC5050100DD
S214000AD057320100E908010038B548680C4603F0B3
S214000AE0AFF821680546002002F046FD58B115B162
S214000AF009F010F901E009F01BF921460120BDE8D4
S214000B003840FFF7D3BF38BD01282DE9F34105462D
S214000B100C4618DD486803F093F8022DC7B213D0D0
S214000B20A06803F08DF8032D80460FD0E06803F030
S214000B3087F8042D06460AD0206903F081F8051CC4
S214000B4018BF012504E02527DFF844800C4E002559
S214000B50304641463A462B4609F000F9094A0A4B08
S214000B6020680096002D14BF1D46154601950749BE
S214000B703A46434606F036FA02B0BDE8F08100BFBA
S214000B805555550057320100C5050100F008010013
S214000B90D6BE898E38B548680D4603F051F8C4B203
S214000BA0A4F12503022B06D92868174A3021BDE890
S214000BB0384006F029BA154815492246002309F0A0
S214000BC0CDF8252C01D1002003E0262C0CBF0C20EC
S214000BD0272002F0C3F80F492868224606F002FADA
S214000BE00D4B0E4A03F11C0153F8040B42F8040B9C
S214000BF08B42F9D10A4B1C229A8029460120BDE877
S214000C00384000F0C7BD00BF3509010055555500F6
S214000C10D6BE898E51090100CD080100BC06002011
S214000C20B406002070B548680C4603F009F8216841
S214000C300546002002F0A0FCE8B108F00DFEC30750
S214000C4012D5284607F0B4FE30B920680A492A466D
S214000C50BDE8704006F0C6B92068084A2B46142145
S214000C60BDE8704006F0D0B92068054A1321BDE8FB
S214000C70704006F0C9B970BD670901007809010027
S214000C80B109010030B1044B10F0010F034818BF42
S214000C901846704702487047E1090100F409010050
S214000CA0C505010070B548680C4602F0C9FF054648
S214000CB008F0C4FD48B92846FFF7E4FF0749024696
S214000CC02068BDE8704006F08DB92068044A2B46BF
S214000CD01521BDE8704006F097B900BFF90901007C
S214000CE0060A01002DE9F041054648680E4602F066
S214000CF0A7FF022D044604DDB06802F0A1FF0746F8
S214000D0000E0012714F00305306806D02346FF21D3
S214000D10094ABDE8F04106F077B9084906F038F907
S214000D20BD4207D02146054854F8042B06F048F982
S214000D300135F5E7BDE8F081230A0100470A010006
S214000D40F0B5074685B048680D4602F079FF820781
S214000D50034602D1041F022605E028680E4AFF213A
S214000D6006F052F915E0BE42A6F1020207DA55F87F
S214000D70260002F065FF013644F8040FF3E701ACE5
S214000D80064920460DF098F9AC6003202946FFF787
S214000D90A9FF05B0F0BD00BF230A0100DD12010067
S214000DA010B548680C4602F04BFF011C226818BFBD
S214000DB001210920BDE8104002F0A0BA10B548682D
S214000DC00C4602F03DFF011C226818BF01210820D6
S214000DD0BDE8104002F092BA10B548680C4602F022
S214000DE02FFF031C18BF0123074A2068074C83F017
S214000DF001011170064A0749002B18BF2246BDE8BC
S214000E00104006F0EFB800BF601000205732010017
S214000E10C5050100630A010038B548680D4C0D464B
S214000E2002F012FF01460031206018BF01210A209F
S214000E302A6802F063FA2368002B0ADD02F058FAEB
S214000E400A2806D1044B01221A60BDE8384001F09A
S214000E50D7BF38BD000800205015002010B5094B3C
S214000E60094C1878094B10F0010F14BF22461A4699
S214000E7010F0020F18BF234608680549BDE8104069
S214000E8006F0B0B8FC07002057320100C505010087
S214000E90730A010010B548680C4602F0D1FE074AF6
S214000EA0137810B143F0010301E003F0FE03137062
S214000EB021460120BDE81040FFF7D0BFFC07002008
S214000EC010B548680C4602F0BBFE074A137810B10E
S214000ED043F0020301E003F0FD03137021460120F6
S214000EE0BDE81040FFF7BABFFC07002008B501F0C8
S214000EF08FFCBFF34F8F0549054BCA6802F4E062CA
S214000F001343CB60BFF34F8F00BFFDE700ED00E05B
S214000F100400FA0570B50D6808F002FA044608F0F9
S214000F2001FA2246034603492846BDE8704006F00B
S214000F3059B800BF930A01002DE9F04104464868FD
S214000F400D4602F07DFE022C87B206DDA86802F090
S214000F5077FE041C18BF012400E00024B7F5806F5C
S214000F6008D928681E4A10214FF48063BDE8F04176
S214000F7006F04AB81B48394607F0B0FDB84280462E
S214000F8004D02868184A112106F03EF804BB26460D
S214000F90BC4216DA1548134B154A1B5D3044C6F59D
S214000FA0C9710DF057F8002806DA2868114A122190
S214000FB0BDE8F04106F028B80644B6B2B6F5C97FDB
S214000FC004D328680C49094B424605E00134DFE7A4
S214000FD028680A49034B4246BDE8F04106F002B8CD
S214000FE0AC0A0100C20B0020D60A0100300A00201D
S214000FF0B3140100F40A0100100B0100220B0100DB
S2140010002DE9F04F87B0824602A80D4604F0BAFAE2
S214001010814603A804F0BEFAD5F804B07049074626
S21400102058460DF0B1F8DDF80C80044610B10024E7
S214001030264625E06B482968029E0CF071FE6A4839
S2140010400CF06EFE44450AD014B168480CF068FEF9
S21400105057F8341066480CF063FE0134F2E7654832
S2140010600CF002FF64480CF0FFFE0024B44200F0CF
S214001070B38059F8341061480CF052FE0134F5E79D
S21400108044450DD007EBC40357F834000193594686
S2140010900DF07AF8019B0134002808BF1E46EFE7E2
S2140010A026B92868564A50215B4666E0D5F808807F
S2140010B0544C414620460DF067F80746A8B9BAF1E9
S2140010C0040F03D02868504A51211BE0E8687721B6
S2140010D002F0BEFD0028F5D0E86804948DF8147080
S2140010E002F0AEFDADF8160029E0484C4146204619
S2140010F00DF04AF8074620BBBAF1050F05D0286860
S214001100434A532105F080FF66E0E868752102F047
S2140011109FFD0028F3D02869752102F099FD00286C
S214001120EDD00123E8688DF81430049402F088FDB1
S2140011308DF81700286902F083FD8DF8160004ACC0
S21400114022E0344841460DF01FF8C8B10027DDF80C
S21400115008A03C4657450BD059F8370041460DF0DD
S21400116013F809EBC70B002808BF5C460137F1E708
S2140011704CB92868284A5421434605F045FF2BE021
S2140011800127044600E000272448012102F06AFEF9
S2140011900022B079F179134603F06CFE47B130793E
S2140011A004F000FA28681E49326805F01BFF13E0B9
S2140011B023792BB130797179E279A37904F0FAF9C1
S2140011C0B079F1790422002303F054FE286815490B
S2140011D03268236805F006FF07B0BDE8F08F00BF51
S2140011E03B0B0100400B01005D0B0100640B01008E
S2140011F091320100670B0100720B0100AC0B01007D
S214001200B20B0100EA0B0100CD0B0100120C01002D
S214001210F50B0100490C01001D0C0100002508001B
S2140012203B0C01004D0C01002DE9F041804648685A
S2140012300D4602F005FD0746A86802F001FD3E1CBB
S21400124018BF0126044631460C202A6802F0B4F97D
S21400125070B14046294600F0C7F9064B1F60064BA2
S2140012606008186026B10121BDE8F04108F01EB8FC
S214001270BDE8F081282E0020242E00200B6807EE03
S214001280900A0133012B0B60B8EEE77A06D10023F3
S2140012904860886081ED037A0B617047D1ED036A80
S2140012A04A688242D4BF4A60486007EE903A37EEFA
S2140012B0666AF8EE677A8A688242ACBF8A6088609F
S2140012C0C6EE277A76EEA77A37EE677AC1ED037A0E
S2140012D0D1ED047AE6EE077AC1ED047A7047000095
S2140012E030B5234CD4ED117A2DED028BB5EE008A85
S2140012F067EE887A89B017EE900A0D460BF01EF955
S214001300D4ED0F7AF8EEE77ACDE9000167EE887A39
S21400131017EE900A0BF012F9D4ED107AF8EEE77A91
S214001320CDE9020167EE887A17EE900A0BF006F90F
S214001330A36B94ED127A013B07EE903AF8EE677ACB
S214001340CDE90401C7EE277A9FED0A7A67EE877A21
S21400135017EE900A0BF0F2F8226BCDE9060128682A
S214001360054905F03FFE09B0BDEC028B30BD00BF5D
S214001370141000200000803D5E0C010007B5486890
S21400138002F05EFC02AB43F8040D184608F014FCAD
S21400139003B05DF804FB70B5064648680C4602F0DC
S2140013A04FFC051C18BF01250D202946226802F0B7
S2140013B003F960B13046214600F016F91DB1BDE8CC
S2140013C0704008F007BCBDE8704008F0EEBB70BD8A
S2140013D02DE9F0478AB006A80F4608F007FC069DE0
S2140013E0ADB107980BF088F88046284689460BF082
S2140013F083F802460B46404649460BF01DFA00228B
S2140014001C4B0BF0EFF80BF0FFFA824601E04FF0B2
S214001410000A079CACB108980BF06EF88046204690
S21400142089460BF069F802460B46404649460BF0E3
S21400143003FA00220F4B0BF0D5F80BF0E5FA064640
S21400144000E0002650460BF079F89DF92430029310
S214001450CDE90001089B039330460BF06FF8CDE909
S2140014600401386804492A46234605F0BBFD0AB045
S214001470BDE8F08700005940A30C01002DE9F04FAD
S21400148022480C68036902688168D0F80480D0F8A6
S21400149020B0D0F824A0D0F81890876A97B00F93A1
S2140014A043691393C3691093C36A1193436B184837
S2140014B0159214911293068801F01AFF01F050FF5E
S2140014C0054608F054F90F9B0193139B0293109B5B
S2140014D00693119B0893129B149909930D4B009148
S2140014E0CDF80CB0CDF810A0CDF8149007970A965A
S2140014F00B9553F820300C9320460749159A43461F
S21400150005F070FD17B0BDE8F08F00BF1410002086
S214001510441500201C000020FC0C010010B588B00B
S2140015200C4605A8002108F075F99DF818300193BF
S2140015309DF81930029301229DF81A300393009209
S21400154020680349032305F04DFD08B010BD00BF19
S214001550BE0D010010B58AB00C4607A8012108F0A0
S21400156059F99DF8203001939DF8213002939DF89B
S2140015702230039301229DF82330009204932068C2
S2140015800649032305F02EFD20680549079A9DF8B5
S214001590243005F027FD0AB010BD00BFD90D0100AC
S2140015A0F70D010010B50C4607F00AFA10F5007F9B
S2140015B006D120680A4A0821BDE8104005F024BD7F
S2140015C007EE900AFAEECF7A17EE900A0AF0B6FF08
S2140015D002460B4620680349BDE8104005F002BDF0
S2140015E0100E01003A0E010010B506480C464C22BB
S2140015F000210BF0CBFE21460120BDE81040FFF78E
S2140016003DBF00BF1410002010B50C6807F00AFAA2
S214001610034902462046BDE8104005F0E3BC00BF83
S2140016207632010010B548680C4602F009FB07F058
S214001630FFF9246828B907F0F5F90649024620465E
S21400164004E007F0EFF9044902462046BDE81040E2
S21400165005F0C8BC440E0100620E0100012838B532
S2140016600C4627DD4D681E49284603220BF058FE1F
S21400167020B91C4B18601C4B18601BE028461B4901
S21400168004220BF04DFE08B9194A06E0284619490F
S21400169003220BF045FE30B9174A124B1A60124B64
S2140016A0164A1A6006E02068154A7021BDE83840E0
S2140016B005F0AABC0B4B1B6813B9206811490AE059
S2140016C00B4A934202D120680F4904E00A4A93422B
S2140016D005D120680D49BDE8384005F083BC38BD0B
S2140016E0AC0E0100C80F0020C40F0020830E0100BE
S2140016F0658F0000C12301006991000028000020CA
S214001700880E0100A40E0100B00E0100BD0E0100FF
S21400171010B50A4886B0847802784378009490F929
S2140017200340019484880294C488039480680490DB
S2140017300868034905F056FC06B010BD28000020D6
S214001740C90E010038B54868114D0C4602F078FA0B
S2140017502870A06802F074FA6870E06802F070FA08
S214001760A870206902F070FAE870606902F068FA02
S214001770A880A06902F064FAE880E06902F060FAE6
S2140017802146A8600120BDE83840FFF7C1BF00BF72
S21400179028000020034B08689A881968002301F087
S2140017A009BC00BFB40600202DE9F0410746486892
S2140017B00D4602F045FA02248046BC4214DA55F87B
S2140017C0240002F03DFA14FA88F6023EEF2EC0B26C
S2140017D006D928680A4A0521BDE8F04105F014BC80
S2140017E0084B01349855E8E70748064B036008F0B5
S2140017F09BF829460120BDE8F041FFF7CBBF00BFAC
S214001800130F0100BC060020B406002070B548681F
S2140018100D4602F015FAF028034606D928680A4A4B
S2140018200621BDE8704005F0EFBB084C084AA080D2
S2140018302046226008F078F82868A2880549BDE8A6
S214001840704005F0CFBB00BF300F0100B40600208B
S214001850BC060020420F0100034B08681A7919687D
S214001860002301F0A7BB00BF380000202DE9F0419F
S214001870074648680D4602F0E3F902248046BC425B
S21400188014DA55F8240002F0DBF914FA88F6023E62
S2140018903F2EC0B206D928680A4A0521BDE8F041A5
S2140018A005F0B2BB084B01349855E8E70748064BED
S2140018B0036008F063F929460120BDE8F041FFF710
S2140018C0CBBF00BF4E0F0100B0070020380000203D
S2140018D070B548680D4602F0B3F94028034606D9AD
S2140018E028680A4A0621BDE8704005F08DBB084C02
S2140018F0084A20712046226008F040F928682279BC
S2140019000549BDE8704005F06DBB00BF300F010013
S21400191038000020B0070020420F010004388A1C5F
S21400192050F8043F1B78542B0FD004D8492B08D00E
S214001930522B08D010E0722B05D0742B05D0692BE3
S2140019400AD1002302E0012300E002230B700131DC
S2140019509142E5D1002070470120704710B50C4633
S21400196007F07AFF10F0010F206805D01221064A12
S214001970BDE8104005F048BB044B05491A88BDE891
S214001980104005F02FBB00BF6C0F0100441500206F
S214001990910F010070B500200C46096801F0ECFDBF
S2140019A0C0B1606802F04CF90546C0B207F0E2FE2E
S2140019B040B9284601F0D2F921460120BDE8704022
S2140019C0FFF7CCBF2068044A2B461121BDE87040C3
S2140019D005F01ABB70BD00BF9C0F010010B50C6867
S2140019E007F0F9FF034902462046BDE8104005F01F
S2140019F0F9BA00BFB10F010010B500200C46096807
S214001A0001F0BAFD58B1606802F01EF907F0E1FF78
S214001A10034902462068BDE8104005F0E3BA10BD51
S214001A20B10F0100024B08681A68024905F0DABADD
S214001A30AC070020BA0F010010B548680C4602F04B
S214001A40FFF8044B21461860BDE810400120FFF760
S214001A50E9BF00BFAC07002010B50C4606F0DAFF61
S214001A60034902462068BDE8104005F0BBBA00BF37
S214001A70C50F010010B500200C46096801F07CFD7A
S214001A8050B1606802F0DCF806F09CFF21460120A9
S214001A90BDE81040FFF7E0BF10BD000070B5486815
S214001AA00C4602F0CDF80546A06802F0C9F8EDB283
S214001AB0C6B23146284607F0DDFB0146206831B93C
S214001AC02A4633460449BDE8704005F08BBA034AFF
S214001AD0BDE8704005F098BAD20F0100EC0F010087
S214001AE0044B08681A68044B044953F8223005F082
S214001AF079BA00BF4815002014080020F20F010034
S214001B0010B5064C0868214605F042FA044B2046FC
S214001B1000211A68BDE8104005F052BAF20F010025
S214001B201408002010B500200C46096801F024FDBA
S214001B30B8B1606802F084F8031E0BDC01F02AF9E5
S214001B4021460120FFF7CCFF21460120BDE81040CA
S214001B50FFF704BF2068034A0821BDE8104005F0DF
S214001B6053BA10BD0510010013B50C46081D01A997
S214001B70FFF7D4FE28B120680A4A162105F044FA79
S214001B800EE09DF805109DF8040007F06BFE064A6F
S214001B90064B0749002818BF1A46206805F022FAA7
S214001BA002B010BD16100100F9060100EC0F01008E
S214001BB02510010013B50C46081D01A9FFF7AEFE5F
S214001BC028B120680C4A162105F01EFA12E0E068DB
S214001BD002F036F89DF80510C2B29DF8040007F032
S214001BE054FE064A064B0749002818BF1A462068C6
S214001BF005F0F8F902B010BD16100100F906010054
S214001C00EC0F01003610010070B586B00D460DF1E0
S214001C100606012455F8240002F012F80134052CBB
S214001C2026F8020FF6D1BDF80830ADF81030BDF832
S214001C300A30ADF81230BDF80C30ADF8143004A8F8
S214001C40BDF80E30ADF8163006F0FAFE70B9BDF8E5
S214001C5014100091BDF812100191BDF81020BDF8C7
S214001C6016302868054905F0BDF904E02868044ADE
S214001C70182105F0C9F906B070BD00BF4710010075
S214001C8073100100F7B50D4607F048FB044607F051
S214001C9037FB074607F0F3FA064606F0C3FE094987
S214001CA002462868084D002C14BF0C462C46002F10
S214001CB008BF2946019100940449334605F092F97D
S214001CC003B0F0BDA6080100AB0801008A100100B1
S214001CD070B500200C46096801F036FCF0B160686B
S214001CE001F0AEFF0E490646A0680CF079FA0546EC
S214001CF007F0CCFA291C18BF0121304607F0D6FAA7
S214001D0030B12068074A4021BDE8704005F07CB934
S214001D1021460120BDE87040FFF7B4BF70BD00BF8C
S214001D20C0100100C410010010B500200C46096860
S214001D3001F00AFC38B107F0A9FA21460120BDE8F7
S214001D401040FFF79FBF10BD72B6044B1A68511CB7
S214001D501CBF01321A601868704700BF9C20002024
S214001D60034B186818B10138186000B962B670479E
S214001D709C20002010B50C46486801F061FF2168E1
S214001D8001F06AFC014B00221A6010BD5C160020B0
S214001D9010B50C46486801F053FF216801F05CFC62
S214001DA0014B024A1A6010BD5C1600202C2E002043
S214001DB010B548680C4601F043FFC0B2031C074A42
S214001DC02068074C074918BF01231370064A002BEA
S214001DD018BF2246BDE8104005F004B92C2E00209E
S214001DE0A6080100D4100100AB08010010B5486831
S214001DF00C4601F025FF01F0D7F821680620BDE863
S214001E00104001F0D1BB000010B548680C4601F048
S214001E1017FF064B22681860014600314FF0070096
S214001E2018BF0121BDE8104001F068BA5415002023
S214001E3073B548680D4601F003FF041C18BF012463
S214001E4001F056FA0E2808D13CB12868264A1D2112
S214001E5002B0BDE8704005F0D7B801F049FA042892
S214001E6001D174B30AE001F043FA0E28F9D000203D
S214001E70296801F069FB0028F3D133E007F077FC0E
S214001E8001280BD00020296801F076FB30B1174BF3
S214001E90187807F01FFD164B01221A701549164BCD
S214001EA02E68002C13BF0D461D460C461C4606F039
S214001EB0B9FD124900902A463046234605F092F8AE
S214001EC010E007F054FC0028E8D007F04DFC084B63
S214001ED01C7001F00DFA0E28E0D12146224601F0D2
S214001EE06BFBDBE702B070BDE2100100441500207A
S214001EF0B006002057320100C50501000C11010094
S214001F0010B548680C4601F09BFEC1B2003122684D
S214001F104FF0020018BF0121BDE8104001F0EEB9F5
S214001F2010B548680C4601F08BFEC1B2003122683D
S214001F304FF0010018BF0121BDE8104001F0DEB9E6
S214001F4010B548680C4601F07BFEC1B2003122682D
S214001F504FF0040018BF0121BDE8104001F0CEB9D3
S214001F6038B548680D4601F06BFE044601F0C0F92E
S214001F70042806D02868134A0721BDE8384005F033
S214001F8043B8E4B207F0F0FB6CB10F4B00211878B1
S214001F900A4607F0E8FC0AE00B4B187807F09AFCB4
S214001FA028B107F0E1FB094B1B78002BF4D1084B56
S214001FB0084A28680849002C08BF1A46BDE8384079
S214001FC005F010B82211010044150020B0060020CC
S214001FD0C505010057320100391101002DE9FF4700
S214001FE00E46824601210B20326801F0E5FA0028F1
S214001FF000F03D81706801F023FE00F07F04042CA1
S214002000074600F22281DFF8C082DFF8C09228D1AE
S2140020107368984D5B78532B07D002D8482B0ED0A8
S21400202017E0682B0BD0732B13D1FFF78DFEAB692F
S21400203023F00103AB61FFF793FE8F4D0EE1FFF730
S21400204083FEAB6943F00103AB61FFF789FE8B4D5E
S21400205004E1AB69884D13F0010F884B18BF1D468D
S214002060FCE0BAF1020F10DD854DB06801F0E8FD26
S214002070BAF1030FC8F8000004D0F06801F0E0FDE4
S21400208089F80000012C04D80EE0012C40F2EB8009
S2140020907B4D07F069FB00F09FFB764A936923F0BF
S2140020A0300343F010039361764A774B3068042C74
S2140020B008BF1346009399F80030744A744903F039
S2140020C0030352F82330019322462B4604F08AFF7E
S2140020D000F09EFB72B6FA43D8F8001099F800009C
S2140020E06C4EC2F3C01207F01FF90121C8F80000B9
S2140020F000200346009101910A4602F06FFE00237D
S2140021003370631E032B14D8DFE803F002090D11A9
S214002110614A136923F00403136130BF09E001200C
S21400212002F08EFB05E0012002F0C0FB01E002F0A9
S21400213027FC62B672B607F00BF9074610B933787B
S214002140002BDED062B600210A460B2001F0D6F83E
S214002150012100200A4603460091019002F03EFE4F
S21400216032784E494E4B4F48002A14BF1A460A464C
S214002170002F08BF0B468DE80C00D8F800300293FD
S21400218049492B46224604F02DFF3378002B4CD0CD
S214002190012C464D37D9464800F02FFB2868416889
S2140021A04B68013B002B4B6002DA0BF065FE02E049
S2140021B00B6801330B60286841684B68013B002BB5
S2140021C04B6002DA0BF058FE02E00B6801330B603E
S2140021D0286841684B68013B002B4B6002DA0BF025
S2140021E04BFE02E00B6801330B60286841684B68C1
S2140021F0013B002B4B600DDA0BF03EFE15E00BF0BA
S2140022003BFE002811DA286841684B68013B002B2A
S2140022104B60F4DB0B6801330B6006E0254B187847
S21400222007F058FB28B107F09FFA234B1B78002BCA
S214002230F4D1012C1BD9214B1B78DB0717D500F0F6
S214002240DAFA1F4B01221A7011E030681D4A01218C
S214002250234604B0BDE8F04704F0D6BEBAF1020F3C
S2140022607FF717AF01E73068054D074B22E704B04C
S214002270BDE8F08700300E40923201004C2A010083
S21400228004360100481101004511010094120100B6
S21400229053110100DC0F002000ED00E0501101009A
S2140022A04C11010076110100801101004409002044
S2140022B090D0030044150020B0060020FC07002044
S2140022C034000020AC110100D00F0020CC0F0020FD
S2140022D001282DE9F04106460C46174D0ADD4868F0
S2140022E001F0AEFC154B022E186003D0A06801F07A
S2140022F0A7FC2870297822680F4E003118BF0121EC
S2140023000B2001F059F9A8B10C4F3078396801223A
S21400231007F00AF80346386000B930702A7820685B
S214002320074C084902F0030254F82220BDE8F041A9
S21400233004F058BEBDE8F081CC0F0020D00F00207E
S21400234094120100CB11010010B500F0D1FF0B284C
S214002350044616D106F0FCFF98B1002120460A4636
S21400236000F0CCFF074B084A1B780848084903F0E2
S2140023700303BDE8104052F82320064B1B6804F008
S21400238031BE10BDCC0F002094120100DE110100FA
S21400239098110100D00F002038B505460C460E48AF
S2140023A029460BF0F1FE10B9022323700DE00B480E
S2140023B029460BF0E9FE10B90120207038BD084808
S2140023C029460BF0E1FE10B92070012038BD02232B
S2140023D02370002038BD00BFEC110100F011010091
S2140023E0C01001002DE9F0410646002086B00C46DC
S2140023F0014601F0A9F8014628B10020014601F087
S214002400A3F848B90EE00E2001F09EF80028F4D19B
S21400241020683A4A1E2120E00020014601F0ACF870
S2140024200028F5D0606801F00BFC8046E06801F0FB
S21400243007FC0DF106010746A068FFF7ADFF18B9C7
S21400244020682F4A192108E020690DF10701FFF7DF
S214002450A3FF28B920682B4A1A2104F0D5FD4AE0CC
S214002460052E0EDD606901F0EBFB051C18BF01258B
S214002470062E09D0A06901F0E3FB003018BF01204A
S21400248003E00025284600E000209DF806308DF881
S2140024900C309DF807308DF814301B4B8DF8160065
S2140024A000210E208DF815501D70CDF80880049779
S2140024B001F04AF80546B8B10125144B02A9187870
S2140024C007F01CFA0646124800F0F2F99EB12068A2
S2140024D0104A1B21334604F097FD65B92946226849
S2140024E00E2001F069F806E00E200121226801F0B6
S2140024F063F80028E1D106B0BDE8F081F4110100D0
S2140025001F1201003B120100471500204415002051
S21400251055120100611201000020014601F09CB82E
S2140025200120002101F098B8002038B5014601F0DE
S2140025300BF800282FD00021022001F01DF80146DC
S21400254048BB012001F018F808B107F00DF9124C4D
S21400255020780130C0B207F00DF918B9238801338E
S214002560238010E00023238020780B4D07F002F92B
S21400257048B12B8801332B80F6E7207807F0AAF9BC
S21400258028B107F0F1F8054B1B78002BF5D1044B6A
S21400259001221A7038BD38BD44150020B006002050
S2140025A034000020012810B502D1174B187010BD5A
S2140025B0062812D1154B164C1B68A3B102F011FF6A
S2140025C02368C01AB0F57A7F03D9BDE81040FFF73C
S2140025D0A3BFBDE81040FFF7A3BF072812D10D4BDD
S2140025E00D4C1B681BB902F0FCFE206010BD02F00B
S2140025F0F8FE2368C01AB0F57A7F03D8BDE810400D
S214002600FFF792BF10BD00BFDC0F002098211442D8
S214002610D40F00209C211442D80F002013B502F0DE
S214002620D7FE01212148224C01F01CFC042001F0B9
S21400263077FB01F07DFB04F037FB03F077F8012011
S21400264003F06AF8052006210222012302F012FC9C
S214002650052007210222012302F00CFC042201239C
S2140026600220072102F006FC02F068FE2146062042
S21400267002F072FE2146072002F06EFE214601207F
S21400268002F06AFE012406210A46234600940194BD
S214002690052002F0A3FB07210094019405200A46BA
S2140026A0234602F09BFB02B010BD00BF00250800C9
S2140026B0A5250000F0B5334B1A7893B0002A5ED0FB
S2140026C0314A1278D2075AD500241C702F4E304D4E
S2140026D004F00EFB2F4804F01DFB2F4804F01AFBF5
S2140026E073682E4AB3FBF5F7402105FB173302A8A3
S2140026F00BF0B0FC02A804F00DFB3368284AB3FBCD
S214002700F5F7402105FB173302A80BF0A3FC02A83F
S21400271004F000FB234B244A1B88402102A80BF040
S21400272099FC02A804F0F6FA1B4804F0F3FA1F48D6
S21400273004F0F0FA32680A25B2FBF5F305FB132322
S214002740C3EB4312C3EB82035B005BB2009314201F
S21400275050212022012304F0FFFA7268B2FBF5F341
S21400276005FB132303EB83035B005BB200934C2053
S21400277050212022234604F0EFFA04F0B7FA13B0F3
S214002780F0BD00BF34000020FC070020141000201D
S214002790A0860100A412010004360100B412010054
S2140027A0C412010044150020D4120100E0120100FA
S2140027B0034B1B78DB0701D501F0F0BA704700BF6A
S2140027C0FC070020034B1B78DB0701D501F000BB9C
S2140027D0704700BFFC07002008B5002001F0C4FACF
S2140027E0012001F0C1FA04F083FA04F07FFABDE894
S2140027F0084004F077BA04F077BA38B5044606F015
S21400280011F9054606F00EF9401BA042FAD338BD72
S214002810024B1B699B04FBD5704700BF00000140BC
S214002820042200235B080028B8BF43F000430101E0
S21400283048BF43F00063010248BF43F400030103AE
S21400284048BF43F40023010448BF43F40043010596
S21400285048BF43F40063010648BF43F08003010706
S21400286048BF43F00803013A4FEA4000DAD11807A0
S21400287003F0F00200EB137000EB025003F47062FA
S21400288000EB023003F4704200EB021003F47022F7
S21400289000EB121003F4700200EB123003F07063CA
S2140028A000EB1350014B1860704700BF302E00201D
S2140028B010B5044606F05BFF034902462046BDE815
S2140028C0104004F08FBB00BF2813010070B5104BFA
S2140028D093E807008AB001AE86E8070003F10C0211
S2140028E007CA183304AD85E8070093E8070007AC6D
S2140028F084E8070031460320FEF782FB29460320C2
S214002900FEF77EFB03202146FEF77AFB0AB070BD79
S214002910F012010008B50020FFF74AFF0120BDE8CD
S2140029200840FFF745BF0000014B01221A707047B0
S2140029304C150020704700000B4A1368013310B591
S21400294013600A4A13680446013301201360FFF738
S21400295039FF074B01221A70064B22681A60BDE841
S214002960104000F03FBE00BF141000206816002084
S214002970340000205816002070B506463548364DFF
S21400298006F0D2FF354B364800221A706B680133CA
S2140029906B60FFF78DFF304600F0BEFE044618B9A8
S2140029A0AB6A0133AB6221E0037BF12B01D107F068
S2140029B0FAF82C4B1A781AB100221A7007F0F3F8BE
S2140029C0294B1A781AB100221A7007F0EAF800F0BC
S2140029D08FFC07280AD1254B1A6823681344244A1B
S2140029E01360244A01231360234A13700020FFF764
S2140029F0E9FE224B1B789B070AD5214B01221A7051
S214002A0034B1304600F0B6FE1E48314600F0FAFEFD
S214002A100E20002100F098FD38B11B4B1B7823B127
S214002A2000210E200A4600F069FC00F061FC082830
S214002A3008D100210A4600F061FC00F0A9FC13480A
S214002A40FFF7DBFE94F905001149BDE87040FEF77C
S214002A5015BC00BFB4060020141000206210002031
S214002A6036130100381500204615002054150020A6
S214002A70601600205015002039150020FC070020A5
S214002A8034000020E00F00204715002080969800B4
S214002A904C100020C20610B5044609D5254B00226E
S214002AA01A70254A1369012001331361FFF78AFE65
S214002AB0630709D51F4B214801221A701E4A9368E6
S214002AC001339360FFF7F4FEA00741BF1A4AD368AC
S214002AD00133D360A10606D5164B00221A70164A9B
S214002AE0536901335361620606D5124B00221A70F1
S214002AF0114A136A01331362230605D50E4AD36AB8
S214002B00013308BF0123D36214F4007106D00021FC
S214002B100E200A46BDE8104000F0F0BB084B1B78BC
S214002B2033B10E2000F010FD10B114F0700FEED18E
S214002B3010BD00BF621000201410002042130100D8
S214002B404715002008B5084B1870084B01221A706C
S214002B50074A13680133136000F044FD0548BDE8DA
S214002B600840FFF7A5BE00BF61100020101000202F
S214002B703415002050130100002010B5014600F067
S214002B80E3FC50B105F04EFF164B186006F077FBDD
S214002B90154B01221860154B21E000F0A9FB0C280C
S214002BA01BD1134B134980229A67134A0C6B136888
S214002BB02344124C0B6311682368591A216029B903
S214002BC01160BDE810400A4600F098BB0C4B01218E
S214002BD01868BDE8104006F069BB0A4B01221A705F
S214002BE010BD00BF3C1500207810002063100020A8
S214002BF000A00040141000209C0D1442282E002037
S214002C00242E002039150020034A536B01335363EA
S214002C10024B01221A707047141000203215002053
S214002C2007F076B8002070B5014600F08DFC154B15
S214002C301A781D462AB320B3134B1B780BBB134BD5
S214002C401B78F3B906F030FF10F48036044601D046
S214002C5006F08AFD0E4A536A00200133536221466D
S214002C600246287006F022FF3EB970BD094B187860
S214002C7006F030FE28B106F077FD074B1B78002BD8
S214002C80F4D170BD4C1500206010002062100020AA
S214002C901410002044150020B0060020064B1A78B9
S214002CA04AB100221A70054B05481A68054B0649BA
S214002CB01B6804F097B97047631000203C1500208D
S214002CC05C1301007810002064130100134B1A787F
S214002CD010B512B300221A70114B1A7812F0020FB8
S214002CE01C460BD00F4B1B78980703D50E480F4990
S214002CF004F078F90E4A93690133936122785107FC
S214002D000BD5084B1B789B0703D50748094904F0E9
S214002D1069F9074AD3690133D36110BD101000204A
S214002D2061100020FC070020941301009D13010091
S214002D3014100020DB130100054B1A7832B1002274
S214002D401A700448044A2F2104F05EB9704700BF89
S214002D50321500201314010020140100024B1880C5
S214002D60024B01221A7070474415002034000020E0
S214002D7008B5054B53F8200005F0ECFD034B188012
S214002D80034B01221A7008BD2408002044150020B9
S214002D903400002038B5044606F0E6FC134B144D0C
S214002DA053F8240005F00AFE55F8240005F0C8FD87
S214002DB000B1FEE70F48FFF733FD0F4B586055F89C
S214002DC0240005F0BDFD00B1FEE7686805F0B8FD1B
S214002DD000B1FEE7A86805F0B3FD00B1FEE72046A7
S214002DE0FFF7C6FF054B1C6038BD00BF70160020FD
S214002DF01808002053785652F00700204815002087
S214002E00014B01221A70704739150020F8B5324D73
S214002E102B78002B5ED000232B70304B1F6800F001
S214002E2067FA03281FBF2E4A136803F1FF331360A7
S214002E3006F09AFC00F05CFA092802D0294806F051
S214002E4073FD00F055FA0628274E284C05D1316848
S214002E5041B920782649274A16E000F049FA0728A3
S214002E6004D1F4E72078224A224B1BE0224B1B6851
S214002E70BB42224B0ED1224A12685AB931682078DA
S214002E80204E21B91968326806F06DFD0CE01A680C
S214002E90336807E0326820780AB91968F4E7114603
S214002EA01A68002306F042FD40B1174B144A18700A
S214002EB013680133136001232B70F8BD00F018FA75
S214002EC00A2807D1114B1868FFF797FCBDE8F840B1
S214002ED006F04ABCF8BD00BF391500206816002071
S214002EE050150020B40600205C1600204415002073
S214002EF0D19100006016002040150020C80F002069
S214002F0034150020C40F00206110002000080020A7
S214002F10014B01221A7070477C100020F0B5164B4A
S214002F201A7885B02AB300221A70144B144F1B78F7
S214002F30144E154D154C13F0020F15D03A68336831
S214002F402968D31A29B11248124A002B18BF024624
S214002F5000E0114A114800688DE8030021780291CC
S214002F600F48104904F03EF83B68336000232B609E
S214002F70237005B0F0BD00BF7C100020FC070020C9
S214002F80681600204015002034150020611000202F
S214002F904D140100EC0F01004414010058160020E7
S214002FA0551401005B140100014B1860704700BF08
S214002FB0601600202DE9F047804686B092461C46F3
S214002FC00E4611B10F46002505E0304906B0BDE8B3
S214002FD0F04704F007B8BB1B534519DADFF8CC906E
S214002FE02B4A17F8013BC5F5966109EB050005313C
S214002FF00BF030F8002807DB054440F2B4439D424E
S214003000E9D94846234901E0234948460BF0F2F83F
S214003010002C31D0257921482149B4F808A027682A
S21400302015F0010F14BF8146894615F0020F18BF30
S214003030064694F905001B4C07EE900AF8EEE77A70
S21400304008BF0E4617EE900A09F078FA164BCDF830
S214003050009015F0040F08BF1C46144B0593CDE9ED
S2140030600201019604944046114952463B4603F03D
S214003070B9FF06B0BDE8F0870E490C4B40465246F5
S21400308006B0BDE8F04703F0ADBF00BFAA140100CC
S214003090B0140100C7140100B8140100A014010008
S2140030A0A5140100A6080100AB0801007D10002051
S2140030B0D91401001915010010B50B4800F0E2FB09
S2140030C088B9094800F0C3FB044600F025FB034618
S2140030D003F10A0105481A89FFF76CFF2046BDE890
S2140030E0104000F033BB10BDE00F00202B15010090
S2140030F013B5154C206841684B68013B002B4B60AC
S21400310003DA0AF0B9FEC0B203E00B685A1C0A6084
S21400311018788DF807009DF80700431EDBB2FD2BDC
S2140031200FD80A2801D00AF013FE08480DF107014F
S214003130012200F049FC0028DCDD05480AF0F0FD1D
S214003140D8E702B010BD00BF44090020641000207C
S21400315034150100474BDB6C1B0E8E2B10B515D8B3
S2140031604549464AD1F8B00040F00403C1F8B030F3
S2140031704FF05013136013631366C2F89030C2F812
S214003180C030C2F8F030C1F8B00001E08F2B06D195
S214003190394AD36A23F07F0343F02003D36201F059
S2140031A0B5FE044601F0ACFE14F480341EBF344B6A
S2140031B001221A61FFF732FA324806F0B9FA3248AD
S2140031C006F08FFC314B1868FFF7E4FD00214FF442
S2140031D01D7006F072FB01200146002206F055FB2A
S2140031E00120014606F03EFB29480A2100F0F8FAC5
S2140031F000B9FEE7FFF75EFA26480AF035FE94B1FE
S2140032001F4B9B6913F0010F0CBF7324682406F054
S2140032109FF8214A214B2249002808BF134621481F
S214003220224603F0DFFE20480AF07AFD1F49204BB5
S21400323020484FF4807200F0BBFB1F4806F09EFC4F
S214003240FFF744FBFFF754FFFFF77EF8FFF7DEFDBE
S214003250FFF764FE00F09CF8FFF72EFFFFF736FD41
S214003260FFF71CFDFFF726FAFFF7DCFCFFF764FD0F
S214003270E8E700BFB081E00F00400E4000A000402D
S21400328000300E401C1301001413010048150020E6
S214003290E00F002037150100501101004C1101000D
S2140032A0461501007611010034150100581500205E
S2140032B0400000206410002038000020034611B9AA
S2140032C00748084A08E0012902D10548064A03E0F3
S2140032D0022903D10248054A03F096BE704700BF94
S2140032E0691501006C150100811501009715010094
S2140032F0014B1878704700BF6F160020114B10B5B1
S2140033001C78ECB9E0B101241C700F4B18700F4B01
S21400331019704AB90E4B0F4A1B7813F0020F0E4B6A
S21400332008BF0023136010BD0C4B02F110001946B5
S21400333052F8044B43F8044B8242F9D1054B19600E
S21400334010BD00BF6C1600206D160020040800207B
S214003350FC070020442E00204C320100342E0020B2
S21400336070B50A4D06460FCD90B001AC0FC40FCD18
S2140033700FC40FCD0FC495E8070084E8070010AB14
S21400338003EB860656F83C0C10B070BD10320100F8
S2140033905B4B1A782DE9F341002A00F0AE8000223C
S2140033A01A70584B1A78584B0AB11C7800E014462D
S2140033B0564D18782F78564B87420FD192B11D681C
S2140033C0002D00F09A802046FFF7CAFF51490246BA
S2140033D0284602B0BDE8F04103F004BE002F77D1C6
S2140033E0002A75D01E6886B12046FFF7B9FF8046D2
S2140033F03846FFF7B5FF074605F014FB4649009030
S214003400424630463B4603F0EDFD2B7813B905F0F7
S2140034103DFF2EE0012B02D106F0D6FA29E0022B62
S21400342002D106F0B9FA24E0042B03D1002005F0FF
S214003430B5FA1EE0032B06D05A1F012A03D9A3F1C2
S2140034400902012A07D805F021FF344B00221A6032
S214003450FFF75EFD0DE00B2B05D10020014602466E
S21400346005F062FF05E00C2BD1D00D2B01D106F044
S2140034707BF9012C05D12A4B2146187806F091FAE3
S21400348021E0022C04D1264B187806F075FA1AE0D3
S214003490042C03D1012005F081FA14E0032C08D097
S2140034A0052C06D0062C01D00A2C05D11B4B012278
S2140034B01A60FFF7A5FC06E0E31F012B03D8184BA4
S2140034C0187806F007FA174B2A781A702C7014E052
S2140034D01D6895B1144B154C002A18BF1C46FFF703
S2140034E03FFF06463846FFF73BFF00960190012156
S2140034F028460F4A234603F087FD02B0BDE8F08158
S2140035006C160020040800206D1600206F160020A0
S214003510442E0020543201005F3201005015002076
S214003520441500206E16002071230100391A010090
S2140035307E32010010B50446FFF7DAFE224600216F
S214003540BDE81040FFF7DABE70B506460D46FFF739
S214003550CFFE831B5C425C414CB945B13046FFF759
S214003560FFFE16210346034A284603F04DFD20467B
S21400357070BD00BFEC32010070B505460E4606F081
S214003580F6F8431B5C425C4144B93EB1044B054A25
S21400359053F825303046172103F036FD204670BD1F
S2140035A008080020133301000A4610B90846FFF742
S2140035B0C1BF0121FFF7A2BE70B504460D461646F0
S2140035C0FFF7E6FE204629463246FFF797FEFFF74E
S2140035D0DFFE002D14BF204600200021BDE870400D
S2140035E0FFF7B2BF08B5184B1B68002B0CDD174859
S2140035F0FFF75EF9164B1B684FF47A7058430121AB
S214003600BDE8084005F052BEFFF772FE0328EED074
S214003610FFF76EFE052807D10E48FFF749F9002090
S214003620BDE80840FFF786BFFFF762FE0628F3D026
S214003630FFF75EFE0928EFD0FFF75AFE0A28EBD008
S214003640BDE80840FFF764BC501500204133010078
S214003650AC0700204F330100144B10B50C46186021
S21400366060B1FFF745FE092806D12146FFF79CFF0B
S214003670BDE81040FFF7C4BB052011E0FFF738FE99
S214003680052804D12046BDE81040FFF753BFFFF7DA
S2140036902FFE0328F6D0FFF72BFE0928F2D00320D2
S2140036A02146BDE81040FFF77FBF00BF5015002041
S2140036B072B6044B1A68511C1CBF01321A60186897
S2140036C0704700BF9C200020034B186818B10138D3
S2140036D0186000B962B670479C200020B0F5807F65
S2140036E010B514D8FFF7E4FF00200A4A00EB0023C9
S2140036F0995C19B90121D154044604E001300A2826
S214003700F3D14FF0FF34FFF7DFFF204610BD4FF038
S214003710FF3010BD74160020431C10B5044610D0B0
S2140037200A280ED8FFF7C4FF04EB0424064B185DE6
S2140037301A1908B1541C00E00446FFF7C5FF2046DE
S21400374010BD002010BD00BF7416002010B5044642
S214003750FFF7AEFF2046FFF7DFFF28B1044A04EB71
S2140037600424135D013B1355BDE81040FFF7ACBFC2
S2140037707416002010B50446FFF79AFF2046FFF7A0
S214003780CBFF28B1044A04EB0424135D0133135520
S214003790BDE81040FFF798BF74160020FFF79EBFE5
S2140037A0FFF7D4BF10B50C46FFF7B6FF204410BD98
S2140037B07047000072B6044B1A68511C1CBF0132D9
S2140037C01A601868704700BF9C200020034B1868DA
S2140037D018B10138186000B962B670479C20002006
S2140037E00A2938B504460D460AD848B1FFF7E2FF65
S2140037F00023A58023806380FFF7E8FF012038BD03
S214003800002038BD70B50E460446F8B1FFF7D2FF6B
S2140038106588A088238885420BD22B4493FBF0F260
S21400382000FB12339BB20233013544F823606580F7
S21400383008E09A1C013344F8226093FBF0F200FB88
S21400384012332380FFF7C2FF012070BD70BD38B56C
S2140038500446B0B1FFF7AEFF63886BB12288A0883C
S214003860911C013254F8215092FBF0F1013B00FB11
S21400387011222280638000E01D46FFF7A7FF28463E
S21400388038BD38BD10B5044648B1FFF793FF6488CD
S214003890B4FA84F46409FFF799FF204610BD0120AE
S2140038A010BD73B504460D46164642B109F0E6FB58
S2140038B00022026001A920460AF060FD10E009F02F
S2140038C0DDFB01A90660324620460AF0E1FDED0068
S2140038D00123AB40013B0340834201D000200CE0B3
S2140038E009F0CCFB0368002BF8D120460AF08AFCCE
S2140038F0019B1B1B1B1A5842584102B070BD0000AA
S2140039002DE9F041002604460546374635B92148DC
S2140039100AF0AAFA20480AF0A7FA29E02868002840
S214003920F5D00AF06FFC804668680AF06BFC4745E5
S214003930B8BF47468642B8BF06461035E6E7226857
S2140039402AB3A368F3B1154879420AF0E9F9626828
S2140039508AB11178124B002908BF1A4671421148E5
S2140039600AF0DEF9E16841B90A200AF0F1F91034EC
S214003970002CE4D10BE00A4AF0E70B78002BF3D0DA
S214003980094801E0094811460AF0CAF9ECE70120A7
S214003990BDE8F0816B36010088360100DF36010095
S2140039A004360100DE36010090320100E3360100E5
S2140039B040B139B1016000218160C26003610171CC
S2140039C008467047012070472DE9F04F1646A1B013
S2140039D00446002800F01681002900F0138185684F
S2140039E0E3685019984280F00F812068284409F057
S2140039F0A7FCA3681E440023A66005939846A26809
S214003A00954280F0F28023685A195B5D06930A2B74
S214003A1002D00D2B40F0E78000234545137000F0E0
S214003A20D1802668236907934644711E334611F8F1
S214003A30012F42B1082A03D1B342F8D9013BF6E779
S214003A401A700133F3E71A7030467A490BAA0AF067
S214003A500CFC8146002800F0B580079F002F00F080
S214003A60D580D7F800A0BAF1000F00F0A080BB68A0
S214003A70002B00F09A80484651460AF085FB002845
S214003A8040F093806B49CDF830A00BAA0AF0EDFB0E
S214003A90012381460193B9F1000F12D0019A0CABB5
S214003AA043F8229013460133142B019302D130467B
S214003AB0012185E000205F490BAA0AF0D6FB81466B
S214003AC0E9E7D7F804A0BAF1000F67D050465A4984
S214003AD00AF086FB002861D050460AF093FB2A21A4
S214003AE0039050460AF06EFB039B38B1013B5344EB
S214003AF0984250D1039B012B4DD0023B0993019B6A
S214003B00013B08930DAB0293002304934FF02E0B5A
S214003B10049B089A93423ADA049B039A934205DB85
S214003B20524412F8012C2A2A06D034E0049B1AF8D4
S214003B3003202A2A18BF9346BBF1750F19D00AD85E
S214003B40BBF1620F1CD0BBF1730F24D1029B042182
S214003B501868012211E0BBF1760F06D0BBF1770F93
S214003B6019D1029B0421186806E0029B02211868FE
S214003B7002E0029B186801210022FFF792FE50B176
S214003B80049B01330493029B04330293C0E713465D
S214003B90099A934202DA3046022111E0BB68019886
S214003BA00CA998474FF0010A01E0103756E73B682A
S214003BB00BB9079B73BBBAF1000F03D1484600212F
S214003BC0FFF77CFB069B0A2B04D123790D2B01D132
S214003BD0454503D005980130C3B205939DF81830CB
S214003BE0237105F10108013509E7B8F1000F07D088
S214003BF02068C8EB0202A26000EB080109F0ABFBEC
S214003C00059812E0FF2010E0FE200EE0079B002B38
S214003C10D4D0BA46304609490AF0B6FA0028CAD1C6
S214003C200798FFF76DFE8246C5E740B221B0BDE8B3
S214003C30F08F00BFEF360100342D01003B0B010072
S214003C4000210A460AF024BC00210A460AF096BB68
S214003C50733904290FD8DFE801F0070E05030A00C0
S214003C60022105E0012103E00421012201E00421F4
S214003C700022FFF716BE002070470000002008B59F
S214003C8001460422012301F0F5F801210A460B46FD
S214003C90002001F0EFF8042201230020052101F0A6
S214003CA0E9F8054A03235367936F23F4F85323F088
S214003CB01F03936708BD00BF0000014030B5114DDB
S214003CC00FCD87B06C460FC495E803000E4B84E812
S214003CD0030000241C600D4B0D481C60012100F001
S214003CE0C1F80C48012100F0BDF80B48012100F096
S214003CF0B9F80A48694601F089FAFFF7BFFF20467F
S214003D0007B030BDF436010080200020842000205B
S214003D104041050000250800002204000000014084
S214003D2008B5430701D5FFF7C9FF002008BD00000E
S214003D3008B50B48012100F095F80A48012100F06B
S214003D4091F804210A460520002301F093F8052087
S214003D5001460422002301F08DF8002008BD00BFB4
S214003D60404105000025080001280FD8094A12F82E
S214003D70301030234B4302EBC00207491944536806
S214003D8003EBC1039B000020186070474FF0FF3024
S214003D90704700BF0C3701000CA01042012810D855
S214003DA0094A12F8301030234B4302EBC002074991
S214003DB01944536803EBC1039B0001221A600020DC
S214003DC070474FF0FF3070470C3701000CA01042D0
S214003DD0012810D8094A12F8301002EBC002002061
S214003DE0536801229A4030234B4303F1804303F586
S214003DF020439A6170474FF0FF3070470C37010040
S214003E000B4B0C4941F6713210B51C6C1A645A689B
S214003E10094A02448A4294BF4FF0807100215A68D2
S214003E2022F040720A435A600CB100221A6410BD98
S214003E3000000E407F9FD5007F4573FE08B5FCF757
S214003E40C3F9BDE80840FFF7DBBF0000044BD3F81A
S214003E504421D20703D4D3F840211042FBD1704747
S214003E6000400E40C0F30322013A70B503460E46EA
S214003E70092A26D8DFE802F018082525050B0E25A6
S214003E80111500200F4C11E000200F4C0EE0012011
S214003E900E4C0BE010200E4C08E04FF480300D4C1A
S214003EA004E000200C4C01E00C4C0020C3F3043569
S214003EB008B1FFF7CBFF04F1047405EBC404A400BB
S214003EC0266070BDB0400E40C0400E40E0400E4040
S214003ED0E8400E40F0400E4050410E4000400E407C
S214003EE0C0F30313013B062B34D8DFE803F00408C5
S214003EF00E14181E2700184BD3F8000102E0164BCC
S214003F00D3F81401C0F304207047134BD3F8000114
S214003F10C0F300607047104BD3F80C0102E00E4B64
S214003F20D3F80801C0F3082070470C4B984211D113
S214003F30094BD3F8203103F00F0307E0084B9842F3
S214003F4008D1054BD3F8283103F00303012098402D
S214003F50013870470020704700400E40600612008F
S214003F607007140008B5FFF7BBFF013008BD00005E
S214003F7000F00F000138052835D8DFE800F0030D03
S214003F801734222C1B4BD3F8943003F00703023B64
S214003F90022B2AD8184A12E0164BD3F8803003F0CA
S214003FA00703013B032B22D8144A08E0114BD3F831
S214003FB0843003F00703013B032B18D8104AD05C6B
S214003FC070470C4BD3F8883003F00703013B032BF4
S214003FD00DD80C4AF3E7074B1B6F13F0010F14BF05
S214003FE008200720704700207047052070470120F2
S214003FF0704700BF00400E401C3701001F3701000D
S214004000233701002737010010B50446FFF7B0FF3D
S2140040101B4B9C4209D01B4B9C420AD01A4B9C421D
S2140040200CD11A4BD3F8800006E0184BD3F8840066
S21400403002E0164BD3F8880000F00700013803288A
S2140040401CD8DFE800F002060E0ABDE81040FCF7B8
S21400405005B9BDE81040FCF707B9BDE81040FCF70D
S21400406000B90A4BD3F80031DB0103D5FCF7D4F8CE
S214004070800810BDFCF7D0F8400810BD002010BD29
S21400408003001A0005001E000200180000400E4043
S21400409000F47810B0F5602F08B566D017D8B0F5E4
S2140040A0802F32D00AD800285BD0B0F5003F5FD111
S2140040B0FCF78EF82F4BD3F808312BE0B0F5202F05
S2140040C02BD0B0F5402F45D0B0F5002F48E0B0F526
S2140040D0A01F32D00ED8B0F5801F27D0B0F5901FA5
S2140040E046D12548FFF790FF224BD3F8202102F057
S2140040F00F022AE0B0F5D01F1DD0B0F5F01F15D086
S214004100B0F5C01F34D11C4811E0FCF761F8194B1C
S214004110D3F80C31C3F3082306E0FCF759F8154B27
S214004120D3F81431C3F30423013310E01348BDE879
S2140041300840FFF769BF1248F9E71148FFF764FF28
S2140041400C4BD3F8282102F0030201239340B0FB66
S214004150F3F008BD0B48FFF70BFF072805D008282B
S21400416006D1BDE80840FCF733B8074B186808BD11
S214004170002008BD00400E400200180005001E008A
S21400418003001A0006000C0034080020C0F30313D6
S214004190013B70B50C46072B00F29380DFE803F076
S2140041A004151F2935566E82464E474DFFF746FECC
S2140041B0012333602B60454BD3F8001121F4F851EE
S2140041C041EA0424C3F8004131E0404BD3F814110F
S2140041D021F4F85141EA0424C3F8144170BD3B4B66
S2140041E0D3F8001121F0807141EA0464C3F800415D
S2140041F070BD364BD3F80C1121F4FF3121F48071D9
S21400420041EA0421C3F80C1170BD2E4E2E4DFFF767
S21400421015FE012333602B602C4BD3F8081121F4D4
S214004220FF3121F4807141EA0421C3F80811FBF73D
S214004230F3FFFFF7E5FD2648FFF72AFF254B9842D8
S21400424094BF002001203060286070BD224B984249
S2140042502BD0224B984200D070BD0420FFF7F6FD0D
S2140042601A4AD2F82031013423F00F03B4FA84F44A
S214004270C4F11F041C43C2F8204170BD184B98427D
S2140042801FD14020FFF7E2FD104AD2F82831013452
S21400429023F00303B4FA84F4C4F11F041C43C2F8E9
S2140042A0284170BD0C4B98420BD14FF48020FFF78D
S2140042B0CDFD064BD3F8301121F00F010C43C3F8A7
S2140042C0304170BD4000C8436020C84300400E40E7
S2140042D0000508000048E80180091000600612008A
S2140042E0700714000139FFF751BF0000013803289A
S2140042F043D8DFE800F0022B111EC1F308011F4B64
S2140043001B68002BFBD11E4A136A23F4FF7323F0AD
S214004310010319431162704701F07F01194B1B68B6
S214004320002BFBD1164A136923F07F031943116152
S214004330704701F07F01144B1B68002BFBD1104A1D
S214004340936923F07F031943916170470C4AD2F8B2
S2140043509030536A23F0300343F010035362C1F3E6
S214004360C31303330F2B28BF0F2341EA0371074BF8
S214004370074A1A6003F10073196070476828C8433B
S21400438000400E406028C8436428C84330400E44AE
S214004390FF0700F00F4B1B6813F0300F06D02029E4
S2140043A007D0302902D009B10B4B04E04FF440038C
S2140043B001E04FF400030949D1F890201A409A42D0
S2140043C0F9D15B0246BFD1F8A000C0F380200120DF
S2140043D0704700BF24400E40FF03C10700400E4058
S2140043E002280AD129B1064B4FF48060C3F8A80012
S2140043F0596612B10220FFF7CDBF0120704700BFFB
S21400440000400E40F8B5042875D8DFE800F0080331
S2140044100F296F00802640240623072524E04FF44A
S21400442000764FF48074082309251DE0002952D039
S21400443031494B6A13F0300F09D14B6ADB070AD5B6
S2140044404B6A23F0300343F010034B6203E004246E
S214004450022303250AE0042402230325012606E09E
S2140044600124022600232546002936D000262249AC
S2140044700C662249194489000B68002BFCD01AB937
S214004480BDE8F84000F058BA1C4B2B449F003B6830
S214004490002BFCD00228F3D1002EF1D0164D696A0D
S2140044A011F0010104D020210122FFF799FF01E05D
S2140044B0FFF770FFD5F89C60022000210122FFF76D
S2140044C0A1FF0220C6F30A01FFF710FF2C663B6827
S2140044D0002BFCD0D4E708260223074A1666074AB4
S2140044E01A4492001368002BFCD1C9E7202610243A
S2140044F004230525B8E7F8BD00400E408004F210FE
S21400450000F00F00013810B5042870D8DFE800F07E
S21400451003743F6F76000239032971D8DFE801F093
S2140045201802050F0120032414E0364A0123136005
S21400453002F5005220320220136004460AE0314B96
S21400454001241C6003F50053203303201C6001E0A7
S2140045500020042401210A46FFF754FFFFF76EFCF3
S214004560294B2A485C67FFF793FD294B9842254B59
S21400457094BF00200120186003F500532033186014
S21400458000F0DAF9FBF748FEFFF73AFC2FE0214C83
S2140045900139082934D8DFE801F028070E3333152F
S2140045A033330500042321E0012100200A46FFF7EB
S2140045B029FF02231AE0012001460246FFF722FFE8
S2140045C0012313E0FBF728FE114B98420D4B94BFD6
S2140045D000200120186003F5005320331860A3F56F
S2140045E0266301221A60032300E000232360054BA4
S2140045F01B68094B1B6810BD084CC9E7084CC7E789
S21400460010BD00BF4000C84300400E400005080033
S2140046100048E80184400E406020C84380400E40B9
S21400462088400E4010B504461120FFF7A1FC00217B
S21400463001220220FFF7E6FE2378227C002B14BF1F
S2140046404FF480730023022A08BF43F001031E4A7A
S21400465040F20111116002F10072072113601B4B3A
S214004660E27A196003F1007319491A60637AA28826
S21400467043EAC223174A116002F100721360237ADC
S214004680E288D91CDB0143EAC223A27A0F2928BF9D
S2140046900F211343104A43EA01736FF07F611160E4
S2140046A002F100720D491360637B227B1B0343EA11
S2140046B00243E27B1343A27B43EA0213084A1160DB
S2140046C002F10072136010BD24400E4428400E44D0
S2140046D07FF80F002C400E4430400E44FFF00F00D1
S2140046E034400E44214B45F60E02D3F88011C3F831
S2140046F080211F4A106840F2551202401A661D4A71
S214004700128802F00702032A01F0010104D0042AED
S2140047100BD0022A23D10EE05A6A92001FD4D3F897
S21400472090201006FBD5032217E0D3F890209205C0
S214004730FBD5042211E00D4BD3F890301B07FAD5B9
S2140047400D4B1B6813F0300F06D10C4B1B6803F49F
S2140047504003B3F5400FF8D10222044B5A6719B153
S214004760024B0022C3F88021704700BF00400E4075
S214004770942000209220002024400E4090400E40BE
S2140047801848194BC26C1B88C2F303222833013227
S21400479002EB820103EB6303B3FBF1F3C16C013B55
S2140047A0072B21F0EE6128BF072341F4801141EA70
S2140047B00363C3640D4BB3F90030002B10DB2833C2
S2140047C0510001EB520203EB6303B3FBF2F3026DFD
S2140047D0072B28BF072322F0700242EA0313036563
S2140047E0704700BF00300E40902000208A20002036
S2140047F0084B1A78012A0BD1074A126C02F0030202
S214004800012A03D1054A1268D203FBD502221A7088
S214004810704700BF9820002000300E407C300E40CD
S214004820054A064BD16C1960D36C23F47F4343F4DE
S214004830EE43D364FFF7A4BF00300E408C20002068
S21400484038B5144B144AD3F890101160D3F894403E
S214004850124A134BA4B21C80136943F0040313617D
S2140048600546FFF7DDFFFFF7C3FF30BF0D4B1A68A5
S2140048700D4BDA64FFF784FF1DB1BDE83840FFF743
S21400488031BF04F00704012C03D0BDE83840FBF725
S214004890C3BC38BD00400E409420002000ED00E070
S2140048A0922000208C20002000300E4038B51C4B93
S2140048B01C4AD3F890101160D3F894401A4AA4B258
S2140048C01480D3F8802145F60E01D207C3F8801174
S2140048D048BF00224FF42071196648BFC3F88021F4
S2140048E0124A136943F0040313610546FFF798FF65
S2140048F0FFF77EFF30BF0E4B1A680E4BDA64FFF7E9
S2140049003FFF1DB1BDE83840FFF7ECBE04F00704DA
S214004910012C03D0BDE83840FBF77EBC38BD00BF95
S21400492000400E40942000209220002000ED00E081
S2140049308C20002000300E40044B054AD3F890101F
S2140049401160D3F89420034B1A80704700400E4045
S2140049509420002092200020074A936FDB07FBD4A8
S214004960011C064B18BF01211960136C23F00303CA
S21400497018431064704700BF00300E40B40AC643A8
S2140049801A4B4AF6E85270B59C699E699A60986917
S21400499024F4403410F0010044F4003446F4403669
S2140049A01D4607D11B6C03F00303013B012B01D806
S2140049B0FFF7D2FFAB69DB0708D50D4B4AF6E85286
S2140049C01A600C4A136843F080031360FFF728FF51
S2140049D0FFF70EFF054B9C619E619C619E619C618A
S2140049E09E619C619E619C6170BD00BF00300E4060
S2140049F090310E4098310E406A4B2DE9F74F9B6B75
S214004A00019203F00F03022B804601D00020C6E07F
S214004A10A0F5E163B3F5966FF8D800221446134666
S214004A2049B901990124002900F09D80DFF87CA196
S214004A304FF0080903E0DFF878A14FF00109B8F558
S214004A40E16F94BF00200120574948B1002C40F088
S214004A508F8040F6B83C4FF4E1654FF0010E07E05A
S214004A60002C40F091804FF4E16C4FF49665A6461A
S214004A704C4EDFF840B1F66C06F040564EEA06079C
S214004A805F4521D008D8012F1BD026D3B7F1805F11
S214004A902BD1D1F86C3125E0DFF81CB15F4516D07C
S214004AA005D8B7F1005F20D1D1F8703111E0B7F129
S214004AB0405F15D0DFF804B15F4516D1D1F87831E4
S214004AC010E0D1F8743104E0D1F874310AE0D1F87E
S214004AD07831C3F30722DBB207E0D1F86C31F8E790
S214004AE0D1F870311A0EC3F30743096D2E4FC9B2C1
S214004AF0032903D8D7F87C1148B10AE0360F022EF6
S214004B00D7F8801108D0032E09D0012E01D0C9B2E3
S214004B1006E0C1F3072103E0C1F3074100E0090EF8
S214004B20090311F4702F7FF471AF1E4EF06E20F45F
S214004B30704001436545F166BFF468AFC5EB0800F9
S214004B40D11A4143C5EB0C05B1FBF5F51D44954262
S214004B503FF65CAF9D42FFF459AF05FA09F545EA0A
S214004B600E05CAF80050002C3FF45BAF204616E056
S214004B70D1F8683140F6B83C1A0E4FF4E165C3F33D
S214004B8007434FF0020ED9E7D1F868314FF4E16CD5
S214004B90C3F307224FF49665DBB28646CEE703B032
S214004BA0BDE8F08F00300E40B081E00F5C300E4064
S214004BB064300E40010000100100002001000030AB
S214004BC0194B1A6FD96CC90702F0070206D5012ADD
S214004BD004D9132818D91438132811E0DB6CD90728
S214004BE006D4012A04D809280ED90A38092807E06D
S214004BF00D4BDB6C13F0010309D0012A06D82728D9
S214004C008CBF1023082302E0042300E0002306489C
S214004C10013BC26C190341EA032322F47F4213438B
S214004C20C364FFF7ADBD00BF00300E40054A064B1B
S214004C301B68136F23F007031843044B106718888C
S214004C40FFF7BEBF00300E408009C6438820002014
S214004C50524B027873B59A639B6B03F00F03934233
S214004C60044601D0002595E04D4ED6F86C31013350
S214004C701DD04C4B1A68043B1B681A604A4B1A68D6
S214004C80043B1B681A60494B1A68043B1B681A6091
S214004C90474B1A68043B1B681A60464B1A68043B6D
S214004CA01B681A60444B1A68043B1B681A60E3884A
S214004CB04A2B0BD9B3F5FA7F0AD340F6C3129342B8
S214004CC094BF4FF000534FF0405303E0002301E041
S214004CD04FF08053314DB4F90C00E96C21F040528E
S214004CE022F001020028A8BF42F001021343EB6441
S214004CF0EB6E43F08073EB660420FFF797FF2B6E96
S214004D0023F0C0432B66EB6C43F00603EB64F56CB4
S214004D1001A8C5F3074500F063F9A5F110030B2BB6
S214004D2003D905F0FD05512D17D19DF80500012882
S214004D3013D19DF80430022B0FD820490B7863B9A5
S214004D401F4A164D136843F0010313602B6E1D4A6D
S214004D501A401D4B13432B6608701C4B2189198083
S214004D601B4BA2891A801B4BA0881880FFF728FFD0
S214004D70012160880A46FFF73FFE054600283FF4FB
S214004D8071AFA37A144A6078003318BF012313600A
S214004D90FFF7E2FD284602B070BD00BF00300E40AF
S214004DA0B081E00F3C80E00F4480E00F4C80E00FC5
S214004DB05480E00F5C80E00F6480E00F98200020B5
S214004DC044300E40000F0EF0B4C0400B9020002080
S214004DD08A200020882000209407C643072930B583
S214004DE04FF00F0406D88D00AC40A840194D2C603B
S214004DF0194C07E0A1F10805AD00AC40A840174DDE
S214004E002C60174C2060072A88BF083A4FF003042E
S214004E1001EA040097BF920092009440904085BF3C
S214004E20944090400F4A104A146002F100721060DD
S214004E300E4A0A44920013609DF80C30C2F8803087
S214004E4001238B400A49C1F824349DF81030C2F87B
S214004E50003330BD00A4004400A4004604A400446F
S214004E6004A4004608A400440CA400448020851036
S214004E7000A00040F0B562B1302404FB00F51F4CE2
S214004E802C4401EBC404A40013B10125256000E006
S214004E9023603024444304F18044072904F5204469
S214004EA00CD867684FEA810E0F2505FA0EF527EA3B
S214004EB0050602FA0EF5354365600CE001F1804503
S214004EC0083DA768AD000F26AE4027EA060602FAA0
S214004ED005F53543A5607AB93022504333B1074B08
S214004EE0034401EBC3018900012304E0034A0244A2
S214004EF001EBC20189000B60F0BD00BF0CA01042A0
S214004F00014B01229A60704700500E40124B30B59C
S214004F105D6800231846114CE2185168104A126862
S214004F2052070FD4E258B2F5806F09D002D8B2F516
S214004F30007F04E0B2F5006F02D0B2F5803F01D1E9
S214004F4041F48071E2582A4202D0294208BF104339
S214004F500833482BDFD130BD00500E402C370100FF
S214004F607A40E00F8B784A789B0143EA82030A78FE
S214004F701343CA7843EA02130A7943EAC2234A79FA
S214004F8043EA02338A79043043EA42430001014A85
S214004F901350704700200440014B1860704700BF54
S214004FA000008442837842781B0143EA8203027839
S214004FB01343C27843EA4213027943EA0223427952
S214004FC043EA0233827943EAC233C27943EA0243B0
S214004FD0027A43EA4243014A1360704700200440C5
S214004FE00B4A536903F00F011369C3F3811343EAB5
S214004FF081038370136903F03F034370936903F0E2
S214005000F001D369C3F303130B430370704700BF6B
S214005010D0FF0FE030B50C780CB9022343600023B4
S2140050204362CB788A781B0443EA02630A7A134306
S2140050308A7943EA8223CA7943EA02234A78002A15
S21400504014BF4022002213434A7A002A14BF80224B
S214005050002213438A7A002A14BF20220022134318
S214005060CA7A002A14BF1022002213430A79002AA3
S2140050704A7914BF4FF400550025002A43EA050379
S21400508014BF4FF0805200221A430B7B002B14BF34
S21400509008230023134303600CB10123436030BD93
S2140050A0537810B514781B0643EA84639479234337
S2140050B0947843EA0443D47843EA0433147943EA01
S2140050C08423547943EA0423D479002C14BF4FF088
S2140050D0804400242343147A002C14BF4FF000545D
S2140050E000242343547A927A002C14BF1024002400
S2140050F00631002A43EA040314BF042200220901F1
S2140051001343435010BD000070B5044616461D46B6
S21400511019B91448FEF7BCFF0146202D07D001D868
S2140051205DB170BD402D04D0602D04D070BD082246
S21400513004E0062202E0042200E01022236823F0A6
S2140051406003236072434901236801EB5201B1FBFF
S214005150F2F20549203AD20011401D4325606161F4
S21400516070BD00BF40410500F8FF7F00F8B504465B
S214005170154619B90E48FEF78BFF0146C8012A46A8
S2140051800023490E07F0ACFCB0F1800641F1FF3772
S214005190310A41EA076107480A02024004F1140096
S2140051A000F1806300F1C060024919600260F8BD3A
S2140051B040410500F8FF7F00CB4303F005035B008A
S2140051C0C360C1607047000040F6AA63C36041F246
S2140051D00502002303604260094A83604361C3649A
S2140051E08264084A436790428367C36708BF0365C3
S2140051F08365054B984204BF0023C365704700BF14
S214005200F9FF0100000001400004014038B50C46DB
S2140052100546FFF7D9FFA37C1BB12B6843F08043FC
S2140052202B60E37C1BB1237D43F08003AB65637B7F
S214005230228A61681A43E38913436B60A268237B62
S2140052402846FFF761FFE37D1B0503F4E002A37D1C
S2140052501B0703F0E04313432B66637D1BB12B68EB
S21400526043F480332B602378EB6038BD38B50C46AA
S2140052700546FFF7A9FF238AA27B296843F00103AE
S214005280002A9BB214BF4FF4806200220B431343E4
S214005290227D2B602B68002A14BF4FF0005200229C
S2140052A013432B60A37C1BB1E37C43F08003AB6508
S2140052B0237B6168A26843F480536B602846FFF73F
S2140052C055FF637B0BB11023EB60E37D1B0503F4F6
S2140052D0E002A37D1B0703F0E04313432B66637DC8
S2140052E01BB12B6843F480332B602378EB6038BD0A
S2140052F003691B06FCD5C069C0B2704703695B062C
S214005300FCD54163704703695B06FCD5C1637047F3
S21400531010B5044674B194FAA4F0B0FA80F00123F4
S214005320834024EA0304044B53F82030002BF1D0CA
S2140053309847EFE710BD00BFA0200020054B4FF4B4
S2140053400032C3F880211A604FF40072C3F880213F
S2140053501A60704700E100E072B6094B1A68B2F1B5
S214005360FF3F1CBF01321A601B68064A42F8201035
S21400537023B1034A013B136003B962B6704700BF0E
S2140053809C200020A0200020074AD2F82804D2F84B
S2140053901C34184020F42A5020F02A004004400C08
S2140053A0C2F82404FFF7B4BF00A00040074AD2F8B2
S2140053B02804D2F81C34184020F4AA4020F05500E7
S2140053C00004000CC2F82404FFF7A2BF00A00040AF
S2140053D008B500F01FF800F0DDFCBDE8084000F05E
S2140053E01BBB08B500F076FBBDE8084000F088BBA4
S2140053F082B000EB40000021CDE90001DDE900238A
S21400540012F1FF3043F1FF311343CDE90001F5D12E
S21400541002B07047F0B54F4B91B002AA03F10805F1
S214005420174618685968144603C40833AB42224628
S214005430F7D118689B88A380474B206006AA03F123
S2140054401005164618685968144603C40833AB425C
S2140054502246F7D11B882380404C0FCC0BAD0FC5DE
S21400546023682B603846FFF7F3FB3046FFF7DAF881
S2140054700BA802F011F911200421FFF741F80021D2
S2140054800A460320FEF7BEFF54F8040F344D616849
S214005490344C6B4603C3684602F0B2F8012002465D
S2140054A00146FEF7AFFF30480321FFF729F82F48E3
S2140054B00321FFF725F82E480121FEF7D3FC2D48DF
S2140054C00121FEF7CFFC2C480121FEF7CBFC2B4830
S2140054D00121FEF7C7FC20462949FFF7C7FE0B232C
S2140054E0636703F10B23A36702200621042200232F
S2140054F0FFF7C0FC0220024607210023FFF7BAFC94
S2140055000220082104220023FFF7B4FC04210A46E7
S21400551001230020FFF7AEFC002742F21070FFF7D1
S21400552067FFAB2120462F60FFF7E8FE01262046E6
S214005530FFF7DEFE2E601E20FFF75AFF2046B92139
S2140055402F60FFF7DBFE2046FFF7D2FE2E6011B07D
S214005550F0BD00BF743701008237010094370100A8
S21400556090011442000401400200180003001A00D3
S2140055700005080040410500002508000032040030
S214005580C837010008B1052303600148704700BF13
S2140055906808002008B1062303600148704700BF72
S2140055A038080020024B03449B0000221A60704714
S2140055B04000F310F8B504460E461448012117467D
S2140055C01D46FEF74FFC124820448000002303606F
S2140055D004F110020F4B45EA072543F82250A208B3
S2140055E0103304F0030453F82250E400FF21A140D6
S2140055F025EA010143F8221053F82250A64046EA55
S214005600050143F8221001230360F8BD00350800A9
S2140056104000F31000600E4000207047FEE74FF495
S21400562000534B60002070470120704700207047F1
S214005630F8B50E468F180D46BD42A5EB060406D0FB
S21400564000F0DAF8431C02D005F8010BF4E7002C52
S21400565014BF20464FF0FF30F8BD70B50E46154615
S2140056600C46A31BAB4204DA14F8010B00F0FAF860
S214005670F7E7284670BD000008B50D4B1A680AB952
S2140056800C4A1A601A681318EFF308818B420BD97C
S214005690094B1B68986807F00BFD08491922FFF7AD
S2140056A0DCFF012007F0F0FC014910460B6008BD46
S2140056B0E0200020982F002044090020E037010059
S2140056C0104838B503691B061BD50F4C2568FFF735
S2140056D00FFE0E4B58552368013323600C4B1A6897
S2140056E001321A602268082A04BF002222601B6862
S2140056F0082BC1BF064A002323601360C4BF054AB7
S214005700136038BD00000140F0200020E520002096
S214005710F8200020F4200020034B10B101221A705C
S21400572070471870704700BFE420002030B52A4844
S2140057302A4D87B00121FEF795FB29480121FEF787
S21400574091FB0020014604220123FFF793FB002073
S21400575001210A460346FFF78DFB0FCD6C460FC4AA
S21400576095E80300042284E80300012300200521B5
S214005770FFF780FB1B481C4C0121FEF773FB06A9B4
S214005780002501F8185D2046FFF740FD03236367F8
S214005790A36F164A23F4F85323F01F03A3674FF4AE
S2140057A000610423A364C2F88011E36C43F0040391
S2140057B0E364204611600521FFF7FEFC0C4B1B68D6
S2140057C02946986802222B4608F0BCFB094B0122AA
S2140057D01A7007B030BD00BF40410500FC3701001D
S2140057E000250800002204000000014000E100E05F
S2140057F044090020ED200020154B1B7810B50BB98E
S214005800FFF794FF72B6134B1A68511C1CBF013287
S2140058101A60114A1168002910DD1049104C0868FA
S214005820205C0C6801340C600C68082C04BF002453
S2140058300C6011680139C0B2116001E04FF0FF3012
S2140058401B6823B1034A013B136003B962B610BD5F
S214005850ED2000209C200020F8200020F4200020CE
S214005860E520002038B50F4B1B7804460BB9FFF730
S2140058705DFF0D4B1A781D462AB10A2C03D10B4842
S2140058800D21FFF73BFD09482146FFF737FD2B7832
S2140058902BB10D2C03D105480A21FFF72FFD20461A
S2140058A038BD00BFED200020E420002000000140AD
S2140058B072B6044B1A68511C1CBF01321A60186875
S2140058C0704700BF9C200020034B186818B10138B1
