S01500007261696C746573745F65667233322E73333776
S2140000000080002099010000C5010000C501000025
S214000010C5010000C5010000C5010000C5010000C3
S214000020C5010000C5010000C5010000C5010000B3
S214000030C5010000C5010000C5010000C5010000A3
S214000040C50100000D7B0000C5010000197B000003
S214000050617B0000317B0000257B0000557B0000A3
S214000060C501000019540000055F0000515700004C
S214000070C5010000C5010000C5010000C501000063
S214000080C50100003D540000C5010000C501000088
S214000090C5010000C5010000C5010000C501000043
S2140000A0C5010000C5010000C50100003D7B000041
S2140000B0497B0000B15B0000C5010000C5010000DF
S2140000C0EDAB0000C501000010B5054C237833B930
S2140000D0044B13B10448AFF300800123237010BD16
S2140000E0A809002000000000B8550100084B10B514
S2140000F01BB108480849AFF300800848036803B9F5
S21400010010BD074B002BFBD0BDE81040184700BFC2
S21400011000000000B8550100AC090020A00900202E
S21400012000000000154B002B08BF134B9D46A3F59F
S214000130803A00218B460F461348144A121A0DF0D7
S2140001406DF90F4B002B00D098470E4B002B00D0BC
S21400015098470020002104000D000D48002802D01A
S2140001600C48AFF300800DF0FDF82000290003F0E6
S21400017031F80CF0D1FF00BF00000800008000201E
S2140001800000000000000000A8090020B02F00209A
S2140001900000000000000000064880470649074AA5
S2140001A0074B9A42BEBF51F8040B42F8040BF8E71F
S2140001B0FFF7B8FF49020000EC55010000000020E0
S2140001C0A4090020FEE700BF0048704700F049027F
S2140001D00D4AD2F8943003F00703032B0AD0042B01
S2140001E003D0022B03D1094B02E0094B00E0094B78
S2140001F0186801E04FF40040D2F80031C3F304233E
S2140002000133B0FBF3F0704700400E4000000020C2
S214000210040000200800002008B5FFF7D9FF054BB2
S214000220D3F80831C3F308230133B0FBF3F0024BD5
S214000230186008BD00400E40382E0020014B18689C
S214000240704700BF00000020034AD2F8883043F40D
S2140002507003C2F88830704700ED00E04FF40040AD
S21400026070474FF47A707047014B1868704700BFAC
S2140002700400002070B5002088B00C46096803F022
S214000280C3F9002858D02D4B66680FCB04AD85E81F
S2140002900F0030462A4904220DF08AF810B98DF86E
S2140002A013000DE03046274902220DF081F818B9F8
S2140002B001238DF8133003E02068234A202125E02F
S2140002C0A06803F005FD43F2C82680B2B04203D909
S2140002D020681E4A212119E0ADF81400E06803F0FA
S2140002E0F7FC80B2B04203D92068194A22210DE0FB
S2140002F0ADF81600206903F0EBFCADF818002846B0
S21400030009F006FD014620B12068124A06F0C4FE38
S21400031012E0BDF814300093BDF816300193BDF816
S214000320183002939DF813500B4B20680B490C4A6B
S21400033053F8253006F09EFE08B070BD7805010023
S21400034088050100121701008D050100AD050100AA
S214000350C2050100DC0501001C0000200B060100A0
S214000360B333010038B500200C46096803F04CF999
S21400037080B109F085FC05460B2002F049FD064BCE
S214000380064A20680649002D08BF1A46BDE83840D0
S21400039006F070BE38BD00BFB3330100550601003D
S2140003A05E0601002DE9F34148680C4603F090FC18
S2140003B0071CA06818BF012703F08AFC061CE0682B
S2140003C018BF012603F084FC051C206918BF012510
S2140003D003F07EFC10F1000818BF4FF00108F8008B
S2140003E016B140F00400C0B20DB140F00200B8F102
S2140003F0000F01D040F0010009F07DFC38B1206804
S214000400104A232102B0BDE8F04106F045BE206840
S2140004100D4B0E4C0E49B8F1000F14BF22461A467B
S214000420002D14BF25461D4601920095002F14BFCF
S21400043022461A46002E18BF234606F01BFE02B0C0
S214000440BDE8F0816A06010055060100B3330100DD
S2140004509006010038B548680C4603F039FC051CC8
S21400046018BF0125284609F03AFC30B12068084A32
S2140004702421BDE8384006F00FBE064B064A206829
S2140004800649002D08BF1A46BDE8384006F0F2BD02
S214000490C806010055060100B3330100EC06010052
S2140004A038B548680C4603F013FC051C18BF012538
S2140004B0284609F008FC30B12068084A2421BDE827
S2140004C0384006F0E9BD064B064A20680649002D6E
S2140004D008BF1A46BDE8384006F0CCBDFF0601004E
S2140004E055060100B33301002207010010B5486825
S2140004F00C4603F0EDFB80B209F0DFFB054A064B25
S2140005000649002818BF1A462068BDE8104006F0C5
S214000510B1BD00BF55060100B3330100340701002A
S21400052010B548680C4603F0D3FB80B209F0C7FB51
S214000530054A064B0649002818BF1A462068BDE83B
S214000540104006F097BD00BF55060100B33301000A
S2140005504507010037B50D46012455F8240003F081
S214000560B7FB0DEB04030134092C03F8010CF4D19E
S214000570684609F0A6FB054B054A0649002818BF41
S2140005801A46286806F076FD03B030BDB333010086
S214000590550601005D07010010B548680C4603F0DB
S2140005A097FBC0B208F0CCFA28B120680549BDE830
S2140005B0104006F05FBD2068034A3521BDE81040B4
S2140005C006F06ABD740701008D07010010B50C46E1
S2140005D008F0C2FA054A064B0649002818BF1A4614
S2140005E02068BDE8104006F045BD00BF5506010076
S2140005F0B3330100B007010010B548680C4603F09D
S21400060067FB10B908F0A6FA01E008F0A1FA214647
S2140006100120BDE81040FFF7D9BF00002DE9F04FDC
S21400062008682549254F85B006F0FAFC00264FEAF3
S214000630860A00253B78DFF8A080E3B105EB0A0BBD
S21400064000244FEACB0BA1463B7899450CDA1C4BAD
S2140006501C494B4408EB040013F80B200DF074FD06
S21400066009F101090444EFE7002C06DD44440023A9
S21400067004F8013C01E088F80030134A1349387842
S214000680134B2A449B5D12F80A40124A002C18BFEE
S2140006900A468DE80101029207482A46314601358E
S2140006A006F0D6FC042DC5D101370EB90126BEE7EB
S2140006B005B0BDE8F08F00BFC4070100C4090020E4
S2140006C0C6090020FD070100360A0020B3330100EA
S2140006D03E0A002055060100060A0020234B2DE99D
S2140006E0F04700241C705C70214B224E1C705C701E
S2140006F005460F46402221461F480CF08FFE214635
S21400070008221E480CF08AFE786803F0E1FA052DF0
S214000710D8BFAC1EF060C8BF042407F10808002547
S214000720A54212DA15F0010FD8F800000CBFD6F873
S21400073004A0D6F808A003F0CBFA4FEA650908F142
S21400074004080AF809000135EAE70A4808F0D4F96F
S21400075028B139460120BDE8F047FFF75FBF38688B
S214000760074A3021BDE8F04706F096BC3E0A002056
S214000770C40900200C000020C6090020360A00200C
S214000780050801002DE9F341804648680C4603F051
S2140007909FFAC7B2A06803F09BFA022F02D8C5B230
S2140007A0042D03D920681C4A312123E0B8F10B0F31
S2140007B003DD2068194A32211CE0002300930193D0
S2140007C00326464509DA54F8260003F081FA0DEBB5
S2140007D00603013603F8030CF3E705EB8706104B18
S2140007E0384629466A469B5D08F0BAF928B920685B
S2140007F00C4A332106F050FC0BE00B4A6B4603CB49
S21400080002EBC60542F83600696001202146FFF774
S21400081005FF02B0BDE8F0812E0801005308010074
S214000820360A002071080100C6090020F0B54868A5
S21400083085B00E4603F04CFAC4B2B06803F048FA2E
S214000840C7B2F06803F044FAC5B23946204615B977
S21400085008F08AF901E008F085F938B93068124ADC
S214000860342105B0BDE8F04006F016BC003507EBB5
S21400087084030E4A30680E4E18BF0125D5540D4B22
S214000880195D0D4B1A5D0D4B002D14BF1D463546E8
S2140008900B4B02938DE8060003950A4922463B4619
S2140008A006F0E8FB05B0F0BD8E080100360A002011
S2140008B0550601003E0A0020C4090020B33301009B
S2140008C0060A0020C407010073B50C46002009681C
S2140008D002F09AFE00284DD0656827492846042273
S2140008E00CF066FD10B9254B18700DE0284624491B
S2140008F002220CF05DFD18B9204B01221A7003E0AD
S2140009002068204A202123E0A06803F0E1F943F2A2
S214000910C82680B2B04203D920681B4A212117E0BE
S214000920164D6880E06803F0D3F980B2B04203D970
S2140009302068164A22210BE0A880206903F0C8F937
S214000940E880284609F03BF9014630B12068104A95
S21400095002B0BDE8704006F09FBBAA882E786B8870
S2140009600092EA8801920B4A20680B4952F826202A
S21400097006F080FB02B070BD88050100400A00202A
S214000980121701008D050100AD050100C20501002A
S214000990B00801001C00002017060100F7B50C4641
S2140009A009F00BF9074609F03CF9054609F03FF94E
S2140009B022680A4B0A4C0B4E0B49002814BF1846F7
S2140009C0204600901046094A002D08BF2346002FF7
S2140009D008BF324606F04EFB03B0F0BDDD0801004E
S2140009E0E408010055060100ED080100B3330100DC
S2140009F010B50C4609F0CAF8014618B12068044A3A
S214000A0006F04AFB21460120BDE81040FFF7C6BFAE
S214000A101E09010070B548680C4603F059F90646F1
S214000A20A06803F055F916F0FF0FC5B202D009F022
S214000A30F4F801E009F0F3F815B109F0F4F801E074
S214000A4009F0F3F821460120BDE87040FFF7A6BF85
S214000A5070B54868104E0D4603F03AF90446A8688B
S214000A6003F036F9E2B200320C4B0D4918BF0122F2
S214000A70C0B2041C1A700B4B286818BF01241C70E7
S214000A80094B002A14BF32461A46002C18BF3346BC
S214000A90BDE8704006F0EEBA360901006715002082
S214000AA041090100801600203B09010010B50C46E4
S214000AB009F096F9054A064B0649002818BF1A465B
S214000AC02068BDE8104006F0D5BA00BF5506010004
S214000AD0B33301007909010038B548680C4603F0C5
S214000AE0F7F821680546002002F08EFD58B115B1D2
S214000AF009F058F901E009F063F921460120BDE844
S214000B003840FFF7D3BF38BD01282DE9F34105462D
S214000B100C4618DD486803F0DBF8022DC7B213D088
S214000B20A06803F0D5F8032D80460FD0E06803F0E8
S214000B30CFF8042D06460AD0206903F0C9F8051C34
S214000B4018BF012504E02527DFF844800C4E002559
S214000B50304641463A462B4609F048F9094A0A4BC0
S214000B6020680096002D14BF1D46154601950749BE
S214000B703A46434606F07EFA02B0BDE8F08100BF72
S214000B8055555500B3330100550601008009010094
S214000B90D6BE898E38B548680D4603F099F8C4B2BB
S214000BA0A4F12503022B06D92868174A3021BDE890
S214000BB0384006F071BA154815492246002309F058
S214000BC015F9252C01D1002003E0262C0CBF0C20A3
S214000BD0272002F01DF90F492868224606F04AFA37
S214000BE00D4B0E4A03F11C0153F8040B42F8040B9C
S214000BF08B42F9D10A4B1C229A8029460120BDE877
S214000C00384000F0C7BD00BFC50901005555550066
S214000C10D6BE898EE10901005D0901003A00002078
S214000C20BC07002070B548680C4603F051F82168F0
S214000C300546002002F0E8FCE8B108F055FEC307C0
S214000C4012D5284607F0FCFE30B920680A492A4625
S214000C50BDE8704006F00EBA2068084A2B461421FC
S214000C60BDE8704006F018BA2068054A1321BDE8B2
S214000C70704006F011BA70BDF7090100080A0100BD
S214000C80410A010030B1044B10F0010F034818BFB1
S214000C901846704702487047710A0100840A01002E
S214000CA05506010070B548680C4603F011F8054675
S214000CB008F00CFE48B92846FFF7E4FF074902464D
S214000CC02068BDE8704006F0D5B92068044A2B4677
S214000CD01521BDE8704006F0DFB900BF890A0100A3
S214000CE0960A01002DE9F041054648680E4602F0D6
S214000CF0EFFF022D044604DDB06802F0E9FF074668
S214000D0000E0012714F00305306806D02346FF21D3
S214000D10094ABDE8F04106F0BFB9084906F080F977
S214000D20BD4207D02146054854F8042B06F090F93A
S214000D300135F5E7BDE8F081B30A0100D70A0100E6
S214000D40F0B5074685B048680D4602F0C1FF820739
S214000D50034602D1041F022605E028680E4AFF213A
S214000D6006F09AF915E0BE42A6F1020207DA55F837
S214000D70260002F0ADFF013644F8040FF3E701AC9D
S214000D80064920460DF0E0F9AC6003202946FFF73F
S214000D90A9FF05B0F0BD00BFB30A01006D13010046
S214000DA010B548680C4602F093FF011C226818BF75
S214000DB001210920BDE8104002F0E8BA10B54868E5
S214000DC00C4602F085FF011C226818BF012108208E
S214000DD0BDE8104002F0DABA10B548680C4602F0DA
S214000DE077FF031C18BF0123074A2068074C83F0CF
S214000DF001011170064A0749002B18BF2246BDE8BC
S214000E00104006F037B900BF6A150020B333010062
S214000E1055060100F30A010038B548680D4C0D462A
S214000E2002F05AFF01460031206018BF01210A2057
S214000E302A6802F0ABFA2368002B0ADD02F0A0FA5B
S214000E400A2806D1044B01221A60BDE8384002F099
S214000E5017B838BD2C0100206C15002010B5094BC2
S214000E60094C1878094B10F0010F14BF22461A4699
S214000E7010F0020F18BF234608680549BDE8104069
S214000E8006F0F8B835000020B3330100550601001F
S214000E90030B010010B548680C4602F019FF074A1C
S214000EA0137810B143F0010301E003F0FE03137062
S214000EB021460120BDE81040FFF7D0BF35000020D6
S214000EC010B548680C4602F003FF074A137810B1C5
S214000ED043F0020301E003F0FD03137021460120F6
S214000EE0BDE81040FFF7BABF3500002008B501F096
S214000EF08FFCBFF34F8F0549054BCA6802F4E062CA
S214000F001343CB60BFF34F8F00BFFDE700ED00E05B
S214000F100400FA0570B50D6808F04AFA044608F0B1
S214000F2049FA2246034603492846BDE8704006F0C3
S214000F30A1B800BF230B01002DE9F0410446486824
S214000F400D4602F0C5FE022C87B206DDA86802F048
S214000F50BFFE041C18BF012400E00024B7F5806F14
S214000F6008D928681E4A10214FF48063BDE8F04176
S214000F7006F092B81B48394607F0F8FDB84280469E
S214000F8004D02868184A112106F086F804BB2646C5
S214000F90BC4216DA1548134B154A1B5D3044C6F59D
S214000FA0C9710DF09FF8002806DA2868114A122148
S214000FB0BDE8F04106F070B80644B6B2B6F5C97F93
S214000FC004D328680C49094B424605E00134DFE7A4
S214000FD028680A49034B4246BDE8F04106F04AB885
S214000FE03C0B0100DA0B0020660B0100480A0020CB
S214000FF011160100840B0100A00B0100B20B0100CA
S2140010002DE9F04F87B0824602A80D4604F002FB99
S214001010814603A804F006FBD5F804B070490746DD
S21400102058460DF0F9F8DDF80C80044610B100249F
S214001030264625E06B482968029E0CF0B9FE6A48F1
S2140010400CF0B6FE44450AD014B168480CF0B0FE69
S21400105057F8341066480CF0ABFE0134F2E76548EA
S2140010600CF04AFF64480CF047FF0024B44200F03E
S214001070B38059F8341061480CF09AFE0134F5E755
S21400108044450DD007EBC40357F834000193594686
S2140010900DF0C2F8019B0134002808BF1E46EFE79A
S2140010A026B92868564A50215B4666E0D5F808807F
S2140010B0544C414620460DF0AFF80746A8B9BAF1A1
S2140010C0040F03D02868504A51211BE0E8687721B6
S2140010D002F006FE0028F5D0E86804948DF8147037
S2140010E002F0F6FDADF8160029E0484C41462046D1
S2140010F00DF092F8074620BBBAF1050F05D0286818
S214001100434A532105F0C8FF66E0E868752102F0FF
S214001110E7FD0028F3D02869752102F0E1FD0028DC
S214001120EDD00123E8688DF81430049402F0D0FD69
S2140011308DF81700286902F0CBFD8DF8160004AC78
S21400114022E0344841460DF067F8C8B10027DDF8C4
S21400115008A03C4657450BD059F8370041460DF0DD
S2140011605BF809EBC70B002808BF5C460137F1E7C0
S2140011704CB92868284A5421434605F08DFF2BE0D9
S2140011800127044600E000272448012102F0B2FEB1
S2140011900022B079F179134603F0B4FE47B13079F6
S2140011A004F048FA28681E49326805F063FF13E029
S2140011B023792BB130797179E279A37904F042FA78
S2140011C0B079F1790422002303F09CFE28681549C3
S2140011D03268236805F04EFF07B0BDE8F08F00BF09
S2140011E0CB0B0100D00B0100ED0B0100F40B01004E
S2140011F0ED330100F70B0100020C01003C0C01006E
S214001200420C01007A0C01005D0C0100A20C0100EA
S214001210850C0100D90C0100AD0C0100002508006A
S214001220CB0C0100DD0C01002DE9F041804648683A
S2140012300D4602F04DFD0746A86802F049FD3E1C2B
S21400124018BF0126044631460C202A6802F0FCF935
S21400125070B14046294600F0C7F9064B1F60064BA2
S2140012606008186026B10121BDE8F04108F066B8B4
S214001270BDE8F081402E00203C2E00200B6807EED3
S214001280900A0133012B0B60B8EEE77A06D10023F3
S2140012904860886081ED037A0B617047D1ED036A80
S2140012A04A688242D4BF4A60486007EE903A37EEFA
S2140012B0666AF8EE677A8A688242ACBF8A6088609F
S2140012C0C6EE277A76EEA77A37EE677AC1ED037A0E
S2140012D0D1ED047AE6EE077AC1ED047A7047000095
S2140012E030B5234CD4ED117A2DED028BB5EE008A85
S2140012F067EE887A89B017EE900A0D460BF066F90D
S214001300D4ED0F7AF8EEE77ACDE9000167EE887A39
S21400131017EE900A0BF05AF9D4ED107AF8EEE77A49
S214001320CDE9020167EE887A17EE900A0BF04EF9C7
S214001330A36B94ED127A013B07EE903AF8EE677ACB
S214001340CDE90401C7EE277A9FED0A7A67EE877A21
S21400135017EE900A0BF03AF9226BCDE906012868E1
S214001360054905F087FE09B0BDEC028B30BD00BF15
S214001370F80F00200000803DEE0C010007B548681D
S21400138002F0A6FC02AB43F8040D184608F05CFC1D
S21400139003B05DF804FB70B5064648680C4602F0DC
S2140013A097FC051C18BF01250D202946226802F06F
S2140013B04BF960B13046214600F016F91DB1BDE884
S2140013C0704008F04FBCBDE8704008F036BC70BDF9
S2140013D02DE9F0478AB006A80F4608F04FFC069D98
S2140013E0ADB107980BF0D0F88046284689460BF03A
S2140013F0CBF802460B46404649460BF065FA0022FB
S2140014001C4B0BF037F90BF047FB824601E04FF020
S214001410000A079CACB108980BF0B6F88046204648
S21400142089460BF0B1F802460B46404649460BF09B
S2140014304BFA00220F4B0BF01DF90BF02DFB064666
S21400144000E0002650460BF0C1F89DF924300293C8
S214001450CDE90001089B039330460BF0B7F8CDE9C1
S2140014600401386804492A46234605F003FE0AB0FC
S214001470BDE8F08700005940330D01002DE9F04F1C
S21400148022480C68036902688168D0F80480D0F8A6
S21400149020B0D0F824A0D0F81890876A97B00F93A1
S2140014A043691393C3691093C36A1193436B184837
S2140014B0159214911293068801F062FF01F098FFCE
S2140014C0054608F09CF90F9B0193139B0293109B13
S2140014D00693119B0893129B149909930D4B009148
S2140014E0CDF80CB0CDF810A0CDF8149007970A965A
S2140014F00B9553F820300C9320460749159A43461F
S21400150005F0B8FD17B0BDE8F08F00BFF80F00205B
S214001510F60F00201C0000208C0D010010B588B0CE
S2140015200C4605A8002108F0BDF99DF81830019377
S2140015309DF81930029301229DF81A300393009209
S21400154020680349032305F095FD08B010BD00BFD1
S2140015504E0E010010B58AB00C4607A8012108F00F
S214001560A1F99DF8203001939DF8213002939DF853
S2140015702230039301229DF82330009204932068C2
S2140015800649032305F076FD20680549079A9DF86D
S214001590243005F06FFD0AB010BD00BF690E0100D3
S2140015A0870E010010B50C4607F052FA10F5007FC2
S2140015B006D120680A4A0821BDE8104005F06CBD37
S2140015C007EE900AFAEECF7A17EE900A0AF0FEFFC0
S2140015D002460B4620680349BDE8104005F04ABDA8
S2140015E0A00E0100CA0E010010B506480C464C229B
S2140015F000210BF013FF21460120BDE81040FFF745
S2140016003DBF00BFF80F002010B50C6807F052FA77
S214001610034902462046BDE8104005F02BBD00BF3A
S214001620D233010010B548680C4602F051FB07F0B3
S21400163047FA246828B907F03DFA064902462046CC
S21400164004E007F037FA044902462046BDE8104099
S21400165005F010BDD40E0100F20E0100012838B5C9
S2140016600C4627DD4D681E49284603220BF0A0FED7
S21400167020B91C4B18601C4B18601BE028461B4901
S21400168004220BF095FE08B9194A06E028461949C7
S21400169003220BF08DFE30B9174A124B1A60124B1C
S2140016A0164A1A6006E02068154A7021BDE83840E0
S2140016B005F0F2BC0B4B1B6813B9206811490AE011
S2140016C00B4A934202D120680F4904E00A4A93422B
S2140016D005D120680D49BDE8384005F0CBBC38BDC3
S2140016E03C0F0100E00F0020DC0F0020130F01006C
S2140016F0F58F00001F250100F9910000280000204A
S214001700180F0100340F0100400F01004D0F0100BB
S21400171010B50A4886B0847802784378009490F929
S2140017200340019484880294C488039480680490DB
S2140017300868034905F09EFC06B010BD280000208E
S214001740590F010038B54868114D0C4602F0C0FA32
S2140017502870A06802F0BCFA6870E06802F0B8FA78
S214001760A870206902F0B8FAE870606902F0B0FA72
S214001770A880A06902F0ACFAE880E06902F0A8FA56
S2140017802146A8600120BDE83840FFF7C1BF00BF72
S21400179028000020034B08689A881968002301F087
S2140017A049BC00BFBC0700202DE9F0410746486849
S2140017B00D4602F08DFA02248046BC4214DA55F833
S2140017C0240002F085FA14FA88F6023EEF2EC0B224
S2140017D006D928680A4A0521BDE8F04105F05CBC38
S2140017E0084B01349855E8E70748064B036008F0B5
S2140017F0E3F829460120BDE8F041FFF7CBBF00BF64
S214001800A30F01003A000020BC07002070B548680E
S2140018100D4602F05DFAF028034606D928680A4A03
S2140018200621BDE8704005F037BC084C084AA08089
S2140018302046226008F0C0F82868A2880549BDE85E
S214001840704005F017BC00BFC00F0100BC070020A9
S2140018503A000020D20F0100034B08681A79196875
S214001860002301F0E7BB00BF080800202DE9F04187
S214001870074648680D4602F02BFA02248046BC4212
S21400188014DA55F8240002F023FA14FA88F6023E19
S2140018903F2EC0B206D928680A4A0521BDE8F041A5
S2140018A005F0FABB084B01349855E8E70748064BA5
S2140018B0036008F0ABF929460120BDE8F041FFF7C8
S2140018C0CBBF00BFDE0F0100C407002008080020C1
S2140018D070B548680D4602F0FBF94028034606D965
S2140018E028680A4A0621BDE8704005F0D5BB084CBA
S2140018F0084A20712046226008F088F92868227974
S2140019000549BDE8704005F0B5BB00BFC00F01003B
S21400191008080020C4070020D20F010004388A1CE3
S21400192050F8043F1B78542B0FD004D8492B08D00E
S214001930522B08D010E0722B05D0742B05D0692BE3
S2140019400AD1002302E0012300E002230B700131DC
S2140019509142E5D1002070470120704710B50C4633
S21400196007F0C2FF10F0010F206805D01221064ACA
S214001970BDE8104005F090BB044B05491A88BDE849
S214001980104005F077BB00BFFC0F0100F60F0020EB
S2140019902110010070B500200C46096801F034FEE5
S2140019A0C0B1606802F094F90546C0B207F02AFF9D
S2140019B040B9284601F02CFA21460120BDE87040C7
S2140019C0FFF7CCBF2068044A2B461121BDE87040C3
S2140019D005F062BB70BD00BF2C10010010B50C688E
S2140019E008F041F8034902462046BDE8104005F0DD
S2140019F041BB00BF4110010010B500200C4609682D
S214001A0001F002FE58B1606802F066F908F029F8A5
S214001A10034902462068BDE8104005F02BBB10BD08
S214001A2041100100024B08681A68024905F022BB03
S214001A30480100204A10010010B548680C4602F024
S214001A4047F9044B21461860BDE810400120FFF717
S214001A50E9BF00BF4801002010B50C4607F022F889
S214001A60034902462068BDE8104005F003BB00BFEE
S214001A705510010010B500200C46096801F0C4FDA1
S214001A8050B1606802F024F906F0E4FF2146012018
S214001A90BDE81040FFF7E0BF10BD000070B5486815
S214001AA00C4602F015F90546A06802F011F9EDB2F1
S214001AB0C6B23146284607F025FC0146206831B9F3
S214001AC02A4633460449BDE8704005F0D3BA034AB7
S214001AD0BDE8704005F0E0BA621001007C1001001D
S214001AE0044B08681A68044B044953F8223005F082
S214001AF0C1BA00BF74160020200800208210010022
S214001B0010B5064C0868214605F08AFA044B2046B4
S214001B1000211A68BDE8104005F09ABA821001004C
S214001B202008002010B500200C46096801F06CFD66
S214001B30B8B1606802F0CCF8031E0BDC01F084F943
S214001B4021460120FFF7CCFF21460120BDE81040CA
S214001B50FFF704BF2068034A0821BDE8104005F0DF
S214001B609BBA10BD9510010013B50C46081D01A9BF
S214001B70FFF7D4FE28B120680A4A162105F08CFA31
S214001B800EE09DF805109DF8040007F0B3FE064A27
S214001B90064B0749002818BF1A46206805F06AFA5F
S214001BA002B010BDA6100100890701007C100100DC
S214001BB0B510010013B50C46081D01A9FFF7AEFECF
S214001BC028B120680C4A162105F066FA12E0E06893
S214001BD002F07EF89DF80510C2B29DF8040007F0EA
S214001BE09CFE064A064B0749002818BF1A4620687E
S214001BF005F040FA02B010BDA610010089070100EA
S214001C007C100100C610010070B586B00D460DF1BF
S214001C100606012455F8240002F05AF80134052C73
S214001C2026F8020FF6D1BDF80830ADF81030BDF832
S214001C300A30ADF81230BDF80C30ADF8143004A8F8
S214001C40BDF80E30ADF8163006F042FF70B9BDF89C
S214001C5014100091BDF812100191BDF81020BDF8C7
S214001C6016302868054905F005FA04E02868044A95
S214001C70182105F011FA06B070BD00BFD71001009C
S214001C8003110100F7B50D4607F090FB044607F078
S214001C907FFB074607F03BFB064606F00BFF0949AD
S214001CA002462868084D002C14BF0C462C46002F10
S214001CB008BF2946019100940449334605F0DAF935
S214001CC003B0F0BD360901003B0901001A110100FE
S214001CD070B500200C46096801F07EFCF0B1606823
S214001CE001F0F6FF0E490646A0680CF0C1FA05465C
S214001CF007F014FB291C18BF0121304607F01EFB15
S214001D0030B12068074A4021BDE8704005F0C4B9EC
S214001D1021460120BDE87040FFF7B4BF70BD00BF8C
S214001D20501101005411010010B500200C4609683E
S214001D3001F052FC38B107F0F1FA21460120BDE867
S214001D401040FFF79FBF10BD72B6044B1A68511CB7
S214001D501CBF01321A601868704700BFB42000200C
S214001D60034B186818B10138186000B962B670479E
S214001D70B420002010B50C46486801F0A9FF216881
S214001D8001F0B2FC014B00221A6010BD5015002075
S214001D9010B50C46486801F09BFF216801F0A4FCD2
S214001DA0014B024A1A6010BD50150020442E002038
S214001DB010B548680C4601F08BFFC0B2031C074AFA
S214001DC02068074C074918BF01231370064A002BEA
S214001DD018BF2246BDE8104005F04CB9442E00203E
S214001DE036090100641101003B09010010B548687E
S214001DF00C4601F06DFF01F017F921680620BDE8DA
S214001E00104001F019BC000010B548680C4601F0FF
S214001E105FFF064B22681860014600314FF007004E
S214001E2018BF0121BDE8104001F0B0BA58150020D7
S214001E3073B548680D4601F04BFF041C18BF01241B
S214001E4001F09EFA0E2808D13CB12868264A1D21CA
S214001E5002B0BDE8704005F01FB901F091FA042801
S214001E6001D174B30AE001F08BFA0E28F9D00020F5
S214001E70296801F0B1FB0028F3D133E007F0BFFC7E
S214001E8001280BD00020296801F0BEFB30B1174BAB
S214001E90187807F067FD164B01221A701549164B85
S214001EA02E68002C13BF0D461D460C461C4606F039
S214001EB001FE124900902A463046234605F0DAF81D
S214001EC010E007F09CFC0028E8D007F095FC084BD3
S214001ED01C7001F055FA0E28E0D12146224601F08A
S214001EE0B3FBDBE702B070BD72110100F60F0020F5
S214001EF004080020B3330100550601009C110100C0
S214001F0010B548680C4601F0E3FEC1B20031226805
S214001F104FF0020018BF0121BDE8104001F036BAAC
S214001F2010B548680C4601F0D3FEC1B200312268F5
S214001F304FF0010018BF0121BDE8104001F026BA9D
S214001F4010B548680C4601F0C3FEC1B200312268E5
S214001F504FF0040018BF0121BDE8104001F016BA8A
S214001F6038B548680D4601F0B3FE044601F008FA9D
S214001F70042806D02868134A0721BDE8384005F033
S214001F808BB8E4B207F038FC6CB10F4B0021187820
S214001F900A4607F030FD0AE00B4B187807F0E2FC23
S214001FA028B107F029FC094B1B78002BF4D1084B0D
S214001FB0084A28680849002C08BF1A46BDE8384079
S214001FC005F058B8B2110100F60F002004080020F2
S214001FD055060100B3330100C91101002DE9FF4782
S214001FE00E46824601210B20326801F02DFB0028A8
S214001FF000F03D81706801F06BFE00F07F04042C59
S214002000074600F22281DFF8C082DFF8C09228D1AE
S2140020107368984D5B78532B07D002D8482B0ED0A8
S21400202017E0682B0BD0732B13D1FFF78DFEAB692F
S21400203023F00103AB61FFF793FE8F4D0EE1FFF730
S21400204083FEAB6943F00103AB61FFF789FE8B4D5E
S21400205004E1AB69884D13F0010F884B18BF1D468D
S214002060FCE0BAF1020F10DD854DB06801F030FEDD
S214002070BAF1030FC8F8000004D0F06801F028FE9B
S21400208089F80000012C04D80EE0012C40F2EB8009
S2140020907B4D07F0B1FB00F09FFB764A936923F077
S2140020A0300343F010039361764A774B3068042C74
S2140020B008BF1346009399F80030744A744903F039
S2140020C0030352F82330019322462B4604F0D2FF36
S2140020D000F09EFB72B6FA43D8F8001099F800009C
S2140020E06C4EC2F3C01207F067F90121C8F8000071
S2140020F000200346009101910A4602F0B7FE002335
S2140021003370631E032B14D8DFE803F002090D11A9
S214002110614A136923F00403136130BF09E001200C
S21400212002F0D6FB05E0012002F008FC01E002F018
S2140021306FFC62B672B607F053F9074610B93378EB
S214002140002BDED062B600210A460B2001F01EF9F5
S214002150012100200A4603460091019002F086FE07
S21400216032784E494E4B4F48002A14BF1A460A464C
S214002170002F08BF0B468DE80C00D8F800300293FD
S21400218049492B46224604F075FF3378002B4CD085
S214002190012C464D37D9464800F02FFB2868416889
S2140021A04B68013B002B4B6002DA0BF0ADFE02E001
S2140021B00B6801330B60286841684B68013B002BB5
S2140021C04B6002DA0BF0A0FE02E00B6801330B60F6
S2140021D0286841684B68013B002B4B6002DA0BF025
S2140021E093FE02E00B6801330B60286841684B6879
S2140021F0013B002B4B600DDA0BF086FE15E00BF072
S21400220083FE002811DA286841684B68013B002BE2
S2140022104B60F4DB0B6801330B6006E0254B187847
S21400222007F0A0FB28B107F0E7FA234B1B78002B3A
S214002230F4D1012C1BD9214B1B78DB0717D500F0F6
S214002240DAFA1F4B01221A7011E030681D4A01218C
S214002250234604B0BDE8F04704F01EBFBAF1020FF3
S2140022607FF717AF01E73068054D074B22E704B04C
S214002270BDE8F08700300E40EE330100AA2B0100C7
S214002280FC360100D8110100D5110100241301000D
S214002290E3110100F40F002000ED00E0E011010062
S2140022A0DC1101000612010010120100580900207E
S2140022B090D00300F60F0020040800203500002010
S2140022C0340000203C120100E80F0020E40F00203C
S2140022D001282DE9F04106460C46174D0ADD4868F0
S2140022E001F0F6FC154B022E186003D0A06801F032
S2140022F0EFFC2870297822680F4E003118BF0121A4
S2140023000B2001F0A1F9A8B10C4F307839680122F2
S21400231007F052F80346386000B930702A78206813
S214002320074C084902F0030254F82220BDE8F041A9
S21400233004F0A0BEBDE8F081E40F0020E80F002006
S214002340241301005B12010010B501F019F80B28E8
S214002350044616D107F044F898B1002120460A46F4
S21400236001F014F8074B084A1B780848084903F0A0
S2140023700303BDE8104052F82320064B1B6804F008
S21400238079BE10BDE40F0020241301006E12010078
S21400239028120100E80F002038B505460C460E4806
S2140023A029460BF039FF10B9022323700DE00B48C5
S2140023B029460BF031FF10B90120207038BD0848BF
S2140023C029460BF029FF10B92070012038BD0223E2
S2140023D02370002038BD00BF7C120100801201006F
S2140023E0501101002DE9F0410646002086B00C464B
S2140023F0014601F0F1F8014628B10020014601F03F
S214002400EBF848B90EE00E2001F0E6F80028F4D10B
S21400241020683A4A1E2120E00020014601F0F4F828
S2140024200028F5D0606801F053FC8046E06801F0B3
S2140024304FFC0DF106010746A068FFF7ADFF18B97F
S21400244020682F4A192108E020690DF10701FFF7DF
S214002450A3FF28B920682B4A1A2104F01DFE4AE083
S214002460052E0EDD606901F033FC051C18BF012542
S214002470062E09D0A06901F02BFC003018BF012001
S21400248003E00025284600E000209DF806308DF881
S2140024900C309DF807308DF814301B4B8DF8160065
S2140024A000210E208DF815501D70CDF80880049779
S2140024B001F092F80546B8B10125144B02A9187828
S2140024C007F064FA0646124800F0EEF99EB120685E
S2140024D0104A1B21334604F0DFFD65B92946226801
S2140024E00E2001F0B1F806E00E200121226801F06E
S2140024F0ABF80028E1D106B0BDE8F08184120100F7
S214002500AF120100CB12010065150020F60F002067
S214002510E5120100F11201000020014601F0E4B8C6
S2140025200120002101F0E0B8002038B5014601F096
S21400253053F800282FD00021022001F065F801464C
S21400254048BB012001F060F808B107F055F9124CBD
S21400255020780130C0B207F055F918B92388013346
S214002560238010E00023238020780B4D07F04AF9E3
S21400257048B12B8801332B80F6E7207807F0F2F974
S21400258028B107F039F9054B1B78002BF5D1044B21
S21400259001221A7038BD38BDF60F0020040800204E
S2140025A034000020012810B502D1174B187010BD5A
S2140025B0062812D1154B164C1B68A3B102F059FF22
S2140025C02368C01AB0F57A7F03D9BDE81040FFF73C
S2140025D0A3BFBDE81040FFF7A3BF072812D10D4BDD
S2140025E00D4C1B681BB902F044FF206010BD02F0C2
S2140025F040FF2368C01AB0F57A7F03D8BDE81040C4
S214002600FFF792BF10BD00BFF40F002098211442C0
S214002610EC0F00209C211442F00F002013B502F0AE
S2140026201FFF01212148224C01F064FC042001F028
S214002630BFFB01F0C5FB04F07FFB03F0BFF80120F1
S21400264003F0B2F8052006210222012302F05AFC0C
S214002650052007210222012302F054FC0422012354
S2140026600220072102F04EFC02F0B0FE21460620B2
S21400267002F0BAFE2146072002F0B6FE21460120EF
S21400268002F0B2FE012406210A4623460094019475
S214002690052002F0EBFB07210094019405200A4672
S2140026A0234602F0E3FB02B010BD00BF0025080081
S2140026B0A5250000F0B5334B1A7893B0002A5ED0FB
S2140026C0314A1278D2075AD500241C702F4E304D4E
S2140026D004F056FB2F4804F065FB2F4804F062FB1D
S2140026E073682E4AB3FBF5F7402105FB173302A8A3
S2140026F00BF0F8FC02A804F055FB3368284AB3FB3D
S214002700F5F7402105FB173302A80BF0EBFC02A8F7
S21400271004F048FB234B244A1B88402102A80BF0F8
S214002720E1FC02A804F03EFB1B4804F03BFB1F48FC
S21400273004F038FB32680A25B2FBF5F305FB1323D9
S214002740C3EB4312C3EB82035B005BB2009314201F
S21400275050212022012304F047FB7268B2FBF5F3F8
S21400276005FB132303EB83035B005BB200934C2053
S21400277050212022234604F037FB04F0FFFA13B062
S214002780F0BD00BF3400002035000020F80F002008
S214002790A086010034130100FC360100441301003A
S2140027A054130100F60F002064130100701301009B
S2140027B0034B1B78DB0701D501F038BB704700BF21
S2140027C035000020034B1B78DB0701D501F048BB22
S2140027D0704700BF3500002008B5002001F00CFB54
S2140027E0012001F009FB04F0CBFA04F0C7FABDE8BB
S2140027F0084004F0BFBA04F0BFBA38B5044606F085
S21400280059F9054606F056F9401BA042FAD338BDE2
S214002810024B1B699B04FBD5704700BF00000140BC
S214002820042200235B080028B8BF43F000430101E0
S21400283048BF43F00063010248BF43F400030103AE
S21400284048BF43F40023010448BF43F40043010596
S21400285048BF43F40063010648BF43F08003010706
S21400286048BF43F00803013A4FEA4000DAD11807A0
S21400287003F0F00200EB137000EB025003F47062FA
S21400288000EB023003F4704200EB021003F47022F7
S21400289000EB121003F4700200EB123003F07063CA
S2140028A000EB13507047000010B5044606F0A7FF73
S2140028B0034902462046BDE8104004F0DBBB00BFDB
S2140028C08014010070B5104B93E807008AB001AE83
S2140028D086E8070003F10C0207CA183304AD85E842
S2140028E0070093E8070007AC84E80700314603209A
S2140028F0FEF786FB29460320FEF782FB03202146CF
S214002900FEF77EFB0AB070BD80130100F8B50746DF
S2140029100E4614461D4606F06FFFFF2F0DD017F02B
S214002920010F1F4A34D11F4B03FB07F01E4B034415
S21400293093601E4B186806F055F826B1012E05D197
S2140029401B4B986803E01A4B586800E0002006F01E
S2140029503FF800B1FEE7164E94B1637820781B046A
S21400296043EA0063E0780343A07843EA0020FFF7D9
S21400297057FF104B5860F06806F02AF800B1FEE7E3
S2140029800D4B3069013D5D6006F022F830B1FEE780
S214002990936803F5F42303F59073C9E7F8BD00BF09
S2140029A03C08002020A1070000180D8F38080020E2
S2140029B024080020300100203C01002008B500203B
S2140029C0FFF7F6FE0120BDE80840FFF7F1BE000065
S2140029D0014B01221A707047441000207047000017
S2140029E00B4A1368013310B513600A4A136804468D
S2140029F0013301201360FFF7E5FE074B01221A7032
S214002A00064B22681A60BDE8104000F033BE00BFD7
S214002A10F80F0020781600203400002060150020F3
S214002A2070B506463348344D06F0C6FF334B0022D9
S214002A301A706B68304601336B6000F0B5FE0446D2
S214002A4018B9AB6A0133AB6221E0037BF12B01D1ED
S214002A5007F0F1F82A4B1A781AB100221A7007F01C
S214002A60EAF8284B1A781AB100221A7007F0E1F833
S214002A7000F086FC07280AD1234B1A682368134403
S214002A80224A1360224A01231360224A1370002050
S214002A90FFF798FE204B1B789B070AD51F4B012299
S214002AA01A7034B1304600F0ADFE1D48314600F0D5
S214002AB0F1FE0E20002100F08FFD38B1194B1B7877
S214002AC023B100210E200A4600F060FC00F058FCFE
S214002AD0082808D100210A4600F058FC00F0A0FCA7
S214002AE01148FFF78AFE94F905001049BDE87040CA
S214002AF0FEF7C4BBBC070020F80F002044150020DA
S214002B006715002080160020581500204815002064
S214002B106C150020451000203500002034000020F1
S214002B204810002065150020809698003010002080
S214002B30C10610B5044609D5294B00221A70294A49
S214002B401369012001331361FFF73CFE620709D5C4
S214002B50234B254801221A70224A9368013393605A
S214002B600BF026F9A30706D520480BF021F91D4ADD
S214002B70D3680133D360A00606D5194B00221A701D
S214002B80184A536901335361610606D5144B002277
S214002B901A70144A136A01331362220605D5114AC5
S214002BA0D36A013308BF0123D362E30502D5104878
S214002BB00BF0FEF814F4007106D000210E200A4631
S214002BC0BDE8104000F0E2BB0A4B1B7833B10E2084
S214002BD000F002FD10B114F0700FEED110BD00BF72
S214002BE044150020F80F00208E14010096140100F2
S214002BF0A21401006515002008B5084B1870084B94
S214002C0001221A70074A13680133136000F032FD80
S214002C100548BDE80840FFF747BE00BF6415002022
S214002C206915002054150020AE140100002010B5D0
S214002C30014600F0D1FC50B105F03CFF164B186081
S214002C4006F065FB154B01221860154B21E000F0DD
S214002C5097FB0C281BD1134B134980229A67134A03
S214002C600C6B13682344124C0B6311682368591AC3
S214002C70216029B91160BDE810400A4600F086BB05
S214002C800C4B01211868BDE8104006F057BB0A4BF4
S214002C9001221A7010BD00BF701600205C150020BF
S214002CA06615002000A00040F80F00209C0D14427E
S214002CB0402E00203C2E002045100020034A536B77
S214002CC001335363024B01221A707047F80F00203D
S214002CD02D15002007F064B8002070B5014600F0FE
S214002CE07BFC154B1A781D462AB320B3134B1B7872
S214002CF00BBB134B1B78F3B906F01EFF10F480369F
S214002D00044601D006F078FD0E4A536A00200133CF
S214002D10536221460246287006F010FF3EB970BD89
S214002D20094B187806F01EFE28B106F065FD074B25
S214002D301B78002BF4D170BD441000206A150020CB
S214002D4044150020F80F0020F60F0020040800208D
S214002D50064B1A784AB100221A70054B05481A68C5
S214002D60054B06491B6804F085B9704766150020B8
S214002D7070160020BA1401005C150020C214010071
S214002D80134B1A7810B512B300221A70114B1A782A
S214002D9012F0020F1C460BD00F4B1B78980703D57A
S214002DA00E480F4904F066F90E4A936901339361A1
S214002DB0227851070BD5084B1B789B0703D507488D
S214002DC0094904F057F9074AD3690133D36110BDA6
S214002DD0691500206415002035000020F21401005B
S214002DE0FB140100F80F002039150100054B1A7876
S214002DF032B100221A700448044A2F2104F04CB95C
S214002E00704700BF2D150020711501007E150100CA
S214002E10024B1880024B01221A707047F60F0020F2
S214002E203400002008B5054B53F8200005F0DAFD05
S214002E30034B1880034B01221A7008BD3808002087
S214002E40F60F00203400002010B5044606F0D4FC2F
S214002E50084B53F8240005F0F9FD074B53F82400FF
S214002E6005F0B6FD00B1FEE72046FFF7DBFF034B9B
S214002E701C6010BD88160020240800207416002050
S214002E80014B01221A70704745100020F8B5324DEC
S214002E902B78002B5ED000232B70304B1F6800F081
S214002EA06FFA03281FBF2E4A136803F1FF3313601F
S214002EB006F0A2FC00F064FA092802D0294806F0C1
S214002EC07BFD00F05DFA0628274E284C05D13168B8
S214002ED041B920782649274A16E000F051FA07281B
S214002EE004D1F4E72078224A224B1BE0224B1B68D1
S214002EF0BB42224B0ED1224A12685AB9316820785A
S214002F00204E21B91968326806F075FD0CE01A6883
S214002F10336807E0326820780AB91968F4E7114682
S214002F201A68002306F04AFD40B1174B144A187081
S214002F3013680133136001232B70F8BD00F020FAEC
S214002F400A2807D1114B1868FFF757FCBDE8F84070
S214002F5006F052BCF8BD00BF4510002078160020D1
S214002F606C150020BC07002050150020F60F00202E
S214002F7061920000481500207C160020E00F00201B
S214002F8054150020DC0F0020641500202C010020C2
S214002F90014B01221A70704768150020F0B5164BD9
S214002FA01A7885B02AB300221A70144B144F1B7877
S214002FB0144E154D154C13F0020F15D03A683368B1
S214002FC02968D31A29B11248124A002B18BF0246A4
S214002FD000E0114A114800688DE80300217802914C
S214002FE00F48104904F046F83B68336000232B6016
S214002FF0237005B0F0BD00BF681500203500002026
S214003000781600207C160020541500206415002039
S214003010AB1501007C100100A21501006015002010
S214003020B3150100B9150100014B1860704700BFC9
S214003030481500202DE9F047804686B092461C468B
S2140030400E4611B10F46002505E0304906B0BDE832
S214003050F04704F00FB8BB1B534519DADFF8CC90E5
S2140030602B4A17F8013BC5F5966109EB05000531BB
S2140030700BF038F8002807DB054440F2B4439D42C5
S214003080E9D94846234901E0234948460BF0FAF8B7
S214003090002C31D0257921482149B4F808A02768AA
S2140030A015F0010F14BF8146894615F0020F18BFB0
S2140030B0064694F905001B4C07EE900AF8EEE77AF0
S2140030C008BF0E4617EE900A09F080FA164BCDF8A8
S2140030D0009015F0040F08BF1C46144B0593CDE96D
S2140030E00201019604944046114952463B4603F0BD
S2140030F0C1FF06B0BDE8F0870E490C4B404652466D
S21400310006B0BDE8F04703F0B5BF00BF08160100E3
S2140031100E1601002516010016160100FE15010008
S21400312003160100360901003B0901007810002053
S214003130371601007716010010B50B4800F0EAFBC1
S21400314088B9094800F0CBFB044600F02DFB034687
S21400315003F10A0105481A89FFF76CFF2046BDE80F
S214003160104000F03BBB10BD48100020891601003F
S21400317013B5154C206841684B68013B002B4B602B
S21400318003DA0AF0C1FEC0B203E00B685A1C0A60FC
S21400319018788DF807009DF80700431EDBB2FD2B5C
S2140031A00FD80A2801D00AF01BFE08480DF10701C7
S2140031B0012200F051FC0028DCDD05480AF0F8FD8D
S2140031C0D8E702B010BD00BF580900203015002017
S2140031D0921601004A4BDB6C1B0E8E2B10B515D8D1
S2140031E04849494AD1F8B00040F00403C1F8B0306D
S2140031F04FF05013136013631366C2F89030C2F892
S214003200C030C2F8F030C1F8B00001E08F2B06D114
S2140032103C4AD36A23F07F0343F02003D36201F0D5
S214003220BDFE044601F0B4FE14F480341EBF374BD6
S21400323001221A61FFF7F2F9354806F0C1FA35485F
S21400324006F097FC344B1868FFF7FEFD0623334A5A
S21400325096200121FFF75AFB00214FF45D7006F01F
S21400326074FB01200146002206F057FB01200146B0
S21400327006F040FB2A480A2100F0FAFA00B9FEE7F9
S214003280FFF718FA27480AF037FE94B11F4B9B69E0
S21400329013F0010F0CBF7324682406F0A1F8224A2D
S2140032A0224B2349002808BF13462248224603F033
S2140032B0E1FE21480AF07CFD2049214B21484FF4CD
S2140032C0807200F0BDFB204806F0A0FCFFF7FAFA7B
S2140032D0FFF74EFFFFF738F8FFF7D8FDFFF75EFE63
S2140032E000F09EF8FFF728FFFFF74AFDFFF730FDD6
S2140032F0FFF7E0F9FFF7F0FCFFF778FDE8E700BF1F
S214003300B081E00F00400E4000A0004000300E40AC
S21400331074140100A4130100741600203600002067
S2140033204810002095160100E0110100DC11010094
S214003330A416010006120100921601007015002066
S2140033404C0100203015002008080020034611B963
S2140033500748084A08E0012902D10548064A03E062
S214003360022903D10248054A03F096BE704700BF03
S214003370C7160100CA160100DF160100F516010087
S214003380014B1878704700BF84160020114B10B50B
S2140033901C78ECB9E0B101241C700F4B18700F4B71
S2140033A019704AB90E4B0F4A1B7813F0020F0E4BDA
S2140033B008BF0023136010BD0C4B02F11000194625
S2140033C052F8044B43F8044B8242F9D1054B19607E
S2140033D010BD00BF811600208216002010080020B5
S2140033E0350000205C2E0020A83301004C2E002063
S2140033F070B50A4D06460FCD90B001AC0FC40FCD88
S2140034000FC40FCD0FC495E8070084E8070010AB83
S21400341003EB860656F83C0C10B070BD6C3301000A
S2140034205B4B1A782DE9F341002A00F0AE800022AB
S2140034301A70584B1A78584B0AB11C7800E014469C
S214003440564D18782F78564B87420FD192B11D688B
S214003450002D00F09A802046FFF7CAFF5149024629
S214003460284602B0BDE8F04103F004BE002F77D135
S214003470002A75D01E6886B12046FFF7B9FF804641
S2140034803846FFF7B5FF074605F014FB464900909F
S214003490424630463B4603F0EDFD2B7813B905F067
S2140034A03DFF2EE0012B02D106F0D6FA29E0022BD2
S2140034B002D106F0B9FA24E0042B03D1002005F06F
S2140034C0B5FA1EE0032B06D05A1F012A03D9A3F132
S2140034D00902012A07D805F021FF344B00221A60A2
S2140034E0FFF756FD0DE00B2B05D1002001460246E6
S2140034F005F062FF05E00C2BD1D00D2B01D106F0B4
S2140035007BF9012C05D12A4B2146187806F091FA52
S21400351021E0022C04D1264B187806F075FA1AE042
S214003520042C03D1012005F081FA14E0032C08D006
S214003530052C06D0062C01D00A2C05D11B4B0122E7
S2140035401A60FFF79DFC06E0E31F012B03D8184B1B
S214003550187806F007FA174B2A781A702C7014E0C1
S2140035601D6895B1144B154C002A18BF1C46FFF772
S2140035703FFF06463846FFF73BFF009601900121C5
S21400358028460F4A234603F087FD02B0BDE8F081C7
S21400359081160020100800208216002084160020C5
S2140035A05C2E0020B0330100BB3301006C150020F8
S2140035B0F60F002083160020CF240100971B010081
S2140035C0DA33010010B50446FFF7DAFE2246002182
S2140035D0BDE81040FFF7DABE70B506460D46FFF7A9
S2140035E0CFFE831B5C425C414CB945B13046FFF7C9
S2140035F0FFFE16210346034A284603F04DFD2046EB
S21400360070BD00BF4834010070B505460E4606F092
S214003610F6F8431B5C425C4144B93EB1044B054A94
S21400362053F825303046172103F036FD204670BD8E
S214003630140800206F3401000A4610B90846FFF748
S214003640C1BF0121FFF7A2BE70B504460D4616465F
S214003650FFF7E6FE204629463246FFF797FEFFF7BD
S214003660DFFE002D14BF204600200021BDE870407C
S214003670FFF7B2BF08B5184B1B68002B0CDD1748C8
S214003680FFF712F9164B1B684FF47A705843012166
S214003690BDE8084005F052BEFFF772FE0328EED0E4
S2140036A0FFF76EFE052807D10E48FFF7FDF800204D
S2140036B0BDE80840FFF786BFFFF762FE0628F3D096
S2140036C0FFF75EFE0928EFD0FFF75AFE0A28EBD078
S2140036D0BDE80840FFF75CBC6C1500209D34010077
S2140036E048010020AB340100144B10B50C4618609E
S2140036F060B1FFF745FE092806D12146FFF79CFF7B
S214003700BDE81040FFF7BCBB052011E0FFF738FE10
S214003710052804D12046BDE81040FFF753BFFFF749
S2140037202FFE0328F6D0FFF72BFE0928F2D0032041
S2140037302146BDE81040FFF77FBF00BF6C15002094
S21400374072B6044B1A68511C1CBF01321A60186806
S214003750704700BFB4200020034B186818B101382A
S214003760186000B962B67047B4200020B0F5807FBC
S21400377010B514D8FFF7E4FF00200A4A00EB002338
S214003780995C19B90121D154044604E001300A2895
S214003790F3D14FF0FF34FFF7DFFF204610BD4FF0A8
S2140037A0FF3010BD8C160020431C10B5044610D008
S2140037B00A280ED8FFF7C4FF04EB0424064B185D56
S2140037C01A1908B1541C00E00446FFF7C5FF20464E
S2140037D010BD002010BD00BF8C16002010B504469A
S2140037E0FFF7AEFF2046FFF7DFFF28B1044A04EBE1
S2140037F00424135D013B1355BDE81040FFF7ACBF32
S2140038008C16002010B50446FFF79AFF2046FFF7F7
S214003810CBFF28B1044A04EB0424135D013313558F
S214003820BDE81040FFF798BF8C160020FFF79EBF3C
S214003830FFF7D4BF10B50C46FFF7B6FF204410BD07
S2140038407047000072B6044B1A68511C1CBF013248
S2140038501A601868704700BFB4200020034B186831
S21400386018B10138186000B962B67047B42000205D
S2140038700A2938B504460D460AD848B1FFF7E2FFD4
S2140038800023A58023806380FFF7E8FF012038BD72
S214003890002038BD70B50E460446F8B1FFF7D2FFDB
S2140038A06588A088238885420BD22B4493FBF0F2D0
S2140038B000FB12339BB20233013544F82360658067
S2140038C008E09A1C013344F8226093FBF0F200FBF8
S2140038D012332380FFF7C2FF012070BD70BD38B5DC
S2140038E00446B0B1FFF7AEFF63886BB12288A088AC
S2140038F0911C013254F8215092FBF0F1013B00FB81
S21400390011222280638000E01D46FFF7A7FF2846AD
S21400391038BD38BD10B5044648B1FFF793FF64883C
S214003920B4FA84F46409FFF799FF204610BD01201D
S21400393010BD73B504460D46164642B109F0E6FBC7
S2140039400022026001A920460AF060FD10E009F09E
S214003950DDFB01A90660324620460AF0E1FDED00D7
S2140039600123AB40013B0340834201D000200CE022
S21400397009F0CCFB0368002BF8D120460AF08AFC3D
S214003980019B1B1B1B1A5842584102B070BD000019
S2140039902DE9F041002604460546374635B921484C
S2140039A00AF0AAFA20480AF0A7FA29E028680028B0
S2140039B0F5D00AF06FFC804668680AF06BFC474555
S2140039C0B8BF47468642B8BF06461035E6E72268C7
S2140039D02AB3A368F3B1154879420AF0E9F9626898
S2140039E08AB11178124B002908BF1A467142114855
S2140039F00AF0DEF9E16841B90A200AF0F1F910345C
S214003A00002CE4D10BE00A4AF0E70B78002BF3D049
S214003A10094801E0094811460AF0CAF9ECE7012016
S214003A20BDE8F0816337010080370100D737010019
S214003A30FC360100D6370100EC330100DB3701000D
S214003A4040B139B1016000218160C260036101713B
S214003A5008467047012070472DE9F04F1646A1B082
S214003A600446002800F01681002900F013818568BE
S214003A70E3685019984280F00F812068284409F0C6
S214003A80A7FCA3681E440023A66005939846A26878
S214003A90954280F0F28023685A195B5D06930A2BE4
S214003AA002D00D2B40F0E78000234545137000F050
S214003AB0D1802668236907934644711E334611F861
S214003AC0012F42B1082A03D1B342F8D9013BF6E7E9
S214003AD01A700133F3E71A7030467A490BAA0AF0D7
S214003AE00CFC8146002800F0B580079F002F00F0F0
S214003AF0D580D7F800A0BAF1000F00F0A080BB6810
S214003B00002B00F09A80484651460AF085FB0028B4
S214003B1040F093806B49CDF830A00BAA0AF0EDFB7D
S214003B20012381460193B9F1000F12D0019A0CAB24
S214003B3043F8229013460133142B019302D13046EA
S214003B40012185E000205F490BAA0AF0D6FB8146DA
S214003B50E9E7D7F804A0BAF1000F67D050465A49F3
S214003B600AF086FB002861D050460AF093FB2A2113
S214003B70039050460AF06EFB039B38B1013B53445A
S214003B80984250D1039B012B4DD0023B0993019BD9
S214003B90013B08930DAB0293002304934FF02E0BCA
S214003BA0049B089A93423ADA049B039A934205DBF5
S214003BB0524412F8012C2A2A06D034E0049B1AF844
S214003BC003202A2A18BF9346BBF1750F19D00AD8CE
S214003BD0BBF1620F1CD0BBF1730F24D1029B0421F2
S214003BE01868012211E0BBF1760F06D0BBF1770F03
S214003BF019D1029B0421186806E0029B022118686E
S214003C0002E0029B186801210022FFF792FE50B1E5
S214003C10049B01330493029B04330293C0E71346CC
S214003C20099A934202DA3046022111E0BB680198F5
S214003C300CA998474FF0010A01E0103756E73B6899
S214003C400BB9079B73BBBAF1000F03D1484600219E
S214003C50FFF77CFB069B0A2B04D123790D2B01D1A1
S214003C60454503D005980130C3B205939DF818303A
S214003C70237105F10108013509E7B8F1000F07D0F7
S214003C802068C8EB0202A26000EB080109F0ABFB5B
S214003C90059812E0FF2010E0FE200EE0079B002BA8
S214003CA0D4D0BA46304609490AF0B6FA0028CAD136
S214003CB00798FFF76DFE8246C5E740B221B0BDE823
S214003CC0F08F00BFE7370100922E0100CB0B0100FA
S214003CD000210A460AF024BC00210A460AF096BBD8
S214003CE0733904290FD8DFE801F0070E05030A0030
S214003CF0022105E0012103E00421012201E0042164
S214003D000022FFF716BE002070470000002008B50E
S214003D1001460422012301F0F5F801210A460B466C
S214003D20002001F0EFF8042201230020052101F015
S214003D30E9F8054A03235367936F23F4F85323F0F7
S214003D401F03936708BD00BF0000014030B5114D4A
S214003D500FCD87B06C460FC495E803000E4B84E881
S214003D60030000241C600D4B0D481C60012100F070
S214003D70C1F80C48012100F0BDF80B48012100F005
S214003D80B9F80A48694601F089FAFFF7BFFF2046EE
S214003D9007B030BDEC370100982000209C200020A2
S214003DA040410500002508000022040000000140F4
S214003DB008B5430701D5FFF7C9FF002008BD00007E
S214003DC008B50B48012100F095F80A48012100F0DB
S214003DD091F804210A460520002301F093F80520F7
S214003DE001460422002301F08DF8002008BD00BF24
S214003DF0404105000025080001280FD8094A12F89E
S214003E00301030234B4302EBC00207491944536875
S214003E1003EBC1039B000020186070474FF0FF3093
S214003E20704700BF043801000CA01042012810D8CB
S214003E30094A12F8301030234B4302EBC002074900
S214003E401944536803EBC1039B0001221A6000204B
S214003E5070474FF0FF307047043801000CA0104246
S214003E60012810D8094A12F8301002EBC0020020D0
S214003E70536801229A4030234B4303F1804303F5F5
S214003E8020439A6170474FF0FF30704704380100B6
S214003E900B4B0C4941F6713210B51C6C1A645A680B
S214003EA0094A02448A4294BF4FF0807100215A6842
S214003EB022F040720A435A600CB100221A6410BD08
S214003EC000000E407F9FD5007F4573FE08B5FCF7C7
S214003ED07BF9BDE80840FFF7DBBF0000044BD3F8D2
S214003EE04421D20703D4D3F840211042FBD17047B7
S214003EF000400E40C0F30322013A70B503460E465A
S214003F00092A26D8DFE802F018082525050B0E2515
S214003F10111500200F4C11E000200F4C0EE0012080
S214003F200E4C0BE010200E4C08E04FF480300D4C89
S214003F3004E000200C4C01E00C4C0020C3F30435D8
S214003F4008B1FFF7CBFF04F1047405EBC404A4002A
S214003F50266070BDB0400E40C0400E40E0400E40AF
S214003F60E8400E40F0400E4050410E4000400E40EB
S214003F70C0F30313013B062B34D8DFE803F0040834
S214003F800E14181E2700184BD3F8000102E0164B3B
S214003F90D3F81401C0F304207047134BD3F8000184
S214003FA0C0F300607047104BD3F80C0102E00E4BD4
S214003FB0D3F80801C0F3082070470C4B984211D183
S214003FC0094BD3F8203103F00F0307E0084B984263
S214003FD008D1054BD3F8283103F00303012098409D
S214003FE0013870470020704700400E4060061200FF
S214003FF07007140008B5FFF7BBFF013008BD0000CE
S21400400000F00F000138052835D8DFE800F0030D72
S2140040101734222C1B4BD3F8943003F00703023BD3
S214004020022B2AD8184A12E0164BD3F8803003F039
S2140040300703013B032B22D8144A08E0114BD3F8A0
S214004040843003F00703013B032B18D8104AD05CDA
S21400405070470C4BD3F8883003F00703013B032B63
S2140040600DD80C4AF3E7074B1B6F13F0010F14BF74
S2140040700820072070470020704705207047012061
S214004080704700BF00400E4014380100173801008A
S2140040901B3801001F38010010B50446FFF7B0FFBB
S2140040A01B4B9C4209D01B4B9C420AD01A4B9C428D
S2140040B00CD11A4BD3F8800006E0184BD3F88400D6
S2140040C002E0164BD3F8880000F0070001380328FA
S2140040D01CD8DFE800F002060E0ABDE81040FCF728
S2140040E0BDB8BDE81040FCF7BFB8BDE81040FCF70F
S2140040F0B8B80A4BD3F80031DB0103D5FCF78CF8CF
S214004100800810BDFCF788F8400810BD002010BDE0
S21400411003001A0005001E000200180000400E40B2
S21400412000F47810B0F5602F08B566D017D8B0F553
S214004130802F32D00AD800285BD0B0F5003F5FD180
S214004140FCF746F82F4BD3F808312BE0B0F5202FBC
S2140041502BD0B0F5402F45D0B0F5002F48E0B0F595
S214004160A01F32D00ED8B0F5801F27D0B0F5901F14
S21400417046D12548FFF790FF224BD3F8202102F0C6
S2140041800F022AE0B0F5D01F1DD0B0F5F01F15D0F5
S214004190B0F5C01F34D11C4811E0FCF719F8194BD4
S2140041A0D3F80C31C3F3082306E0FCF711F8154BDF
S2140041B0D3F81431C3F30423013310E01348BDE8E9
S2140041C00840FFF769BF1248F9E71148FFF764FF98
S2140041D00C4BD3F8282102F0030201239340B0FBD6
S2140041E0F3F008BD0B48FFF70BFF072805D008289B
S2140041F006D1BDE80840FBF7EBBF074B186808BDC3
S214004200002008BD00400E400200180005001E00F9
S21400421003001A0006000C0048080020C0F3031331
S214004220013B70B50C46072B00F29380DFE803F0E5
S21400423004151F2935566E82464E474DFFF746FE3B
S214004240012333602B60454BD3F8001121F4F8515D
S21400425041EA0424C3F8004131E0404BD3F814117E
S21400426021F4F85141EA0424C3F8144170BD3B4BD5
S214004270D3F8001121F0807141EA0464C3F80041CC
S21400428070BD364BD3F80C1121F4FF3121F4807148
S21400429041EA0421C3F80C1170BD2E4E2E4DFFF7D7
S2140042A015FE012333602B602C4BD3F8081121F444
S2140042B0FF3121F4807141EA0421C3F80811FBF7AD
S2140042C0ABFFFFF7E5FD2648FFF72AFF254B984290
S2140042D094BF002001203060286070BD224B9842B9
S2140042E02BD0224B984200D070BD0420FFF7F6FD7D
S2140042F01A4AD2F82031013423F00F03B4FA84F4BA
S214004300C4F11F041C43C2F8204170BD184B9842EC
S2140043101FD14020FFF7E2FD104AD2F828310134C1
S21400432023F00303B4FA84F4C4F11F041C43C2F858
S214004330284170BD0C4B98420BD14FF48020FFF7FC
S214004340CDFD064BD3F8301121F00F010C43C3F816
S214004350304170BD4000C8436020C84300400E4056
S214004360000508000048E8018009100060061200F9
S214004370700714000139FFF751BF00000138032809
S21400438043D8DFE800F0022B111EC1F308011F4BD3
S2140043901B68002BFBD11E4A136A23F4FF7323F01D
S2140043A0010319431162704701F07F01194B1B6826
S2140043B0002BFBD1164A136923F07F0319431161C2
S2140043C0704701F07F01144B1B68002BFBD1104A8D
S2140043D0936923F07F031943916170470C4AD2F822
S2140043E09030536A23F0300343F010035362C1F356
S2140043F0C31303330F2B28BF0F2341EA0371074B68
S214004400074A1A6003F10073196070476828C843AA
S21400441000400E406028C8436428C84330400E441D
S214004420FF0700F00F4B1B6813F0300F06D0202953
S21400443007D0302902D009B10B4B04E04FF44003FB
S21400444001E04FF400030949D1F890201A409A423F
S214004450F9D15B0246BFD1F8A000C0F3802001204E
S214004460704700BF24400E40FF03C10700400E40C7
S21400447002280AD129B1064B4FF48060C3F8A80081
S214004480596612B10220FFF7CDBF0120704700BF6A
S21400449000400E40F8B5042875D8DFE800F00803A1
S2140044A00F296F00802640240623072524E04FF4BA
S2140044B000764FF48074082309251DE0002952D0A9
S2140044C031494B6A13F0300F09D14B6ADB070AD526
S2140044D04B6A23F0300343F010034B6203E00424DE
S2140044E0022303250AE0042402230325012606E00E
S2140044F00124022600232546002936D0002622491C
S2140045000C662249194489000B68002BFCD01AB9A6
S214004510BDE8F84000F058BA1C4B2B449F003B689F
S214004520002BFCD00228F3D1002EF1D0164D696A7C
S21400453011F0010104D020210122FFF799FF01E0CC
S214004540FFF770FFD5F89C60022000210122FFF7DC
S214004550A1FF0220C6F30A01FFF710FF2C663B6896
S214004560002BFCD0D4E708260223074A1666074A23
S2140045701A4492001368002BFCD1C9E720261024A9
S21400458004230525B8E7F8BD00400E408004F2106D
S21400459000F00F00013810B5042870D8DFE800F0EE
S2140045A003743F6F76000239032971D8DFE801F003
S2140045B01802050F0120032414E0364A0123136075
S2140045C002F5005220320220136004460AE0314B06
S2140045D001241C6003F50053203303201C6001E017
S2140045E00020042401210A46FFF754FFFFF76EFC63
S2140045F0294B2A485C67FFF793FD294B9842254BC9
S21400460094BF00200120186003F500532033186083
S21400461000F0DAF9FBF700FEFFF73AFC2FE0214C3A
S2140046200139082934D8DFE801F028070E3333159E
S21400463033330500042321E0012100200A46FFF75A
S21400464029FF02231AE0012001460246FFF722FF57
S214004650012313E0FBF7E0FD114B98420D4B94BF8E
S21400466000200120186003F5005320331860A3F5DE
S214004670266301221A60032300E000232360054B13
S2140046801B68094B1B6810BD084CC9E7084CC7E7F8
S21400469010BD00BF4000C84300400E4000050800A3
S2140046A00048E80184400E406020C84380400E4029
S2140046B088400E4010B504461120FFF7A1FC0021EB
S2140046C001220220FFF7E6FE2378227C002B14BF8F
S2140046D04FF480730023022A08BF43F001031E4AEA
S2140046E040F20111116002F10072072113601B4BAA
S2140046F0E27A196003F1007319491A60637AA28896
S21400470043EAC223174A116002F100721360237A4B
S214004710E288D91CDB0143EAC223A27A0F2928BF0C
S2140047200F211343104A43EA01736FF07F61116053
S21400473002F100720D491360637B227B1B0343EA80
S2140047400243E27B1343A27B43EA0213084A11604A
S21400475002F10072136010BD24400E4428400E443F
S2140047607FF80F002C400E4430400E44FFF00F0040
S21400477034400E44214B45F60E02D3F88011C3F8A0
S21400478080211F4A106840F2551202401A661D4AE0
S214004790128802F00702032A01F0010104D0042A5D
S2140047A00BD0022A23D10EE05A6A92001FD4D3F807
S2140047B090201006FBD5032217E0D3F89020920530
S2140047C0FBD5042211E00D4BD3F890301B07FAD529
S2140047D00D4B1B6813F0300F06D10C4B1B6803F40F
S2140047E04003B3F5400FF8D10222044B5A6719B1C3
S2140047F0024B0022C3F88021704700BF00400E40E5
S214004800AC200020AA20002024400E4090400E40FD
S2140048101848194BC26C1B88C2F303222833013296
S21400482002EB820103EB6303B3FBF1F3C16C013BC4
S214004830072B21F0EE6128BF072341F4801141EADF
S2140048400363C3640D4BB3F90030002B10DB283331
S214004850510001EB520203EB6303B3FBF2F3026D6C
S214004860072B28BF072322F0700242EA03130365D2
S214004870704700BF00300E40A8200020A220002075
S214004880084B1A78012A0BD1074A126C02F0030271
S214004890012A03D1054A1268D203FBD502221A70F8
S2140048A0704700BFB020002000300E407C300E4025
S2140048B0054A064BD16C1960D36C23F47F4343F44E
S2140048C0EE43D364FFF7A4BF00300E40A4200020C0
S2140048D038B5144B144AD3F890101160D3F89440AE
S2140048E0124A134BA4B21C80136943F004031361ED
S2140048F00546FFF7DDFFFFF7C3FF30BF0D4B1A6815
S2140049000D4BDA64FFF784FF1DB1BDE83840FFF7B2
S21400491031BF04F00704012C03D0BDE83840FBF794
S2140049207BBC38BD00400E40AC20002000ED00E00F
S214004930AA200020A420002000300E4038B51C4BD2
S2140049401C4AD3F890101160D3F894401A4AA4B2C7
S2140049501480D3F8802145F60E01D207C3F88011E3
S21400496048BF00224FF42071196648BFC3F8802163
S214004970124A136943F0040313610546FFF798FFD4
S214004980FFF77EFF30BF0E4B1A680E4BDA64FFF758
S2140049903FFF1DB1BDE83840FFF7ECBE04F007044A
S2140049A0012C03D0BDE83840FBF736BC38BD00BF4D
S2140049B000400E40AC200020AA20002000ED00E0C1
S2140049C0A420002000300E40044B054AD3F8901077
S2140049D01160D3F89420034B1A80704700400E40B5
S2140049E0AC200020AA200020074A936FDB07FBD4E8
S2140049F0011C064B18BF01211960136C23F003033A
S214004A0018431064704700BF00300E40B40AC64317
S214004A101A4B4AF6E85270B59C699E699A60986986
S214004A2024F4403410F0010044F4003446F44036D8
S214004A301D4607D11B6C03F00303013B012B01D875
S214004A40FFF7D2FFAB69DB0708D50D4B4AF6E852F5
S214004A501A600C4A136843F080031360FFF728FFC0
S214004A60FFF70EFF054B9C619E619C619E619C61F9
S214004A709E619C619E619C6170BD00BF00300E40CF
S214004A8090310E4098310E406A4B2DE9F74F9B6BE4
S214004A90019203F00F03022B804601D00020C6E0EF
S214004AA0A0F5E163B3F5966FF8D8002214461346D6
S214004AB049B901990124002900F09D80DFF87CA106
S214004AC04FF0080903E0DFF878A14FF00109B8F5C8
S214004AD0E16F94BF00200120574948B1002C40F0F8
S214004AE08F8040F6B83C4FF4E1654FF0010E07E0CA
S214004AF0002C40F091804FF4E16C4FF49665A6468A
S214004B004C4EDFF840B1F66C06F040564EEA06070B
S214004B105F4521D008D8012F1BD026D3B7F1805F80
S214004B202BD1D1F86C3125E0DFF81CB15F4516D0EB
S214004B3005D8B7F1005F20D1D1F8703111E0B7F198
S214004B40405F15D0DFF804B15F4516D1D1F8783153
S214004B5010E0D1F8743104E0D1F874310AE0D1F8ED
S214004B607831C3F30722DBB207E0D1F86C31F8E7FF
S214004B70D1F870311A0EC3F30743096D2E4FC9B230
S214004B80032903D8D7F87C1148B10AE0360F022E65
S214004B90D7F8801108D0032E09D0012E01D0C9B253
S214004BA006E0C1F3072103E0C1F3074100E0090E68
S214004BB0090311F4702F7FF471AF1E4EF06E20F4CF
S214004BC0704001436545F166BFF468AFC5EB080069
S214004BD0D11A4143C5EB0C05B1FBF5F51D449542D2
S214004BE03FF65CAF9D42FFF459AF05FA09F545EA7A
S214004BF00E05CAF80050002C3FF45BAF204616E0C6
S214004C00D1F8683140F6B83C1A0E4FF4E165C3F3AC
S214004C1007434FF0020ED9E7D1F868314FF4E16C44
S214004C20C3F307224FF49665DBB28646CEE703B0A1
S214004C30BDE8F08F00300E40B081E00F5C300E40D3
S214004C4064300E400100001001000020010000301A
S214004C50194B1A6FD96CC90702F0070206D5012A4C
S214004C6004D9132818D91438132811E0DB6CD90797
S214004C7006D4012A04D809280ED90A38092807E0DC
S214004C800D4BDB6C13F0010309D0012A06D8272848
S214004C908CBF1023082302E0042300E0002306480C
S214004CA0013BC26C190341EA032322F47F421343FB
S214004CB0C364FFF7ADBD00BF00300E40054A064B8B
S214004CC01B68136F23F007031843044B10671888FC
S214004CD0FFF7BEBF00300E408009C643A02000206C
S214004CE0524B027873B59A639B6B03F00F039342A3
S214004CF0044601D0002595E04D4ED6F86C310133C0
S214004D001DD04C4B1A68043B1B681A604A4B1A6845
S214004D10043B1B681A60494B1A68043B1B681A6000
S214004D20474B1A68043B1B681A60464B1A68043BDC
S214004D301B681A60444B1A68043B1B681A60E388B9
S214004D404A2B0BD9B3F5FA7F0AD340F6C312934227
S214004D5094BF4FF000534FF0405303E0002301E0B0
S214004D604FF08053314DB4F90C00E96C21F04052FD
S214004D7022F001020028A8BF42F001021343EB64B0
S214004D80EB6E43F08073EB660420FFF797FF2B6E05
S214004D9023F0C0432B66EB6C43F00603EB64F56C24
S214004DA001A8C5F3074500F063F9A5F110030B2B26
S214004DB003D905F0FD05512D17D19DF805000128F2
S214004DC013D19DF80430022B0FD820490B7863B915
S214004DD01F4A164D136843F0010313602B6E1D4ADD
S214004DE01A401D4B13432B6608701C4B21891980F3
S214004DF01B4BA2891A801B4BA0881880FFF728FF40
S214004E00012160880A46FFF73FFE054600283FF46A
S214004E1071AFA37A144A6078003318BF0123136079
S214004E20FFF7E2FD284602B070BD00BF00300E401E
S214004E30B081E00F3C80E00F4480E00F4C80E00F34
S214004E405480E00F5C80E00F6480E00FB02000200C
S214004E5044300E40000F0EF0B4C0400BA8200020D7
S214004E60A2200020A02000209407C643072930B5C2
S214004E704FF00F0406D88D00AC40A840194D2C60AA
S214004E80194C07E0A1F10805AD00AC40A840174D4D
S214004E902C60174C2060072A88BF083A4FF003049E
S214004EA001EA040097BF920092009440904085BFAC
S214004EB0944090400F4A104A146002F1007210604D
S214004EC00E4A0A44920013609DF80C30C2F88030F7
S214004ED001238B400A49C1F824349DF81030C2F8EB
S214004EE0003330BD00A4004400A4004604A40044DF
S214004EF004A4004608A400440CA4004480208510A6
S214004F0000A00040F0B562B1302404FB00F51F4C51
S214004F102C4401EBC404A40013B10125256000E075
S214004F2023603024444304F18044072904F52044D8
S214004F300CD867684FEA810E0F2505FA0EF527EAAA
S214004F40050602FA0EF5354365600CE001F1804572
S214004F50083DA768AD000F26AE4027EA060602FA0F
S214004F6005F53543A5607AB93022504333B1074B77
S214004F70034401EBC3018900012304E0034A024411
S214004F8001EBC20189000B60F0BD00BF0CA010420F
S214004F90014B01229A60704700500E40124B30B50C
S214004FA05D6800231846114CE2185168104A1268D2
S214004FB052070FD4E258B2F5806F09D002D8B2F586
S214004FC0007F04E0B2F5006F02D0B2F5803F01D159
S214004FD041F48071E2582A4202D0294208BF1043A9
S214004FE00833482BDFD130BD00500E402438010076
S214004FF07A40E00F8B784A789B0143EA82030A786E
S2140050001343CA7843EA02130A7943EAC2234A7969
S21400501043EA02338A79043043EA42430001014AF4
S2140050201350704700200440014B1860704700BFC3
S21400503000008442837842781B0143EA82030278A8
S2140050401343C27843EA4213027943EA02234279C1
S21400505043EA0233827943EAC233C27943EA02431F
S214005060027A43EA4243014A136070470020044034
S2140050700B4A536903F00F011369C3F3811343EA24
S21400508081038370136903F03F034370936903F051
S214005090F001D369C3F303130B430370704700BFDB
S2140050A0D0FF0FE030B50C780CB902234360002324
S2140050B04362CB788A781B0443EA02630A7A134376
S2140050C08A7943EA8223CA7943EA02234A78002A85
S2140050D014BF4022002213434A7A002A14BF8022BB
S2140050E0002213438A7A002A14BF20220022134388
S2140050F0CA7A002A14BF1022002213430A79002A13
S2140051004A7914BF4FF400550025002A43EA0503E8
S21400511014BF4FF0805200221A430B7B002B14BFA3
S21400512008230023134303600CB10123436030BD02
S214005130537810B514781B0643EA846394792343A6
S214005140947843EA0443D47843EA0433147943EA70
S2140051508423547943EA0423D479002C14BF4FF0F7
S214005160804400242343147A002C14BF4FF00054CC
S21400517000242343547A927A002C14BF102400246F
S2140051800631002A43EA040314BF04220022090160
S2140051901343435010BD000070B5044616461D4626
S2140051A019B91448FEF7BCFF0146202D07D001D8D8
S2140051B05DB170BD402D04D0602D04D070BD0822B6
S2140051C004E0062202E0042200E01022236823F016
S2140051D06003236072434901236801EB5201B1FB6F
S2140051E0F2F20549203AD20011401D432560616164
S2140051F070BD00BF40410500F8FF7F00F8B50446CB
S214005200154619B90E48FEF78BFF0146C8012A4617
S2140052100023490E07F0ACFCB0F1800641F1FF37E1
S214005220310A41EA076107480A02024004F1140005
S21400523000F1806300F1C060024919600260F8BDA9
S21400524040410500F8FF7F00CB4303F005035B00F9
S214005250C360C1607047000040F6AA63C36041F2B5
S2140052600502002303604260094A83604361C36409
S2140052708264084A436790428367C36708BF036532
S2140052808365054B984204BF0023C365704700BF83
S214005290F9FF0100000001400004014038B50C464B
S2140052A00546FFF7D9FFA37C1BB12B6843F080436C
S2140052B02B60E37C1BB1237D43F08003AB65637BEF
S2140052C0228A61681A43E38913436B60A268237BD2
S2140052D02846FFF761FFE37D1B0503F4E002A37D8C
S2140052E01B0703F0E04313432B66637D1BB12B685B
S2140052F043F480332B602378EB6038BD38B50C461A
S2140053000546FFF7A9FF238AA27B296843F001031D
S214005310002A9BB214BF4FF4806200220B43134353
S214005320227D2B602B68002A14BF4FF0005200220B
S21400533013432B60A37C1BB1E37C43F08003AB6577
S214005340237B6168A26843F480536B602846FFF7AE
S21400535055FF637B0BB11023EB60E37D1B0503F465
S214005360E002A37D1B0703F0E04313432B66637D37
S2140053701BB12B6843F480332B602378EB6038BD79
S21400538003691B06FCD5C069C0B2704703695B069B
S214005390FCD54163704703695B06FCD5C163704763
S2140053A010B5044674B194FAA4F0B0FA80F0012364
S2140053B0834024EA0304044B53F82030002BF1D03A
S2140053C09847EFE710BD00BFB8200020054B4FF40C
S2140053D00032C3F880211A604FF40072C3F88021AF
S2140053E01A60704700E100E072B6094B1A68B2F125
S2140053F0FF3F1CBF01321A601B68064A42F82010A5
S21400540023B1034A013B136003B962B6704700BF7D
S214005410B4200020B8200020074AD2F82804D2F88A
S2140054201C34184020F42A5020F02A004004400C77
S214005430C2F82404FFF7B4BF00A00040074AD2F821
S2140054402804D2F81C34184020F4AA4020F0550056
S2140054500004000CC2F82404FFF7A2BF00A000401E
S21400546008B500F01FF800F0DDFCBDE8084000F0CD
S2140054701BBB08B500F076FBBDE8084000F088BB13
S21400548082B000EB40000021CDE90001DDE90023F9
S21400549012F1FF3043F1FF311343CDE90001F5D19E
S2140054A002B07047F0B54F4B91B002AA03F1080561
S2140054B0174618685968144603C40833AB42224698
S2140054C0F7D118689B88A380474B206006AA03F193
S2140054D01005164618685968144603C40833AB42CC
S2140054E02246F7D11B882380404C0FCC0BAD0FC54E
S2140054F023682B603846FFF7F3FB3046FFF7DAF8F1
S2140055000BA802F011F911200421FFF741F8002141
S2140055100A460320FEF7BEFF54F8040F344D6168B8
S214005520344C6B4603C3684602F0B2F801200246CC
S2140055300146FEF7AFFF30480321FFF729F82F4852
S2140055400321FFF725F82E480121FEF7D3FC2D484E
S2140055500121FEF7CFFC2C480121FEF7CBFC2B489F
S2140055600121FEF7C7FC20462949FFF7C7FE0B239B
S214005570636703F10B23A36702200621042200239E
S214005580FFF7C0FC0220024607210023FFF7BAFC03
S2140055900220082104220023FFF7B4FC04210A4657
S2140055A001230020FFF7AEFC002742F21070FFF741
S2140055B067FFAB2120462F60FFF7E8FE0126204656
S2140055C0FFF7DEFE2E601E20FFF75AFF2046B921A9
S2140055D02F60FFF7DBFE2046FFF7D2FE2E6011B0ED
S2140055E0F0BD00BF6C3801007A3801008C3801002D
S2140055F090011442000401400200180003001A0043
S214005600000508004041050000250800003204009F
S214005610C038010008B1052303600148704700BF89
S2140056207C08002008B1062303600148704700BFCD
S2140056304C080020024B03449B0000221A6070476F
S2140056404000F310F8B504460E46144801211746EC
S2140056501D46FEF74FFC12482044800000230360DE
S21400566004F110020F4B45EA072543F82250A20822
S214005670103304F0030453F82250E400FF21A14045
S21400568025EA010143F8221053F82250A64046EAC4
S214005690050143F8221001230360F8BD0035080019
S2140056A04000F31000600E4000207047FEE74FF405
S2140056B000534B6000207047012070470020704761
S2140056C0F8B50E468F180D46BD42A5EB060406D06B
S2140056D000F0DAF8431C02D005F8010BF4E7002CC2
S2140056E014BF20464FF0FF30F8BD70B50E46154685
S2140056F00C46A31BAB4204DA14F8010B00F0FAF8D0
S214005700F7E7284670BD000008B50D4B1A680AB9C1
S2140057100C4A1A601A681318EFF308818B420BD9EB
S214005720094B1B68986807F00BFD08491922FFF71C
S214005730DCFF012007F0F0FC014910460B6008BDB5
S214005740F8200020B02F002058090020D83801008B
S214005750104838B503691B061BD50F4C2568FFF7A4
S2140057600FFE0E4B58552368013323600C4B1A6806
S21400577001321A602268082A04BF002222601B68D1
S214005780082BC1BF064A002323601360C4BF054A26
S214005790136038BD0000014008210020FD200020D5
S2140057A0102100200C210020034B10B101221A709A
S2140057B070471870704700BFFC20002030B52A489C
S2140057C02A4D87B00121FEF795FB29480121FEF7F7
S2140057D091FB0020014604220123FFF793FB0020E3
S2140057E001210A460346FFF78DFB0FCD6C460FC41A
S2140057F095E80300042284E8030001230020052125
S214005800FFF780FB1B481C4C0121FEF773FB06A923
S214005810002501F8185D2046FFF740FD0323636767
S214005820A36F164A23F4F85323F01F03A3674FF41D
S21400583000610423A364C2F88011E36C43F0040300
S214005840E364204611600521FFF7FEFC0C4B1B6845
S2140058502946986802222B4608F0BCFB094B012219
S2140058601A7007B030BD00BF40410500F438010093
S21400587000250800002204000000014000E100E0CE
S2140058805809002005210020154B1B7810B50BB9D0
S214005890FFF794FF72B6134B1A68511C1CBF0132F7
S2140058A01A60114A1168002910DD1049104C08686A
S2140058B0205C0C6801340C600C68082C04BF0024C3
S2140058C00C6011680139C0B2116001E04FF0FF3082
