S01500007261696C746573745F65667233322E73333776
S2140000000080002099010000C5010000C501000025
S214000010C5010000C5010000C5010000C5010000C3
S214000020C5010000C5010000C5010000C5010000B3
S214000030C5010000C5010000C5010000C5010000A3
S214000040C501000011790000C50100001D790000FF
S214000050657900003579000029790000597900009B
S214000060C50100001D520000095D00005555000046
S214000070C5010000C5010000C5010000C501000063
S214000080C501000041520000C5010000C501000086
S214000090C5010000C5010000C5010000C501000043
S2140000A0C5010000C5010000C5010000417900003F
S2140000B04D790000B5590000C5010000C5010000DB
S2140000C0F5A90000C501000010B5054C237833B92A
S2140000D0044B13B10448AFF300800123237010BD16
S2140000E07809002000000000B8520100084B10B547
S2140000F01BB108480849AFF300800848036803B9F5
S21400010010BD074B002BFBD0BDE81040184700BFC2
S21400011000000000B85201007C0900207009002091
S21400012000000000154B002B08BF134B9D46A3F59F
S214000130803A00218B460F461348144A121A0DF0D7
S21400014071F80F4B002B00D098470E4B002B00D0B9
S21400015098470020002104000D000D48002802D01A
S2140001600C48AFF300800DF001F82000290002F0E3
S21400017043FF0CF0D5FE00BF000008000080002002
S214000180000000000000000078090020842F0020F6
S2140001900000000000000000064880470649074AA5
S2140001A0074B9A42BEBF51F8040B42F8040BF8E71F
S2140001B0FFF7B8FF49020000EC52010000000020E3
S2140001C074090020FEE700BF0048704700F04902AF
S2140001D00D4AD2F8943003F00703032B0AD0042B01
S2140001E003D0022B03D1094B02E0094B00E0094B78
S2140001F0186801E04FF40040D2F80031C3F304233E
S2140002000133B0FBF3F0704700400E4000000020C2
S214000210040000200800002008B5FFF7D9FF054BB2
S214000220D3F80831C3F308230133B0FBF3F0024BD5
S214000230186008BD00400E40102E0020014B1868C4
S214000240704700BF00000020034AD2F8883043F40D
S2140002507003C2F88830704700ED00E04FF40040AD
S21400026070474FF47A707047014B1868704700BFAC
S2140002700400002070B5002088B00C46096803F022
S214000280CFF8002858D02D4B66680FCB04AD85E814
S2140002900F0030462A4904220CF08EFF10B98DF864
S2140002A013000DE03046274902220CF085FF18B9EE
S2140002B001238DF8133003E02068234A202125E02F
S2140002C0A06803F007FC43F2C82680B2B04203D908
S2140002D020681E4A212119E0ADF81400E06803F0FA
S2140002E0F9FB80B2B04203D92068194A22210DE0FA
S2140002F0ADF81600206903F0EDFBADF818002846AF
S21400030009F00AFC014620B12068124A06F0C6FD34
S21400031012E0BDF814300093BDF816300193BDF816
S214000320183002939DF813500B4B20680B490C4A6B
S21400033053F8253006F0A0FD08B070BD800301001C
S214000340900301009503010098030100B803010023
S214000350CD030100E70301001C0000201604010085
S2140003606730010038B500200C46096803F058F8DD
S21400037080B109F089FB05460B2002F05BFC064BBA
S214000380064A20680649002D08BF1A46BDE83840D0
S21400039006F072BD38BD00BF673001006004010082
S2140003A0690401002DE9F34148680C4603F092FB0E
S2140003B0071CA06818BF012703F08CFB061CE0682A
S2140003C018BF012603F086FB051C206918BF01250F
S2140003D003F080FB10F1000818BF4FF00108F8008A
S2140003E016B140F00400C0B20DB140F00200B8F102
S2140003F0000F01D040F0010009F081FB38B1206801
S214000400104A232102B0BDE8F04106F047BD20683F
S2140004100D4B0E4C0E49B8F1000F14BF22461A467B
S214000420002D14BF25461D4601920095002F14BFCF
S21400043022461A46002E18BF234606F01DFD02B0BF
S214000440BDE8F0817504010060040100673001001A
S2140004509B04010038B548680C4603F03BFB051CBE
S21400046018BF0125284609F03EFB30B12068084A2F
S2140004702421BDE8384006F011BD064B064A206828
S2140004800649002D08BF1A46BDE8384006F0F4BC01
S214000490D30401006004010067300100F704010086
S2140004A038B548680C4603F015FB051C18BF012537
S2140004B0284609F00CFB30B12068084A2421BDE824
S2140004C0384006F0EBBC064B064A20680649002D6D
S2140004D008BF1A46BDE8384006F0CEBC0A05010043
S2140004E060040100673001002D05010010B5486862
S2140004F00C4603F0EFFA80B209F0E3FA054A064B21
S2140005000649002818BF1A462068BDE8104006F0C5
S214000510B3BC00BF60040100673001003F05010066
S21400052010B548680C4603F0D5FA80B209F0CBFA4D
S214000530054A064B0649002818BF1A462068BDE83B
S214000540104006F099BC00BF60040100673001004F
S2140005505005010037B50D46012455F8240003F078
S214000560B9FA0DEB04030134092C03F8010CF4D19D
S214000570684609F0AAFA054B054A0649002818BF3E
S2140005801A46286806F078FC03B030BD67300100D4
S214000590600401006805010010B548680C4603F0C9
S2140005A099FAC0B208F0D0F928B120680549BDE82C
S2140005B0104006F061BC2068034A3521BDE81040B3
S2140005C006F06CBC7F0501009805010010B50C46CE
S2140005D008F0C6F9054A064B0649002818BF1A4611
S2140005E02068BDE8104006F047BC00BF600401006C
S2140005F067300100BB05010010B548680C4603F0E3
S21400060069FA10B908F0AAF901E008F0A5F9214640
S2140006100120BDE81040FFF7D9BF00002DE9F04FDC
S21400062008682549254F85B006F0FCFB00264FEAF2
S214000630860A00253B78DFF8A080E3B105EB0A0BBD
S21400064000244FEACB0BA1463B7899450CDA1C4BAD
S2140006501C494B4408EB040013F80B200DF078FC03
S21400066009F101090444EFE7002C06DD44440023A9
S21400067004F8013C01E088F80030134A1349387842
S214000680134B2A449B5D12F80A40124A002C18BFEE
S2140006900A468DE80101029207482A46314601358E
S2140006A006F0D8FB042DC5D101370EB90126BEE7EA
S2140006B005B0BDE8F08F00BFCF050100940900200B
S2140006C09609002008060100060A0020673001008F
S2140006D00E0A002060040100D6090020234B2DE9F5
S2140006E0F04700241C705C70214B224E1C705C701E
S2140006F005460F46402221461F480CF093FD214632
S21400070008221E480CF08EFD786803F0E3F9052DEC
S214000710D8BFAC1EF060C8BF042407F10808002547
S214000720A54212DA15F0010FD8F800000CBFD6F873
S21400073004A0D6F808A003F0CDF94FEA650908F141
S21400074004080AF809000135EAE70A4808F0D8F86C
S21400075028B139460120BDE8F047FFF75FBF38688B
S214000760074A3021BDE8F04706F098BB0E0A002085
S214000770940900200C00002096090020060A00209C
S214000780100601002DE9F341804648680C4603F048
S214000790A1F9C7B2A06803F09DF9022F02D8C5B22E
S2140007A0042D03D920681C4A312123E0B8F10B0F31
S2140007B003DD2068194A32211CE0002300930193D0
S2140007C00326464509DA54F8260003F083F90DEBB4
S2140007D00603013603F8030CF3E705EB8706104B18
S2140007E0384629466A469B5D08F0BEF828B9206858
S2140007F00C4A332106F052FB0BE00B4A6B4603CB48
S21400080002EBC60542F83600696001202146FFF774
S21400081005FF02B0BDE8F081390601005E06010062
S214000820060A00207C06010096090020F0B54868FC
S21400083085B00E4603F04EF9C4B2B06803F04AF92C
S214000840C7B2F06803F046F9C5B23946204615B976
S21400085008F08EF801E008F089F838B93068124AD6
S214000860342105B0BDE8F04006F018BB003507EBB4
S21400087084030E4A30680E4E18BF0125D5540D4B22
S214000880195D0D4B1A5D0D4B002D14BF1D463546E8
S2140008900B4B02938DE8060003950A4922463B4619
S2140008A006F0EAFA05B0F0BD99060100060A002037
S2140008B0600401000E0A0020940900206730010041
S2140008C0D6090020CF05010073B50C460020096844
S2140008D002F0A6FD00284DD0656827492846042268
S2140008E00CF06AFC10B9254B18700DE02846244918
S2140008F002220CF061FC18B9204B01221A7003E0AA
S2140009002068204A202123E0A06803F0E3F843F2A1
S214000910C82680B2B04203D920681B4A212117E0BE
S214000920164D6880E06803F0D5F880B2B04203D96F
S2140009302068164A22210BE0A880206903F0CAF836
S214000940E880284609F03FF8014630B12068104A92
S21400095002B0BDE8704006F0A1BAAA882E786B886F
S2140009600092EA8801920B4A20680B4952F826202A
S21400097006F082FA02B070BD90030100100A002053
S2140009809503010098030100B8030100CD030100A0
S214000990BB0601001C00002022040100F7B50C462F
S2140009A009F00FF8074609F040F8054609F043F845
S2140009B022680A4B0A4C0B4E0B49002814BF1846F7
S2140009C0204600901046094A002D08BF2346002FF7
S2140009D008BF324606F050FA03B0F0BDE806010044
S2140009E0EF06010060040100F80601006730010010
S2140009F010B50C4608F0CEFF014618B12068044A30
S214000A0006F04CFA21460120BDE81040FFF7C6BFAD
S214000A102907010070B548680C4603F05BF80646E7
S214000A20A06803F057F816F0FF0FC5B202D008F022
S214000A30F8FF01E008F0F7FF15B108F0F8FF01E055
S214000A4008F0F7FF21460120BDE87040FFF7A6BF7B
S214000A5070B54868104E0D4603F03CF80446A8688A
S214000A6003F038F8E2B200320C4B0D4918BF0122F1
S214000A70C0B2041C1A700B4B286818BF01241C70E7
S214000A80094B002A14BF32461A46002C18BF3346BC
S214000A90BDE8704006F0F0B941070100D31400200D
S214000AA04C070100F01400204607010010B50C4664
S214000AB009F09AF8054A064B0649002818BF1A4658
S214000AC02068BDE8104006F0D7B900BF60040100FA
S214000AD0673001008407010038B548680C4602F00C
S214000AE0F9FF21680546002002F09AFC58B115B1BE
S214000AF009F05CF801E009F067F821460120BDE83E
S214000B003840FFF7D3BF38BD01282DE9F34105462D
S214000B100C4618DD486802F0DDFF022DC7B213D080
S214000B20A06802F0D7FF032D80460FD0E06802F0E1
S214000B30D1FF042D06460AD0206902F0CBFF051C23
S214000B4018BF012504E02527DFF844800C4E002559
S214000B50304641463A462B4609F04CF8094A0A4BBD
S214000B6020680096002D14BF1D46154601950749BE
S214000B703A46434606F080F902B0BDE8F08100BF71
S214000B805555550067300100600401008B070100D1
S214000B90D6BE898E38B548680D4602F09BFFC4B2B3
S214000BA0A4F12503022B06D92868174A3021BDE890
S214000BB0384006F073B9154815492246002309F057
S214000BC019F8252C01D1002003E0262C0CBF0C20A0
S214000BD0272002F02FF80F492868224606F04CF925
S214000BE00D4B0E4A03F11C0153F8040B42F8040B9C
S214000BF08B42F9D10A4B1C229A8029460120BDE877
S214000C00384000F0C7BD00BFD0070100555555005D
S214000C10D6BE898EEC07010068070100B0060020EA
S214000C20A007002070B548680C4602F053FF216804
S214000C300546002002F0F4FBE8B108F059FDC307B2
S214000C4012D5284607F000FE30B920680A492A4621
S214000C50BDE8704006F010B92068084A2B461421FB
S214000C60BDE8704006F01AB92068054A1321BDE8B1
S214000C70704006F013B970BD0208010013080100A9
S214000C804C08010030B1044B10F0010F034818BFA8
S214000C9018467047024870477C0801008F0801001C
S214000CA06004010070B548680C4602F013FF054664
S214000CB008F010FD48B92846FFF7E4FF074902464A
S214000CC02068BDE8704006F0D7B82068044A2B4676
S214000CD01521BDE8704006F0E1B800BF9408010099
S214000CE0A10801002DE9F041054648680E4602F0CD
S214000CF0F1FE022D044604DDB06802F0EBFE074666
S214000D0000E0012714F00305306806D02346FF21D3
S214000D10094ABDE8F04106F0C1B8084906F082F875
S214000D20BD4207D02146054854F8042B06F092F839
S214000D300135F5E7BDE8F081BE080100E2080100D4
S214000D40F0B5074685B048680D4602F0C3FE820738
S214000D50034602D1041F022605E028680E4AFF213A
S214000D6006F09CF815E0BE42A6F1020207DA55F836
S214000D70260002F0AFFE013644F8040FF3E701AC9C
S214000D80064920460DF0E4F8AC6003202946FFF73C
S214000D90A9FF05B0F0BD00BFBE0801006D1101003F
S214000DA010B548680C4602F095FE011C226818BF74
S214000DB001210920BDE8104002F0F4B910B54868DA
S214000DC00C4602F087FE011C226818BF012108208D
S214000DD0BDE8104002F0E6B910B548680C4602F0CF
S214000DE079FE031C18BF0123074A2068074C83F0CE
S214000DF001011170064A0749002B18BF2246BDE8BC
S214000E00104006F039B800BFFD0F00206730010023
S214000E1060040100FE08010038B548680D4C0D4618
S214000E2002F05CFE01460031206018BF01210A2056
S214000E302A6802F0B7F92368002B0ADD02F0ACF945
S214000E400A2806D1044B01221A60BDE8384001F09A
S214000E5029BF38BDEC070020FC14002010B5094B54
S214000E60094C1878094B10F0010F14BF22461A4699
S214000E7010F0020F18BF234608680549BDE8104069
S214000E8005F0FABFE80700206730010060040100A3
S214000E900E09010010B548680C4602F01BFE074A12
S214000EA0137810B143F0010301E003F0FE03137062
S214000EB021460120BDE81040FFF7D0BFE80700201C
S214000EC010B548680C4602F005FE074A137810B1C4
S214000ED043F0020301E003F0FD03137021460120F6
S214000EE0BDE81040FFF7BABFE807002008B501F0DC
S214000EF089FCBFF34F8F0549054BCA6802F4E062D0
S214000F001343CB60BFF34F8F00BFFDE700ED00E05B
S214000F100400FA0570B50D6808F04EF9044608F0AE
S214000F204DF92246034603492846BDE8704005F0C1
S214000F30A3BF00BF2E0901002DE9F0410446486812
S214000F400D4602F0C7FD022C87B206DDA86802F047
S214000F50C1FD041C18BF012400E00024B7F5806F13
S214000F6008D928681E4A10214FF48063BDE8F04176
S214000F7005F094BF1B48394607F0FCFCB842804693
S214000F8004D02868184A112105F088FF04BB2646BD
S214000F90BC4216DA1548134B154A1B5D3044C6F59D
S214000FA0C9710CF0A3FF002806DA2868114A12213E
S214000FB0BDE8F04105F072BF0644B6B2B6F5C97F8B
S214000FC004D328680C49094B424605E00134DFE7A4
S214000FD028680A49034B4246BDE8F04105F04CBF7D
S214000FE047090100AA0B002071090100180A002019
S214000FF0EB1201008F090100AB090100BD090100D9
S2140010002DE9F04F87B0824602A80D4604F004FA98
S214001010814603A804F008FAD5F804B070490746DC
S21400102058460CF0FDFFDDF80C80044610B1002495
S214001030264625E06B482968029E0CF0BDFD6A48EE
S2140010400CF0BAFD44450AD014B168480CF0B4FD63
S21400105057F8341066480CF0AFFD0134F2E76548E7
S2140010600CF04EFE64480CF04BFE0024B44200F038
S214001070B38059F8341061480CF09EFD0134F5E752
S21400108044450DD007EBC40357F834000193594686
S2140010900CF0C6FF019B0134002808BF1E46EFE790
S2140010A026B92868564A50215B4666E0D5F808807F
S2140010B0544C414620460CF0B3FF0746A8B9BAF197
S2140010C0040F03D02868504A51211BE0E8687721B6
S2140010D002F008FD0028F5D0E86804948DF8147036
S2140010E002F0F8FCADF8160029E0484C41462046D0
S2140010F00CF096FF074620BBBAF1050F05D028680E
S214001100434A532105F0CAFE66E0E868752102F0FE
S214001110E9FC0028F3D02869752102F0E3FC0028DA
S214001120EDD00123E8688DF81430049402F0D2FC68
S2140011308DF81700286902F0CDFC8DF8160004AC77
S21400114022E0344841460CF06BFFC8B10027DDF8BA
S21400115008A03C4657450BD059F8370041460CF0DE
S2140011605FFF09EBC70B002808BF5C460137F1E7B5
S2140011704CB92868284A5421434605F08FFE2BE0D8
S2140011800127044600E000272448012102F0B4FDB0
S2140011900022B079F179134603F0B6FD47B13079F5
S2140011A004F04AF928681E49326805F065FE13E027
S2140011B023792BB130797179E279A37904F044F977
S2140011C0B079F1790422002303F09EFD28681549C2
S2140011D03268236805F050FE07B0BDE8F08F00BF08
S2140011E0D6090100DB090100F8090100FF0901002A
S2140011F0A1300100020A01000D0A0100470A0100A1
S2140012004D0A0100850A0100680A0100AD0A0100C6
S214001210900A0100E40A0100B80A0100002508004F
S214001220D60A0100E80A01002DE9F0418046486828
S2140012300D4602F04FFC0746A86802F04BFC3E1C29
S21400124018BF0126044631460C202A6802F008F929
S21400125070B14046294600F0C7F9064B1F60064BA2
S2140012606008186026B10121BDE8F04107F06ABFAA
S214001270BDE8F081182E0020142E00200B6807EE23
S214001280900A0133012B0B60B8EEE77A06D10023F3
S2140012904860886081ED037A0B617047D1ED036A80
S2140012A04A688242D4BF4A60486007EE903A37EEFA
S2140012B0666AF8EE677A8A688242ACBF8A6088609F
S2140012C0C6EE277A76EEA77A37EE677AC1ED037A0E
S2140012D0D1ED047AE6EE077AC1ED047A7047000095
S2140012E030B5234CD4ED117A2DED028BB5EE008A85
S2140012F067EE887A89B017EE900A0D460BF06AF80A
S214001300D4ED0F7AF8EEE77ACDE9000167EE887A39
S21400131017EE900A0BF05EF8D4ED107AF8EEE77A46
S214001320CDE9020167EE887A17EE900A0BF052F8C4
S214001330A36B94ED127A013B07EE903AF8EE677ACB
S214001340CDE90401C7EE277A9FED0A7A67EE877A21
S21400135017EE900A0BF03EF8226BCDE906012868DE
S214001360054905F089FD09B0BDEC028B30BD00BF14
S2140013700C1600200000803DF90A010007B54868F9
S21400138002F0A8FB02AB43F8040D184608F060FB19
S21400139003B05DF804FB70B5064648680C4602F0DC
S2140013A099FB051C18BF01250D202946226802F06E
S2140013B057F860B13046214600F016F91DB1BDE879
S2140013C0704008F053BBBDE8704008F03ABB70BDF3
S2140013D02DE9F0478AB006A80F4608F053FB069D95
S2140013E0ADB107980AF0D4FF8046284689460AF031
S2140013F0CFFF02460B46404649460BF069F90022ED
S2140014001C4B0BF03BF80BF04BFA824601E04FF01A
S214001410000A079CACB108980AF0BAFF804620463E
S21400142089460AF0B5FF02460B46404649460BF091
S2140014304FF900220F4B0BF021F80BF031FA06465D
S21400144000E0002650460AF0C5FF9DF924300293BE
S214001450CDE90001089B039330460AF0BBFFCDE9B7
S2140014600401386804492A46234605F005FD0AB0FB
S214001470BDE8F087000059403E0B01002DE9F04F13
S21400148022480C68036902688168D0F80480D0F8A6
S21400149020B0D0F824A0D0F81890876A97B00F93A1
S2140014A043691393C3691093C36A1193436B184837
S2140014B0159214911293068801F06EFE01F0A4FEB8
S2140014C0054608F0A0F80F9B0193139B0293109B10
S2140014D00693119B0893129B149909930D4B009148
S2140014E0CDF80CB0CDF810A0CDF8149007970A965A
S2140014F00B9553F820300C9320460749159A43461F
S21400150005F0BAFC17B0BDE8F08F00BF0C1600203F
S214001510E01400201C000020970B010010B588B0D6
S2140015200C4605A8002108F0C1F89DF81830019374
S2140015309DF81930029301229DF81A300393009209
S21400154020680349032305F097FC08B010BD00BFD0
S214001550590C010010B58AB00C4607A8012108F006
S214001560A5F89DF8203001939DF8213002939DF850
S2140015702230039301229DF82330009204932068C2
S2140015800649032305F078FC20680549079A9DF86C
S214001590243005F071FC0AB010BD00BF740C0100C9
S2140015A0920C010010B50C4607F056F910F5007FB6
S2140015B006D120680A4A0821BDE8104005F06EBC36
S2140015C007EE900AFAEECF7A17EE900A0AF002FFBC
S2140015D002460B4620680349BDE8104005F04CBCA7
S2140015E0AB0C0100D50C010010B506480C464C2289
S2140015F000210BF017FE21460120BDE81040FFF742
S2140016003DBF00BF0C16002010B50C6807F056F959
S214001610034902462046BDE8104005F02DBC00BF39
S2140016208630010010B548680C4602F053FA07F001
S2140016304BF9246828B907F041F9064902462046C6
S21400164004E007F03BF9044902462046BDE8104096
S21400165005F012BCDF0C0100FD0C0100012838B5B6
S2140016600C4627DD4D681E49284603220BF0A4FDD4
S21400167020B91C4B18601C4B18601BE028461B4901
S21400168004220BF099FD08B9194A06E028461949C4
S21400169003220BF091FD30B9174A124B1A60124B19
S2140016A0164A1A6006E02068154A7021BDE83840E0
S2140016B005F0F4BB0B4B1B6813B9206811490AE010
S2140016C00B4A934202D120680F4904E00A4A93422B
S2140016D005D120680D49BDE8384005F0CDBB38BDC2
S2140016E0470D0100B00F0020AC0F00201E0D0100BA
S2140016F0FD8D0000D121010001900000280000208F
S214001700230D01003F0D01004B0D0100580D010097
S21400171010B50A4886B0847802784378009490F929
S2140017200340019484880294C488039480680490DB
S2140017300868034905F0A0FB06B010BD280000208D
S214001740640D010038B54868114D0C4602F0C2F928
S2140017502870A06802F0BEF96870E06802F0BAF976
S214001760A870206902F0BAF9E870606902F0B2F970
S214001770A880A06902F0AEF9E880E06902F0AAF954
S2140017802146A8600120BDE83840FFF7C1BF00BF72
S21400179028000020034B08689A881968002301F087
S2140017A05BBB00BFA00700202DE9F0410746486854
S2140017B00D4602F08FF902248046BC4214DA55F832
S2140017C0240002F087F914FA88F6023EEF2EC0B223
S2140017D006D928680A4A0521BDE8F04105F05EBB37
S2140017E0084B01349855E8E70748064B036007F0B6
S2140017F0E7FF29460120BDE8F041FFF7CBBF00BF59
S214001800AE0D0100B0060020A007002070B54868A5
S2140018100D4602F05FF9F028034606D928680A4A02
S2140018200621BDE8704005F039BB084C084AA08088
S2140018302046226007F0C4FF2868A2880549BDE854
S214001840704005F019BB00BFCB0D0100A0070020BB
S214001850B0060020DD0D0100034B08681A791968F0
S214001860002301F0F9BA00BF380000202DE9F0414E
S214001870074648680D4602F02DF902248046BC4211
S21400188014DA55F8240002F025F914FA88F6023E18
S2140018903F2EC0B206D928680A4A0521BDE8F041A5
S2140018A005F0FCBA084B01349855E8E70748064BA4
S2140018B0036008F0AFF829460120BDE8F041FFF7C5
S2140018C0CBBF00BFE90D0100A807002038000020AC
S2140018D070B548680D4602F0FDF84028034606D964
S2140018E028680A4A0621BDE8704005F0D7BA084CB9
S2140018F0084A20712046226008F08CF82868227971
S2140019000549BDE8704005F0B7BA00BFCB0D010031
S21400191038000020A8070020DD0D010004388A1CCE
S21400192050F8043F1B78542B0FD004D8492B08D00E
S214001930522B08D010E0722B05D0742B05D0692BE3
S2140019400AD1002302E0012300E002230B700131DC
S2140019509142E5D1002070470120704710B50C4633
S21400196007F0C6FE10F0010F206805D01221064AC7
S214001970BDE8104005F092BA044B05491A88BDE848
S214001980104005F079BA00BF070E0100E0140020F1
S2140019902C0E010070B500200C46096801F040FDD1
S2140019A0C0B1606802F096F80546C0B207F02EFE99
S2140019B040B9284601F03EF921460120BDE87040B6
S2140019C0FFF7CCBF2068044A2B461121BDE87040C3
S2140019D005F064BA70BD00BF370E010010B50C6884
S2140019E007F045FF034902462046BDE8104005F0D3
S2140019F043BA00BF4C0E010010B500200C46096823
S214001A0001F00EFD58B1606802F068F807F02DFF8F
S214001A10034902462068BDE8104005F02DBA10BD07
S214001A204C0E0100024B08681A68024905F024BAF9
S214001A30E4140020550E010010B548680C4602F06C
S214001A4049F8044B21461860BDE810400120FFF716
S214001A50E9BF00BFE414002010B50C4606F026FFD0
S214001A60034902462068BDE8104005F005BA00BFED
S214001A70600E010010B500200C46096801F0D0FC8D
S214001A8050B1606802F026F806F0E8FE2146012014
S214001A90BDE81040FFF7E0BF10BD000070B5486815
S214001AA00C4602F017F80546A06802F013F8EDB2EF
S214001AB0C6B23146284607F029FB0146206831B9F0
S214001AC02A4633460449BDE8704005F0D5B9034AB6
S214001AD0BDE8704005F0E2B96D0E0100870E01000A
S214001AE0044B08681A68044B044953F8223005F082
S214001AF0C3B900BFF4140020000800208D0E0100BA
S214001B0010B5064C0868214605F08CF9044B2046B3
S214001B1000211A68BDE8104005F09CB98D0E010042
S214001B200008002010B500200C46096801F078FC7B
S214001B30B8B1606801F0CEFF031E0BDC01F096F82A
S214001B4021460120FFF7CCFF21460120BDE81040CA
S214001B50FFF704BF2068034A0821BDE8104005F0DF
S214001B609DB910BDA00E010013B50C46081D01A9B5
S214001B70FFF7D4FE28B120680A4A162105F08EF930
S214001B800EE09DF805109DF8040007F0B7FD064A24
S214001B90064B0749002818BF1A46206805F06CF95E
S214001BA002B010BDB10E010094050100870E0100C1
S214001BB0C00E010013B50C46081D01A9FFF7AEFEC6
S214001BC028B120680C4A162105F068F912E0E06892
S214001BD001F080FF9DF80510C2B29DF8040007F0E2
S214001BE0A0FD064A064B0749002818BF1A4620687B
S214001BF005F042F902B010BDB10E010094050100D7
S214001C00870E0100D10E010070B586B00D460DF1AD
S214001C100606012455F8240001F05CFF0134052C6B
S214001C2026F8020FF6D1BDF80830ADF81030BDF832
S214001C300A30ADF81230BDF80C30ADF8143004A8F8
S214001C40BDF80E30ADF8163006F046FE70B9BDF899
S214001C5014100091BDF812100191BDF81020BDF8C7
S214001C6016302868054905F007F904E02868044A94
S214001C70182105F013F906B070BD00BFE20E010092
S214001C800E0F0100F7B50D4607F094FA044607F06C
S214001C9083FA074607F03FFA064606F00FFE0949A4
S214001CA002462868084D002C14BF0C462C46002F10
S214001CB008BF2946019100940449334605F0DCF834
S214001CC003B0F0BD4107010046070100250F0100E3
S214001CD070B500200C46096801F08AFBF0B1606818
S214001CE001F0F8FE0E490646A0680CF0C5F9054658
S214001CF007F018FA291C18BF0121304607F022FA0F
S214001D0030B12068074A4021BDE8704005F0C6B8EB
S214001D1021460120BDE87040FFF7B4BF70BD00BF8C
S214001D205B0F01005F0F010010B500200C4609682C
S214001D3001F05EFB38B107F0F5F921460120BDE859
S214001D401040FFF79FBF10BD72B6044B1A68511CB7
S214001D501CBF01321A601868704700BF8C20002034
S214001D60034B186818B10138186000B962B670479E
S214001D708C20002010B50C46486801F0ABFE2168A8
S214001D8001F0B4FB014B00221A6010BD08160020BB
S214001D9010B50C46486801F09DFE216801F0A6FBD0
S214001DA0014B024A1A6010BD081600201C2E0020A7
S214001DB010B548680C4601F08DFEC0B2031C074AF9
S214001DC02068074C074918BF01231370064A002BEA
S214001DD018BF2246BDE8104005F04EB81C2E002065
S214001DE0410701006F0F01004607010010B5486863
S214001DF00C4601F06FFE01F029F821680620BDE8C8
S214001E00104001F025BB000010B548680C4601F0F4
S214001E1061FE064B22681860014600314FF007004D
S214001E2018BF0121BDE8104001F0BCB90015002024
S214001E3073B548680D4601F04DFE041C18BF01241A
S214001E4001F0AAF90E2808D13CB12868264A1D21BF
S214001E5002B0BDE8704005F021B801F09DF90428F5
S214001E6001D174B30AE001F097F90E28F9D00020EA
S214001E70296801F0BDFA0028F3D133E007F0C3FB70
S214001E8001280BD00020296801F0CAFA30B1174BA0
S214001E90187807F06BFC164B01221A701549164B82
S214001EA02E68002C13BF0D461D460C461C4606F039
S214001EB005FD124900902A463046234604F0DCFF12
S214001EC010E007F0A0FB0028E8D007F099FB084BCD
S214001ED01C7001F061F90E28E0D12146224601F07F
S214001EE0BFFADBE702B070BD7D0F0100E0140020F2
S214001EF0350000206730010060040100A70F0100D4
S214001F0010B548680C4601F0E5FDC1B20031226804
S214001F104FF0020018BF0121BDE8104001F042B9A1
S214001F2010B548680C4601F0D5FDC1B200312268F4
S214001F304FF0010018BF0121BDE8104001F032B992
S214001F4010B548680C4601F0C5FDC1B200312268E4
S214001F504FF0040018BF0121BDE8104001F022B97F
S214001F6038B548680D4601F0B5FD044601F014F991
S214001F70042806D02868134A0721BDE8384004F034
S214001F808DBFE4B207F03CFB6CB10F4B0021187814
S214001F900A4607F034FC0AE00B4B187807F0E6FB1D
S214001FA028B107F02DFB094B1B78002BF4D1084B0A
S214001FB0084A28680849002C08BF1A46BDE8384079
S214001FC004F05ABFBD0F0100E014002035000020C9
S214001FD06004010067300100D40F01002DE9FF47BF
S214001FE00E46824601210B20326801F039FA00289D
S214001FF000F03D81706801F06DFD00F07F04042C58
S214002000074600F22281DFF8C082DFF8C09228D1AE
S2140020107368984D5B78532B07D002D8482B0ED0A8
S21400202017E0682B0BD0732B13D1FFF78DFEAB692F
S21400203023F00103AB61FFF793FE8F4D0EE1FFF730
S21400204083FEAB6943F00103AB61FFF789FE8B4D5E
S21400205004E1AB69884D13F0010F884B18BF1D468D
S214002060FCE0BAF1020F10DD854DB06801F032FDDC
S214002070BAF1030FC8F8000004D0F06801F02AFD9A
S21400208089F80000012C04D80EE0012C40F2EB8009
S2140020907B4D07F0B5FA00F099FB764A936923F07A
S2140020A0300343F010039361764A774B3068042C74
S2140020B008BF1346009399F80030744A744903F039
S2140020C0030352F82330019322462B4604F0D4FE35
S2140020D000F098FB72B6FA43D8F8001099F80000A2
S2140020E06C4EC2F3C01207F06BF80121C8F800006E
S2140020F000200346009101910A4602F0B9FD002334
S2140021003370631E032B14D8DFE803F002090D11A9
S214002110614A136923F00403136130BF09E001200C
S21400212002F0D8FA05E0012002F00AFB01E002F016
S21400213071FB62B672B607F057F8074610B93378E7
S214002140002BDED062B600210A460B2001F02AF8EA
S214002150012100200A4603460091019002F088FD06
S21400216032784E494E4B4F48002A14BF1A460A464C
S214002170002F08BF0B468DE80C00D8F800300293FD
S21400218049492B46224604F077FE3378002B4CD084
S214002190012C464D37D9464800F029FB286841688F
S2140021A04B68013B002B4B6002DA0BF0B1FD02E0FE
S2140021B00B6801330B60286841684B68013B002BB5
S2140021C04B6002DA0BF0A4FD02E00B6801330B60F3
S2140021D0286841684B68013B002B4B6002DA0BF025
S2140021E097FD02E00B6801330B60286841684B6876
S2140021F0013B002B4B600DDA0BF08AFD15E00BF06F
S21400220087FD002811DA286841684B68013B002BDF
S2140022104B60F4DB0B6801330B6006E0254B187847
S21400222007F0A4FA28B107F0EBF9234B1B78002B34
S214002230F4D1012C1BD9214B1B78DB0717D500F0F6
S214002240D4FA1F4B01221A7011E030681D4A012192
S214002250234604B0BDE8F04704F020BEBAF1020FF2
S2140022607FF717AF01E73068054D074B22E704B04C
S214002270BDE8F08700300E40A23001005C28010067
S21400228098330100E30F0100E00F01002411010064
S214002290EE0F0100C00F002000ED00E0EB0F010084
S2140022A0E70F0100111001001B1001002809002093
S2140022B090D00300E014002035000020E80700203E
S2140022C03400002047100100B80F0020B40F002093
S2140022D001282DE9F04106460C46174D0ADD4868F0
S2140022E001F0F8FB154B022E186003D0A06801F031
S2140022F0F1FB2870297822680F4E003118BF0121A3
S2140023000B2001F0ADF8A8B10C4F307839680122E7
S21400231006F056FF0346386000B930702A78206809
S214002320074C084902F0030254F82220BDE8F041A9
S21400233004F0A2BDBDE8F081B40F0020B80F002065
S214002340241101006610010010B500F025FF0B28CF
S214002350044616D106F048FF98B1002120460A46EA
S21400236000F020FF074B084A1B780848084903F08E
S2140023700303BDE8104052F82320064B1B6804F008
S2140023807BBD10BDB40F00202411010079100100A0
S21400239033100100B80F002038B505460C460E482D
S2140023A029460BF03DFE10B9022323700DE00B48C2
S2140023B029460BF035FE10B90120207038BD0848BC
S2140023C029460BF02DFE10B92070012038BD0223DF
S2140023D02370002038BD00BF871001008B1001005D
S2140023E05B0F01002DE9F0410646002086B00C4642
S2140023F0014600F0FDFF014628B10020014600F02E
S214002400F7FF48B90EE00E2000F0F2FF0028F4D1E6
S2140024102068384A1E2120E00020014601F000F81E
S2140024200028F5D0606801F055FB8046E06801F0B2
S21400243051FB0DF106010746A068FFF7ADFF18B97E
S21400244020682D4A192108E020690DF10701FFF7E1
S214002450A3FF28B92068294A1A2104F01FFD46E088
S214002460052E0EDD606901F035FB051C18BF012541
S214002470062E09D0A06901F02DFB003018BF012000
S21400248003E00025284600E000209DF806308DF881
S2140024900C309DF807308DF81430194B8DF8160067
S2140024A000210E208DF815501D70CDF80880049779
S2140024B000F09EFF054698B10125124B02A9187838
S2140024C007F068F9034690B120680F4A1B2104F014
S2140024D0E5FC65B9294622680E2000F0C1FF06E03B
S2140024E00E200121226800F0BBFF0028E5D106B0CF
S2140024F0BDE8F0818F100100BA100100D61001006F
S214002500F1140020E0140020F01001000020014625
S21400251000F0ECBF0120002100F0E8BF002038B535
S214002520014600F065FF00282FD00021022000F0B1
S21400253077FF014648BB012000F072FF08B107F0A4
S2140025405FF8124C20780130C0B207F05FF818B977
S21400255023880133238010E00023238020780B4D4E
S21400256007F054F848B12B8801332B80F6E7207823
S21400257007F0FCF828B107F043F8054B1B78002B52
S214002580F5D1044B01221A7038BD38BDE014002086
S2140025903500002034000020012810B502D1174B6A
S2140025A0187010BD062812D1154B164C1B68A3B127
S2140025B002F061FE2368C01AB0F57A7F03D9BDE841
S2140025C01040FFF7A3BFBDE81040FFF7A3BF0728E2
S2140025D012D10D4B0D4C1B681BB902F04CFE20604F
S2140025E010BD02F048FE2368C01AB0F57A7F03D803
S2140025F0BDE81040FFF792BF10BD00BFC00F00201F
S21400260098211442C40F00209C211442BC0F0020C5
S21400261013B502F027FE01212148224C01F06CFB85
S214002620042001F0C7FA01F0CDFA04F087FA02F0B0
S214002630C7FF012002F0BAFF05200621022201236F
S21400264002F062FB052007210222012302F05CFB58
S214002650042201230220072102F056FB02F0B8FDF7
S2140026602146062002F0C2FD2146072002F0BEFDEC
S2140026702146012002F0BAFD012406210A4623461F
S21400268000940194052002F0F3FA072100940194C7
S21400269005200A46234602F0EBFA02B010BD00BF42
S2140026A00025080099250000F0B5334B1A7893B042
S2140026B0002A5ED0314A1278D2075AD500241C7000
S2140026C02F4E304D04F05EFA2F4804F06DFA2F4876
S2140026D004F06AFA73682E4AB3FBF5F7402105FB4F
S2140026E0173302A80BF002FC02A804F05DFA336868
S2140026F0284AB3FBF5F7402105FB173302A80BF079
S214002700F5FB02A804F050FA234B244A1B8840210C
S21400271002A80BF0EBFB02A804F046FA1B4804F0F4
S21400272043FA1F4804F040FA32680A25B2FBF5F374
S21400273005FB1323C3EB4312C3EB82035B005BB2C0
S2140027400093142050212022012304F04FFA7268CF
S214002750B2FBF5F305FB132303EB83035B005BB2CD
S21400276000934C2050212022234604F03FFA04F028
S21400277007FA13B0F0BD00BF34000020E8070020C1
S2140027800C160020A08601003411010098330100C9
S2140027904411010054110100E014002064110100EE
S2140027A070110100034B1B78DB0701D501F040BA1E
S2140027B0704700BFE8070020034B1B78DB0701D5F6
S2140027C001F050BA704700BFE807002008B50020A7
S2140027D001F014FA012001F011FA04F0D3F904F024
S2140027E0CFF9BDE8084004F0C7B904F0C7B938B55A
S2140027F0044606F063F8054606F060F8401BA04263
S214002800FAD338BD024B1B699B04FBD5704700BF4B
S2140028100000014008B50020FFF7C4FF0120BDE816
S2140028200840FFF7BFBF0000014B01221A70704737
S214002830F8140020704700000B4A1368013310B5E7
S21400284013600A4A13680446013301201360FFF739
S214002850B3FF074B01221A70064B22681A60BDE8C8
S214002860104000F013BE00BF0C16002058160020C3
S214002870340000200416002070B506463348344D58
S21400288006F09EFF334B00221A706B683046013309
S2140028906B6000F08BFE044618B9AB6A0133AB627E
S2140028A021E0037BF12B01D107F0C9F82A4B1A78F7
S2140028B01AB100221A7007F0C2F8284B1A781AB11B
S2140028C000221A7007F0B9F800F066FC07280AD153
S2140028D0234B1A6823681344224A1360224A0123B2
S2140028E01360224A13700020FFF766FF204B1B7808
S2140028F09B070AD51F4B01221A7034B1304600F0F0
S21400290083FE1D48314600F0C7FE0E20002100F071
S2140029106FFD38B1194B1B7823B100210E200A46F3
S21400292000F040FC00F038FC082808D100210A46D8
S21400293000F038FC00F080FC1148FFF758FF94F9CF
S21400294005001049BDE87040FEF798BCA0070020BF
S2140029500C160020FF0F0020D3140020F0140020D7
S21400296000150020E8140020FC140020D4140020D9
S214002970E807002034000020CC0F0020F1140020CF
S2140029808096980044160020C20610B5044609D565
S214002990234B00221A70234A136901200133136166
S2140029A0FFF70AFF630706D51D4B01221A701D4A62
S2140029B0936801339360A00741BF1A4AD368013376
S2140029C0D360A10606D5164B00221A70154A536925
S2140029D001335361620606D5114B00221A70114A64
S2140029E0136A01331362230605D50E4AD36A0133F0
S2140029F008BF0123D36214F4007106D000210E2014
S214002A000A46BDE8104000F0CDBB074B1B7833B13B
S214002A100E2000F0EDFC10B114F0700FEED110BDDA
S214002A20FF0F00200C160020F1140020054B187034
S214002A30054B01221A70054A13680133136000F033
S214002A4025BD00BFFE0F0020FC0F0020C80F002091
S214002A50002010B5014600F0CBFC50B105F02EFF6B
S214002A60164B186006F057FB154B01221860154BE5
S214002A7021E000F091FB0C281BD1134B1349802258
S214002A809A67134A0C6B13682344124C0B63116845
S214002A902368591A216029B91160BDE810400A461A
S214002AA000F080BB0C4B01211868BDE8104006F012
S214002AB049BB0A4B01221A7010BD00BFDC1400206F
S214002AC0181000200010002000A000400C16002067
S214002AD09C0D1442182E0020142E0020D414002022
S214002AE0034A536B01335363024B01221A7070473B
S214002AF00C1600201D10002007F056B8002070B5F8
S214002B00014600F075FC154B1A781D462AB320B313
S214002B10134B1B780BBB134B1B78F3B906F010FF57
S214002B2010F48036044601D006F06AFD0E4A536A59
S214002B3000200133536221460246287006F002FF49
S214002B403EB970BD094B187806F010FE28B106F0A5
S214002B5057FD074B1B78002BF4D170BDF8140020EE
S214002B60FD0F0020FF0F00200C160020E0140020B0
S214002B7035000020064B1A784AB100221A70054B21
S214002B8005481A68054B06491B6804F075B9704776
S214002B9000100020DC140020941101001810002002
S214002BA09C110100134B1A7810B512B300221A704C
S214002BB0114B1A7812F0020F1C460BD00F4B1B78E5
S214002BC0980703D50E480F4904F056F90E4A936944
S214002BD001339361227851070BD5084B1B789B076E
S214002BE003D50748094904F047F9074AD369013372
S214002BF0D36110BDFC0F0020FE0F0020E807002068
S214002C00CC110100D51101000C1600201312010092
S214002C10054B1A7832B100221A700448044A2F2154
S214002C2004F03CB9704700BF1D1000204B12010095
S214002C3058120100024B1880024B01221A7070478E
S214002C40E01400203400002008B5054B53F820009F
S214002C5005F0CCFD034B1880034B01221A7008BD0B
S214002C6008080020E01400203400002010B50446B8
S214002C7006F0C6FC084B53F8240005F0EBFD074BA6
S214002C8053F8240005F0A8FD00B1FEE72046FFF744
S214002C90DBFF034B1C6010BD6016002004080020FC
S214002CA0F4140020014B01221A707047D41400203F
S214002CB0F8B5324D2B78002B5ED000232B70304BAE
S214002CC01F6800F069FA03281FBF2E4A136803F135
S214002CD0FF33136006F094FC00F05EFA092802D079
S214002CE0294806F06DFD00F057FA0628274E284CB6
S214002CF005D1316841B920782649274A16E000F008
S214002D004BFA072804D1F4E72078224A224B1BE02E
S214002D10224B1B68BB42224B0ED1224A12685AB97C
S214002D2031682078204E21B91968326806F067FDB0
S214002D300CE01A68336807E0326820780AB9196828
S214002D40F4E711461A68002306F03CFD40B1174B25
S214002D50144A187013680133136001232B70F8BDF2
S214002D6000F01AFA0A2807D1114B1868FFF73FFD42
S214002D70BDE8F84006F044BCF8BD00BFD4140020FF
S214002D8058160020FC140020A0070020081600207B
S214002D90E014002069900000E8140020D8140020F9
S214002DA0B00F0020C80F0020AC0F0020FE0F002040
S214002DB0EC070020014B01221A7070471C100020FF
S214002DC0F0B5164B1A7885B02AB300221A70144B49
S214002DD0144F1B78144E154D154C13F0020F15D0DA
S214002DE03A6833682968D31A29B11248124A002B68
S214002DF018BF024600E0114A114800688DE803003B
S214002E00217802910F48104904F036F83B68336089
S214002E1000232B60237005B0F0BD00BF1C100020FF
S214002E20E807002058160020D8140020C80F0020FD
S214002E30FE0F002085120100870E01007C120100A3
S214002E40041600208D12010093120100014B186039
S214002E50704700BFE81400202DE9F047804686B092
S214002E6092461C460E4611B10F46002505E0304935
S214002E7006B0BDE8F04703F0FFBFBB1B534519DAA9
S214002E80DFF8CC902B4A17F8013BC5F5966109EBA5
S214002E90050005310BF02AF8002807DB054440F250
S214002EA0B4439D42E9D94846234901E023494846B0
S214002EB00BF0ECF8002C31D0257921482149B4F8E4
S214002EC008A0276815F0010F14BF8146894615F043
S214002ED0020F18BF064694F905001B4C07EE900A31
S214002EE0F8EEE77A08BF0E4617EE900A09F072FA77
S214002EF0164BCDF8009015F0040F08BF1C46144B77
S214002F000593CDE9020101960494404611495246C4
S214002F103B4603F0B1FF06B0BDE8F0870E490C4B08
S214002F204046524606B0BDE8F04703F0A5BF00BFD6
S214002F30E2120100E8120100FF120100F012010087
S214002F40D8120100DD12010041070100460701000A
S214002F501E100020111301005113010010B50B487C
S214002F6000F0DAFB88B9094800F0BBFB044600F025
S214002F701DFB034603F10A0105481A89FFF76CFF9B
S214002F802046BDE8104000F02BBB10BDCC0F002043
S214002F906313010013B5154C206841684B68013B6C
S214002FA0002B4B6003DA0AF0B3FEC0B203E00B68F6
S214002FB05A1C0A6018788DF807009DF80700431E13
S214002FC0DBB2FD2B0FD80A2801D00AF00DFE084808
S214002FD00DF10701012200F041FC0028DCDD054868
S214002FE00AF0EAFDD8E702B010BD00BF28090020AD
S214002FF0041000206C130100474BDB6C1B0E8E2B5D
S21400300010B515D84549464AD1F8B00040F004033B
S214003010C1F8B0304FF05013136013631366C2F854
S2140030209030C2F8C030C2F8F030C1F8B00001E00D
S2140030308F2B06D1394AD36A23F07F0343F020034F
S214003040D36201F0ADFE044601F0A4FE14F4803411
S2140030501EBF344B01221A61FFF7DAFA324806F037
S214003060B3FA324806F089FC314B1868FFF7FEFDCC
S21400307000214FF41D7006F06CFB01200146002273
S21400308006F04FFB0120014606F038FB29480A21CE
S21400309000F0F0FA00B9FEE7FFF706FB26480AF054
S2140030A02FFE94B11F4B9B6913F0010F0CBF7324C6
S2140030B0682406F099F8214A214B2249002808BFC7
S2140030C013462148224603F0D7FE20480AF074FD36
S2140030D01F4B204920484FF4807200F0B3FB1F4876
S2140030E006F098FC1E4B187806F040FBFFF752FFE0
S2140030F0FFF72AF9FFF7DCFDFFF762FE00F09CF809
S214003100FFF72CFFFFF74EFDFFF734FDFFF7F6FC49
S214003110FFF77EFDEAE700BFB081E00F00400E40FB
S21400312000A0004000300E40881101008011010010
S214003130F4140020CC0F00206F130100EB0F0100E9
S214003140E70F01007E130100111001006C1301004F
S2140031504000002004150020041000203800002045
S214003160E0140020034611B90748084A08E0012980
S21400317002D10548064A03E0022903D10248054A5F
S21400318003F08CBE704700BFA1130100A41301001A
S214003190B9130100CF130100014B1878704700BF28
S2140031A05F160020114B10B51C78ECB9E0B1012475
S2140031B01C700F4B18700F4B19704AB90E4B0F4A04
S2140031C01B7813F0020F0E4B08BF0023136010BDD0
S2140031D00C4B02F11000194652F8044B43F8044B0E
S2140031E08242F9D1054B196010BD00BF5C16002065
S2140031F05D160020F0070020E8070020302E002093
S2140032005C300100202E002070B50A4D06460FCD1A
S21400321090B001AC0FC40FCD0FC40FCD0FC495E80E
S214003220070084E8070010AB03EB860656F83C0C54
S21400323010B070BD203001005B4B1A782DE9F341C9
S214003240002A00F0AE8000221A70584B1A78584BAD
S2140032500AB11C7800E01446564D18782F78564B65
S21400326087420FD192B11D68002D00F09A8020464B
S214003270FFF7CAFF51490246284602B0BDE8F041B2
S21400328003F0FABD002F77D1002A75D01E6886B1EC
S2140032902046FFF7B9FF80463846FFF7B5FF0746DA
S2140032A005F00CFB46490090424630463B4603F08C
S2140032B0E3FD2B7813B905F035FF2EE0012B02D184
S2140032C006F0CEFA29E0022B02D106F0B1FA24E08D
S2140032D0042B03D1002005F0ADFA1EE0032B06D028
S2140032E05A1F012A03D9A3F10902012A07D805F0BB
S2140032F019FF344B00221A60FFF75CFD0DE00B2B24
S21400330005D100200146024605F05AFF05E00C2BC9
S214003310D1D00D2B01D106F073F9012C05D12A4B23
S2140033202146187806F089FA21E0022C04D1264BB3
S214003330187806F06DFA1AE0042C03D1012005F087
S21400334079FA14E0032C08D0052C06D0062C01D000
S2140033500A2C05D11B4B01221A60FFF7A3FC06E0DE
S214003360E31F012B03D8184B187806F0FFF9174B0C
S2140033702A781A702C7014E01D6895B1144B154C01
S214003380002A18BF1C46FFF73FFF06463846FFF7E1
S2140033903BFF00960190012128460F4A234603F082
S2140033A07DFD02B0BDE8F0815C160020F00700202D
S2140033B05D1600205F160020302E002064300100CD
S2140033C06F300100FC140020E01400205E16002080
S2140033D081210100421801008E30010010B504461C
S2140033E0FFF7DAFE22460021BDE81040FFF7DABEFE
S2140033F070B506460D46FFF7CFFE831B5C425C4168
S2140034004CB945B13046FFF7FFFE16210346034A86
S214003410284603F043FD204670BD00BFFC30010087
S21400342070B505460E4606F0EEF8431B5C425C415E
S21400343044B93EB1044B054A53F8253030461721AF
S21400344003F02CFD204670BDF40700202331010058
S2140034500A4610B90846FFF7C1BF0121FFF7A2BE12
S21400346070B504460D461646FFF7E6FE204629468A
S2140034703246FFF797FEFFF7DFFE002D14BF20460B
S21400348000200021BDE87040FFF7B2BF08B5154B1D
S2140034901B68002B09DD144B1B684FF47A705843E9
S2140034A00121BDE8084005F04DBEFFF775FE032874
S2140034B0F1D0FFF771FE052804D10020BDE80840D2
S2140034C0FFF78CBFFFF768FE0628F6D0FFF764FE0E
S2140034D00928F2D0FFF760FE0A28EED0BDE80840C3
S2140034E0FFF768BCFC140020E4140020144B10B551
S2140034F00C46186060B1FFF74FFE092806D121463A
S214003500FFF7A6FFBDE81040FFF7CCBB052011E093
S214003510FFF742FE052804D12046BDE81040FFF71D
S2140035205DBFFFF739FE0328F6D0FFF735FE092802
S214003530F2D003202146BDE81040FFF789BF00BF48
S214003540FC14002072B6044B1A68511C1CBF0132D2
S2140035501A601868704700BF8C200020034B18685C
S21400356018B10138186000B962B670478C20002088
S214003570B0F5807F10B514D8FFF7E4FF00200A4AA4
S21400358000EB0023995C19B90121D154044604E0EC
S21400359001300A28F3D14FF0FF34FFF7DFFF204653
S2140035A010BD4FF0FF3010BD64160020431C10B550
S2140035B0044610D00A280ED8FFF7C4FF04EB0424F4
S2140035C0064B185D1A1908B1541C00E00446FFF7B4
S2140035D0C5FF204610BD002010BD00BF64160020A9
S2140035E010B50446FFF7AEFF2046FFF7DFFF28B111
S2140035F0044A04EB0424135D013B1355BDE8104058
S214003600FFF7ACBF6416002010B50446FFF79AFF1C
S2140036102046FFF7CBFF28B1044A04EB0424135DD1
S21400362001331355BDE81040FFF798BF641600201D
S214003630FFF79EBFFFF7D4BF10B50C46FFF7B6FFE7
S214003640204410BD7047000072B6044B1A68511C27
S2140036501CBF01321A601868704700BF8C2000201B
S214003660034B186818B10138186000B962B6704785
S2140036708C2000200A2938B504460D460AD848B1E1
S214003680FFF7E2FF0023A58023806380FFF7E8FFB3
S214003690012038BD002038BD70B50E460446F8B18E
S2140036A0FFF7D2FF6588A088238885420BD22B447B
S2140036B093FBF0F200FB12339BB20233013544F861
S2140036C02360658008E09A1C013344F8226093FB6F
S2140036D0F0F200FB12332380FFF7C2FF012070BD1B
S2140036E070BD38B50446B0B1FFF7AEFF63886BB166
S2140036F02288A088911C013254F8215092FBF0F1E8
S214003700013B00FB11222280638000E01D46FFF78C
S214003710A7FF284638BD38BD10B5044648B1FFF7A8
S21400372093FF6488B4FA84F46409FFF799FF20468F
S21400373010BD012010BD73B504460D46164642B1B5
S21400374009F0E8FB0022026001A920460AF062FDAB
S21400375010E009F0DFFB01A90660324620460AF0B9
S214003760E3FDED000123AB40013B0340834201D063
S21400377000200CE009F0CEFB0368002BF8D12046B1
S2140037800AF08CFC019B1B1B1B1A5842584102B0C6
S21400379070BD00002DE9F041002604460546374678
S2140037A035B921480AF0ACFA20480AF0A9FA29E00F
S2140037B028680028F5D00AF071FC804668680AF090
S2140037C06DFC4745B8BF47468642B8BF064610352B
S2140037D0E6E722682AB3A368F3B1154879420AF0EF
S2140037E0EBF962688AB11178124B002908BF1A46B5
S2140037F0714211480AF0E0F9E16841B90A200AF07E
S214003800F3F91034002CE4D10BE00A4AF0E70B7809
S214003810002BF3D0094801E0094811460AF0CCF91C
S214003820ECE70120BDE8F081FF3301001C34010005
S214003830733401009833010072340100A030010097
S2140038407734010040B139B1016000218160C26067
S2140038500361017108467047012070472DE9F04F5B
S2140038601646A1B00446002800F01681002900F094
S21400387013818568E3685019984280F00F812068AC
S214003880284409F0A9FCA3681E440023A6600593FB
S2140038909846A268954280F0F28023685A195B5DCC
S2140038A006930A2B02D00D2B40F0E78000234545F7
S2140038B0137000F0D1802668236907934644711E72
S2140038C0334611F8012F42B1082A03D1B342F8D982
S2140038D0013BF6E71A700133F3E71A7030467A496F
S2140038E00BAA0AF00EFC8146002800F0B580079F60
S2140038F0002F00F0D580D7F800A0BAF1000F00F036
S214003900A080BB68002B00F09A80484651460AF01B
S21400391087FB002840F093806B49CDF830A00BAAB7
S2140039200AF0EFFB012381460193B9F1000F12D094
S214003930019A0CAB43F8229013460133142B0193E3
S21400394002D13046012185E000205F490BAA0AF02B
S214003950D8FB8146E9E7D7F804A0BAF1000F67D094
S21400396050465A490AF088FB002861D050460AF0B3
S21400397095FB2A21039050460AF070FB039B38B152
S214003980013B5344984250D1039B012B4DD0023B40
S2140039900993019B013B08930DAB0293002304930C
S2140039A04FF02E0B049B089A93423ADA049B039A34
S2140039B0934205DB524412F8012C2A2A06D034E042
S2140039C0049B1AF803202A2A18BF9346BBF1750FEA
S2140039D019D00AD8BBF1620F1CD0BBF1730F24D1EB
S2140039E0029B04211868012211E0BBF1760F06D075
S2140039F0BBF1770F19D1029B0421186806E0029BE1
S214003A000221186802E0029B186801210022FFF7D5
S214003A1092FE50B1049B01330493029B043302933D
S214003A20C0E71346099A934202DA3046022111E0B3
S214003A30BB6801980CA998474FF0010A01E01037BF
S214003A4056E73B680BB9079B73BBBAF1000F03D16F
S214003A5048460021FFF786FB069B0A2B04D12379F4
S214003A600D2B01D1454503D005980130C3B205930F
S214003A709DF81830237105F10108013509E7B8F102
S214003A80000F07D02068C8EB0202A26000EB080116
S214003A9009F0ADFB059812E0FF2010E0FE200EE0D6
S214003AA0079B002BD4D0BA46304609490AF0B8FA2C
S214003AB00028CAD10798FFF76DFE8246C5E740B2D8
S214003AC021B0BDE8F08F00BF83340100442B010015
S214003AD0D609010000210A460AF026BC00210A4643
S214003AE00AF098BB733904290FD8DFE801F0070EF7
S214003AF005030A00022105E0012103E0042101225A
S214003B0001E004210022FFF716BE002070470000E7
S214003B10002008B501460422012301F0F5F8012132
S214003B200A460B46002001F0EFF80422012300208D
S214003B30052101F0E9F8054A03235367936F23F440
S214003B40F85323F01F03936708BD00BF0000014031
S214003B5030B5114D0FCD87B06C460FC495E8030005
S214003B600E4B84E8030000241C600D4B0D481C60BF
S214003B70012100F0C1F80C48012100F0BDF80B4807
S214003B80012100F0B9F80A48694601F089FAFFF702
S214003B90BFFF204607B030BD8834010070200020EB
S214003BA07420002040410500002508000022040083
S214003BB00000014008B5430701D5FFF7C9FF002004
S214003BC008BD000008B50B48012100F095F80A482A
S214003BD0012100F091F804210A460520002301F097
S214003BE093F8052001460422002301F08DF80020FA
S214003BF008BD00BF404105000025080001280FD879
S214003C00094A12F8301030234B4302EBC002074932
S214003C101944536803EBC1039B00002018607047EB
S214003C204FF0FF30704700BFA03401000CA01042D8
S214003C30012810D8094A12F8301030234B4302EB03
S214003C40C00207491944536803EBC1039B000122D5
S214003C501A60002070474FF0FF307047A034010014
S214003C600CA01042012810D8094A12F8301002EBB6
S214003C70C0020020536801229A4030234B4303F1D0
S214003C80804303F520439A6170474FF0FF3070473A
S214003C90A03401000B4B0C4941F6713210B51C6C78
S214003CA01A645A68094A02448A4294BF4FF08071E7
S214003CB000215A6822F040720A435A600CB1002272
S214003CC01A6410BD00000E407F9FD5007F4573FE2E
S214003CD008B5FCF779FABDE80840FFF7DBBF00003F
S214003CE0044BD3F84421D20703D4D3F84021104222
S214003CF0FBD1704700400E40C0F30322013A70B576
S214003D0003460E46092A26D8DFE802F018082525BD
S214003D10050B0E25111500200F4C11E000200F4C4E
S214003D200EE001200E4C0BE010200E4C08E04FF485
S214003D3080300D4C04E000200C4C01E00C4C0020C0
S214003D40C3F3043508B1FFF7CBFF04F1047405EBA9
S214003D50C404A400266070BDB0400E40C0400E40B3
S214003D60E0400E40E8400E40F0400E4050410E400D
S214003D7000400E40C0F30313013B062B34D8DFE8A7
S214003D8003F004080E14181E2700184BD3F8000181
S214003D9002E0164BD3F81401C0F304207047134B0F
S214003DA0D3F80001C0F300607047104BD3F80C0145
S214003DB002E00E4BD3F80801C0F3082070470C4B06
S214003DC0984211D1094BD3F8203103F00F0307E0D6
S214003DD0084B984208D1054BD3F8283103F003036B
S214003DE001209840013870470020704700400E4080
S214003DF0600612007007140008B5FFF7BBFF01301D
S214003E0008BD000000F00F000138052835D8DFE8AF
S214003E1000F0030D1734222C1B4BD3F8943003F01C
S214003E200703023B022B2AD8184A12E0164BD3F897
S214003E30803003F00703013B032B22D8144A08E026
S214003E40114BD3F8843003F00703013B032B18D83B
S214003E50104AD05C70470C4BD3F8883003F0070349
S214003E60013B032B0DD80C4AF3E7074B1B6F13F0EF
S214003E70010F14BF08200720704700207047052058
S214003E8070470120704700BF00400E40B03401006C
S214003E90B3340100B7340100BB34010010B504464A
S214003EA0FFF7B0FF1B4B9C4209D01B4B9C420AD02D
S214003EB01A4B9C420CD11A4BD3F8800006E0184BE4
S214003EC0D3F8840002E0164BD3F8880000F0070011
S214003ED0013803281CD8DFE800F002060E0ABDE809
S214003EE01040FCF7BBB9BDE81040FCF7BDB9BDE813
S214003EF01040FCF7B6B90A4BD3F80031DB0103D506
S214003F00FCF78AF9800810BDFCF786F9400810BD5A
S214003F10002010BD03001A0005001E000200180055
S214003F2000400E4000F47810B0F5602F08B566D05B
S214003F3017D8B0F5802F32D00AD800285BD0B0F55D
S214003F40003F5FD1FCF744F92F4BD3F808312BE044
S214003F50B0F5202F2BD0B0F5402F45D0B0F5002F70
S214003F6048E0B0F5A01F32D00ED8B0F5801F27D09D
S214003F70B0F5901F46D12548FFF790FF224BD3F8A7
S214003F80202102F00F022AE0B0F5D01F1DD0B0F5B8
S214003F90F01F15D0B0F5C01F34D11C4811E0FCF757
S214003FA017F9194BD3F80C31C3F3082306E0FCF7D6
S214003FB00FF9154BD3F81431C3F30423013310E083
S214003FC01348BDE80840FFF769BF1248F9E71148F3
S214003FD0FFF764FF0C4BD3F8282102F003020123FD
S214003FE09340B0FBF3F008BD0B48FFF70BFF072824
S214003FF005D0082806D1BDE80840FCF7E9B8074B0D
S214004000186808BD002008BD00400E4002001800D9
S21400401005001E0003001A0006000C001808002009
S214004020C0F30313013B70B50C46072B00F29380D8
S214004030DFE803F004151F2935566E82464E474DBD
S214004040FFF746FE012333602B60454BD3F8001183
S21400405021F4F85141EA0424C3F8004131E0404B12
S214004060D3F8141121F4F85141EA0424C3F814419A
S21400407070BD3B4BD3F8001121F0807141EA046417
S214004080C3F8004170BD364BD3F80C1121F4FF3154
S21400409021F4807141EA0421C3F80C1170BD2E4E44
S2140040A02E4DFFF715FE012333602B602C4BD3F803
S2140040B0081121F4FF3121F4807141EA0421C3F88C
S2140040C00811FCF7A9F8FFF7E5FD2648FFF72AFFD9
S2140040D0254B984294BF002001203060286070BDB8
S2140040E0224B98422BD0224B984200D070BD042021
S2140040F0FFF7F6FD1A4AD2F82031013423F00F03F9
S214004100B4FA84F4C4F11F041C43C2F8204170BD05
S214004110184B98421FD14020FFF7E2FD104AD2F814
S2140041202831013423F00303B4FA84F4C4F11F04E5
S2140041301C43C2F8284170BD0C4B98420BD14FF47B
S2140041408020FFF7CDFD064BD3F8301121F00F018C
S2140041500C43C3F8304170BD4000C8436020C843DC
S21400416000400E40000508000048E80180091000E5
S21400417060061200700714000139FFF751BF0000F7
S2140041800138032843D8DFE800F0022B111EC1F3E4
S21400419008011F4B1B68002BFBD11E4A136A23F431
S2140041A0FF7323F0010319431162704701F07F018A
S2140041B0194B1B68002BFBD1164A136923F07F03AB
S2140041C019431161704701F07F01144B1B68002BE7
S2140041D0FBD1104A936923F07F031943916170471E
S2140041E00C4AD2F89030536A23F0300343F01003A1
S2140041F05362C1F3C31303330F2B28BF0F2341EAC7
S2140042000371074B074A1A6003F100731960704781
S2140042106828C84300400E406028C8436428C84346
S21400422030400E44FF0700F00F4B1B6813F0300FB2
S21400423006D0202907D0302902D009B10B4B04E064
S2140042404FF4400301E04FF400030949D1F89020F1
S2140042501A409A42F9D15B0246BFD1F8A000C0F3DB
S21400426080200120704700BF24400E40FF03C10796
S21400427000400E4002280AD129B1064B4FF4806058
S214004280C3F8A800596612B10220FFF7CDBF01207F
S214004290704700BF00400E40F8B5042875D8DFE828
S2140042A000F008030F296F00802640240623072508
S2140042B024E04FF400764FF48074082309251DE0AF
S2140042C0002952D031494B6A13F0300F09D14B6A9E
S2140042D0DB070AD54B6A23F0300343F010034B622A
S2140042E003E00424022303250AE004240223032512
S2140042F0012606E00124022600232546002936D0A2
S214004300002622490C662249194489000B68002BB6
S214004310FCD01AB9BDE8F84000F058BA1C4B2B4444
S2140043209F003B68002BFCD00228F3D1002EF1D072
S214004330164D696A11F0010104D020210122FFF711
S21400434099FF01E0FFF770FFD5F89C60022000217E
S2140043500122FFF7A1FF0220C6F30A01FFF710FFB4
S2140043602C663B68002BFCD0D4E708260223074ABD
S2140043701666074A1A4492001368002BFCD1C9E758
S2140043802026102404230525B8E7F8BD00400E407B
S2140043908004F21000F00F00013810B5042870D821
S2140043A0DFE800F003743F6F76000239032971D806
S2140043B0DFE801F01802050F0120032414E0364A56
S2140043C00123136002F500522032022013600446D7
S2140043D00AE0314B01241C6003F500532033032010
S2140043E01C6001E00020042401210A46FFF754FF68
S2140043F0FFF76EFC294B2A485C67FFF793FD294BB5
S2140044009842254B94BF00200120186003F5005306
S2140044102033186000F0DAF9FBF7FEFEFFF73AFCEF
S2140044202FE0214C0139082934D8DFE801F02807AD
S2140044300E33331533330500042321E00121002019
S2140044400A46FFF729FF02231AE00120014602462A
S214004450FFF722FF012313E0FBF7DEFE114B984225
S2140044600D4B94BF00200120186003F50053203345
S2140044701860A3F5266301221A60032300E00023D8
S2140044802360054B1B68094B1B6810BD084CC9E729
S214004490084CC7E710BD00BF4000C84300400E40B0
S2140044A0000508000048E80184400E406020C8432C
S2140044B080400E4088400E4010B504461120FFF79D
S2140044C0A1FC002101220220FFF7E6FE2378227CD1
S2140044D0002B14BF4FF480730023022A08BF43F05A
S2140044E001031E4A40F20111116002F10072072119
S2140044F013601B4BE27A196003F1007319491A60C6
S214004500637AA28843EAC223174A116002F1007256
S2140045101360237AE288D91CDB0143EAC223A27A1D
S2140045200F2928BF0F211343104A43EA01736FF087
S2140045307F61116002F100720D491360637B227B7C
S2140045401B0343EA0243E27B1343A27B43EA0213C4
S214004550084A116002F10072136010BD24400E4438
S21400456028400E447FF80F002C400E4430400E4486
S214004570FFF00F0034400E44214B45F60E02D3F8F0
S2140045808011C3F880211F4A106840F2551202407D
S2140045901A661D4A128802F00702032A01F001017A
S2140045A004D0042A0BD0022A23D10EE05A6A9200C5
S2140045B01FD4D3F890201006FBD5032217E0D3F8BB
S2140045C090209205FBD5042211E00D4BD3F89030D5
S2140045D01B07FAD50D4B1B6813F0300F06D10C4B9A
S2140045E01B6803F44003B3F5400FF8D10222044BD6
S2140045F05A6719B1024B0022C3F88021704700BFEA
S21400460000400E40842000208220002024400E40DF
S21400461090400E401848194BC26C1B88C2F3032208
S2140046202833013202EB820103EB6303B3FBF1F3A1
S214004630C16C013B072B21F0EE6128BF072341F434
S214004640801141EA0363C3640D4BB3F90030002BBD
S21400465010DB2833510001EB520203EB6303B3FB7C
S214004660F2F3026D072B28BF072322F0700242EAFE
S21400467003130365704700BF00300E408020002003
S2140046807A200020084B1A78012A0BD1074A126CB0
S21400469002F00302012A03D1054A1268D203FBD5B1
S2140046A002221A70704700BF8820002000300E409B
S2140046B07C300E40054A064BD16C1960D36C23F44F
S2140046C07F4343F4EE43D364FFF7A4BF00300E40AD
S2140046D07C20002038B5144B144AD3F89010116093
S2140046E0D3F89440124A134BA4B21C80136943F0CB
S2140046F0040313610546FFF7DDFFFFF7C3FF30BF76
S2140047000D4B1A680D4BDA64FFF784FF1DB1BDE848
S2140047103840FFF731BF04F00704012C03D0BDE892
S2140047203840FBF779BD38BD00400E40842000209D
S21400473000ED00E0822000207C20002000300E40AB
S21400474038B51C4B1C4AD3F890101160D3F894402F
S2140047501A4AA4B21480D3F8802145F60E01D20777
S214004760C3F8801148BF00224FF42071196648BF75
S214004770C3F88021124A136943F004031361054607
S214004780FFF798FFFFF77EFF30BF0E4B1A680E4B01
S214004790DA64FFF73FFF1DB1BDE83840FFF7ECBE17
S2140047A004F00704012C03D0BDE83840FBF734BD05
S2140047B038BD00BF00400E4084200020822000202C
S2140047C000ED00E07C20002000300E40044B054A3F
S2140047D0D3F890101160D3F89420034B1A807047DA
S2140047E000400E408420002082200020074A936F5D
S2140047F0DB07FBD4011C064B18BF01211960136CA4
S21400480023F0030318431064704700BF00300E40C7
S214004810B40AC6431A4B4AF6E85270B59C699E69BC
S2140048209A60986924F4403410F0010044F400348F
S21400483046F440361D4607D11B6C03F00303013BCC
S214004840012B01D8FFF7D2FFAB69DB0708D50D4B6C
S2140048504AF6E8521A600C4A136843F08003136065
S214004860FFF728FFFFF70EFF054B9C619E619C61DA
S2140048709E619C619E619C619E619C6170BD00BF53
S21400488000300E4090310E4098310E406A4B2DE9B4
S214004890F74F9B6B019203F00F03022B804601D06B
S2140048A00020C6E0A0F5E163B3F5966FF8D80022C5
S2140048B01446134649B901990124002900F09D8049
S2140048C0DFF87CA14FF0080903E0DFF878A14FF08D
S2140048D00109B8F5E16F94BF00200120574948B19F
S2140048E0002C40F08F8040F6B83C4FF4E1654FF066
S2140048F0010E07E0002C40F091804FF4E16C4FF47D
S2140049009665A6464C4EDFF840B1F66C06F040566B
S2140049104EEA06075F4521D008D8012F1BD026D3C4
S214004920B7F1805F2BD1D1F86C3125E0DFF81CB1F0
S2140049305F4516D005D8B7F1005F20D1D1F87031A9
S21400494011E0B7F1405F15D0DFF804B15F4516D12E
S214004950D1F8783110E0D1F8743104E0D1F8743130
S2140049600AE0D1F87831C3F30722DBB207E0D1F8CA
S2140049706C31F8E7D1F870311A0EC3F30743096DAE
S2140049802E4FC9B2032903D8D7F87C1148B10AE0E4
S214004990360F022ED7F8801108D0032E09D0012E2C
S2140049A001D0C9B206E0C1F3072103E0C1F3074115
S2140049B000E0090E090311F4702F7FF471AF1E4E4C
S2140049C0F06E20F4704001436545F166BFF468AFB1
S2140049D0C5EB0800D11A4143C5EB0C05B1FBF5F554
S2140049E01D4495423FF65CAF9D42FFF459AF05FA71
S2140049F009F545EA0E05CAF80050002C3FF45BAFF7
S214004A00204616E0D1F8683140F6B83C1A0E4FF44E
S214004A10E165C3F307434FF0020ED9E7D1F86831DA
S214004A204FF4E16CC3F307224FF49665DBB286467B
S214004A30CEE703B0BDE8F08F00300E40B081E00F47
S214004A405C300E4064300E40010000100100002073
S214004A5001000030194B1A6FD96CC90702F0070223
S214004A6006D5012A04D9132818D91438132811E0BA
S214004A70DB6CD90706D4012A04D809280ED90A38CF
S214004A80092807E00D4BDB6C13F0010309D0012A5F
S214004A9006D827288CBF1023082302E0042300E052
S214004AA000230648013BC26C190341EA032322F4A3
S214004AB07F421343C364FFF7ADBD00BF00300E4016
S214004AC0054A064B1B68136F23F007031843044B75
S214004AD010671888FFF7BEBF00300E408009C64337
S214004AE078200020524B027873B59A639B6B03F0D4
S214004AF00F039342044601D0002595E04D4ED6F8AC
S214004B006C3101331DD04C4B1A68043B1B681A608D
S214004B104A4B1A68043B1B681A60494B1A68043BE8
S214004B201B681A60474B1A68043B1B681A60464BA2
S214004B301A68043B1B681A60444B1A68043B1B68DF
S214004B401A60E3884A2B0BD9B3F5FA7F0AD340F6EE
S214004B50C312934294BF4FF000534FF0405303E00C
S214004B60002301E04FF08053314DB4F90C00E96C9E
S214004B7021F0405222F001020028A8BF42F00102B4
S214004B801343EB64EB6E43F08073EB660420FFF791
S214004B9097FF2B6E23F0C0432B66EB6C43F00603A7
S214004BA0EB64F56C01A8C5F3074500F063F9A5F1C1
S214004BB010030B2B03D905F0FD05512D17D19DF8D9
S214004BC00500012813D19DF80430022B0FD8204988
S214004BD00B7863B91F4A164D136843F00103136040
S214004BE02B6E1D4A1A401D4B13432B6608701C4B38
S214004BF0218919801B4BA2891A801B4BA08818801C
S214004C00FFF728FF012160880A46FFF73FFE0546AA
S214004C1000283FF471AFA37A144A6078003318BFB7
S214004C2001231360FFF7E2FD284602B070BD00BF07
S214004C3000300E40B081E00F3C80E00F4480E00F73
S214004C404C80E00F5480E00F5C80E00F6480E00F43
S214004C508820002044300E40000F0EF0B4C0400BF9
S214004C60802000207A200020782000209407C64369
S214004C70072930B54FF00F0406D88D00AC40A84089
S214004C80194D2C60194C07E0A1F10805AD00AC40A9
S214004C90A840174D2C60174C2060072A88BF083A9A
S214004CA04FF0030401EA040097BF9200920094407C
S214004CB0904085BF944090400F4A104A146002F11D
S214004CC0007210600E4A0A44920013609DF80C3081
S214004CD0C2F8803001238B400A49C1F824349DF87D
S214004CE01030C2F8003330BD00A4004400A40046D3
S214004CF004A4004404A4004608A400440CA40044F1
S214004D008020851000A00040F0B562B1302404FB7E
S214004D1000F51F4C2C4401EBC404A40013B101257C
S214004D20256000E023603024444304F180440729D2
S214004D3004F520440CD867684FEA810E0F2505FA63
S214004D400EF527EA050602FA0EF5354365600CE017
S214004D5001F18045083DA768AD000F26AE4027EA62
S214004D60060602FA05F53543A5607AB930225043A7
S214004D7033B1074B034401EBC3018900012304E070
S214004D80034A024401EBC20189000B60F0BD00BF7C
S214004D900CA01042014B01229A60704700500E4052
S214004DA0124B30B55D6800231846114CE218516866
S214004DB0104A126852070FD4E258B2F5806F09D035
S214004DC002D8B2F5007F04E0B2F5006F02D0B2F56B
S214004DD0803F01D141F48071E2582A4202D0294234
S214004DE008BF10430833482BDFD130BD00500E40BB
S214004DF0C03401007A40E00F8B784A789B0143EA82
S214004E0082030A781343CA7843EA02130A7943EA0C
S214004E10C2234A7943EA02338A79043043EA42439A
S214004E200001014A1350704700200440014B1860EF
S214004E30704700BF00008442837842781B0143EA33
S214004E40820302781343C27843EA4213027943EAA4
S214004E500223427943EA0233827943EAC233C279B3
S214004E6043EA0243027A43EA4243014A1360704728
S214004E70002004400B4A536903F00F011369C3F383
S214004E80811343EA81038370136903F03F03437081
S214004E90936903F0F001D369C3F303130B43037064
S214004EA0704700BFD0FF0FE030B50C780CB9022376
S214004EB0436000234362CB788A781B0443EA02638C
S214004EC00A7A13438A7943EA8223CA7943EA022399
S214004ED04A78002A14BF4022002213434A7A002A46
S214004EE014BF8022002213438A7A002A14BF20228D
S214004EF000221343CA7A002A14BF1022002213434A
S214004F000A79002A4A7914BF4FF400550025002A72
S214004F1043EA050314BF4FF0805200221A430B7B6E
S214004F20002B14BF08230023134303600CB1012396
S214004F30436030BD537810B514781B0643EA84638B
S214004F4094792343947843EA0443D47843EA0433B9
S214004F50147943EA8423547943EA0423D479002C51
S214004F6014BF4FF0804400242343147A002C14BF4F
S214004F704FF0005400242343547A927A002C14BF36
S214004F80102400240631002A43EA040314BF042236
S214004F90002209011343435010BD000070B50446BB
S214004FA016461D4619B91448FEF7BCFF0146202DCB
S214004FB007D001D85DB170BD402D04D0602D04D05F
S214004FC070BD082204E0062202E0042200E010225F
S214004FD0236823F06003236072434901236801EBD2
S214004FE05201B1FBF2F20549203AD20011401D43AE
S214004FF02560616170BD00BF40410500F8FF7F007D
S214005000F8B50446154619B90E48FEF78BFF01465B
S214005010C8012A460023490E07F0AEFCB0F1800610
S21400502041F1FF37310A41EA076107480A020240A8
S21400503004F1140000F1806300F1C06002491960B9
S2140050400260F8BD40410500F8FF7F00CB4303F047
S21400505005035B00C360C1607047000040F6AA63AA
S214005060C36041F20502002303604260094A836080
S2140050704361C3648264084A436790428367C36798
S21400508008BF03658365054B984204BF0023C365CC
S214005090704700BFF9FF0100000001400004014016
S2140050A038B50C460546FFF7D9FFA37C1BB12B6825
S2140050B043F080432B60E37C1BB1237D43F08003E9
S2140050C0AB65637B228A61681A43E38913436B608E
S2140050D0A268237B2846FFF761FFE37D1B0503F4E8
S2140050E0E002A37D1B0703F0E04313432B66637DBA
S2140050F01BB12B6843F480332B602378EB6038BDFC
S21400510038B50C460546FFF7A9FF238AA27B296817
S21400511043F00103002A9BB214BF4FF480620022C2
S2140051200B431343227D2B602B68002A14BF4FF0DD
S2140051300052002213432B60A37C1BB1E37C43F098
S2140051408003AB65237B6168A26843F480536B6081
S2140051502846FFF755FF637B0BB11023EB60E37D1A
S2140051601B0503F4E002A37D1B0703F0E043134393
S2140051702B66637D1BB12B6843F480332B6023784A
S214005180EB6038BD03691B06FCD5C069C0B270472A
S21400519003695B06FCD54163704703695B06FCD573
S2140051A0C163704710B5044674B194FAA4F0B0FA1F
S2140051B080F00123834024EA0304044B53F8203094
S2140051C0002BF1D09847EFE710BD00BF90200020DD
S2140051D0054B4FF40032C3F880211A604FF400727A
S2140051E0C3F880211A60704700E100E072B6094BF0
S2140051F01A68B2F1FF3F1CBF01321A601B68064AEC
S21400520042F8201023B1034A013B136003B962B68B
S214005210704700BF8C20002090200020074AD2F85C
S2140052202804D2F81C34184020F42A5020F02A0013
S2140052304004400CC2F82404FFF7B4BF00A00040AE
S214005240074AD2F82804D2F81C34184020F4AA40A2
S21400525020F055000004000CC2F82404FFF7A2BF9B
S21400526000A0004008B500F01FF800F0DDFCBDE827
S214005270084000F01BBB08B500F076FBBDE8084010
S21400528000F088BB82B000EB40000021CDE90001B1
S214005290DDE9002312F1FF3043F1FF311343CDE97E
S2140052A00001F5D102B07047F0B54F4B91B002AA9D
S2140052B003F10805174618685968144603C40833EE
S2140052C0AB422246F7D118689B88A380474B2060E4
S2140052D006AA03F11005164618685968144603C452
S2140052E00833AB422246F7D11B882380404C0FCCB4
S2140052F00BAD0FC523682B603846FFF7F3FB30462F
S214005300FFF7DAF80BA802F011F911200421FFF7D5
S21400531041F800210A460320FEF7BEFF54F8040FAA
S214005320344D6168344C6B4603C3684602F0B2F8ED
S214005330012002460146FEF7AFFF30480321FFF783
S21400534029F82F480321FFF725F82E480121FEF7FC
S214005350D3FC2D480121FEF7CFFC2C480121FEF797
S214005360CBFC2B480121FEF7C7FC20462949FFF756
S214005370C7FE0B23636703F10B23A36702200621F6
S21400538004220023FFF7C0FC022002460721002368
S214005390FFF7BAFC0220082104220023FFF7B4FC22
S2140053A004210A4601230020FFF7AEFC002742F244
S2140053B01070FFF767FFAB2120462F60FFF7E8FE6F
S2140053C001262046FFF7DEFE2E601E20FFF75AFF5E
S2140053D02046B9212F60FFF7DBFE2046FFF7D2FEFE
S2140053E02E6011B0F0BD00BF083501001635010073
S2140053F02835010090011442000401400200180004
S21400540003001A00000508004041050000250800BA
S214005410003204008435010008B10523036001480A
S214005420704700BF4C08002008B1062303600148FF
S214005430704700BF1C080020024B03449B0000225C
S2140054401A6070474000F310F8B504460E4614483C
S214005450012117461D46FEF74FFC124820448000E7
S2140054600023036004F110020F4B45EA072543F8BA
S2140054702250A208103304F0030453F82250E4002C
S214005480FF21A14025EA010143F8221053F82250DB
S214005490A64046EA050143F8221001230360F8BD42
S2140054A0003508004000F31000600E4000207047F2
S2140054B0FEE74FF400534B60002070470120704712
S2140054C000207047F8B50E468F180D46BD42A5EB76
S2140054D0060406D000F0DAF8431C02D005F8010BEB
S2140054E0F4E7002C14BF20464FF0FF30F8BD70B52F
S2140054F00E4615460C46A31BAB4204DA14F8010B05
S21400550000F0FAF8F7E7284670BD000008B50D4B26
S2140055101A680AB90C4A1A601A681318EFF3088159
S2140055208B420BD9094B1B68986807F00DFD08499C
S2140055301922FFF7DCFF012007F0F2FC01491046B4
S2140055400B6008BDD0200020882F002028090020EE
S2140055509C350100104838B503691B061BD50F4C57
S2140055602568FFF70FFE0E4B58552368013323605E
S2140055700C4B1A6801321A602268082A04BF0022FF
S21400558022601B68082BC1BF064A002323601360F5
S214005590C4BF054A136038BD00000140E02000206B
S2140055A0D5200020E8200020E4200020034B10B186
S2140055B001221A7070471870704700BFD420002070
S2140055C030B52A482A4D87B00121FEF795FB2948B9
S2140055D00121FEF791FB0020014604220123FFF77C
S2140055E093FB002001210A460346FFF78DFB0FCDF3
S2140055F06C460FC495E80300042284E803000123E8
S21400560000200521FFF780FB1B481C4C0121FEF7FC
S21400561073FB06A9002501F8185D2046FFF740FD3C
S21400562003236367A36F164A23F4F85323F01F037C
S214005630A3674FF400610423A364C2F88011E36CEF
S21400564043F00403E364204611600521FFF7FEFCE7
S2140056500C4B1B682946986802222B4608F0BEFBB6
S214005660094B01221A7007B030BD00BF404105004B
S214005670B8350100002508000022040000000140A3
S21400568000E100E028090020DD200020154B1B78F3
S21400569010B50BB9FFF794FF72B6134B1A68511C7E
S2140056A01CBF01321A60114A1168002910DD10492A
S2140056B0104C0868205C0C6801340C600C68082CE0
S2140056C004BF00240C6011680139C0B2116001E00B
S2140056D04FF0FF301B6823B1034A013B136003B948
S2140056E062B610BDDD2000208C200020E8200020BF
S2140056F0E4200020D520002038B50F4B1B78044648
S2140057000BB9FFF75DFF0D4B1A781D462AB10A2C20
S21400571003D10B480D21FFF73BFD09482146FFF753
S21400572037FD2B782BB10D2C03D105480A21FFF746
S2140057302FFD204638BD00BFDD200020D4200020ED
S2140057400000014072B6044B1A68511C1CBF01329F
S2140057501A601868704700BF8C200020034B18683A
S21400576018B10138186000B962B670478C20002066
S2140057702DE9F04F254B03F1A00100225A711A794A
S214005780002A3ED053E906894FF0000BCB4508BFF0
S214005790404506D2B8EB000469EB0B0543E9064525
S2140057A02FE0DA790AB91A7127E053E9046718EB93
S2140057B0060453F8086C53F8042C49EB0705241A22
S2140057C065EB0B05002E43E9064508DD3244F32A57
S2140057D043F8042C11D9013445F1000508E0921B6A
S2140057E0F32A43F8042C08D914F1FF3445F1FF35A9
S2140057F043E90645F43A43F8042C1A680AB1012234
S2140058005A7128338B42B8D1BDE8F08F182100209A
S21400581038B5074C0025637F1BB1A369216A28466B
S21400582098470135042D04F12804F4D138BD00BF93
S21400583000210020F0B500214FF0FF324FF0FF337B
S214005840164C0C44257F3DB1D4E900459D4208BF67
S21400585094423CBF22462B462831A029F0D110495D
S21400586000240C705C1C08BFB2F1FF3F0C4614D03D
S21400587000279F420B496FF0640608BF96420860F7
S21400588038BF32460849042502440D6201234A65A2
S21400589023704B6A43F004034B62F0BD00210020E6
S2140058A0EC200020A421002000200440204B70B5EE
S2140058B01C78002C3AD101251E481D702946FEF79B
S2140058C01BFA1D4E1D480221FEF764FD03232946E0
