S0120000647574796379636C655F322E7333377B
S11300000080002099010000C5010000C501000026
S1130010C5010000C5010000C5010000C5010000C4
S1130020C5010000C5010000C5010000C5010000B4
S1130030C5010000C5010000C5010000C5010000A4
S1130040C5010000D1480000C5010000DD480000E2
S113005025490000F5480000E9480000194900005E
S1130060C501000081240000F9310000AD27000023
S1130070C5010000C5010000C5010000C501000064
S1130080C5010000A5240000C5010000C501000051
S1130090C5010000C5010000C5010000C501000044
S11300A0C5010000C5010000C501000001490000B0
S11300B00D490000A52E0000C5010000C501000087
S11300C01D5F0000C501000010B5054C237833B94D
S11300D0044B13B10448AFF300800123237010BD17
S11300E0A801002000000000B0C80000084B10B5B3
S11300F01BB108480849AFF300800848036803B9F6
S113010010BD074B002BFBD0BDE81040184700BFC3
S113011000000000B0C80000AC010020A4010020D1
S113012000000000154B002B08BF134B9D46A3F5A0
S1130130803A00218B460F461348144A121A07F0DE
S1130140F5F80F4B002B00D098470E4B002B00D036
S113015098470020002104000D000D48002802D01B
S11301600C48AFF3008007F095F82000290000F058
S1130170AFFB06F085FF00BF0000080000800020F0
S11301800000000000000000A801002090140020DE
S11301900000000000000000064880470649074AA6
S11301A0074B9A42BEBF51F8040B42F8040BF8E720
S11301B0FFF7B8FF49020000BCC80000000000209F
S11301C0A8010020FEE700BF0048704700F0490284
S11301D00D4AD2F8943003F00703032B0AD0042B02
S11301E003D0022B03D1094B02E0094B00E0094B79
S11301F0186801E04FF40040D2F80031C3F304233F
S11302000133B0FBF3F0704700400E4000000020C3
S1130210040000200800002008B5FFF7D9FF054BB3
S1130220D3F80831C3F308230133B0FBF3F0024BD6
S1130230186008BD00400E402C0F0020014B1868C8
S1130240704700BF00000020034AD2F8883043F40E
S11302507003C2F88830704700ED00E04FF40040AE
S113026070474FF47A707047014B1868704700BFAD
S11302700400002073B504460D46164642B106F04C
S1130280F9FE0022026001A9204607F0B7FF10E042
S113029006F0F0FE01A906603246204608F038F860
S11302A0ED000123AB40013B0340834201D0002019
S11302B00CE006F0DFFE0368002BF8D1204607F0BF
S11302C00FFF019B1B1B1B1A5842584102B070BD03
S11302D000210A4608F01CB8733904290FD8DFE856
S11302E001F0070E05030A00022105E0012103E0E5
S11302F00421012201E004210022FFF7BBBF0020FA
S1130300704700002DE9F04F87B0824602A80D46E1
S113031002F0AEF9814603A802F0B2F9D5F804B0B0
S113032070490746584607F0AFFEDDF80C800446D6
S113033010B10024264625E06B482968029E07F088
S1130340BFFC6A4807F0BCFC44450AD014B16848B5
S113035007F0B6FC57F83410664807F0B1FC0134D6
S1130360F2E7654807F050FD644807F04DFD0024AE
S1130370B44200F0B38059F83410614807F0A0FC8F
S11303800134F5E744450DD007EBC40357F83400B6
S11303900193594607F078FE019B0134002808BFF9
S11303A01E46EFE726B92868564A50215B4666E0A8
S11303B0D5F80880544C4146204607F065FE0746B0
S11303C0A8B9BAF1040F03D02868504A51211BE0A0
S11303D0E8687721FFF780FF0028F5D0E8680494E7
S11303E08DF81470FFF774FFADF8160029E0484C3F
S11303F04146204607F048FE074620BBBAF1050FE8
S113040005D02868434A532103F040FD66E0E868BC
S11304107521FFF761FF0028F3D028697521FFF7E4
S11304205BFF0028EDD00123E8688DF814300494B4
S1130430FFF74EFF8DF817002869FFF749FF8DF885
S1130440160004AC22E03448414607F01DFEC8B152
S11304500027DDF808A03C4657450BD059F8370073
S1130460414607F011FE09EBC70B002808BF5C46A4
S11304700137F1E74CB92868284A5421434603F070
S113048005FD2BE00127044600E000272448012154
S113049000F018FE0022B079F179134601F098FDBE
S11304A047B1307902F0F4F828681E49326803F045
S11304B0DBFC13E023792BB130797179E279A379EC
S11304C002F0EEF8B079F1790422002301F080FD06
S11304D0286815493268236803F0C6FC07B0BDE8F4
S11304E0F08F00BF65AA00006AAA000087AA000076
S11304F08EAA000049AA000091AA00009CAA00004C
S1130500D6AA0000DCAA000014AB0000F7AA000081
S11305103CAB00001FAB000073AB000047AB000016
S11305200025080065AB000077AB0000062802D167
S11305300122044B03E0072802D1034B01221A7065
S1130540704700BFCC010020E401002030B5104DFD
S113055091B0044603F0BEFB0E4803F0CDFB2846E1
S113056003F0CAFB40210C4A2346684607F016FDF7
S1130570684603F0C1FB284603F0BEFB074B53F863
S1130580240003F0B9FB03F0A3FB11B030BD00BF9E
S113059086AA0000B8AB0000CDAB0000100000201C
S11305A010B590B003F096FB3A483B4C03F0A4FB23
S11305B03A4803F0A1FB3A4803F09EFB394B2278FA
S11305C053F8220003F098FB344803F095FB23789A
S11305D0B3B9354803F090FB344B354A1B684021CE
S11305E0684607F0DBFC684603F086FB2B4803F003
S11305F083FB304803F080FB684640212E4A3BE0F1
S1130600012B17D1284803F077FB2C4B2C4A1B688D
S11306104021684607F0C2FC684603F06DFB1F48A2
S113062003F06AFB234803F067FB68464021254A30
S1130630254B22E0022B29D11B4803F05DFB234B01
S1130640204A1B684021684607F0A8FC684603F06E
S113065053FB1F4B1F4A1B684021684607F09EFC52
S1130660684603F049FB0D4803F046FB114803F0CC
S113067043FB194A68464021184B1B6807F08EFC5F
S1130680684603F039FB054803F036FB03F020FB12
S113069010B010BDB8AB0000DC01002086AA000039
S11306A0D7AB00002C000020E8AB0000F0010020D4
S11306B0F7AB000005AC000014AC0000D001002032
S11306C022AC000031AC0000C4010020C8010020AD
S11306D0F40100203EAC00004CAC0000D40100202A
S11306E0022810B5044608D105F004F908B105F054
S11306F0C7F8114802F006FA03E00F4B186802F03D
S113070053FA0E4B01221A700D4A002313700D4A3E
S113071014700D4A13600D4A13600D4A13600D4A9C
S113072013600D4A13600D4A13600D4ABDE8104072
S11307301360FFF735BF00BF480F002018000020EA
S1130740E5010020DC010020F0010020C8010020A8
S1130750F4010020C4010020D0010020E8010020A1
S1130760D401002010B5164C2378032B08D0062B97
S11307700CD003BB1348144903F076FB032318E0A1
S11307801048124903F070FB002312E004F004FE49
S11307900F4902460B4803F067FB4FF4FA6002F07E
S11307A0D1F904F0F9FD0A490246064803F05CFB5E
S11307B00423237010BD0020FFF7C8FEFEE700BF2E
S11307C0E501002058AC00008FAC00006DAC0000C7
S11307D078AC000070B5104B93E807008AB001AE06
S11307E086E8070003F10C0207CA183304AD85E854
S11307F0070093E8070007AC84E8070031460320AC
S1130800FFF780FD29460320FFF77CFD03202146E6
S1130810FFF778FD0AB070BD88AB00002DE9F04108
S113082080460F4614461D4605F0DCF8B8F1FF0F6C
S11308300DD018F0010F1F4A33D11F4B03FB08F0F2
S11308401E4B034493601E4B186804F07FFD27B1D0
S1130850012F04D11B4B9E6801E01A4B5E683046A1
S113086004F06AFD00B1FEE7164E94B16378207877
S11308701B0443EA0063E0780343A07843EA0020C2
S113088000F051FB104B5860F06804F055FD00B1C6
S1130890FEE70E4B3069013D5D6004F04DFD30B163
S11308A0FEE7936803F5F42303F59073CAE7BDE804
S11308B0F08100BF5000002020A1070000180D8F18
S11308C04C000020380000205C000020680000205C
S11308D0A54BDB6C1B0E8E2BF7B515D8A349A44A88
S11308E0D1F8B00040F00403C1F8B0304FF0501319
S11308F0136013631366C2F89030C2F8C030C2F8B4
S1130900F030C1F8B00001E08F2B06D1974AD36ACA
S113091023F07F0343F02003D36201F0D5FD0121CE
S11309209448954F00F0CEFB042000F091FB01F0B9
S113093073FF012001F066FF052006210222012336
S113094001F046FB022201230520072101F040FBB0
S113095003F0A0F901F06EFD0620884901F078FD4E
S11309600720864901F074FD012406210A4605206A
S113097000230094019401F0DFFA07210A460023C2
S113098005200094019401F0D7FA7D4805F01EF883
S11309903D6805F027F87B4B53F8250004F0FAFC7A
S11309A0794B53F8250004F0C7FC064618B12046DD
S11309B0FFF7CCFDFEE7754B53F8250004F0C6FCA9
S11309C008203146724A3D601023FFF727FF314665
S11309D0762005F047F8FFF7FDFEFFF7E1FD72B65C
S11309E06C4D6D4C2B685A1C1CBF01332B606B4B38
S11309F01878A8B100221A70694B1B7823B92378A0
S1130A00042B29D0042309E0012B25D12378052BBD
S1130A1022D0644A136801331360052323701BE05A
S1130A20614B1A78C2B1187023785A1E012A13D95F
S1130A30043B022B10D95A4B1B780BB9012005E05B
S1130A40012B01D1022001E0022B02D1FFF748FE65
S1130A5002E0FFF77BFDFEE72B6823B14D4A013B23
S1130A60136003B962B6514D23782A789A42504AEA
S1130A7002D111780029B2D000211170484A1278AD
S1130A80002A58D14B484C4903F0EEF923782B70D7
S1130A9004F030FF08B104F0F3FE2378042B46D8A9
S1130AA0DFE803F003151D202E00012140F6485015
S1130AB004F0F6FE04F096FF3F493E4803F0D4F9F3
S1130AC03E4A136923F00403136130BF87E7012111
S1130AD042F2107004F0E4FE3648394924E0354807
S1130AE0384921E004F07EFF374B187804F0C7FF43
S1130AF001214FF4C86004F0D3FE2E48334913E0BB
S1130B00334B344C00251D7023601023A38004F064
S1130B1069FF204604F0CCFF2B4B294618782A465F
S1130B2004F0E5FF23482C4903F09EF957E7002021
S1130B30FFF70CFDFEE7022A40F09D802B70274E44
S1130B40274D3146286802F0A5F8337813B1286898
S1130B5002F088F92378062B00F28980DFE803F09D
S1130B604287875160877600B081E00F00400E40D5
S1130B7000A0004000250800E00100202D05000031
S1130B80ACAB0000F8010020380000204C0000202D
S1130B900C00002018020020E5010020CC010020F8
S1130BA0DC010020C4010020E4010020EC0100204D
S1130BB01800002085AC00008AAC000000ED00E0C5
S1130BC095AC0000A2AC0000D80100206DAC000080
S1130BD019000020380F0020ABAC00004C0F00209F
S1130BE0480F00200021009140F6C4123F4B2868B2
S1130BF002F076F804F0F6FE012000F051FF3C48C4
S1130C004BE004F0EFFE3B4B187804F038FF002172
S1130C1000912868354B0F2202F062F8344849E00D
S1130C20354A364B364C12681A7023601023A38061
S1130C3004F0D8FE204604F03BFF2E4B00210A4668
S1130C40187804F054FF2A482E4947E004F0CAFEFD
S1130C50284B187804F013FF002100912868234BD7
S1130C604FF47A7202F03CF82148274936E000201C
S1130C70FFF76CFCFEE7012A7FF4B1AE2B7004F0A1
S1130C8039FE08B104F0FCFD2378032B07D0052BB3
S1130C9012D033BB04F0A6FE1C481D491EE00121FE
S1130CA01C4804F0FDFD04F09DFE124B187804F07E
S1130CB0E6FE1648184911E0184A104B1848126805
S1130CC01A7003601023838004F0F2FE094B0021A4
S1130CD00A46187804F00BFF0C48124903F0C4F8D4
S1130CE07BE60020FFF732FCFEE700BF650700004B
S1130CF0B6AC0000D8010020C80100201900002073
S1130D00300F0020ABAC0000BCAC0000C6AC00004F
S1130D108FAC0000F04902006DAC0000C40100205B
S1130D20400F0020CDAC0000134B1B78012B10B5F5
S1130D3003D1124B00221A7010BDDBB90F4C23787B
S1130D40042B13D8DFE803F0030A120A0A000C4844
S1130D500C4903F089F80323237010BD002323708A
S1130D6007480949BDE8104003F07EB80020FFF7AA
S1130D70EDFBFEE710BD00BFDC010020E501002013
S1130D80D7AC00008FAC0000A7AC0000164B1B785A
S1130D903BB916490A6801320A60154A1370FFF715
S1130DA0FFBB012B11D1134911480A68952ADDBFF5
S1130DB001320A6005220023D9BF02700E4A0B607B
S1130DC00323D4BF137003707047022B0AD1074A60
S1130DD0136801331360094A136801331360044B29
S1130DE000221A70704700BFDC010020D4010020EB
S1130DF0E5010020E801002018000020F401002093
S1130E00084B1B78012B05D1074B1B68952B07DC7E
S1130E10052203E010F0060F02D00022034B1A70E3
S1130E20704700BFDC010020E8010020E50100203C
S1130E3008B5174B1B784BB916490A6801320A608A
S1130E40154A1370BDE80840FFF7AABB012B0BD16C
S1130E50124A837A12689A4201BF114A1368013315
S1130E60136000220C4B10E0022B0FD10D4B827A41
S1130E701968914218BF1A600B4B186801F0F2FF11
S1130E80054B06221A70094B01221A7008BD00BFD7
S1130E90DC010020F0010020E5010020C401002055
S1130EA0D0010020C8010020480F002018000020B5
S1130EB008B5124B1B7893B9820741BF104A01232E
S1130EC01370104A48BF1370430742BF0D4B0222F0
S1130ED01A7010F0700F10D000220A4B0CE0012B96
S1130EE0F7D0022B09D1084B186801F0BBFF054B62
S1130EF006221A70024B01221A7008BDDC01002080
S1130F0018000020E5010020480F00200048704729
S1130F10500F00200844704770477047704770476F
S1130F20704770477047042200235B080028B8BF4D
S1130F3043F00043010148BF43F00063010248BF8E
S1130F4043F40003010348BF43F40023010448BFF2
S1130F5043F40043010548BF43F40063010648BF5E
S1130F6043F08003010748BF43F00803013A4FEA06
S1130F704000DAD11A0703F0F00102EB137202EB1E
S1130F80015203F4706102EB013203F4704102EB8D
S1130F90011203F4702103F0706002EB111203F4E8
S1130FA0700302EB133303EB10507047002008B5B5
S1130FB001460422012301F00BF801210A460B46E5
S1130FC0002001F005F8042201230020052100F08F
S1130FD0FFFF054A03235367936F23F4F85323F069
S1130FE01F03936708BD00BF0000014030B5114DD9
S1130FF00FCD87B06C460FC495E803000E4B84E810
S1131000030000241C600D4B0D481C60012100F0FE
S113101059F80C48012100F055F80B48012100F063
S113102051F80A48694601F06DF9FFF7BFFF204601
S113103007B030BD58B00000FC01002000020020C1
S11310404041050000250800002204000000014082
S113105008B5430701D5FFF7C9FF002008BD00000C
S11310600B4B0C4941F6713210B51C6C1A645A686A
S1131070094A02448A4294BF4FF0807100215A68A1
S113108022F040720A435A600CB100221A6410BD67
S113109000000E407F9FD5007F4573FE08B5FFF723
S11310A093F8BDE80840FFF7DBBF0000044BD3F81A
S11310B04421D20703D4D3F840211042FBD1704716
S11310C000400E40C0F30322013A70B503460E46B9
S11310D0092A26D8DFE802F018082525050B0E2575
S11310E0111500200F4C11E000200F4C0EE00120E0
S11310F00E4C0BE010200E4C08E04FF480300D4CE9
S113110004E000200C4C01E00C4C0020C3F3043537
S113111008B1FFF7CBFF04F1047405EBC404A40089
S1131120266070BDB0400E40C0400E40E0400E400E
S1131130E8400E40F0400E4050410E4000400E404A
S1131140C0F30313013B062B34D8DFE803F0040893
S11311500E14181E2700184BD3F8000102E0164B9A
S1131160D3F81401C0F304207047134BD3F80001E3
S1131170C0F300607047104BD3F80C0102E00E4B33
S1131180D3F80801C0F3082070470C4B984211D1E2
S1131190094BD3F8203103F00F0307E0084B9842C2
S11311A008D1054BD3F8283103F0030301209840FC
S11311B0013870470020704700400E40600612005E
S11311C07007140008B5FFF7BBFF013008BD00002D
S11311D000F00F000138052835D8DFE800F0030DD2
S11311E01734222C1B4BD3F8943003F00703023B33
S11311F0022B2AD8184A12E0164BD3F8803003F099
S11312000703013B032B22D8144A08E0114BD3F8FF
S1131210843003F00703013B032B18D8104AD05C39
S113122070470C4BD3F8883003F00703013B032BC2
S11312300DD80C4AF3E7074B1B6F13F0010F14BFD3
S113124008200720704700207047052070470120C0
S1131250704700BF00400E4070B0000073B0000043
S113126077B000007BB0000010B50446FFF7B0FF74
S11312701B4B9C4209D01B4B9C420AD01A4B9C42EC
S11312800CD11A4BD3F8800006E0184BD3F8840035
S113129002E0164BD3F8880000F007000138032859
S11312A01CD8DFE800F002060E0ABDE81040FEF785
S11312B0D5BFBDE81040FEF7D7BFBDE81040FEF72C
S11312C0D0BF0A4BD3F80031DB0103D5FEF7A4FFEE
S11312D0800810BDFEF7A0FF400810BD002010BD1F
S11312E003001A0005001E000200180000400E4012
S11312F000F47810B0F5602F08B566D017D8B0F5B3
S1131300802F32D00AD800285BD0B0F5003F5FD1DF
S1131310FEF75EFF2F4BD3F808312BE0B0F5202FFA
S11313202BD0B0F5402F45D0B0F5002F48E0B0F5F4
S1131330A01F32D00ED8B0F5801F27D0B0F5901F73
S113134046D12548FFF790FF224BD3F8202102F025
S11313500F022AE0B0F5D01F1DD0B0F5F01F15D054
S1131360B0F5C01F34D11C4811E0FEF731FF194B12
S1131370D3F80C31C3F3082306E0FEF729FF154B1D
S1131380D3F81431C3F30423013310E01348BDE848
S11313900840FFF769BF1248F9E71148FFF764FFF7
S11313A00C4BD3F8282102F0030201239340B0FB35
S11313B0F3F008BD0B48FFF70BFF072805D00828FA
S11313C006D1BDE80840FEF703BF074B186808BD07
S11313D0002008BD00400E400200180005001E0059
S11313E003001A0006000C0074000020C0F303136D
S11313F0013B70B50C46072B00F29380DFE803F045
S113140004151F2935566E82464E474DFFF746FE9A
S1131410012333602B60454BD3F8001121F4F851BC
S113142041EA0424C3F8004131E0404BD3F81411DD
S113143021F4F85141EA0424C3F8144170BD3B4B34
S1131440D3F8001121F0807141EA0464C3F800412B
S113145070BD364BD3F80C1121F4FF3121F48071A7
S113146041EA0421C3F80C1170BD2E4E2E4DFFF736
S113147015FE012333602B602C4BD3F8081121F4A3
S1131480FF3121F4807141EA0421C3F80811FEF709
S1131490C3FEFFF7E5FD2648FFF72AFF254B9842D8
S11314A094BF002001203060286070BD224B984218
S11314B02BD0224B984200D070BD0420FFF7F6FDDC
S11314C01A4AD2F82031013423F00F03B4FA84F419
S11314D0C4F11F041C43C2F8204170BD184B98424C
S11314E01FD14020FFF7E2FD104AD2F82831013421
S11314F023F00303B4FA84F4C4F11F041C43C2F8B8
S1131500284170BD0C4B98420BD14FF48020FFF75B
S1131510CDFD064BD3F8301121F00F010C43C3F875
S1131520304170BD4000C8436020C84300400E40B5
S1131530000508000048E801800910006006120058
S1131540700714000139FFF751BF00000138032868
S113155043D8DFE800F0022B111EC1F308011F4B32
S11315601B68002BFBD11E4A136A23F4FF7323F07C
S1131570010319431162704701F07F01194B1B6885
S1131580002BFBD1164A136923F07F031943116121
S1131590704701F07F01144B1B68002BFBD1104AEC
S11315A0936923F07F031943916170470C4AD2F881
S11315B09030536A23F0300343F010035362C1F3B5
S11315C0C31303330F2B28BF0F2341EA0371074BC7
S11315D0074A1A6003F10073196070476828C8430A
S11315E000400E406028C8436428C84330400E447D
S11315F0FF0700F00F4B1B6813F0300F06D02029B3
S113160007D0302902D009B10B4B04E04FF440035A
S113161001E04FF400030949D1F890201A409A429E
S1131620F9D15B0246BFD1F8A000C0F380200120AD
S1131630704700BF24400E40FF03C10700400E4026
S113164002280AD129B1064B4FF48060C3F8A800E0
S1131650596612B10220FFF7CDBF0120704700BFC9
S113166000400E40F8B5042875D8DFE800F0080300
S11316700F296F00802640240623072524E04FF419
S113168000764FF48074082309251DE0002952D008
S113169031494B6A13F0300F09D14B6ADB070AD585
S11316A04B6A23F0300343F010034B6203E004243D
S11316B0022303250AE0042402230325012606E06D
S11316C00124022600232546002936D0002622497B
S11316D00C662249194489000B68002BFCD01AB906
S11316E0BDE8F84000F012BA1C4B2B449F003B6845
S11316F0002BFCD00228F3D1002EF1D0164D696ADC
S113170011F0010104D020210122FFF799FF01E02B
S1131710FFF770FFD5F89C60022000210122FFF73B
S1131720A1FF0220C6F30A01FFF710FF2C663B68F5
S1131730002BFCD0D4E708260223074A1666074A82
S11317401A4492001368002BFCD1C9E72026102408
S113175004230525B8E7F8BD00400E408004F210CC
S113176000F00F00013810B5042870D8DFE800F04D
S113177003743F6F76000239032971D8DFE801F062
S11317801802050F0120032414E0364A01231360D4
S113179002F5005220320220136004460AE0314B65
S11317A001241C6003F50053203303201C6001E076
S11317B00020042401210A46FFF754FFFFF76EFCC2
S11317C0294B2A485C67FFF793FD294B9842254B28
S11317D094BF00200120186003F5005320331860E3
S11317E000F094F9FEF718FDFFF73AFC2FE0214CC6
S11317F00139082934D8DFE801F028070E333315FE
S113180033330500042321E0012100200A46FFF7B9
S113181029FF02231AE0012001460246FFF722FFB6
S1131820012313E0FEF7F8FC114B98420D4B94BFD3
S113183000200120186003F5005320331860A3F53D
S1131840266301221A60032300E000232360054B72
S11318501B68094B1B6810BD084CC9E7084CC7E757
S113186010BD00BF4000C84300400E400005080002
S11318700048E80184400E406020C84380400E4088
S113188088400E4010B504461120FFF7A1FC00214A
S113189001220220FFF7E6FE2378227C002B14BFEE
S11318A04FF480730023022A08BF43F001031E4A49
S11318B040F20111116002F10072072113601B4B09
S11318C0E27A196003F1007319491A60637AA288F5
S11318D043EAC223174A116002F100721360237AAB
S11318E0E288D91CDB0143EAC223A27A0F2928BF6C
S11318F00F211343104A43EA01736FF07F611160B3
S113190002F100720D491360637B227B1B0343EADF
S11319100243E27B1343A27B43EA0213084A1160A9
S113192002F10072136010BD24400E4428400E449E
S11319307FF80F002C400E4430400E44FFF00F009F
S113194034400E44214B45F60E02D3F88011C3F8FF
S113195080211F4A106840F2551202401A661D4A3F
S1131960128802F00702032A01F0010104D0042ABC
S11319700BD0022A23D10EE05A6A92001FD4D3F866
S113198090201006FBD5032217E0D3F8902092058F
S1131990FBD5042211E00D4BD3F890301B07FAD588
S11319A00D4B1B6813F0300F06D10C4B1B6803F46E
S11319B04003B3F5400FF8D10222044B5A6719B122
S11319C0024B0022C3F88021704700BF00400E4044
S11319D0100200200E02002024400E4090400E40D1
S11319E01848194BC26C1B88C2F3032228330132F6
S11319F002EB820103EB6303B3FBF1F3C16C013B24
S1131A00072B21F0EE6128BF072341F4801141EA3E
S1131A100363C3640D4BB3F90030002B10DB283390
S1131A20510001EB520203EB6303B3FBF2F3026DCB
S1131A30072B28BF072322F0700242EA0313036531
S1131A40704700BF00300E400C0200200602002048
S1131A50084B1A78012A0BD1074A126C02F00302D0
S1131A60012A03D1054A1268D203FBD502221A7057
S1131A70704700BF1402002000300E407C300E403E
S1131A80054A064BD16C1960D36C23F47F4343F4AD
S1131A90EE43D364FFF7A4BF00300E4008020020D9
S1131AA038B5144B144AD3F890101160D3F894400D
S1131AB0124A134BA4B21C80136943F0040313614C
S1131AC00546FFF7DDFFFFF7C3FF30BF0D4B1A6874
S1131AD00D4BDA64FFF784FF1DB1BDE83840FFF712
S1131AE031BF04F00704012C03D0BDE83840FEF7F1
S1131AF093BB38BD00400E401002002000ED00E012
S1131B000E0200200802002000300E40044B054A5B
S1131B10D3F890101160D3F89420034B1A807047C7
S1131B2000400E40100200200E020020074A936F6E
S1131B30DB07FBD4011C064B18BF01211960136C91
S1131B4023F0030318431064704700BF00300E40B5
S1131B50B40AC6436A4B2DE9F74F9B6B019203F01D
S1131B600F03022B804601D00020C6E0A0F5E163FC
S1131B70B3F5966FF8D800221446134649B9019973
S1131B800124002900F09D80DFF87CA14FF00809B2
S1131B9003E0DFF878A14FF00109B8F5E16F94BFD5
S1131BA000200120574948B1002C40F08F8040F6B6
S1131BB0B83C4FF4E1654FF0010E07E0002C40F013
S1131BC091804FF4E16C4FF49665A6464C4EDFF8D5
S1131BD040B1F66C06F040564EEA06075F4521D048
S1131BE008D8012F1BD026D3B7F1805F2BD1D1F8B1
S1131BF06C3125E0DFF81CB15F4516D005D8B7F18C
S1131C00005F20D1D1F8703111E0B7F1405F15D0F9
S1131C10DFF804B15F4516D1D1F8783110E0D1F87E
S1131C20743104E0D1F874310AE0D1F87831C3F3A7
S1131C300722DBB207E0D1F86C31F8E7D1F8703154
S1131C401A0EC3F30743096D2E4FC9B2032903D8F3
S1131C50D7F87C1148B10AE0360F022ED7F880116C
S1131C6008D0032E09D0012E01D0C9B206E0C1F379
S1131C70072103E0C1F3074100E0090E090311F451
S1131C80702F7FF471AF1E4EF06E20F4704001434C
S1131C906545F166BFF468AFC5EB0800D11A41434E
S1131CA0C5EB0C05B1FBF5F51D4495423FF65CAF61
S1131CB09D42FFF459AF05FA09F545EA0E05CAF845
S1131CC00050002C3FF45BAF204616E0D1F8683199
S1131CD040F6B83C1A0E4FF4E165C3F307434FF0E6
S1131CE0020ED9E7D1F868314FF4E16CC3F307224F
S1131CF04FF49665DBB28646CEE703B0BDE8F08FBD
S1131D0000300E40B081E00F5C300E4064300E4075
S1131D10010000100100002001000030194B1A6F6F
S1131D20D96CC90702F0070206D5012A04D9132881
S1131D3018D91438132811E0DB6CD90706D4012A0A
S1131D4004D809280ED90A38092807E00D4BDB6CA2
S1131D5013F0010309D0012A06D827288CBF1023C9
S1131D60082302E0042300E000230648013BC26C80
S1131D70190341EA032322F47F421343C364FFF7A8
S1131D802FBE00BF00300E40054A064B1B68136F80
S1131D9023F007031843044B10671888FFF7BEBFEE
S1131DA000300E408009C64304020020524B0278E2
S1131DB073B59A639B6B03F00F039342044601D0FF
S1131DC0002595E04D4ED6F86C3101331DD04C4BB7
S1131DD01A68043B1B681A604A4B1A68043B1B6868
S1131DE01A60494B1A68043B1B681A60474B1A680F
S1131DF0043B1B681A60464B1A68043B1B681A6054
S1131E00444B1A68043B1B681A60E3884A2B0BD9BD
S1131E10B3F5FA7F0AD340F6C312934294BF4FF04E
S1131E2000534FF0405303E0002301E04FF0805390
S1131E30314DB4F90C00E96C21F0405222F001025A
S1131E400028A8BF42F001021343EB64EB6E43F099
S1131E508073EB660420FFF797FF2B6E23F0C043DB
S1131E602B66EB6C43F00603EB64F56C01A8C5F339
S1131E70074500F031F9A5F110030B2B03D905F048
S1131E80FD05512D17D19DF80500012813D19DF8AA
S1131E900430022B0FD820490B7863B91F4A164D22
S1131EA0136843F0010313602B6E1D4A1A401D4B47
S1131EB013432B6608701C4B218919801B4BA28984
S1131EC01A801B4BA0881880FFF728FF0121608827
S1131ED00A46FFF73FFE054600283FF471AFA37A98
S1131EE0144A6078003318BF01231360FFF71EFE05
S1131EF0284602B070BD00BF00300E40B081E00F34
S1131F003C80E00F4480E00F4C80E00F5480E00FF1
S1131F105C80E00F6480E00F1402002044300E4027
S1131F20000F0EF0B4C0400B0C020020060200208B
S1131F30040200209407C643072930B54FF00F046C
S1131F4006D88D00AC40A840194D2C60194C07E010
S1131F50A1F10805AD00AC40A840174D2C60174C0A
S1131F602060072A88BF083A4FF0030401EA0400FE
S1131F7097BF920092009440904085BF9440904057
S1131F800F4A104A146002F1007210600E4A0A44AB
S1131F90920013609DF80C30C2F8803001238B400E
S1131FA00A49C1F824349DF81030C2F8003330BD1A
S1131FB000A4004400A4004604A4004404A4004671
S1131FC008A400440CA400448020851000A0004014
S1131FD0F0B562B1302404FB00F51F4C2C4401EB36
S1131FE0C404A40013B10125256000E0236030245B
S1131FF0444304F18044072904F520440CD867685D
S11320004FEA810E0F2505FA0EF527EA050602FAB6
S11320100EF5354365600CE001F18045083DA76885
S1132020AD000F26AE4027EA060602FA05F5354351
S1132030A5607AB93022504333B1074B034401EB16
S1132040C3018900012304E0034A024401EBC201F5
S113205089000B60F0BD00BF0CA010428B784A7859
S11320609B0143EA82030A781343CA7843EA0213C2
S11320700A7943EAC2234A7943EA02338A7904306B
S113208043EA42430001014A1350704700200440D0
S1132090014B1860704700BF000084428378427887
S11320A01B0143EA820302781343C27843EA4213D2
S11320B0027943EA0223427943EA0233827943EA0A
S11320C0C233C27943EA0243027A43EA4243014AF1
S11320D013607047002004400B4A536903F00F015A
S11320E01369C3F3811343EA81038370136903F013
S11320F03F034370936903F0F001D369C3F30313FF
S11321000B430370704700BFD0FF0FE030B50C786D
S11321100CB90223436000234362CB788A781B0402
S113212043EA02630A7A13438A7943EA8223CA7927
S113213043EA02234A78002A14BF402200221343B0
S11321404A7A002A14BF8022002213438A7A002A82
S113215014BF202200221343CA7A002A14BF10227B
S1132160002213430A79002A4A7914BF4FF4005518
S11321700025002A43EA050314BF4FF080520022D1
S11321801A430B7B002B14BF082300231343036063
S11321900CB10123436030BD537810B514781B068D
S11321A043EA846394792343947843EA0443D478D8
S11321B043EA0433147943EA8423547943EA042335
S11321C0D479002C14BF4FF0804400242343147AA4
S11321D0002C14BF4FF0005400242343547A927A05
S11321E0002C14BF102400240631002A43EA0403FF
S11321F014BF0422002209011343435010BD000000
S113220070B5044616461D4619B91448FFF770F810
S11322100146202D07D001D85DB170BD402D04D0FA
S1132220602D04D070BD082204E0062202E00422DE
S113223000E01022236823F0600323607243490105
S1132240236801EB5201B1FBF2F20549203AD200B6
S113225011401D432560616170BD00BF4041050010
S1132260F8FF7F00F8B50446154619B90E48FFF784
S11322703FF80146C8012A460023490E04F02CFC0D
S1132280B0F1800641F1FF37310A41EA076107489E
S11322900A02024004F1140000F1806300F1C060FE
S11322A0024919600260F8BD40410500F8FF7F0053
S11322B0CB4303F005035B00C360C16070470000BB
S11322C040F6AA63C36041F2050200230360426042
S11322D0094A83604361C3648264084A4367904245
S11322E08367C36708BF03658365054B984204BFD2
S11322F00023C365704700BFF9FF010000000140DF
S11323000004014038B50C460546FFF7D9FFA37C0D
S11323101BB12B6843F080432B60E37C1BB1237D0E
S113232043F08003AB65637B228A61681A43E389C7
S113233013436B60A268237B2846FFF761FFE37DAC
S11323401B0503F4E002A37D1B0703F0E0431343E2
S11323502B66637D1BB12B6843F480332B60237899
S1132360EB6038BD38B50C460546FFF7A9FF238A54
S1132370A27B296843F00103002A9BB214BF4FF4E7
S1132380806200220B431343227D2B602B68002ABA
S113239014BF4FF00052002213432B60A37C1BB1E7
S11323A0E37C43F08003AB65237B6168A26843F45C
S11323B080536B602846FFF755FF637B0BB11023F6
S11323C0EB60E37D1B0503F4E002A37D1B0703F030
S11323D0E04313432B66637D1BB12B6843F48033C6
S11323E02B602378EB6038BD03691B06FCD5C069FC
S11323F0C0B2704703695B06FCD54163704703694B
S11324005B06FCD5C163704710B5044674B194FAF9
S1132410A4F0B0FA80F00123834024EA0304044BBF
S113242053F82030002BF1D09847EFE710BD00BFE0
S11324301C020020054B4FF40032C3F880211A60BF
S11324404FF40072C3F880211A60704700E100E085
S113245072B6094B1A68B2F1FF3F1CBF01321A6011
S11324601B68064A42F8201023B1034A013B13605B
S113247003B962B6704700BF180200201C02002096
S1132480074AD2F82804D2F81C34184020F42A5001
S113249020F02A004004400CC2F82404FFF7B4BF23
S11324A000A00040074AD2F82804D2F81C3418408F
S11324B020F4AA4020F055000004000CC2F82404C3
S11324C0FFF7A2BF00A0004008B500F019F800F023
S11324D023FEBDE8084000F07FBB82B000EB400063
S11324E00021CDE90001DDE9002312F1FF3043F1C1
S11324F0FF311343CDE90001F5D102B0704700006C
S1132500F0B54F4B91B002AA03F1080517461868BD
S11325105968144603C40833AB422246F7D11868FD
S11325209B88A380474B206006AA03F1100516463A
S113253018685968144603C40833AB422246F7D1DD
S11325401B882380404C0FCC0BAD0FC523682B6038
S11325503846FFF72BFC3046FFF794F90BA801F03F
S1132560C5FF11200421FFF7FBF800210A460320D0
S1132570FFF778F854F8040F344D6168344C6B4617
S113258003C3684601F066FF012002460146FFF7D7
S113259069F830480321FFF7E3F82F480321FFF7D8
S11325A0DFF82E480121FEF78DFD2D480121FEF7AD
S11325B089FD2C480121FEF785FD2B480121FEF7FA
S11325C081FD20462949FFF7CDFE0B23636703F104
S11325D00B23A3670220062104220023FFF7F8FC43
S11325E00220024607210023FFF7F2FC0220082103
S11325F004220023FFF7ECFC04210A4601230020F7
S1132600FFF7E6FC002742F21070FFF766FFAB21EC
S113261020462F60FFF7EEFE01262046FFF7E4FE7A
S11326202E601E20FFF759FF2046B9212F60FFF7C7
S1132630E1FE2046FFF7D8FE2E6011B0F0BD00BFCA
S113264080B000008EB00000A0B0000090011442E1
S1132650000401400200180003001A0000050800ED
S1132660404105000025080000320400D4B00000F9
S113267008B1052303600148704700BFA80000208B
S113268008B1062303600148704700BF78000020AA
S1132690024B03449B0000221A6070474000F31071
S11326A0F8B504460E461448012117461D46FEF7A8
S11326B009FD1248204480000023036004F1100245
S11326C00F4B45EA072543F82250A208103304F0C3
S11326D0030453F82250E400FF21A14025EA01013C
S11326E043F8221053F82250A64046EA050143F865
S11326F0221001230360F8BD003508004000F310E8
S113270000600E4000207047FEE74FF400534B601A
S1132710002070470120704700207047F8B50E462E
S11327208F180D46BD42A5EB060406D000F0DAF87A
S1132730431C02D005F8010BF4E7002C14BF20461B
S11327404FF0FF30F8BD70B50E4615460C46A31B7E
S1132750AB4204DA14F8010B00F0FAF8F7E7284664
S113276070BD000008B50D4B1A680AB90C4A1A600E
S11327701A681318EFF308818B420BD9094B1B68B5
S1132780986804F091FC08491922FFF7DCFF012046
S113279004F076FC014910460B6008BD5C02002081
S11327A0901400205C010020ECB00000104838B503
S11327B003691B061BD50F4C2568FFF715FE0E4B4E
S11327C058552368013323600C4B1A6801321A6090
S11327D02268082A04BF002222601B68082BC1BF9C
S11327E0064A002323601360C4BF054A136038BD42
S11327F0000001406C0200206102002074020020ED
S113280070020020034B10B101221A707047187037
S1132810704700BF6002002030B52A482A4D87B0B7
S11328200121FEF74FFC29480121FEF74BFC002053
S1132830014604220123FFF7CBFB002001210A46B5
S11328400346FFF7C5FB0FCD6C460FC495E80300A4
S1132850042284E80300012300200521FFF7B8FBCC
S11328601B481C4C0121FEF72DFC06A9002501F88C
S1132870185D2046FFF746FD03236367A36F164ADE
S113288023F4F85323F01F03A3674FF400610423D8
S1132890A364C2F88011E36C43F00403E3642046AC
S11328A011600521FFF704FD0C4B1B68294698684D
S11328B002222B4605F0EAFA094B01221A7007B0EE
S11328C030BD00BF4041050008B1000000250800EC
S11328D0002204000000014000E100E05C0100204F
S11328E069020020154B1B7810B50BB9FFF794FF54
S11328F072B6134B1A68511C1CBF01321A60114A7C
S11329001168002910DD1049104C0868205C0C681F
S113291001340C600C68082C04BF00240C6011689E
S11329200139C0B2116001E04FF0FF301B6823B1E0
S1132930034A013B136003B962B610BD690200206B
S1132940180200207402002070020020610200209E
S113295038B50F4B1B7804460BB9FFF75DFF0D4BE1
S11329601A781D462AB10A2C03D10B480D21FFF712
S113297041FD09482146FFF73DFD2B782BB10D2C75
S113298003D105480A21FFF735FD204638BD00BFB5
S113299069020020600200200000014072B6044B6E
S11329A01A68511C1CBF01321A601868704700BFB6
S11329B018020020034B186818B10138186000B9D8
S11329C062B67047180200202DE9F04F254B03F141
S11329D0A00100225A711A79002A3ED053E90689CF
S11329E04FF0000BCB4508BF404506D2B8EB0004BE
S11329F069EB0B0543E906452FE0DA790AB91A7148
S1132A0027E053E9046718EB060453F8086C53F8FD
S1132A10042C49EB0705241A65EB0B05002E43E94A
S1132A20064508DD3244F32A43F8042C11D9013455
S1132A3045F1000508E0921BF32A43F8042C08D959
S1132A4014F1FF3445F1FF3543E90645F43A43F800
S1132A50042C1A680AB101225A7128338B42B8D166
S1132A60BDE8F08FA002002038B5074C0025637F35
S1132A701BB1A369216A284698470135042D04F146
S1132A802804F4D138BD00BF88020020F0B500212D
S1132A904FF0FF324FF0FF33164C0C44257F3DB10D
S1132AA0D4E900459D4208BF94423CBF22462B46D0
S1132AB02831A029F0D1104900240C705C1C08BFF7
S1132AC0B2F1FF3F0C4614D000279F420B496FF030
S1132AD0640608BF9642086038BF32460849042598
S1132AE002440D6201234A6523704B6A43F00403D8
S1132AF04B62F0BD88020020780200202C030020E5
S1132B000020044038B50546FFF748FF00230A4972
S1132B10282202FB0312947F24B10133042BF6D143
S1132B20064C05E01DB1012191772B6000E0044CB7
S1132B30FFF740FF204638BD88020020011000F056
S1132B40041000F013B54FF47A624FF400410023EF
S1132B50E1FB0023104619464FF4FA52002303F018
S1132B60BBFF00236FF064028B4208BF82420BD28A
S1132B700C4B9C689A680092009A121B6632F9D931
S1132B80653041F1FF31ECE750EA010307D0054B12
S1132B909C689A680192019A121B8242F9D3002020
S1132BA002B010BD00200440032838B504460CD8F8
S1132BB0FFF7F4FE064B282202FB04340025257798
S1132BC0A577FFF7F7FE284638BD024838BD00BF99
S1132BD088020020021000F0204B70B51C78002CF5
S1132BE03AD101251E481D702946FEF76BFA1D4E89
S1132BF01D480221FEF7B4FD032329461B48337107
S1132C00FEF760FA3046FFF749FA28461849FFF7FD
S1132C1025FA184B18485A6A22F4FF6222F0070278
S1132C205A6240F2FF721A62144A9C604FF00051DB
S1132C30C2F8801111605A6A2A435A622146A022BE
S1132C4004F074FB0E4B1C700E4B1C700E4B1C607E
S1132C500E4B1C600E4B1C60002070BD79020020DE
S1132C6000050800D000002005001E0080091000A7
S1132C70D9000020002004408802002000E100E088
S1132C808002002078020020280300208402002013
S1132C907C020020032838B504460D4613D8A1B1A0
S1132CA0FFF77CFE0A4B282202FB04341834A37974
S1132CB01BB9FFF77FFE074838BD23792B70FFF758
S1132CC079FE002038BD044838BD044838BD00BF33
S1132CD088020020031000F0021000F0041000F03D
S1132CE02DE9F84F03280746894692469B460A9EDB
S1132CF000F2A480FFF752FE524B282404FB073451
S1132D009846A27F22B9FFF755FE4F48BDE8F88FD9
S1132D10BAF1000F0AD1BBF1000F02D03846314698
S1132D20D847FFF747FE0020BDE8F88F474B4FF424
S1132D307A609D68C4F818B04FF400430021E3FBA7
S1132D400A014FF4FA52002303F0C6FEB9F1010F51
S1132D50C4E9020109D14FF47A7303FB0AFAF4239C
S1132D6003FB10A323617A236361282303FB0783F6
S1132D7001301A4641F100011E62354BE2E80601BA
S1132D801B7882F8079001241471002BC9D1314CAF
S1132D90236801331EBF2368013323602E4B1A7846
S1132DA09946B2B900272D4B6FF064068F4208BFD5
S1132DB086421D6038BF3046244B042228441A62E0
S1132DC058655A6A42F004025A62012389F80030B5
S1132DD02BE02368012B28D1282303FB078300263B
S1132DE01E771A4ADFF874A0536A23F0040353626F
S1132DF0DAF80000281AFFF7E7FDFFF735FE26B9D9
S1132E00282303FB078301221A772846FFF73EFE97
S1132E100E4BDAF800209D685B6DA91A9B1A99F88D
S1132E20002001360AB19942DBD82368094A002BF5
S1132E303FF477AF1368013B136072E70848BDE8BD
S1132E40F88F00BF88020020031000F00020044027
S1132E508002002028030020780200202C03002098
S1132E60021000F0032838B5044612D8FFF796FD87
S1132E70094B282202FB04341834A3791BB9FFF749
S1132E8099FD064838BD00252571FFF793FD2846B6
S1132E9038BD034838BD00BF88020020031000F08D
S1132EA0021000F02DE9F041FFF778FD194AD2F83D
S1132EB0188018F0040F1FD0174B97680121197060
S1132EC01E46144C154D636A23F00403636228689C
S1132ED0381AFFF779FDFFF7C7FD3846FFF7D6FD2F
S1132EE02A68A768636DB91A9B1A0D4A12780AB149
S1132EF09942E6D80023337018F0010F06D0054B31
S1132F0001221A62074A136801331360BDE8F041D5
S1132F10FFF750BD00200440800200202C03002055
S1132F2078020020840200202DE9F04F674A684CA3
S1132F3010685168127A87B003AB03C31A70D4F8CF
S1132F40B030D80706D463480121FEF7BBF84FF030
S1132F50010901E04FF000095F48FEF739F9032148
S1132F6007465D48D4F89060FEF7FAFB5B48FEF72D
S1132F7029F9D4F8F0300190D90706F0400606D4B8
S1132F8056480121FEF79EF84FF0010801E04FF08A
S1132F90000872B6524D2B685A1C1CBF01332B60BB
S1132FA0504B1C6814F001044FF000020FD0196854
S1132FB000915C6A1A605A6240F2FF721A624A4BCC
S1132FC04FF00052C3F880214FF0010A01E0009451
S1132FD0A24600238DF80E308DF80F3003A8082385
S1132FE08DF81030FFF75AF8404B4FF480521A60B6
S1132FF01A6852001A606AB13A4A9068D2F808E036
S113300038497045FAD08A6818680138FDD889684B
S11330109142EDD01A6852081A601A6809200138E2
S113302020D052081ED01968114319602D49D1F8D7
S113303008B0D1F808C0DFF8ACE0E345F9D02B497B
S1133040DEF808C0D1F800B0BBF1010BFCD8DEF803
S113305008E0E6451EBFD1F800E02EEA020EC1F8F2
S113306000E0DCE72B6823B11D4A013B136003B980
S113307062B6BAF1000F08D018480199FEF762FA57
S1133080184B009A1A605C6202E05046FFF700F8A1
S1133090B8F1000F03D011480021FEF713F8032FF5
S11330A003D00D483946FEF75BFB26B901203146B3
S11330B03246FEF7D7FAB9F1000F03D005480021D4
S11330C0FEF700F807B0BDE8F08F00BF20B10000A4
S11330D000400E400005080005001E008009100095
S11330E0180200200020044000E100E0E00000207D
S11330F003460849002B0CD0013B882212020032FF
S113310053430A68D80AD20A5043800901D00138CF
S1133110FDD87047E000002010B588B000210D22D2
S113312004A804F003F901240B22002101A88DF85E
S1133130104004F0FBF8022323488DF80A3021469E
S1133140FDF7C0FF21484FF6FF73C361002101AAB8
S1133150FFF722F800238DF812301C4804A9FEF76B
S1133160D5FF1B48FEF7C4F89DF81230194AD84021
S11331700133DBB20A2B10608DF81230144602D8EA
S1133180154B9842E9D81548FEF7B2F82268144B5B
S1133190B3FBF0F313480021E2FB0301124A0023BE
S11331A003F09AFC114B094A1860114B0020187067
S11331B0936923F0100393610E4B4FF48062C3F8BC
S11331C080211A6008B010BD000204000080014094
S11331D0404105003403002080841E00500002009A
S11331E000B0710B20A1070040420F003003002003
S11331F03803002000E100E0054BDA68D20641BF45
S113320010225A61034B012248BF1A70704700BF55
S11332100080014038030020084B1A7810B50AB129
S1133220002010BD0122064C1A7054F8043F002BF4
S1133230F6D098470028F8D010BD00BF6C030020DA
S1133240E00000200E4B1B7830B5ABB1002815DC34
S11332500C4B2C2202FB003303F128050A461C46C2
S113326003CCAC4210605160234602F10802F6D14F
S113327020681060002030BD034830BD034830BDD5
S11332806C0300204003002005001180020011801F
S1133290104B1B7830B5C3B10F4B1968002916DCED
S11332A04A1C1A600D4A03462C2000FB012203F13C
S11332B0280518685968144603C40833AB422246EB
S11332C0F7D118682060002030BD054830BD05489E
S11332D030BD00BF6C0300203C03002040030020ED
S11332E00500118001001180802910B50DD1084915
S11332F008480C6804EB021282424FF000008BBFB6
S113330018601C6004480A6010BD044810BD00BF6A
S1133310EC0000206D0B00200100118002001180E0
S1133320004870470400118008B500F023F900F04C
S1133330DBF8002008BD70B50E461D460024AC42E3
S113334006EB041005D00021102203F0EFFF013436
S1133350F5E7002070BD2DE9F3410F4603200E214F
S1133360099E00F033F9062000F009F9089C0134A5
S1133370A4B202AD230243F0010325F8023D022169
S1133380284600F0D9F84FF00008B04507EB0810C4
S113339016D0102100F0D0F8731E98451DBF631C91
S11333A043441B024FF6FF7318BF43F0FF03284644
S11333B00221ADF8063008F1010800F0BDF8E4E799
S11333C0022000F0DCF80E21032000F00DF90020AB
S11333D002B0BDE8F08108B50D21032000F012F918
S11333E0002008BD08B5032019B10F2100F0EEF844
S11333F002E00F2100F0F8F8002008BD10B58CB0F1
S113340000F0B8F800F070F800F0C8F80022134695
S11334100821022000F0CCF80022134606210220E5
S113342000F0C6F8002213460E21032000F0C0F875
S1133430002213460F21032000F0BAF800220D21C8
S11334401346032000F0B4F81F480021802200F046
S11334509BF8002835D11D4B019301238DF81430BE
S11334608023029304930393194B0693194B0793F8
S1133470194B0893194B0993194B8DF815000A93AE
S113348001A8184B0B93FFF703FF0446C0B90F21A3
S1133490032000F09BF80E21032000F097F806208B
S11334A000F06DF80CA80423022120F82E3D00F052
S11334B043F8022000F063F803200E2100F094F892
S11334C020460CB010BD00BFD733000029B1000066
S11334D0E5330000E93200002133000057330000D7
S11334E0373300002933000030B50F4D0FCD87B0BE
S11334F06C460FC495E8030084E803000B4C0C48A9
S11335000121FDF7DFFD0B4B029320466946FEF7D0
S113351029FF0A236367A36F23F01F2343F00B23C0
S11335200020A36707B030BD40B100000004014093
S113353000320400E067350038B505460C4684B116
S1133540012C0B4801D0EA0705D515F8011BFEF73D
S113355051FF013CF3E735F8021BFEF750FF023C34
S1133560EDE7034B1B699B06FBD5002038BD00BF6C
S11335700004014008B5FFF7D7FC002008BD08B5DA
S1133580FFF7B6FD002008BD08B500F0D7FB002802
S1133590014808BF002008BD0200138008B5034895
S11335A00121FDF78FFD002008BD00BF00250800A4
S11335B010B514462AB9C0B20422FEF709FD20460C
S11335C010BD014810BD00BF010013803023C0B2FC
S11335D05843044B034401EBC301890001230B60EE
S11335E0002070470CA010423023C0B25843044B53
S11335F0034401EBC301890000200860704700BF49
S11336000CA01042012303FA01F2C0B23023584344
S113361000F1804000F520408261002070470000E6
S1133620044B1B781BB1044B03600020704701203E
S1133630704700BFAC0B0020A00B002070B50D4CF0
S1133640247884B10C4C26888518B5420DDC668834
S1133650CD18B54209DC52B14BB1A080E180228182
S11336606381002070BD012070BD042070BD052061
S113367070BD00BFAC0B0020A00B00202DE9F74F5C
S1133680534A0D9E1278002A00F09C80514A156816
S1133690002D00F09780504A547C002C40F0948018
S11336A09468127C012A4D4A1CBFB3FA83F35B0968
S11336B01F1C4FEAD404D388009401EB030818BFFD
S11336C00127009BC7F100091FFA88F85FFA89F9FE
S11336D003FB08554FF0000C9246002E70D0BAF848
S11336E00840BAF80430241AB44228BF34461844B7
S11336F0072CA6EB040680B21CD8044467B1A04290
S11337004BD2C20800F0070101238B40A95C0130B1
S11337100B43AB5480B2F2E7A0423ED2C10800F0A2
S11337200702012393406A5C013022EA03036B54CD
S113373080B2F1E74FEAD00E10F0070005EB0E035C
S11337400FD00122824015F80E10013AD2B229EAB4
S1133750020B0A404BEA020B083805F80EB001339D
S113376004445FEAD40B0DD0184649465A46CDF8B6
S113377004C003F0DBFDB4EBCB0403465B44DDF88B
S113378004C00AD00122A2401978013AD2B221EA37
S1133790020102EA09020A431A700CEB08035911E8
S11337A00F4A03F01F030120984052F821300343CD
S11337B042F82130009B0CF1010C1D4400208CE7E1
S11337C0304602E0012000E00A2003B0BDE8F08F9B
S11337D0AC0B0020700B0020740B0020A00B002009
S11337E05013002070B50A4C05460A4823468669E2
S11337F04168C268B04723683BB12B60FF211022A7
S1133800054803F093FD002070BD0B2070BD00BF80
S1133810700B0020740B002050130020F7B5174ED6
S113382033781BBBFFF7F8FC044608BB144D29464C
S1133830FFF708FDF8B9134F3846FFF7D3FF0446E6
S1133840B0B93B68B3B1104BA988AA8919805A80D2
S113385019815A819880D8804A4301233370019298
S11338600090014602460346FFF708FF002002E0ED
S1133870204600E00B2003B0F0BD00BFAC0B0020DD
S1133880740B0020700B0020A00B00202DE9F743DF
S1133890234E244FB5683C680023ED084FF001081F
S11338A01946F2681E4803EB0109914520D214F031
S11338B0010201D0013312E083B1DFF86CE0DEF8DD
S11338C000E08DE80A0005FB01E1D0F820C0436860
S11338D0E04708BB09F10101034600E001315A1831
S11338E0D2060ABF57F82840640808F10108D8E74F
S11338F033B90C480021102203F018FD00200BE01E
S1133900094A12688DE80A0005FB0121046A43682C
S11339100022A0470028ECD003B0BDE8F08300BF2C
S1133920740B002050130020700B0020F8B50C46D7
S1133930054638B331B308688A68904224DA496886
S1133940E368994220DA2E68B788B8421EDBF7880C
S1133950B9421BDB3789974218DD76899E4215DD13
S113396089B280B20B4402440132013392B29BB259
S1133970FFF764FE211D0EC92668EE6029616A61A5
S1133980AB61F8BD0520F8BD0420F8BD0320F8BDE7
S113399030B5054687B0E8B1002343606FF07F433C
S11339A0836001A8FFF73CFEB8B9019B2B601A881D
S11339B05B8802900390013A013B284602A90492D5
S11339C00593FFF7B3FF044630B92846044900F0D5
S11339D04DF901E0052000E0204607B030BD00BFEE
S11339E058B1000030B1036800201A885B88014692
S11339F0FFF724BE0520704737B5054690B14468EB
S1133A00FFF7F0FF014670B92A68E3B200935589C5
S1133A1013896B430193C4F30742C4F30723FFF7ED
S1133A202DFE00E0052003B030BD73B50E461546EB
S1133A30044688B10C3000F02FF878B1A368DAB2EC
S1133A40009201220192B0B2C3F30742A9B2C3F3B8
S1133A500723FFF713FE02E0052000E0012002B077
S1133A6070BD73B50E4615461C4680B10C3000F08F
S1133A7013F870B1E3B2009301230193B0B2A9B279
S1133A80C4F30742C4F30723FFF7F8FD02E005205F
S1133A9000E0012002B070BD78B1036899420BDBED
S1133AA08368994208DC43689A4205DBC068824215
S1133AB0CCBF002001207047002070472DE9F04F53
S1133AC085B09B469DF83830029392460446002800
S1133AD000F08980A1F12005EBB25E2B00F2858015
S1133AE090F82830022B06D13A2906D0202906D096
S1133AF030398DB204E0ADB202E00A2500E00B25B6
S1133B00238CAB4271DDE36900934FF00008474614
S1133B1094F825301FFA88F2934201925FD994F801
S1133B202230012B05D0022B07D1009B33F81590CE
S1133B3006E0009B13F8059002E0009B33F8259003
S1133B404FF0000C94F824301FFA8CF6B34228D9B5
S1133B5019F0010F0AD0019BCDF80CC020460AEBE6
S1133B6006010BEB0302FFF760FF0BE0029B7BB146
S1133B7020460AEB06011BFA88F26368CDF80CC0F4
S1133B80FFF76FFF012831D8DDF80CC000B9013709
S1133B904FEA59090CF1010CD4E7029B4BB90136E9
S1133BA0B6B294F8242094F8273013449E42F4DBF0
S1133BB00EE0019B20460BEB03020AEB060163684F
S1133BC0FFF74FFF012811D80028E8D10137E6E7B5
S1133BD094F823100D44ADB208F1010898E7B7FA40
S1133BE087F0400902E0052000E0022005B0BDE8AE
S1133BF0F08F2DE9F74F0C9E9DF834A09B460546A7
S1133C0070B369B390F8283063B30C4601EB020932
S1133C105F464FF000084C451ED014F8011B0A29DA
S1133C2007D195F825301E4495F826305F461E448A
S1133C30F1E7CDF800A028463A463346FFF73EFFA9
S1133C40012810D808B908F1010895F8242095F83E
S1133C50273013441F44DEE7B8FA88F0400902E035
S1133C60052000E0022003B0BDE8F08F08B578B16C
S1133C701C3019B9102203F059FB09E001F11003BB
S1133C8051F8042B40F8042B9942F9D1002008BDC7
S1133C90052008BD10B5FFF7BFFA00B1FEE7FFF736
S1133CA0BDFD00B1FEE7084C2046FFF771FE00B1F0
S1133CB0FEE76FF07F43A060636020460349BDE8E0
S1133CC01040FFF7D3BF00BFB40B002058B1000071
S1133CD0FFF7DCBD08B50548FFF78EFE044B05224F
S1133CE01A60044B02221A6008BD00BFB40B002006
S1133CF0E00B0020B00B002073B50D4C0D4D0646B3
S1133D0004F0EEF923680093002301930A4B024662
S1133D10314628461B68FFF76CFF95F8263095F866
S1133D2025201A4423681344236002B070BD00BFE9
S1133D30B00B0020B40B0020E00B002000207047E3
S1133D402DE9F74F81460C467B2017469A4603F02F
S1133D50CFFF1CB14048214603F0B2FF0024BB460C
S1133D60A046002F5ED058462C2104F0ABF907463C
S1133D7010B1CBEB000603E0584604F0B1F9064657
S1133D80364DC8F58073F21C9342454448D3681EEF
S1133D905B461946CBEB030446B10A780A2A03F1C1
S1133DA0010303D100F8012F013EF2E77B232B55D9
S1133DB00134324626442819741C03F091FA4FF05A
S1133DC07D0B002305F806B028462B553A2104F054
S1133DD079F9064618B9B9F1000F1BD12FE0431C3D
S1133DE018463A21019304F06DF958BBB9F1010F5B
S1133DF0019B07D1AE1B3444681C1946224603F0CC
S1133E007AFA07E0B9F1020F01BF741B86F800B01B
S1133E1070700134002C05DBA04407F1010BA0E70E
S1133E206FF00A040D48514604F080FA002C04DABD
S1133E3061420B4803F044FF07E0002405E06FF003
S1133E400B04EFE76FF00C04ECE7064803F0DCFF2B
S1133E50204603B0BDE8F08F88B40000E40B0020D6
S1133E608FB400008DB400000EB403B503AB01465B
S1133E7053F8042B01930020FFF762FFB0FA80F09F
S1133E80400902B05DF804EB03B070470CB473B59D
S1133E9006AB044653F8046B01937B200D4603F0F4
S1133EA027FF1CB10D48214603F00AFF0C4803F01C
S1133EB007FF0199304604F039FA7D2003F018FF1A
S1133EC02946084803F0FCFE074803F09DFF012043
S1133ED002B0BDE8704002B0704700BF88B4000073
S1133EE0A4B40000ACB400008DB40000184B1B78DF
S1133EF010B5184C43B3782826DD174AD2F804319C
S1133F0023F45F4323F07D03C2F80431D2F81C315B
S1133F1023F45F4323F07D03C2F81C31D2F804116B
S1133F209338052390FBF3F309339B0041F4574185
S1133F301943C2F80411D2F81C1141F457410B4340
S1133F40C2F81C31012300E00023236010BD00BF30
S1133F50F00000208C12084300400840124BD3F8B4
S1133F60002122F00602C3F80021D3F8002142F018
S1133F700402C3F80021D3F80C2122F00702C3F88D
S1133F800C21D3F80C2142F00502C3F80C21D3F81C
S1133F90082122F0C002C3F80821D3F8082142F016
S1133FA08102C3F80821704700400840134BD3F83E
S1133FB0002122F00602C3F80021D3F8002142F0C8
S1133FC00202C3F80021D3F80C2122F00702C3F83F
S1133FD00C21D3F80C2142F00602C3F80C21D3F8CB
S1133FE0082122F4800222F0C102C3F80821D3F888
S1133FF0042122F44042C3F80421704700400840E1
S1134000094BD3F8242122F4EE42C3F82421D3F837
S1134010242142F48A42C3F82421D3F8202142F017
S11340200102C3F82021704700400840054B1B786B
S1134030022B01D1FFF7E4BF012B01D1FFF7B6BF7B
S1134040FFF78CBF6013002030B5204A204DD2F812
S113405088212B68D24323F0F95323F4FE13C0F3D1
S1134060431102F4FE12B2FA82F2C2F1130243F4D3
S11340707F53914243F0080300F4004405D811B380
S113408010F01F0008BF012002E0E2B111461F201A
S113409001228A40013A43EA0063D2B243EA8233FE
S11340A02B600C4B40EA4110D3F8082134B142F4A0
S11340B08002C3F8082140F4004030BD22F480029D
S11340C0C3F8082130BD01210846E1E700400E4055
S11340D0C00F002100400840B1F900309842A8BF49
S11340E01846A0F1C803282293FBF2F25242072A91
S11340F0A8BF072201EBC2010028B1F90630896884
S113410000FB0313C8BF03F5FA73072A4FF47A7050
S1134110B3FBF0F005D0034B1B78022B18BF40F41F
S11341200040704760130020012331F8332082429D
S113413002D30133082BF8D1013B01EBC30120F476
S113414000404FF47A7358434B68C01A0028C8BF24
S113415000F5FA70B1F9023090FBF3F070470000FB
S113416010B5184C184A2168822821F47F5323F093
S1134170080311DCC1F3873143EA81131E2823604D
S11341800FDCD2F8083123F00103C2F80831D2F869
S1134190203123F001030EE043F47F5343F008037E
S11341A02360D2F8083143F00103C2F80831D2F891
S11341B0203143F00103C2F82031BDE81040FFF77D
S11341C095BE00BFC00F00210040084038B51E4D09
S11341D0B5F9043018442B78012B13D11B4B1C4A1E
S11341E01B681A4006231B4931F91340A04201DA27
S11341F0013BF8D131F91340013342EA0363134A16
S1134200136016E06C780BB9234600E0A31C124A35
S1134210442404FB03242146FFF75EFFFFF714FF49
S1134220212802D1B4F9024003E0211DFFF77CFFED
S113423004462046FFF794FFAB88E41A034B6C80D6
S11342401A68064B1A6038BD60130020C00F0021A5
S11342503F00C0E0CCB50000BCB40000E40C00207A
S113426008B5FFF7B3FF024BB3F9020008BD00BF66
S11342706013002010490B685A0810B523F47F130B
S113428002F4FE1423430B6000F088FE0B4B38B19C
S1134290D3F8002122F47F122243C3F8002106E060
S11342A0D3F8182122F47F122243C3F818214FF0C7
S11342B00072DA6110BD00BFC00F00210040084049
S11342C0044B1A68044B1A60044A136A23F080638F
S11342D013627047E40C0020C00F00210040084026
S11342E008B500F05BFE0C4B40B1D3F8002122F07E
S11342F0004222F40012C3F8002107E0D3F8182189
S113430022F0004222F40012C3F818211A6A22F0A3
S113431000621A6208BD00BF00400840014BD88803
S1134320704700BF60130020064B4268DA669A6E3D
S113433022F47F6222F00F029A66996E02680A43A1
S11343409A66704700600840F0B50E4CE06EE26E6D
S1134350E16EA56EA76EA66EC0B2C2F30724231A3F
S1134360C7F303129340C1F30742121BC6F30321A0
S11343708A40521102EB631305F00F02904003EBE5
S11343806010F0BD0060084073B51F4D2B78022B00
S1134390044604D0012B0CBF3226B42600E0962636
S11343A00CB9012318E0FBF749FFFF234FF47A729D
S11343B0B0FBF2F04443B4FBF6F46401B4FBF2F254
S11343C01AB101335208DBB2FAE75BB20F2B02DCFD
S11343D0002B01DAE5E70F231B026846360400933D
S11343E00196FFF7A1FFFFF7AFFF0446FBF726FF97
S11343F042F2107363436422B0FBF2F0B3FBF0F0BB
S1134400E88080B202B070BD6013002008B500F0EF
S1134410B5FD01380D4B052812D8DFE800F0031173
S11344200C0C0E0E0A4A1278012A4FF0440205D0F1
S11344300021996007E0002200E033229A6002E044
S1134440F7229A60A2225A6008BD00BFC00F002163
S11344506013002010B5044608B9002010BD00F018
S1134460CBF90C221C48002102F060FF23781B4A80
S1134470022B04D1D2F8883113F4001F11E0012B70
S113448004D1D2F8883113F4400F0AE0144B5B6A6C
S1134490D2F8882103F0010383F0010302F48002BF
S11344A01343DAD10F4A2368136063685360E088CA
S11344B0FFF76AFFFFF7BAFDB4F90200FFF7D0FE79
S11344C0094AD2F8583123F00703C2F85831FFF7EC
S11344D09DFF012010BD00BFC00F002100400E4011
S11344E0B081E00F601300200040084070B504461E
S11344F000284BD02648012100F0AEFE01212548BA
S1134500FCF7E0FD244B62681A60244B2578F822FE
S1134510DA67A27BE17A120442EA0122217A0A4391
S11345209A677DB91E4A207B0221116007225A67CF
S1134530617B04222B46FDF74BFDE07B217C0422AA
S11345402B4609E0012D0AD1154AE07B15600522AE
S11345505A67217C04220023FDF73AFD0EE0022D68
S113456005D10F4A0521116001225A6706E0032D87
S113457004D10B4900220A605A6770BD607AA17A9F
S113458004220123BDE87040FDF722BD70BD00BFC9
S11345900034060000250800EC0C00200000084050
S11345A0E80C002038B50E4D0E4B2868DC6F48B17E
S11345B00D4800F06FFE2B6800EB5300B0FBF3F0E6
S11345C001380002094B01221A60094A24F47F438E
S11345D0126823F0030313431843024BD86738BD12
S11345E0EC0C00200000084000340600F8120843D8
S11345F0E80C0020044BD3F89430002BBCBF034BD1
S1134600C3F88000704700BF004008400000084025
S113461072B6044B1A68511C1CBF01321A60186828
S1134620704700BF18020020034B186818B1013806
S1134630186000B962B670471802002070B50C46C5
S1134640154606462544FFF7E3FF2146A94209D053
S11346503023734303F1804303F5012311F8012B45
S11346609A61F3E7BDE87040FFF7DEBF302358439B
S113467003F1844303F5C01303F6F87303445B01A9
S113468001221A6070470160704703681943016092
S1134690704703685940016070470368194001601E
S11346A0704738B505460C46FFF7B2FF2B68234028
S11346B0A342FBD1BDE83840FFF7B6BF10B520EAEE
S11346C0E074084800F0E6FD4FF47A73B0FBF3F0B1
S11346D0444304F57A644FF4FA50B4FBF0F080B22A
S11346E010BD00BF60510700084601F0A7BB00F1F0
S11346F0047001EBC001890001230B60704700F1D5
S1134700047001EBC001890000230B6070470000B6
S113471007B501A8FDF7E0FC154B164AC3F8442180
S113472048F2E672C3F838214FF40862C3F8342122
S1134730114AC3F8A0209DF80530012B0F4B05D179
S11347409DF80420012A9CBF28221A654AF63F429C
S11347509A600B4B4FF0C0729A62A3F5405300224B
S1134760C3F8FC20074AC3F89C2003B05DF804FB9F
S113477000400840C0E653117A27000F003008407B
S113478000700840806D6303F0B5164C4FF004557B
S11347906368E567012385B0C4F880300E46074698
S11347A0FFF736FF3946B200284602F099FDFFF7BD
S11347B03BFF0D4B23660D4C94E8070001AD85E8E3
S11347C00700002194220A4802F0B0FD95E8070092
S11347D084E807003C20FFF771FF064B4042186253
S11347E005B0F0BD00400840CC0F0021C00F0021EF
S11347F06C0F00219C0F002108B51148012100F025
S11348002BFD1048012100F027FD0F48012100F085
S113481023FD0E48012100F01FFD0D48012100F089
S11348201BFD0C48012100F017FD0B48012100F08D
S113483013FD0A480121BDE8084000F00DBD00BF8A
S1134840003406000004060000440600007406005C
S113485000640600005406000024060000840600DC
S1134860F8B500F1080454F8083C5A1C21D0C3F3ED
S11348700361124AC3F3074652F821109DB2012E78
S113488045EA01050BD954F8047CFFF7C1FE39460B
S1134890B200284602F024FDFFF7C6FE07E01B0F16
S11348A0074A54F8041C52F8233028469847083421
S11348B0D9E7BDE8F840FFF7A9BD00BFDCB50000AB
S11348C0E4B50000014B43F820107047F40C0020BD
S11348D0014B1B68184700BFF40C0020014B5B68B8
S11348E0184700BFF40C0020014B5B69184700BF58
S11348F0F40C0020014B5B69184700BFF40C002046
S1134900014B5B6A184700BFF40C0020014BDB69C4
S1134910184700BFF40C0020014BDB68184700BFA8
S1134920F40C0020014B9B68184700BFF40C0020D6
S1134930F8B50E460746002015461C46FFF796FEBE
S1134940002039463246FFF779FEC4B1C6F58072BD
S11349500B4992B294424F600E808D604C808A81E4
S11349604FF00000294605D9FFF768FE054B0122E8
S11349701A60F8BD2246BDE8F840FFF75FBEF8BDF7
S1134980C00E0020901D024300200146024603464B
S1134990FFF7CEBF38B50C4605460320FFF766FE89
S11349A0224603202946FFF749FE024B0422C3F89E
S11349B0B82038BD0010084000200146FFF7EABFC8
S11349C0034AD2F8EC3023F48063C2F8EC30704729
S11349D000100840044B002258601A8010B1034BA9
S11349E001221A60704700BFB80E0020802D0243D8
S11349F0014B5868704700BFB80E002008B5054B3E
S1134A00002201201A80FFF731FE0220BDE8084091
S1134A10FFF72CBEB80E0020234A70B5D2F8E03060
S1134A20D2F8EC402340C2F8E830D2F8EC401C4005
S1134A30600715D51D4EB5897288B168521B92B2B4
S1134A40E02A29444FF0000005D9E022E035FFF7C1
S1134A50F5FDB58104E0FFF7F1FD154B00221A6066
S1134A60610501D500F014FA124B23400BB1FFF796
S1134A70C5FF14F0090F04D00F4B01221A60FFF791
S1134A8083FFA20701D5FFF77FFF14F0106F04D056
S1134A90094B01221A60FFF78FFFA30103D5BDE87C
S1134AA07040FFF789BF70BD00100840C00E0020A1
S1134AB0901D0243000A0A00140108430D4BDB6CED
S1134AC013F0200F0CBF00200420D90644BF02308D
S1134AD0C0B21A0744BF0230C0B2590744BF023003
S1134AE0C0B29A0744BF0130C0B2DB0744BF0130F3
S1134AF0C0B2704700000840044BD3F88000C0F3F4
S1134B000C00022894BF00200120704700100840C8
S1134B10024B186DC0F30C00704700BF0010084032
S1134B20024B186AC0F30C00704700BF0010084025
S1134B30014B586CC0B2704700100840800000F16F
S1134B40804000F50020D0F8A03023F44073C0F872
S1134B50A030D0F8A03043EA0121C0F8A01070477B
S1134B6070B5354CFFF748FE0226344B2663636369
S1134B70AF236365324B266000256360314A42F2FD
S1134B8020036362256662663D22C4F884202E4AAF
S1134B90C4F890502846C4F894202946C4F8B43088
S1134BA0FFF7CCFF01202946FFF7C8FF304601215B
S1134BB0FFF7C4FF01210320FFF7C0FF234B1A6C4A
S1134BC022F0F0021A641A6C42F0A0021A64204B1C
S1134BD0204ADA60204B8022C3F8802128461A60DC
S1134BE0FFF744FD0120FFF741FD3046FFF73EFD8E
S1134BF00320FFF73BFDD4F8EC20184B1343C4F813
S1134C00EC30FFF7DDFEFFF783FD154AD2F898304C
S1134C1043F00303C2F89830124B02F14072A2F53C
S1134C209B42C3F8945001231360A2F5875213608A
S1134C30536042F8043C70BD001008406813002023
S1134C40340D0020340E0020760E002000000840B1
S1134C50F40C0020194A000000E100E00B0A0B0BE1
S1134C60006008400040084010B50A44914206D054
S1134C7030244443024B1B5901F8013BF6E710BDB5
S1134C801410084003460A4601201946FFF7ECBFFA
S1134C9013B504463CB10DF107000121013CFFF7B7
S1134CA0F1FFA4B2F6E702B010BD10B50446FFF759
S1134CB023FF28B94FF0FF33A0702370637010BD39
S1134CC0022021460322FFF7CFFF2388DBB2238093
S1134CD010BDFFF793BE0000632870B506D943F2F8
S1134CE0C823984228BF1846044600E06424094BB0
S1134CF0094E1C80FFF712FB201A85B228B2FFF779
S1134D00DDFC3082A5F1140000B2FFF7D7FC7082FD
S1134D10204670BDF00C00209C0F0021632870B564
S1134D2006D943F2C823984228BF1846054600E036
S1134D306425FFF7F3FA281A84B220B2FFF7BEFC09
S1134D40044E3081A4F1140000B2FFF7B7FC708167
S1134D50284670BD9C0F002170B50446FFF7DEFAAB
S1134D6043F2C82343F2C722944294BF22461A4610
S1134D70904203D9FFF7D2FA84B202E09C4228BFE2
S1134D801C46FFF7CBFA201A85B228B2FFF796FC2F
S1134D90044EB083A5F1140000B2FFF78FFCF0833A
S1134DA0204670BD9C0F0021632810B506D943F23C
S1134DB0C823984228BF1846044600E06424201FF4
S1134DC000B2FFF77BFC024B5861204610BD00BFC8
S1134DD09C0F0021632810B505D943F2C8239842DB
S1134DE028BF184600E06420044C2080043800B238
S1134DF0FFF764FC024B1860208810BD740E00207D
S1134E009C0F002110B543F2C824844228BF0446F5
S1134E1020B2FFF753FC024B5860204610BD00BF80
S1134E209C0F002110B543F2C824844228BF0446D5
S1134E3020B2FFF743FC024B9861204610BD00BF2F
S1134E409C0F002138B5FFF7E3FB0F4B0F4A1D6899
S1134E5094681B68EDB2DBB244F38914002B18BFCD
S1134E60002DA4B214BF01250025FFF7DDFBB4F526
S1134E707E4F02D1002DE6D103E0002D08BF4FF490
S1134E807E4420B238BD00BF004008400070084096
S1134E90F8B5FFF73DFE04463CB3FFF749FE1D4A53
S1134EA0136813B1013B13601DE01B490A6812B972
S1134EB01A4B1B78BBB1C0F30713194E194DF75C9D
S1134EC000F00F00013A335C28680A603B4450FA52
S1134ED083F315482B60036808330360FFF7B2FFC0
S1134EE0124B80101873013CD6E70F4B1A680F4B16
S1134EF059688A4238BF4FF0FF325A60094A9B68AA
S1134F0011680A4A994236BF4FF0FF3391609360AB
S1134F10F8BD00BF741400206C140020E00E0020C3
S1134F2004B600007014002068140020D00E002085
S1134F30104A936BC3F3C253013B032B9CBF0E492E
S1134F40C85C936B03F0070310B588BF0720042BDC
S1134F5009D8DFE803F003080806060000EB400464
S1134F6002E0C40000E08400FBF768F9B0FBF4F051
S1134F7010BD00BF006008401DB60000064B5B6B0F
S1134F8003F00700C3F3C50313F0070218BF50432F
S1134F90DB0818BF5843704700300840034BD3F870
S1134FA0380180F01000C0F3001070470040084042
S1134FB070B50446FFF7E2FF064600230EA1D1E9CF
S1134FC00001324601F06CFD0025844275EB0103BB
S1134FD00DDB324600230AA1D1E9000101F060FD96
S1134FE0A04271EB0503ACBF0120002070BD00207E
S1134FF070BD00BFAFF300800037178900000000C8
S1135000007DDAAC0000000010B50446FBF716F989
S11350106422B4FBF0F300FB13446243B2FBF0F0F0
S113502000B9013B0848026B22F4EE620263016B93
S11350305A080133013A5B0841EA0212013B42EA91
S11350400323036310BD00BF004008407FB5224A1C
S1135050224C10685168127A01AB03C320491A70BC
S11350600868204A2049936B096800FB0310136BFE
S113507013F4801F1D4B1B6804AA08BF5B4218442D
S11350801B4BB0FBF3F3134404A913F80B3C194A6C
S1135090D840B0FBF2F20A44D4F8A41012F80B6C16
S11350A0154A21F4775121F03F011568C4F8A41082
S11350B0D4F8A41000EB550241EA0333B2FBF5F235
S11350C0013A134343EA8623C4F8A43004B0BDE88C
S11350D07040FFF799BF00BF14B6000000400840BD
S11350E084140020003008407C1400207814002030
S11350F040BE4025401B5F13F40000202DE9F84317
S11351000D460446FFF73AFF06462046FFF750FFD8
S1135110324B334FD3F83821012E0CBF22F010024A
S113512042F01002C3F83821FBF788F82D4B814672
S11351301C6074434A460023E004610B01F0CCFC7C
S1135140F862FFF7F5FE284BF2041860710BA2FB1E
S1135150002300FB01331946104600234A4601F0A0
S1135160BBFCD7F83080214BC0F3130008F480183F
S113517040EA08003863E8041D60A0FB06016B0BDD
S113518006FB03114A46002301F0A6FC184BF86302
S11351901A781AB93A6D02F03F021A700F4AD2F81F
S11351A09420D20616D5134AB4FBF2F41A78124BA3
S11351B004FB04F1534340F253524A434CF20C6152
S11351C001FB142404F5C91404F55564B3FBF4F489
S11351D0034B1C65BDE8F843FFF738BF00400840A7
S11351E0003008407C14002078140020841400202F
S11351F08014002000366E0180969800084B5B688E
S1135200C3F30363042BF9D00A2BF7D0054B98633F
S113521019B103F5805380229A60FFF717BF00BFCE
S11352200040084000300840014B01221A607047DA
S113523088120843064B186000F5F42000F59070BE
S1135240044BB0FBF3F00338C0B2FCF79DBD00BFC4
S1135250F400002040420F00C0F30322012A10B5DD
S113526003460C4607D0042A01D1084A04E0BDE8ED
S11352701040FBF727BF064A02F10472C3F304335C
S113528003EBC2039B001C6010BD00BFC8400E406E
S113529000400E4008B500F47813B3F5802F1FD0FA
S11352A009D8BBB1B3F5003F32D1FAF791FF1A4BDD
S11352B0D3F808311EE0B3F5002F17D0B3F5202F33
S11352C01BD0B3F5C02F23D1FAF782FF124BD3F8CA
S11352D010310FE0FAF77CFF0F4BD3F8003111E0E7
S11352E0FAF776FF0C4BD3F80C3103E0BDE8084025
S11352F0FAF76EBFC3F3082306E0FAF769FF064B1B
S1135300D3F81431C3F304230133B0FBF3F008BD25
S1135310BDE80840FBF7ECBF00400E40C0F30313A8
S1135320062B01D0FBF70CBF024BD3F81001C0F3DE
S11353300820704700400E4008B5FFF791FA024B71
S113534001221A70002008BDE10E002010B50446A9
S113535000F076FB236898685968FFF7CFFEFFF7E3
S11353601DFE08B1084800E00848FFF763FF084B3A
S11353701A782AB100224FF480301A7000F0E8FB4A
S11353802368187810BD00BFC0CF6A00E0673500FD
S1135390E10E002001F0C2BA08B500F0FBFC00F0F9
S11353A01FFD08BD72B6044B1A68511C1CBF0132A4
S11353B01A601868704700BF18020020034B186871
S11353C018B10138186000B962B67047180200209D
S11353D007B501F059FA00F003FD02AB43F8040DE0
S11353E01846FBF7D3FC03B05DF804FB202000F063
S11353F05ABB022000F057BB042000F054BBC0B2DB
S1135400FBF7FEBC024B5868C0F30360FBF788BD92
S11354100040084008B5044B01221A7001F02AFB31
S1135420BDE80840FBF780BCEC0E0020012000F032
S11354308FBB0000012808D002280ED1074B1B683F
S1135440DA050AD54FF4807005E0044B1B689B0510
S113545003D54FF4007000F026BB7047E80E00201F
S113546030B5C10285B0044602D5402000F01BFBD4
S1135470A20201D5FBF755FD630337D501F000FB0C
S1135480002833D01A4B1B495C6B1A6BD1F88C1073
S113549040239340013BC1F381119AB2164B032977
S11354A01B688DF8041004F100540DD1002099B24A
S11354B0083901441140655C04A9014401300828FD
S11354C001F80A5CF3D10EE002290FD19BB2991EB8
S11354D01140013B615CADF806101340E35C41EA06
S11354E00321ADF8061001A8FBF71CFD05B030BD83
S11354F00010084000400840040F002110B5044685
S1135500042000F0BDFB61020FD52720FFF772F8DD
S113551001F06AF8124B1B6803F07F43B3F1007F7C
S113552018D1104B01221A6014E0E20204D528209D
S1135530BDE81040FFF75EB8E30410D500F036FC78
S1135540094BDB6D13F4A00F09D12A20FFF752F8A1
S113555001F04AF80420BDE81040FBF751BC10BD2F
S11355600C0F002104000843005008402DE9F047C7
S113557088B0FFF7A3FA804601A8FFF796FBBDF8B1
S113558004504FF6FF739D4274D0C8EB0505ADB2CD
S113559005F10C00FBF7BAFC00240646AC4220D20D
S11355A004F10A09C4EB050A3046494602AACDF8BB
S11355B008A0FBF7AFFC029B074613B9CDF808A07F
S11355C01F46BDF80810384601F04CF8002F02467B
S11355D004444946304608BF0022A4B2FBF79CFCB1
S11355E0DCE703A9404601F04DF80C2730460021C2
S11355F002AA0297FBF78EFC044610B1029B0B2B08
S113560003D8002130460A462CE01C4B0581DA6E93
S11356101B6E027983F08003C3F3C01363F341026A
S1135620174B027101221A609DF81230027900337F
S113563018BF012363F3000202719DF81130437116
S11356409DF806300025C3F3C003D2B263F382028F
S113565085710271069800F0C3FBE571206029464C
S113566030463A46FBF758FC3046FBF7E1FB304640
S1135670FBF753FC08B0BDE8F08700BF000008400A
S11356801C0D0043024B01221A60102000F00BBADB
S11356901C0D004310B50446FAF7D0FD6368984228
S11356A01DD1104C01F07AF9237843F007032370DD
S11356B0A37843F01003A37000F062FAC30748BF55
S11356C0A378094844BF43F00203A37000F03AFFF3
S11356D0206800F085FEFBF721FC002010BD0120AE
S11356E010BD00BFE40E002024B60000012803D042
S11356F006D3022802D07047002103E0012100E014
S11357000021084601F052B8184B5B6803F070633F
S1135710B3F1C06F28D010D8B3F1407F24D005D89E
S1135720B3F1807F20D0B3F1007F04E0B3F1806F48
S11357301AD0B3F1A06F15D116E0B3F1106F0FD0EA
S113574005D8B3F1E06F0FD0B3F1006F07E0B3F108
S1135750306F05D0B3F1406F02D0B3F1206F01D1A7
S11357600220704700207047012070470040084025
S113577038B5FFF717FE032000F0ECFA18B1FFF775
S11357801DFE00251BE000F021FB05460028F6D194
S11357900C4B5C68FFF712FE14F0404F0FD104F07D
S11357A07063B3F1C06F0AD002D8B3F1407F04E054
S11357B0B3F1106F03D0B3F1406F18BF0125284631
S11357C038BD00BF0040084070B50646FFF7EAFD4B
S11357D00B4B01221A600B4AD2F8884014F480342F
S11357E01D4606D13068B18822462346FFF7A0F84B
S11357F000E0032400232B60FFF7E0FD204670BD8A
S1135800001108430040084008B5154A5378C0F316
S1135810400161F34103C0F3800161F38203C0F3EB
S1135820C00161F3C30353701378C0F3001161F333
S1135830C303C0F3401161F30413917810F4407F63
S113584041F00401917014BF0121002161F345135B
S11358501370044B1860106800F0C2FD002008BDEE
S1135860E40E0020E80E002010B5044600F0F4F821
S1135870012803D0A0686168FFF740FC002010BD38
S113588008B501F0F7F8054B9A786FF345129A7052
S11358901868BDE8084000F0A3BD00BFE40E002076
S11358A038B50C1C18BF01240229054603D1FFF7A3
S11358B0E7FF002038BDFFF775FD0C4B9A7842F0E6
S11358C020029A70186800F08BFD094B00222846CC
S11358D01A7000F08AFA214601F0C6F80446FFF770
S11358E06DFD84F00100C0B238BD00BFE40E00209D
S11358F0EC0E002001F0C1B870B5054600F0ACF81C
S1135900012817D0FFF734FF0C4B18B15A6812F076
S1135910706FF7D1596811F070640DD1084B1E688F
S11359202EB100F093F82844C0B22146B04728466F
S113593000F020FF002070BD022070BD0040084030
S1135940F00E0020094B1B6813F0FF0F10B504463E
S113595001D1FFF753F82046FFF7CEFF044618B9EC
S113596000F0E8FE204610BD022010BD00400840B3
S1135970024B1868C0F34010704700BF000F0021AD
S1135980024B80F001001860704700BF20110843EB
S113599070B50D4614461E46FFF7AEFF70B92DB123
S11359A0FFF7E6FF10B12878FFF7EAFF44B130466D
S11359B0A04740B1044B00221A6070BD022070BDA4
S11359C000F034FE204670BD2011084310B5044693
S11359D0806800F0011000F0A9F82046BDE81040EE
S11359E0FFF758BE0120FFF781BEFFF78DBE000010
S11359F038B5114B1B68044693B11868D8B15B687D
S1135A0073B100220588A1B28D4202D845888D4227
S1135A1008D201329A4200F10C00F3D1002038BDC3
S1135A20184638BD054C2368834202D02060FFF736
S1135A301BFF206838BD38BDF40E0020F80E00208E
S1135A40014B1860704700BFF40E0020014B1B6827
S1135A5018787047F80E0020014B1868704700BF93
S1135A608814002010B50446FFF7BFFF012804D0B6
S1135A702046BDE81040FFF7C7BE022010BD10B598
S1135A800446FFF775FE50B12046FFF7B1FF40B161
S1135A900078201AC0B2BDE81040FFF753BF0220BF
S1135AA010BD012010BDC0B208B1FBF701BA7047A8
S1135AB0FFF78ABE2DE9F04104460F4616461D46FF
S1135AC0FFF756FE68B12046FFF792FF60B10078F9
S1135AD0201A394632462B46C0B2BDE8F041FFF7E2
S1135AE057BF0220BDE8F0810120BDE8F08110B568
S1135AF00C46134600212246BDE81040FFF7DABFEA
S1135B0072B6044B1A68511C1CBF01321A60186823
S1135B10704700BF18020020034B186818B1013801
S1135B20186000B962B670471802002010B5044628
S1135B30FFF7E6FF044B1C60044B0022BDE8104055
S1135B401A60FFF7E9BF00BFFC0E0020000F002021
S1135B5010B50446FFF7D4FF074B084A1B681C40E6
S1135B60136823431360FFF7D7FF1CB1BDE810404F
S1135B70FBF7D5B910BD00BFFC0E0020000F0020BC
S1135B80014B1868704700BFFC0E002072B6044B2E
S1135B901A68511C1CBF01321A601868704700BF94
S1135BA018020020034B186818B10138186000B9B6
S1135BB062B670471802002038B5104D104C2846C4
S1135BC00121FFF749FB0F4B23602846FFF762FBD7
S1135BD00D4A4FF47A73B0FBF3F01060400200F505
S1135BE0FA70B0FBF3F020F0FF03A3F58073C0B2AA
S1135BF018436FF00043A062236338BD000406001D
S1135C000050084000110100F8000020044B4FF040
S1135C108052C3F880211A60024B01221A60704737
S1135C2000E100E080000A43054B4FF08052C3F8C6
S1135C308021C3F88020034B01221A60704700BF03
S1135C4000E100E088000A43024BD86800F001003C
S1135C50704700BF00500840024B00221A615A618D
S1135C609A61704700500840044B1A6B8142A1EBC3
S1135C7000033CBF01329B1818467047005008408F
S1135C80054B4202134400221A604FF48073034A06
S1135C9083405366704700BF800E0A43005008409B
S1135CA02DE9F84F054691460C46FFF76FFF28464D
S1135CB0FFF7E6FFB9F1010F04D1244B9B690133CF
S1135CC01C4402E0B9F1020F3DD0204B1E6BB442DC
S1135CD088BFA41B4FF4807888BF04F1FF34B60852
S1135CE008FA05F800272A01194BDFF860A09C5038
