S0120000647574796379636C655F322E7333377B
S11300000080002099010000C5010000C501000026
S1130010C5010000C5010000C5010000C5010000C4
S1130020C5010000C5010000C5010000C5010000B4
S1130030C5010000C5010000C5010000C5010000A4
S1130040C5010000B9550000C5010000C5550000F8
S11300500D560000DD550000D1550000015600008A
S1130060C5010000FD310000E13E0000293500001B
S1130070C5010000C5010000C5010000C501000064
S1130080C501000021320000C5010000C5010000C7
S1130090C5010000C5010000C5010000C501000044
S11300A0C5010000C5010000C5010000E9550000BC
S11300B0F55500008D3B0000C5010000C50100009E
S11300C0696C0000C501000010B5054C237833B9F4
S11300D0044B13B10448AFF300800123237010BD17
S11300E09801002000000000B0D70000084B10B5B4
S11300F01BB108480849AFF300800848036803B9F6
S113010010BD074B002BFBD0BDE81040184700BFC3
S113011000000000B0D700009C01002094010020E2
S113012000000000154B002B08BF134B9D46A3F5A0
S1130130803A00218B460F461348144A121A07F0DE
S1130140A5FF0F4B002B00D098470E4B002B00D07F
S113015098470020002104000D000D48002802D01B
S11301600C48AFF3008007F045FF2000290000F0A1
S113017081FB07F035FE00BF00000800008000206E
S11301800000000000000000980100205416002028
S11301900000000000000000064880470649074AA6
S11301A0074B9A42BEBF51F8040B42F8040BF8E720
S11301B0FFF7B8FF49020000BCD700000000002090
S11301C098010020FEE700BF0048704700F0490294
S11301D00D4AD2F8943003F00703032B0AD0042B02
S11301E003D0022B03D1094B02E0094B00E0094B79
S11301F0186801E04FF40040D2F80031C3F304233F
S11302000133B0FBF3F0704700400E4000000020C3
S1130210040000200800002008B5FFF7D9FF054BB3
S1130220D3F80831C3F308230133B0FBF3F0024BD6
S1130230186008BD00400E401C0F0020014B1868D8
S1130240704700BF00000020034AD2F8883043F40E
S11302507003C2F88830704700ED00E04FF40040AE
S113026070474FF47A707047014B1868704700BFAD
S11302700400002073B504460D46164642B107F04B
S1130280A9FD0022026001A9204608F067FE10E0E3
S113029007F0A0FD01A906603246204608F0E8FEFA
S11302A0ED000123AB40013B0340834201D0002019
S11302B00CE007F08FFD0368002BF8D1204608F00E
S11302C0BFFD019B1B1B1B1A5842584102B070BD55
S11302D000210A4608F0CCBE733904290FD8DFE8A0
S11302E001F0070E05030A00022105E0012103E0E5
S11302F00421012201E004210022FFF7BBBF0020FA
S11303007047000030B50C46631A9BB293420AD280
S113031014F8013B044D83EA102335F8133083EAC3
S1130320002080B2F0E730BD18B7000008B50749D7
S113033012220020FFF7E6FF05491222FFF7E2FF31
S113034004490422BDE80840FFF7DCBF2210002066
S11303500A100020260F00202DE9F04F87B08246B6
S113036002A80D4603F042F8814603A803F046F8BC
S1130370D5F804B070490746584608F035FDDDF855
S11303800C80044610B10024264625E06B482968F9
S1130390029E08F045FB6A4808F042FB44450AD037
S11303A014B1684808F03CFB57F83410664808F06C
S11303B037FB0134F2E7654808F0D6FB644808F0DF
S11303C0D3FB0024B44200F0B38059F834106148E0
S11303D008F026FB0134F5E744450DD007EBC403D0
S11303E057F834000193594608F0FEFC019B013490
S11303F0002808BF1E46EFE726B92868564A502150
S11304005B4666E0D5F80880544C4146204608F027
S1130410EBFC0746A8B9BAF1040F03D02868504A88
S113042051211BE0E8687721FFF756FF0028F5D03B
S1130430E86804948DF81470FFF74AFFADF81600CD
S113044029E0484C4146204608F0CEFC074620BB34
S1130450BAF1050F05D02868434A532104F08AFBFA
S113046066E0E8687521FFF737FF0028F3D02869B4
S11304707521FFF731FF0028EDD00123E8688DF8DE
S113048014300494FFF724FF8DF817002869FFF750
S11304901FFF8DF8160004AC22E03448414608F0F2
S11304A0A3FCC8B10027DDF808A03C4657450BD093
S11304B059F83700414608F097FC09EBC70B0028B0
S11304C008BF5C460137F1E74CB92868284A542133
S11304D0434604F04FFB2BE00127044600E00027CD
S11304E02448012101F0ACFC0022B079F1791346D3
S11304F002F02CFC47B1307902F088FF28681E49CD
S1130500326804F025FB13E023792BB1307971793B
S1130510E279A37902F082FFB079F1790422002311
S113052002F014FC286815493268236804F010FBB3
S113053007B0BDE8F08F00BFC5B90000CAB900001C
S1130540E7B90000EEB90000A9B90000F1B9000054
S1130550FCB9000036BA00003CBA000074BA0000CE
S113056057BA00009CBA00007FBA0000D3BA00005A
S1130570A7BA000000250800C5BA0000D7BA0000D9
S1130580062802D10122044B03E0072802D1034BC1
S113059001221A70704700BFBC010020D001002066
S11305A0024A138843F0010313807047620F00204E
S11305B010B590B004F002FA3A483B4C04F010FA3B
S11305C03A4804F00DFA3A4804F00AFA394B227812
S11305D053F8220004F004FA344804F001FA2378B2
S11305E0B3B9354804F0FCF9344B354A1B68402153
S11305F0684608F083FB684604F0F2F92B4804F0DF
S1130600EFF9304804F0ECF9684640212E4A3BE00B
S1130610012B17D1284804F0E3F92C4B2C4A1B6812
S11306204021684608F06AFB684604F0D9F91F487F
S113063004F0D6F9234804F0D3F968464021254A4A
S1130640254B22E0022B29D11B4804F0C9F9234B86
S1130650204A1B684021684608F050FB684604F0B5
S1130660BFF91F4B1F4A1B684021684608F046FB30
S1130670684604F0B5F90D4804F0B2F9114804F0E5
S1130680AFF9194A68464021184B1B6808F036FB3D
S1130690684604F0A5F9054804F0A2F904F08CF9C1
S11306A010B010BD28BB0000C8010020E6B900004E
S11306B03DBB00001C0000204EBB0000D801002000
S11306C05DBB00006BBB00007ABB0000C0010020D2
S11306D088BB000097BB0000B4010020B8010020D3
S11306E0DC010020A4BB0000B2BB0000C401002058
S11306F070B5104B93E807008AB001AE86E8070096
S113070003F10C0207CA183304AD85E8070093E827
S1130710070007AC84E8070031460320FFF71CFEFE
S113072029460320FFF718FE03202146FFF714FE95
S11307300AB070BDE8BA0000F8B507460E46144684
S11307401D4605F0E3FFFF2F0DD017F0010F1F4AE0
S113075034D11F4B03FB07F01E4B034493601E4B25
S1130760186805F067FC26B1012E05D11B4B98686B
S113077003E01A4B586800E0002005F051FC00B17A
S1130780FEE7164E94B1637820781B0443EA0063B5
S1130790E0780343A07843EA002001F065FA104BA7
S11307A05860F06805F03CFC00B1FEE70D4B306981
S11307B0013D5D6005F034FC30B1FEE7936803F55C
S11307C0F42303F59073C9E7F8BD00BF400000208F
S11307D020A1070000180D8F3C00002028000020F5
S11307E04C000020580000207FB5114B6A4603F1ED
S11307F010066C4618685968154603C50833B34299
S11308002A46F7D10B4A04AE1546234603CBB3421E
S1130810106051601C4602F10802F6D10549142209
S11308200020FFF76FFD25F8020C04B070BD00BF77
S11308300CBB0000220F002010B5044605F069FF30
S113084010B92046074909E0012802D1204606498B
S113085004E002280CBF054905492046BDE81040C4
S113086004F076B9BEBB0000C4BB0000C9BB0000E5
S1130870CFBB0000684BF0B5DB6C1B0E8E2B93B026
S113088015D86649664AD1F8B00040F00403C1F8AF
S1130890B0304FF05013136013631366C2F89030F6
S11308A0C2F8C030C2F8F030C1F8B00001E08F2BBC
S11308B006D15A4AD36A23F07F0343F02003D3625C
S11308C002F0C0FC01215748574F01F0B9FA042047
S11308D001F060FA02F05EFE012002F051FE0520F4
S11308E006210222012302F031FA0222012305200B
S11308F0072102F02BFA04F041F802F059FC06201B
S11309004A4902F063FC0720484902F05FFC0124D5
S113091006210A46052000230094019402F0CAF936
S113092007210A46002305200094019402F0C2F92D
S11309303F4805F0DFFE3E6805F0E8FE3D4B53F806
S1130940260005F09BFB3C4B53F8260005F068FBA2
S11309500546D0B104F032F8384804F041F838487C
S113096004F03EF84021374A234602A808F0C6F9AD
S113097002A804F035F8324804F032F8324B5868D3
S113098004F02EF804F018F8FEE7304B53F8260074
S113099005F050FB10232E4A3E6008202946FFF73D
S11309A0CBFE2C4E2946762005F008FF21462A4628
S11309B0204605F0EBFEFFF79BFEFFF7F9FD01F083
S11309C0F1F902F07DFF304602F05AFF009540F63F
S11309D0C412214B3068214602F0F6FF01F09AF868
S11309E0FFF702FF1D4B02225A801D4A138814464A
S11309F03BB1D907F9D583F00103138000F06EFBF6
S1130A00F3E72388002BF0D1012001F007FF4FF416
S1130A107A7003F0E1F9F4E7B081E00F00400E4092
S1130A2000A0004000250800CC0100208105000042
S1130A301CBB0000E00100202800002028BB0000AF
S1130A40E6B90000D3BB0000100000203C000020E9
S1130A500C00002004110020A1050000A60F0020B6
S1130A60620F0020164B1B783BB916490A68013205
S1130A700A60154A1370FFF79BBD012B11D113496E
S1130A8011480A68952ADDBF01320A600522002355
S1130A90D9BF02700E4A0B600323D4BF13700370D6
S1130AA07047022B0AD1074A136801331360094ABD
S1130AB0136801331360044B00221A70704700BF9F
S1130AC0C8010020C4010020D1010020D40100206D
S1130AD018000020DC010020084B1B78012B05D1F5
S1130AE0074B1B68952B07DC052203E010F0060F6B
S1130AF002D00022034B1A70704700BFC8010020C7
S1130B00D4010020D1010020104B1B7893B9820737
S1130B1041BF0F4A012313700E4A48BF13704307A5
S1130B2042BF0C4B02221A7010F0700F0CD000223E
S1130B30084B08E0012BF7D0022B05D1054B062208
S1130B401A70034B01221A70704700BFC8010020BD
S1130B5018000020D1010020004870470C1100202B
S1130B600844704770477047704770477047704734
S1130B707047000010B505F033FD18B91E4B1B7803
S1130B80002BF8D01D4B187910F0010007D105F0A7
S1130B9022FE1B4A137843F00103137025E0194C1D
S1130BA0237803F0E003C02B4FF000004FF018024D
S1130BB0214603D1FFF7A6FB134902E0FFF7A2FB8E
S1130BC012490422FFF79EFB238B114C834207D06A
S1130BD0002005F000FE237943F00203237104E0B2
S1130BE005F0C4FC0023237103E005F0F9FC0028A0
S1130BF0C1D0074B187910BDE50100200C15002069
S1130C00E601002034100020220F0020260F0020CF
S1130C10A60F002013B5044605F078FD00230093C9
S1130C20054B4FF4FA621868044B0121624302F049
S1130C30CBFE02B010BD00BF04110020A1050000CE
S1130C4037B52C4C019010230D46237005F0D6FCCB
S1130C5008B105F08BFC05F059FD2846022101AAD4
S1130C601A23254DFFF768FD0020287005F0B3FD19
S1130C702248012105F08AFC05F0B2FC10B92B785A
S1130C80002BF9D01E4B187910F0010004D005F0A8
S1130C906DFC0023237009E005F09DFD237843F0EB
S1130CA00103237005F09CFC0028E5D0154B164881
S1130CB01A786FF300021A70144B00211980144B38
S1130CC01970144B1980144B1970144B1980144B60
S1130CD01A7861F382021A70124A137803F0F90346
S1130CE061F3C7131370122207F0D0F9207803B010
S1130CF030BD00BFE6010020E5010020E0930400C0
S1130D000C150020A20F002022100020600F0020EC
S1130D10AC0F0020521000207A0F0020AE0F0020EC
S1130D20AD0F0020E810002003460A4A5968006805
S1130D3003C2094903F10A02223352F8040B41F8B1
S1130D40040B9A42F9D113880B80044B01221A70C8
S1130D50704700BF0C15002034100020E50100206E
S1130D60014B01221A707047E701002010B50446B8
S1130D7005F044FC08B105F0F9FB0A2060430121A9
S1130D8005F004FC05F02CFC0028FBD010BD00008D
S1130D9008B505F0BBFC054B1A88052A84BF053A43
S1130DA01A801888BDE80840FFF7E0BF081000204B
S1130DB0F7B500238DF807300378AC4D03F0E0035A
S1130DC0602B044600F02E8107D8202B2BD0402B1B
S1130DD03ED0002B40F01F8111E0A02B7FD003D820
S1130DE0802B00F0E28016E1C02B00F09A80E02B0B
S1130DF040F011819E4A138843F004038FE02B8056
S1130E00C378742B40F00E8190F90230002BBEBFE2
S1130E10427801239340974AB8BF2B80137843F05C
S1130E2004031370FEE04278012393402A8813439D
S1130E30914A2B8000F11801031D53F8040B42F86A
S1130E40040B8B42F9D18D4A138843F4007366E096
S1130E5043788B4E012101FA03F22B8813432B8034
S1130E60C378884803F0070213F0F00F8DF80720C9
S1130E70824B854A08D085491160318B01821988DB
S1130E8041F4807119801FE09DF80770368B20F8BB
S1130E9017609DF8070081401888014319809DF868
S1130EA00730032B8DBF9DF807309DF80710784B52
S1130EB0043B81BFDBB28DF807309DF80710754BFA
S1130EC0142000FB013313601268231D04F1180180
S1130ED053F8040B42F8040B8B42F9D1A2E0654AA3
S1130EE0137843F0020313704278012393406A4A53
S1130EF02B8052F80419694B12689960D0F80310DA
S1130F005A60C27A9A73027BDA73427B9A741A73B8
S1130F10827B5A73594A1960138843F4006313801F
S1130F2080E05F4E378842F220039F420DD15D4A34
S1130F3040781075012106321A23FFF7FDFB5A4849
S1130F40012105F023FB37806CE0102F06D8202305
S1130F507380337943F02003337163E0514AD07BCB
S1130F60A023B0FBF3F103FB1103DBB28DF80730D0
S1130F709DF807309DF8071004EBD30301F0070137
S1130F809B780B41D80701D420230CE060781075BE
S1130F901A2301210632FFF7CFFB4448012105F053
S1130FA0F5FA4FF4007373803CE0324A137843F04F
S1130FB0800313704278012393402A8813432B80C3
S1130FC02D4B1A8883889A422CD183894BB12346AE
S1130FD0374A53F8071F116099889B799180937160
S1130FE004E0437A13B96389002B71D0E289237C2E
S1130FF03AB130490A80304A002111702F4A1370E7
S113100004E0FF2B0ED12C4B02221A70184A1388CD
S113101043F0200383E7224B40225A801A7942F09E
S113102020021A71288800F03BFD254B254A1870D0
S113103094F90230002BBFBF2349637813700B78F7
S1131040BCBF43F004030B701378834244D11E4A9F
S11310501378590740D500211A4861F382031370AD
S11310600170FFF763F9194B188035E0600F002019
S1131070620F0020E81000200A1000205210002007
S1131080341000202210002004100020820F0020C1
S1131090B10F00207F1000202A0F0020660F0020CF
S11310A0A60F0020200F002040420F0000093D0041
S11310B05D100020A40F0020B00F0020960F002028
S11310C0AC0F00207A0F0020AD0F0020AE0F0020DF
S11310D0237A002B8AD17AE703B0F0BD2DE9F043DF
S11310E085B0B84C6388C02B00F0D38321D8082B7B
S11310F000F0D8830CD8012B00F02A83C0F0B3840D
S1131100022B00F03B83042B00F0B48300F0AFBC4F
S1131110202B00F0E68304D8102B00F0CD8300F0E0
S1131120A6BC402B00F0E483802B00F0278400F061
S11311309EBCB3F5005F00F0F38113D8B3F5806F64
S11311402ED005D8B3F5007F00F0268400F08FBCC4
S1131150B3F5006F00F0E481B3F5805F00F0E08147
S113116000F085BC42F20602934200F02C840BD8B6
S113117042F202018B4200F0238442F204018B42CA
S113118000F01E8400F073BC42F20802934200F0A7
S11311904D8442F22002934200F0558400F067BC73
S11311A0894D2B7803F0E002602A284600F0D980AC
S11311B005D8202A0DD0402A00F02C81A9E1A02ACC
S11311C000F08D81C02A00F05581802A40F0A18171
S11311D086E07E4B19791823B1FBF3F203FB12135B
S11311E0DBB205EBD30003F00703827842FA03F382
S11311F0D90740F148836B78962B3FD004D83C2B19
S113120013D05A2B25D066E0A52B4CD0B42B62D139
S11312106B796F4A722B6F4B0CBF10210121117037
S11312201A8842F480721A802DE36B4A6B49137852
S113123043F0020313706B7903F00302C3F38203D8
S11312400133013202EB42024B7000230A708B70AF
S113125019E36B79624A3F2B04D113786FF345137A
S1131260137010E3117803F01F0341F02001117093
S113127001335C4AC3EB0313138005E06B79594ACD
S113128003F01F0301339370574A137843F010039C
S11312901370564A138843F4806313804D4A1388AD
S11312A043F00403EEE26A795149C2F3C103013306
S11312B0C3EB0313C3EB03139B000B804D4B0021C3
S11312C0197044490B8843F020030B804A4B02F009
S11312D007021A70D7E2237943F020032371D2E284
S11312E03A4FDFF8E480B946002659F8020F02901D
S11312F04146042230468DF80A60FFF703F80422C1
S113130002A9FEF7FFFFAB883C4A834220D13C4B45
S11313101670D7F80A209A60D9F800201A60D7F816
S113132006205A6098F801209A7398F80220DA731C
S113133098F803201A739A74FA7B5A732A4A13781A
S113134043F010031370294A138843F40063A4E79D
S113135013780133DBB2022B137040F286831670CC
S113136091E21A4A10791822B0FBF2F102FB110241
S1131370D2B205EBD20102F00702897841FA02F2F7
S1131380D20740F180826A7803F01F0342EA032304
S11313901C4A13806B791A090A2A98BF1A4903F068
S11313A00F0398BF8A5C194988BF02220A2B0A706E
S11313B09CBF154AD35C164A88BF02231370C0230E
S11313C059E300BFA60F002034100020200F002096
S11313D0E9100020620F0020AD0F002058100020FB
S11313E0E81000207E0F0020A20F002052100020E1
S11313F0A40F0020B00F0020960F0020E40100206D
S1131400660F00200810002084BE00005410002045
S11314109E0F0020AE4A16791822B6FBF2F102FBA9
S11314201162D2B205EBD20002F00702817841FAD0
S113143002F2D70740F127826A7803F01F0342EAD9
S11314400323A44A13806B791A090A2A98BFA24974
S113145003F00F0398BF8A5CA04988BF02220A2BBD
S11314600A709CBF9C4AD35C9D4A88BF02231370B8
S1131470042300E39649CD7BA023B5FBF3F203FBE1
S113148012532588DBB242F2080295424FEAD30296
S1131490104403F00703827842FA03F30FD1DE0706
S11314A040F1DD828F4B904A587808751A23022147
S11314B0FFF742F901218D4805F068F8FEE0DD07E9
S11314C040F10D82874B884A587808751A23022107
S11314D0FFF732F90121854805F058F8E7E0228842
S11314E0402A08D16A7803F01F0342EA0323794AA9
S11314F013808023BFE242F206018A4209D16A784E
S113150003F01F0342EA0323724A138042F20803E2
S1131510B1E2237943F0200323714FF48043AAE21C
S1131520704D2846FFF744FC2A7802F0E003602B54
S113153019D009D8202B00F0B780402B00F0B480DC
S1131540002B40F0FE80AFE0A02B00F0AD8003D86C
S1131550802B40F0F680A7E0C02B00F08D82E02BBA
S113156000F0DA80EDE06B78614E6F883270013301
S11315707370604B1978B942354653D00023738099
S1131580B21C06F11601002322F8023F8A42FAD166
S1131590594AB2F800C0728801211FFA81FE0EF187
S11315A0FF3080B2B8423BD24CFA01F0C00735D4C8
S11315B005EB43000133DBB20132092B92B2A0F8F0
S11315C004E02BD94A4B5A80494918220020FEF7DF
S11315D099FE454930830422FEF794FE3083474E3A
S11315E0D6F80A00019005F091F801AA307D002197
S11315F01A23FFF7A1F8102302A8ADF80C300295C6
S113160005F002F900200146024605F01CF9FF200E
S11316100121B21D1A23FFF78FF845E00131BCE721
S11316207280D1E7364A4023B380137803F0020076
S113163000F0FF0E38B16FF341031370314A137891
S113164043F0100306E003F0040000F0FF0718B1B4
S11316506EF38203137017E0180604D5012902D132
S113166067F3C713F6E7284B5A8A284B1B889A421C
S1131670244B1A7817BF6FF3041242F010021A7049
S113168050230CBF1A70B380214A138843F004031B
S11316901380002373801F4B03F11202002123F8EF
S11316A0021F9342FAD18FE72388102B09D110230C
S11316B0E1E142F22002934240F0DE8142F2200353
S11316C0D9E1B3F5007FF4D14FF40073D3E100BF47
S11316D0200F00200810002084BE000054100020B9
S11316E09E0F002034100020260F002040420F00DF
S11316F064100020AC0F0020600F0020200F002099
S1131700E8100020A20F00200A100020AE0F0020D5
S1131710620F0020681000202388102B00F0DF8067
S1131720B3F5007F00F0DB8042F22002934240F0E8
S1131730A381AA4BAA4A198851804FF400421A8007
S11317409AE140236380237943F02003237193E1DA
S11317502388042B01D0C02B06D1A24BC8201B88A0
S1131760B3FBF0F0C0B201E09F4B98789F4B1E2270
S11317701A8001232380FFF74DFA76E19C4E9D4D9C
S113178023802868314602F0F9F8337813B12868C9
S113179002F0DCF9984F994DBB788DF80830FB784E
S11317A08DF8093000238DF80A307B798DF80B30E1
S11317B010232B7004F022FFA84608B104F0D6FED3
S11317C08F4E04F0A3FF06230121387C8D4F337024
S11317D002AAFEF7B1FF4FF000098B4887F800908A
S11317E086F80090FFF728F8484604F0F4FF87488D
S11317F0012104F0CBFE04F0F3FE10B93B78002B7A
S1131800F9D03378012B09D12B7843F010032B70D6
S113181004F07CFF7E48FFF70FF815E07D4B187944
S113182010F0010004D004F0A1FE00232B700BE0A3
S113183004F0D1FF98F8003043F0010388F8003039
S113184004F0CEFE0028D6D0734B1B7803F0E003DF
S1131850402B0AD001D8202B02E0602B05D0802B2E
S11318601EBF2B7863F07F032B702B785BB94FF48A
S1131870806300E15B4A23801388B3F5487F04D971
S1131880A3F5167313800123F5E0FFF781FA08230B
S1131890F1E0544A23801388B3F5487FF0D8FFF76A
S11318A077FA23E02380544BD3F80200597CFFF7E6
S11318B0C7F90028DBD012E02380FFF75BF910B9E9
S11318C04FF40063D7E004F051FE544B1A786FF3E1
S11318D000021A70524A138843F004031380202331
S11318E0C9E023804F4B1878FFF794F94023C2E0F6
S11318F03E4A23801388002B00F0B780013B9BB243
S11319001380002B00F0B1803C4D10232B7004F0A9
S113191075FE2F4608B104F029FE04F0F7FE364A9E
S1131920384E507C012102320223FEF705FF0020CD
S1131930307004F050FF3548012104F027FE04F014
S11319404FFE10B93378002BF9D0324B187910F0D0
S1131950010004D004F00AFE00232B7009E004F017
S11319603AFF3B7843F001033B7004F039FE002852
S1131970E5D02B78002B3FF47AAFB0E72380FFF754
S113198007FA1D4BD3F80200597CFFF759F90028D8
S1131990A5D14FF480536EE02380FFF7EBF80028C5
S11319A0F7D004F0E3FD1D4B1A786FF300021A70B0
S11319B01B4A20236380138843F0040313805BE0F5
S11319C02380628058E0184A23801378013BDBB2FD
S11319D01370002B7FF44BAF41E000BFA00F002039
S11319E0A60F0020081000207E0F00204E100020BB
S11319F00811002004110020200F0020E60100201F
S1131A00E7010020E50100208FBE0000E093040000
S1131A1091BE00000C15002034100020A20F0020FD
S1131A20620F002054100020640F00202380FFF771
S1131A30AFF9184BD3F80200597CFFF701F90028DD
S1131A403FF415AF0BE02380FFF794F810B94FF47F
S1131A50005310E0104B1A786FF300021A700F4B0A
S1131A601A88628069E600232380022303E04FF48E
S1131A7080432380002363802388012B06D0202BFE
S1131A8004D042F2040293427FF42BAB05B0BDE8CC
S1131A90F08300BF200F0020A20F0020A00F002021
S1131AA003460022D0B2013213B1591E0B40F9E7AC
S1131AB0704700000F4938B500200D1D1023012286
S1131AC011F8014F14F00F0F18BF104314F0F00F6A
S1131AD018BF184352005B00A942D2B2DBB2EFD167
S1131AE0054B1870FFF7DCFF012894BF002001208C
S1131AF038BD00BF0B100020650F00200023044AEE
S1131B00985C18B90133142BF9D170470120704740
S1131B10820F00203D4AF8B5002313703C4A3D4F24
S1131B203D4E3E4D3380202111703D4A2B700221E1
S1131B3013805180137153713A4A4FF4004010805E
S1131B40394A3A4811703A4A11703A4A1E211180B2
S1131B5001220270384803803848038038480270F4
S1131B6038480724047038480421B9700180374983
S1131B700A70002236491944FF2088543549194413
S1131B8088540132142AF5D11433502BF1D1002298
S1131B903149002353540132142AF9D12F4C042221
S1131BA0A270E370237163712D4AFF2199540133AC
S1131BB0162BF9D1142300221E21E3810123A181D4
S1131BC022806372E372A3722282FEF7AFFB0423C6
S1131BD0BB705A233B80234B608240F2FF721A8011
S1131BE02B7843F010032B70338843F004033380C5
S1131BF0FFF760FF2B7860F341032B70FFF77EFF44
S1131C002B7860F3C3032B70F8BD00BFAD0F002029
S1131C10E81000207E0F0020620F0020A20F002099
S1131C20A60F0020A00F0020541000209A0F0020BF
S1131C309E0F00204E10002020100020D010002005
S1131C40E910002055100020A40F0020B00F002040
S1131C50B10F00207F100020820F00200A10002006
S1131C60200F002052100020042200235B080028CB
S1131C70B8BF43F00043010148BF43F000630102D1
S1131C8048BF43F40003010348BF43F400230104A5
S1131C9048BF43F40043010548BF43F40063010611
S1131CA048BF43F08003010748BF43F00803013AEB
S1131CB04FEA4000DAD11A0703F0F00102EB137285
S1131CC002EB015203F4706102EB013203F4704140
S1131CD002EB011203F4702103F0706002EB1112A5
S1131CE003F4700302EB133303EB1050704700004E
S1131CF0002008B501460422012301F027F8012140
S1131D000A460B46002001F021F80422012300209A
S1131D10052101F01BF8054A03235367936F23F44D
S1131D20F85323F01F03936708BD00BF0000014070
S1131D3030B5114D0FCD87B06C460FC495E8030044
S1131D400E4B84E8030000241C600D4B0D481C60FE
S1131D50012100F075F80C48012100F071F80B48DE
S1131D60012100F06DF80A48694601F089F9FFF78E
S1131D70BFFF204607B030BD5CBF0000E801002073
S1131D80EC01002040410500002508000022040069
S1131D900000014008B5430701D5FFF7C9FF002043
S1131DA008BD000008B50B48012100F049F80A48B5
S1131DB0012100F045F804210A460520002300F023
S1131DC0C5FF052001460422002300F0BFFF0020C8
S1131DD008BD00BF40410500002508000B4B0C491D
S1131DE041F6713210B51C6C1A645A68094A0244EF
S1131DF08A4294BF4FF0807100215A6822F04072E9
S1131E000A435A600CB100221A6410BD00000E404F
S1131E107F9FD5007F4573FE08B5FEF7D5F9BDE871
S1131E200840FFF7DBBF0000044BD3F84421D2077E
S1131E3003D4D3F840211042FBD1704700400E4038
S1131E40C0F30322013A70B503460E46092A26D888
S1131E50DFE802F018082525050B0E2511150020D2
S1131E600F4C11E000200F4C0EE001200E4C0BE053
S1131E7010200E4C08E04FF480300D4C04E000209C
S1131E800C4C01E00C4C0020C3F3043508B1FFF7FF
S1131E90CBFF04F1047405EBC404A400266070BDF8
S1131EA0B0400E40C0400E40E0400E40E8400E40BE
S1131EB0F0400E4050410E4000400E40C0F303136A
S1131EC0013B062B34D8DFE803F004080E14181E77
S1131ED02700184BD3F8000102E0164BD3F8140185
S1131EE0C0F304207047134BD3F80001C0F3006023
S1131EF07047104BD3F80C0102E00E4BD3F80801E5
S1131F00C0F3082070470C4B984211D1094BD3F809
S1131F10203103F00F0307E0084B984208D1054B2A
S1131F20D3F8283103F003030120984001387047A7
S1131F300020704700400E40600612007007140035
S1131F4008B5FFF7BBFF013008BD000000F00F002B
S1131F500138052835D8DFE800F0030D1734222CAA
S1131F601B4BD3F8943003F00703023B022B2AD80F
S1131F70184A12E0164BD3F8803003F00703013BF4
S1131F80032B22D8144A08E0114BD3F8843003F011
S1131F900703013B032B18D8104AD05C70470C4B45
S1131FA0D3F8883003F00703013B032B0DD80C4A08
S1131FB0F3E7074B1B6F13F0010F14BF0820072032
S1131FC0704700207047052070470120704700BF0C
S1131FD000400E4074BF000077BF00007BBF0000CC
S1131FE07FBF000010B50446FFF7B0FF1B4B9C42B7
S1131FF009D01B4B9C420AD01A4B9C420CD11A4B61
S1132000D3F8800006E0184BD3F8840002E0164BA6
S1132010D3F8880000F00700013803281CD8DFE853
S113202000F002060E0ABDE81040FEF717B9BDE83D
S11320301040FEF719B9BDE81040FEF712B90A4B7B
S1132040D3F80031DB0103D5FEF7E6F8800810BDB4
S1132050FEF7E2F8400810BD002010BD03001A008E
S113206005001E000200180000400E4000F4781025
S1132070B0F5602F08B566D017D8B0F5802F32D0F0
S11320800AD800285BD0B0F5003F5FD1FEF7A0F876
S11320902F4BD3F808312BE0B0F5202F2BD0B0F51F
S11320A0402F45D0B0F5002F48E0B0F5A01F32D046
S11320B00ED8B0F5801F27D0B0F5901F46D1254823
S11320C0FFF790FF224BD3F8202102F00F022AE001
S11320D0B0F5D01F1DD0B0F5F01F15D0B0F5C01F5E
S11320E034D11C4811E0FEF773F8194BD3F80C31C6
S11320F0C3F3082306E0FEF76BF8154BD3F814314D
S1132100C3F30423013310E01348BDE80840FFF78C
S113211069BF1248F9E71148FFF764FF0C4BD3F885
S1132120282102F0030201239340B0FBF3F008BD21
S11321300B48FFF70BFF072805D0082806D1BDE898
S11321400840FEF745B8074B186808BD002008BDD5
S113215000400E400200180005001E0003001A0093
S113216006000C0064000020C0F30313013B70B5AB
S11321700C46072B00F29380DFE803F004151F29B7
S113218035566E82464E474DFFF746FE01233360B7
S11321902B60454BD3F8001121F4F85141EA042493
S11321A0C3F8004131E0404BD3F8141121F4F85145
S11321B041EA0424C3F8144170BD3B4BD3F8001129
S11321C021F0807141EA0464C3F8004170BD364BCC
S11321D0D3F80C1121F4FF3121F4807141EA042178
S11321E0C3F80C1170BD2E4E2E4DFFF715FE0123C2
S11321F033602B602C4BD3F8081121F4FF3121F408
S1132200807141EA0421C3F80811FEF705F8FFF7CD
S1132210E5FD2648FFF72AFF254B984294BF00208E
S113222001203060286070BD224B98422BD0224B95
S1132230984200D070BD0420FFF7F6FD1A4AD2F888
S11322402031013423F00F03B4FA84F4C4F11F04E1
S11322501C43C2F8204170BD184B98421FD1402046
S1132260FFF7E2FD104AD2F82831013423F00303CA
S1132270B4FA84F4C4F11F041C43C2F8284170BDAD
S11322800C4B98420BD14FF48020FFF7CDFD064B49
S1132290D3F8301121F00F010C43C3F8304170BD65
S11322A04000C8436020C84300400E4000050800B9
S11322B00048E8018009100060061200700714004D
S11322C00139FFF751BF00000138032843D8DFE884
S11322D000F0022B111EC1F308011F4B1B68002BD9
S11322E0FBD11E4A136A23F4FF7323F0010319433D
S11322F01162704701F07F01194B1B68002BFBD161
S1132300164A136923F07F0319431161704701F0E2
S11323107F01144B1B68002BFBD1104A936923F0F7
S11323207F031943916170470C4AD2F89030536A85
S113233023F0300343F010035362C1F3C313033398
S11323400F2B28BF0F2341EA0371074B074A1A607A
S113235003F10073196070476828C84300400E40B9
S11323606028C8436428C84330400E44FF0700F087
S11323700F4B1B6813F0300F06D0202907D03029EB
S113238002D009B10B4B04E04FF4400301E04FF4D9
S113239000030949D1F890201A409A42F9D15B020E
S11323A046BFD1F8A000C0F380200120704700BFD1
S11323B024400E40FF03C10700400E4002280AD10A
S11323C029B1064B4FF48060C3F8A800596612B1D6
S11323D00220FFF7CDBF0120704700BF00400E4030
S11323E0F8B5042875D8DFE800F008030F296F005A
S11323F0802640240623072524E04FF400764FF47A
S11324008074082309251DE0002952D031494B6A04
S113241013F0300F09D14B6ADB070AD54B6A23F05E
S1132420300343F010034B6203E00424022303252A
S11324300AE0042402230325012606E001240226DF
S113244000232546002936D0002622490C6622495D
S1132450194489000B68002BFCD01AB9BDE8F84078
S113246000F012BA1C4B2B449F003B68002BFCD09D
S11324700228F3D1002EF1D0164D696A11F0010142
S113248004D020210122FFF799FF01E0FFF770FF3C
S1132490D5F89C60022000210122FFF7A1FF022051
S11324A0C6F30A01FFF710FF2C663B68002BFCD033
S11324B0D4E708260223074A1666074A1A449200FC
S11324C01368002BFCD1C9E720261024042305251A
S11324D0B8E7F8BD00400E408004F21000F00F0091
S11324E0013810B5042870D8DFE800F003743F6F9A
S11324F076000239032971D8DFE801F01802050FCC
S11325000120032414E0364A0123136002F500522B
S113251020320220136004460AE0314B01241C607F
S113252003F50053203303201C6001E00020042441
S113253001210A46FFF754FFFFF76EFC294B2A4896
S11325405C67FFF793FD294B9842254B94BF00200D
S11325500120186003F500532033186000F094F94B
S1132560FDF75AFEFFF73AFC2FE0214C0139082908
S113257034D8DFE801F028070E3333153333050070
S1132580042321E0012100200A46FFF729FF02234A
S11325901AE0012001460246FFF722FF012313E05F
S11325A0FDF73AFE114B98420D4B94BF00200120D9
S11325B0186003F5005320331860A3F52663012245
S11325C01A60032300E000232360054B1B68094BBA
S11325D01B6810BD084CC9E7084CC7E710BD00BF15
S11325E04000C84300400E40000508000048E801D0
S11325F084400E406020C84380400E4088400E4016
S113260010B504461120FFF7A1FC0021012202208D
S1132610FFF7E6FE2378227C002B14BF4FF480736F
S11326200023022A08BF43F001031E4A40F20111AD
S1132630116002F10072072113601B4BE27A1960EA
S113264003F1007319491A60637AA28843EAC2232A
S1132650174A116002F100721360237AE288D91CD0
S1132660DB0143EAC223A27A0F2928BF0F211343B7
S1132670104A43EA01736FF07F61116002F1007246
S11326800D491360637B227B1B0343EA0243E27B15
S11326901343A27B43EA0213084A116002F1007259
S11326A0136010BD24400E4428400E447FF80F00F0
S11326B02C400E4430400E44FFF00F0034400E44D2
S11326C0214B45F60E02D3F88011C3F880211F4A2E
S11326D0106840F2551202401A661D4A128802F030
S11326E00702032A01F0010104D0042A0BD0022AB4
S11326F023D10EE05A6A92001FD4D3F8902010061A
S1132700FBD5032217E0D3F890209205FBD50422D1
S113271011E00D4BD3F890301B07FAD50D4B1B6815
S113272013F0300F06D10C4B1B6803F44003B3F5D0
S1132730400FF8D10222044B5A6719B1024B002210
S1132740C3F88021704700BF00400E40FC01002008
S1132750FA01002024400E4090400E401848194BC6
S1132760C26C1B88C2F303222833013202EB8201BC
S113277003EB6303B3FBF1F3C16C013B072B21F0C3
S1132780EE6128BF072341F4801141EA0363C36467
S11327900D4BB3F90030002B10DB2833510001EB53
S11327A0520203EB6303B3FBF2F3026D072B28BF62
S11327B0072322F0700242EA03130365704700BF47
S11327C000300E40F8010020F2010020084B1A7876
S11327D0012A0BD1074A126C02F00302012A03D129
S11327E0054A1268D203FBD502221A70704700BF53
S11327F00002002000300E407C300E40054A064B9B
S1132800D16C1960D36C23F47F4343F4EE43D36457
S1132810FFF7A4BF00300E40F401002038B5144B7C
S1132820144AD3F890101160D3F89440124A134B11
S1132830A4B21C80136943F0040313610546FFF737
S1132840DDFFFFF7C3FF30BF0D4B1A680D4BDA6491
S1132850FFF784FF1DB1BDE83840FFF731BF04F036
S11328600704012C03D0BDE83840FDF7D5BC38BDC2
S113287000400E40FC01002000ED00E0FA010020C1
S1132880F401002000300E40044B054AD3F89010A8
S11328901160D3F89420034B1A80704700400E4017
S11328A0FC010020FA010020074A936FDB07FBD4E8
S11328B0011C064B18BF01211960136C23F003039C
S11328C018431064704700BF00300E40B40AC6437A
S11328D06A4B2DE9F74F9B6B019203F00F03022B18
S11328E0804601D00020C6E0A0F5E163B3F5966F01
S11328F0F8D800221446134649B901990124002945
S113290000F09D80DFF87CA14FF0080903E0DFF8B8
S113291078A14FF00109B8F5E16F94BF00200120C0
S1132920574948B1002C40F08F8040F6B83C4FF432
S1132930E1654FF0010E07E0002C40F091804FF468
S1132940E16C4FF49665A6464C4EDFF840B1F66C48
S113295006F040564EEA06075F4521D008D8012FFD
S11329601BD026D3B7F1805F2BD1D1F86C3125E091
S1132970DFF81CB15F4516D005D8B7F1005F20D150
S1132980D1F8703111E0B7F1405F15D0DFF804B130
S11329905F4516D1D1F8783110E0D1F8743104E0F4
S11329A0D1F874310AE0D1F87831C3F30722DBB2ED
S11329B007E0D1F86C31F8E7D1F870311A0EC3F39F
S11329C00743096D2E4FC9B2032903D8D7F87C11E8
S11329D048B10AE0360F022ED7F8801108D0032E32
S11329E009D0012E01D0C9B206E0C1F3072103E0EA
S11329F0C1F3074100E0090E090311F4702F7FF4BD
S1132A0071AF1E4EF06E20F4704001436545F166CF
S1132A10BFF468AFC5EB0800D11A4143C5EB0C0500
S1132A20B1FBF5F51D4495423FF65CAF9D42FFF4C2
S1132A3059AF05FA09F545EA0E05CAF80050002C0D
S1132A403FF45BAF204616E0D1F8683140F6B83C5D
S1132A501A0E4FF4E165C3F307434FF0020ED9E7B2
S1132A60D1F868314FF4E16CC3F307224FF4966553
S1132A70DBB28646CEE703B0BDE8F08F00300E40EF
S1132A80B081E00F5C300E4064300E400100001055
S1132A900100002001000030194B1A6FD96CC907DE
S1132AA002F0070206D5012A04D9132818D91438CC
S1132AB0132811E0DB6CD90706D4012A04D80928AD
S1132AC00ED90A38092807E00D4BDB6C13F001031B
S1132AD009D0012A06D827288CBF1023082302E036
S1132AE0042300E000230648013BC26C190341EAB9
S1132AF0032322F47F421343C364FFF72FBE00BFB6
S1132B0000300E40054A064B1B68136F23F0070381
S1132B101843044B10671888FFF7BEBF00300E40FF
S1132B208009C643F0010020524B027873B59A63C2
S1132B309B6B03F00F039342044601D0002595E0FC
S1132B404D4ED6F86C3101331DD04C4B1A68043B02
S1132B501B681A604A4B1A68043B1B681A60494B8D
S1132B601A68043B1B681A60474B1A68043B1B68CD
S1132B701A60464B1A68043B1B681A60444B1A6877
S1132B80043B1B681A60E3884A2B0BD9B3F5FA7F20
S1132B900AD340F6C312934294BF4FF000534FF050
S1132BA0405303E0002301E04FF08053314DB4F96A
S1132BB00C00E96C21F0405222F001020028A8BF69
S1132BC042F001021343EB64EB6E43F08073EB6657
S1132BD00420FFF797FF2B6E23F0C0432B66EB6CAA
S1132BE043F00603EB64F56C01A8C5F3074500F058
S1132BF031F9A5F110030B2B03D905F0FD05512D77
S1132C0017D19DF80500012813D19DF80430022B3B
S1132C100FD820490B7863B91F4A164D136843F047
S1132C20010313602B6E1D4A1A401D4B13432B6680
S1132C3008701C4B218919801B4BA2891A801B4BDD
S1132C40A0881880FFF728FF012160880A46FFF753
S1132C503FFE054600283FF471AFA37A144A60781A
S1132C60003318BF01231360FFF71EFE284602B08D
S1132C7070BD00BF00300E40B081E00F3C80E00F1B
S1132C804480E00F4C80E00F5480E00F5C80E00F44
S1132C906480E00F0002002044300E40000F0EF06C
S1132CA0B4C0400BF8010020F2010020F001002024
S1132CB09407C643072930B54FF00F0406D88D009A
S1132CC0AC40A840194D2C60194C07E0A1F108054F
S1132CD0AD00AC40A840174D2C60174C2060072A6B
S1132CE088BF083A4FF0030401EA040097BF92003A
S1132CF092009440904085BF944090400F4A104AFF
S1132D00146002F1007210600E4A0A4492001360CB
S1132D109DF80C30C2F8803001238B400A49C1F879
S1132D2024349DF81030C2F8003330BD00A40044B0
S1132D3000A4004604A4004404A4004608A40044DB
S1132D400CA400448020851000A00040F0B562B1BE
S1132D50302404FB00F51F4C2C4401EBC404A400F4
S1132D6013B10125256000E023603024444304F1BD
S1132D708044072904F520440CD867684FEA810E83
S1132D800F2505FA0EF527EA050602FA0EF5354376
S1132D9065600CE001F18045083DA768AD000F2691
S1132DA0AE4027EA060602FA05F53543A5607AB96E
S1132DB03022504333B1074B034401EBC301890074
S1132DC0012304E0034A024401EBC20189000B60C1
S1132DD0F0BD00BF0CA010428B784A789B0143EAF7
S1132DE082030A781343CA7843EA02130A7943EA4E
S1132DF0C2234A7943EA02338A79043043EA4243DC
S1132E000001014A1350704700200440014B186030
S1132E10704700BF00008442837842781B0143EA74
S1132E20820302781343C27843EA4213027943EAE5
S1132E300223427943EA0233827943EAC233C279F4
S1132E4043EA0243027A43EA4243014A1360704769
S1132E50002004400B4A536903F00F011369C3F3C4
S1132E60811343EA81038370136903F03F034370C2
S1132E70936903F0F001D369C3F303130B430370A5
S1132E80704700BFD0FF0FE030B50C780CB90223B7
S1132E90436000234362CB788A781B0443EA0263CD
S1132EA00A7A13438A7943EA8223CA7943EA0223DA
S1132EB04A78002A14BF4022002213434A7A002A87
S1132EC014BF8022002213438A7A002A14BF2022CE
S1132ED000221343CA7A002A14BF1022002213438B
S1132EE00A79002A4A7914BF4FF400550025002AB4
S1132EF043EA050314BF4FF0805200221A430B7BB0
S1132F00002B14BF08230023134303600CB10123D7
S1132F10436030BD537810B514781B0643EA8463CC
S1132F2094792343947843EA0443D47843EA0433FA
S1132F30147943EA8423547943EA0423D479002C92
S1132F4014BF4FF0804400242343147A002C14BF90
S1132F504FF0005400242343547A927A002C14BF77
S1132F60102400240631002A43EA040314BF042277
S1132F70002209011343435010BD000070B50446FC
S1132F8016461D4619B91448FFF770F80146202D5E
S1132F9007D001D85DB170BD402D04D0602D04D0A0
S1132FA070BD082204E0062202E0042200E01022A0
S1132FB0236823F06003236072434901236801EB13
S1132FC05201B1FBF2F20549203AD20011401D43EF
S1132FD02560616170BD00BF40410500F8FF7F00BE
S1132FE0F8B50446154619B90E48FFF73FF80146EF
S1132FF0C8012A460023490E04F01EFCB0F18006E5
S113300041F1FF37310A41EA076107480A020240E9
S113301004F1140000F1806300F1C06002491960FA
S11330200260F8BD40410500F8FF7F00CB4303F088
S113303005035B00C360C1607047000040F6AA63EB
S1133040C36041F20502002303604260094A8360C1
S11330504361C3648264084A436790428367C367D9
S113306008BF03658365054B984204BF0023C3650D
S1133070704700BFF9FF0100000001400004014057
S113308038B50C460546FFF7D9FFA37C1BB12B6866
S113309043F080432B60E37C1BB1237D43F080032A
S11330A0AB65637B228A61681A43E38913436B60CF
S11330B0A268237B2846FFF761FFE37D1B0503F429
S11330C0E002A37D1B0703F0E04313432B66637DFB
S11330D01BB12B6843F480332B602378EB6038BD3D
S11330E038B50C460546FFF7A9FF238AA27B296859
S11330F043F00103002A9BB214BF4FF48062002204
S11331000B431343227D2B602B68002A14BF4FF01E
S11331100052002213432B60A37C1BB1E37C43F0D9
S11331208003AB65237B6168A26843F480536B60C2
S11331302846FFF755FF637B0BB11023EB60E37D5B
S11331401B0503F4E002A37D1B0703F0E0431343D4
S11331502B66637D1BB12B6843F480332B6023788B
S1133160EB6038BD03691B06FCD5C069C0B270476B
S113317003695B06FCD54163704703695B06FCD5B4
S1133180C163704710B5044674B194FAA4F0B0FA60
S113319080F00123834024EA0304044B53F82030D5
S11331A0002BF1D09847EFE710BD00BF08020020C4
S11331B0054B4FF40032C3F880211A604FF40072BB
S11331C0C3F880211A60704700E100E072B6094B31
S11331D01A68B2F1FF3F1CBF01321A601B68064A2D
S11331E042F8201023B1034A013B136003B962B6CD
S11331F0704700BF0402002008020020074AD2F8EA
S11332002804D2F81C34184020F42A5020F02A0054
S11332104004400CC2F82404FFF7B4BF00A00040EF
S1133220074AD2F82804D2F81C34184020F4AA40E3
S113323020F055000004000CC2F82404FFF7A2BFDC
S113324000A0004008B500F019F800F0D9FDBDE871
S1133250084000F035BB82B000EB40000021CDE90E
S11332600001DDE9002312F1FF3043F1FF31134384
S1133270CDE90001F5D102B070470000F0B54F4B25
S113328091B002AA03F10805174618685968144654
S113329003C40833AB422246F7D118689B88A38045
S11332A0474B206006AA03F11005164618685968B2
S11332B0144603C40833AB422246F7D11B8823804B
S11332C0404C0FCC0BAD0FC523682B603846FFF77D
S11332D02BFC3046FFF794F90BA801F07BFF11207B
S11332E00421FFF7FBF800210A460320FFF778F8D2
S11332F054F8040F344D6168344C6B4603C368467C
S113330001F01CFF012002460146FFF769F830482E
S11333100321FFF7E3F82F480321FFF7DFF82E48D6
S11333200121FEF78DFD2D480121FEF789FD2C4872
S11333300121FEF785FD2B480121FEF781FD204682
S11333402949FFF7CDFE0B23636703F10B23A36722
S11333500220062104220023FFF7F8FC0220024683
S113336007210023FFF7F2FC022008210422002396
S1133370FFF7ECFC04210A4601230020FFF7E6FCDA
S1133380002742F21070FFF766FFAB2120462F6042
S1133390FFF7EEFE01262046FFF7E4FE2E601E2016
S11333A0FFF759FF2046B9212F60FFF7E1FE2046C1
S11333B0FFF7D8FE2E6011B0F0BD00BF84BF00003F
S11333C092BF0000A4BF0000900114420004014019
S11333D00200180003001A0000050800404105001F
S11333E00025080000320400D8BF000008B10523FE
S11333F003600148704700BF9800002008B106230D
S113340003600148704700BF68000020024B03447A
S11334109B0000221A6070474000F310F8B5044680
S11334200E461448012117461D46FEF709FD1248B1
S1133430204480000023036004F110020F4B45EA8E
S1133440072543F82250A208103304F0030453F86C
S11334502250E400FF21A14025EA010143F8221093
S113346053F82250A64046EA050143F822100123EE
S11334700360F8BD003508004000F31000600E4002
S113348000207047FEE74FF400534B600020704764
S11334900120704700207047F8B50E468F180D467E
S11334A0BD42A5EB060406D000F0DAF8431C02D0B6
S11334B005F8010BF4E7002C14BF20464FF0FF3051
S11334C0F8BD70B50E4615460C46A31BAB4204DA94
S11334D014F8010B00F0FAF8F7E7284670BD000075
S11334E008B50D4B1A680AB90C4A1A601A68131801
S11334F0EFF308818B420BD9094B1B68986804F0E1
S113350083FC08491922FFF7DCFF012004F068FC62
S1133510014910460B6008BD4802002058160020DF
S11335204C010020F0BF0000104838B503691B06A9
S11335301BD50F4C2568FFF715FE0E4B5855236815
S1133540013323600C4B1A6801321A602268082A7E
S113355004BF002222601B68082BC1BF064A002357
S113356023601360C4BF054A136038BD00000140E6
S1133570580200204D020020600200205C0200205E
S1133580034B10B101221A7070471870704700BFC6
S11335904C02002030B52A482A4D87B00121FEF79D
S11335A04FFC29480121FEF74BFC00200146042270
S11335B00123FFF7CBFB002001210A460346FFF756
S11335C0C5FB0FCD6C460FC495E80300042284E8C4
S11335D00300012300200521FFF7B8FB1B481C4C06
S11335E00121FEF72DFC06A9002501F8185D2046EF
S11335F0FFF746FD03236367A36F164A23F4F853CA
S113360023F01F03A3674FF400610423A364C2F8EB
S11336108011E36C43F00403E36420461160052148
S1133620FFF704FD0C4B1B682946986802222B46C1
S113363005F0DCFA094B01221A7007B030BD00BF57
S1133640404105000CC000000025080000220400D1
S11336500000014000E100E04C0100205502002080
S1133660154B1B7810B50BB9FFF794FF72B6134BCB
S11336701A68511C1CBF01321A60114A11680029D2
S113368010DD1049104C0868205C0C6801340C6093
S11336900C68082C04BF00240C6011680139C0B206
S11336A0116001E04FF0FF301B6823B1034A013B76
S11336B0136003B962B610BD550200200402002055
S11336C0600200205C0200204D02002038B50F4B40
S11336D01B7804460BB9FFF75DFF0D4B1A781D46A6
S11336E02AB10A2C03D10B480D21FFF741FD0948EB
S11336F02146FFF73DFD2B782BB10D2C03D1054856
S11337000A21FFF735FD204638BD00BF55020020D1
S11337104C0200200000014072B6044B1A68511C90
S11337201CBF01321A601868704700BF04020020F1
S1133730034B186818B10138186000B962B67047B5
S1133740040200202DE9F04F254B03F1A0010022D3
S11337505A711A79002A3ED053E906894FF0000BBA
S1133760CB4508BF404506D2B8EB000469EB0B0516
S113377043E906452FE0DA790AB91A7127E053E9DB
S1133780046718EB060453F8086C53F8042C49EB4F
S11337900705241A65EB0B05002E43E9064508DDF1
S11337A03244F32A43F8042C11D9013445F10005BD
S11337B008E0921BF32A43F8042C08D914F1FF34CF
S11337C045F1FF3543E90645F43A43F8042C1A68F9
S11337D00AB101225A7128338B42B8D1BDE8F08F67
S11337E09002002038B5074C0025637F1BB1A36904
S11337F0216A284698470135042D04F12804F4D1A0
S113380038BD00BF78020020F0B500214FF0FF3230
S11338104FF0FF33164C0C44257F3DB1D4E90045ED
S11338209D4208BF94423CBF22462B462831A02922
S1133830F0D1104900240C705C1C08BFB2F1FF3FAA
S11338400C4614D000279F420B496FF0640608BF52
S11338509642086038BF32460849042502440D6286
S113386001234A6523704B6A43F004034B62F0BDA5
S113387078020020640200201C0300200020044081
S113388038B50546FFF748FF00230A49282202FB02
S11338900312947F24B10133042BF6D1064C05E0C6
S11338A01DB1012191772B6000E0044CFFF740FF2C
S11338B0204638BD78020020011000F0041000F00A
S11338C0204B70B51C78002C3AD101251E481D7080
S11338D02946FEF7B5FA1D4E1D480221FEF7FEFDEE
S11338E0032329461B483371FEF7AAFA3046FFF733
S11338F093FA28461849FFF76FFA184B18485A6A82
S113390022F4FF6222F007025A6240F2FF721A6246
S1133910144A9C604FF00051C2F8801111605A6A39
S11339202A435A622146A02204F0B0FB0E4B1C70BD
S11339300E4B1C700E4B1C600E4B1C600E4B1C601F
S1133940002070BD6502002000050800C0000020B2
S113395005001E0080091000C9000020002004405A
S11339607802002000E100E06C02002064020020E4
S1133970180300207002002068020020032838B5D4
S113398004460D4613D8A1B1FFF7C6FE0A4B282200
S113399002FB04341834A3791BB9FFF7C9FE0748A6
S11339A038BD23792B70FFF7C3FE002038BD0448CF
S11339B038BD044838BD00BF78020020031000F071
S11339C0021000F0041000F02DE9F84F0328074618
S11339D0894692469B460A9E00F2A480FFF79CFE0D
S11339E0524B282404FB07349846A27F22B9FFF7E0
S11339F09FFE4F48BDE8F88FBAF1000F0AD1BBF122
S1133A00000F02D038463146D847FFF791FE002018
S1133A10BDE8F88F474B4FF47A609D68C4F818B03E
S1133A204FF400430021E3FB0A014FF4FA52002350
S1133A3003F002FFB9F1010FC4E9020109D14FF407
S1133A407A7303FB0AFAF42303FB10A323617A239A
S1133A506361282303FB078301301A4641F1000107
S1133A601E62354BE2E806011B7882F807900124B8
S1133A701471002BC9D1314C236801331EBF236854
S1133A80013323602E4B1A789946B2B900272D4B87
S1133A906FF064068F4208BF86421D6038BF30460F
S1133AA0244B042228441A6258655A6A42F00402DC
S1133AB05A62012389F800302BE02368012B28D1B6
S1133AC0282303FB078300261E771A4ADFF874A015
S1133AD0536A23F004035362DAF80000281AFFF74C
S1133AE031FEFFF77FFE26B9282303FB078301225B
S1133AF01A772846FFF788FE0E4BDAF800209D68F7
S1133B005B6DA91A9B1A99F8002001360AB19942F3
S1133B10DBD82368094A002B3FF477AF1368013BD5
S1133B20136072E70848BDE8F88F00BF78020020F0
S1133B30031000F0002004406C0200201803002051
S1133B40640200201C030020021000F0032838B592
S1133B50044612D8FFF7E0FD094B282202FB043487
S1133B601834A3791BB9FFF7E3FD064838BD0025D7
S1133B702571FFF7DDFD284638BD034838BD00BF79
S1133B8078020020031000F0021000F02DE9F0414B
S1133B90FFF7C2FD194AD2F8188018F0040F1FD09D
S1133BA0174B9768012119701E46144C154D636A12
S1133BB023F0040363622868381AFFF7C3FDFFF794
S1133BC011FE3846FFF720FE2A68A768636DB91A0C
S1133BD09B1A0D4A12780AB19942E6D80023337031
S1133BE018F0010F06D0054B01221A62074A136828
S1133BF001331360BDE8F041FFF79ABD0020044093
S1133C006C0200201C0300206402002070020020CB
S1133C102DE9F04F674A684C10685168127A87B0F2
S1133C2003AB03C31A70D4F8B030D80706D4634882
S1133C300121FEF705F94FF0010901E04FF00009F9
S1133C405F48FEF783F9032107465D48D4F8906086
S1133C50FEF744FC5B48FEF773F9D4F8F0300190AA
S1133C60D90706F0400606D456480121FEF7E8F8C5
S1133C704FF0010801E04FF0000872B6524D2B6876
S1133C805A1C1CBF01332B60504B1C6814F00104F8
S1133C904FF000020FD0196800915C6A1A605A62F2
S1133CA040F2FF721A624A4B4FF00052C3F880216F
S1133CB04FF0010A01E00094A24600238DF80E3073
S1133CC08DF80F3003A808238DF81030FFF7A4F8FF
S1133CD0404B4FF480521A601A6852001A606AB15D
S1133CE03A4A9068D2F808E038497045FAD08A68B0
S1133CF018680138FDD889689142EDD01A685208D5
S1133D001A601A680920013820D052081ED0196898
S1133D10114319602D49D1F808B0D1F808C0DFF873
S1133D20ACE0E345F9D02B49DEF808C0D1F800B087
S1133D30BBF1010BFCD8DEF808E0E6451EBFD1F864
S1133D4000E02EEA020EC1F800E0DCE72B6823B1A4
S1133D501D4A013B136003B962B6BAF1000F08D0E3
S1133D6018480199FEF7ACFA184B009A1A605C6285
S1133D7002E05046FFF74AF8B8F1000F03D01148AB
S1133D800021FEF75DF8032F03D00D483946FEF7F6
S1133D90A5FB26B9012031463246FEF721FBB9F1D5
S1133DA0000F03D005480021FEF74AF807B0BDE82C
S1133DB0F08F00BF24C0000000400E400005080042
S1133DC005001E00800910000402002000200440A9
S1133DD000E100E0D000002003460849002B0CD08D
S1133DE0013B88221202003253430A68D80AD20ADD
S1133DF05043800901D00138FDD87047D00000201D
S1133E0010B588B000210D2204A804F03FF9012464
S1133E100B22002101A88DF8104004F037F9022389
S1133E2023488DF80A302146FEF70AF821484FF658
S1133E30FF73C361002101AAFFF76CF800238DF81A
S1133E4012301C4804A9FFF71FF81B48FEF70EF9AF
S1133E509DF81230194AD8400133DBB20A2B1060A6
S1133E608DF81230144602D8154B9842E9D81548FB
S1133E70FEF7FCF82268144BB3FBF0F3134800215F
S1133E80E2FB0301124A002303F0D6FC114B094A5A
S1133E901860114B00201870936923F0100393618C
S1133EA00E4B4FF48062C3F880211A6008B010BD35
S1133EB0000204000080014040410500240300206A
S1133EC080841E005000020000B0710B20A1070086
S1133ED040420F00200300202803002000E100E0FE
S1133EE0054BDA68D20641BF10225A61034B012206
S1133EF048BF1A70704700BF0080014028030020AB
S1133F00084B1A7810B50AB1002010BD0122064CE6
S1133F101A7054F8043F002BF6D098470028F8D0C4
S1133F2010BD00BF5C030020D00000200E4B1B78A6
S1133F3030B5ABB1002815DC0C4B2C2202FB00334E
S1133F4003F128050A461C4603CCAC4210605160BC
S1133F50234602F10802F6D120681060002030BD2B
S1133F60034830BD034830BD5C030020300300200B
S1133F700500118002001180104B1B7830B5C3B1CD
S1133F800F4B1968002916DC4A1C1A600D4A0346B7
S1133F902C2000FB012203F12805186859681446F7
S1133FA003C40833AB422246F7D1186820600020CE
S1133FB030BD054830BD054830BD00BF5C0300205E
S1133FC02C03002030030020050011800100118023
S1133FD0802910B50DD1084908480C6804EB021279
S1133FE082424FF000008BBF18601C6004480A60D6
S1133FF010BD044810BD00BFDC0000205D0B002094
S113400001001180020011800048704704001180F3
S113401008B500F023F900F0DBF8002008BD70B506
S11340200E461D460024AC4206EB041005D00021C8
S1134030102204F02BF80134F5E7002070BD2DE9BF
S1134040F3410F4603200E21099E00F033F90620A8
S113405000F009F9089C0134A4B202AD230243F034
S1134060010325F8023D0221284600F0D9F84FF05B
S11340700008B04507EB081016D0102100F0D0F866
S1134080731E98451DBF631C43441B024FF6FF7308
S113409018BF43F0FF0328460221ADF8063008F1AB
S11340A0010800F0BDF8E4E7022000F0DCF80E217E
S11340B0032000F00DF9002002B0BDE8F08108B53E
S11340C00D21032000F012F9002008BD08B50320DB
S11340D019B10F2100F0EEF802E00F2100F0F8F81A
S11340E0002008BD10B58CB000F0B8F800F070F8EE
S11340F000F0C8F8002213460821022000F0CCF892
S1134100002213460621022000F0C6F800221346BE
S11341100E21032000F0C0F8002213460F210320D3
S113412000F0BAF800220D211346032000F0B4F881
S11341301F480021802200F09BF8002835D11D4B38
S1134140019301238DF81430802302930493039385
S1134150194B0693194B0793194B0893194B099361
S1134160194B8DF815000A9301A8184B0B93FFF710
S113417003FF0446C0B90F21032000F09BF80E2171
S1134180032000F097F8062000F06DF80CA8042333
S1134190022120F82E3D00F043F8022000F063F8DD
S11341A003200E2100F094F820460CB010BD00BF8F
S11341B0BF4000002DC00000CD400000D13F0000F2
S11341C0094000003F4000001F4000001140000073
S11341D030B50F4D0FCD87B06C460FC495E8030082
S11341E084E803000B4C0C480121FDF729FE0B4B1E
S11341F0029320466946FEF773FF0A236367A36FA1
S113420023F01F2343F00B230020A36707B030BD26
S113421044C000000004014000320400E06735009F
S113422038B505460C4684B1012C0B4801D0EA0789
S113423005D515F8011BFEF79BFF013CF3E735F8A4
S1134240021BFEF79AFF023CEDE7034B1B699B063A
S1134250FBD5002038BD00BF0004014008B5FFF7BE
S1134260D7FC002008BD08B5FFF7B6FD002008BD47
S113427008B500F0D7FB0028014808BF002008BD9E
S11342800200138008B503480121FDF7D9FD002081
S113429008BD00BF0025080010B514462AB9C0B2F5
S11342A00422FEF753FD204610BD014810BD00BF97
S11342B0010013803023C0B25843044B034401EB84
S11342C0C301890001230B60002070470CA0104239
S11342D03023C0B25843044B034401EBC3018900AB
S11342E000200860704700BF0CA01042012303FAAD
S11342F001F2C0B23023584300F1804000F5204061
S11343008261002070470000044B1B781BB1044BF2
S11343100360002070470120704700BF9C0B002001
S1134320900B002070B50D4C247884B10C4C268879
S11343308518B5420DDC6688CD18B54209DC52B14A
S11343404BB1A080E18022816381002070BD0120F7
S113435070BD042070BD052070BD00BF9C0B002003
S1134360900B00202DE9F74F534A0D9E1278002A36
S113437000F09C80514A1568002D00F09780504A47
S1134380547C002C40F094809468127C012A4D4A9D
S11343901CBFB3FA83F35B091F1C4FEAD404D38810
S11343A0009401EB030818BF0127009BC7F1000923
S11343B01FFA88F85FFA89F903FB08554FF0000CDF
S11343C09246002E70D0BAF80840BAF80430241A85
S11343D0B44228BF34461844072CA6EB040680B226
S11343E01CD8044467B1A0424BD2C20800F00701B4
S11343F001238B40A95C01300B43AB5480B2F2E73C
S1134400A0423ED2C10800F00702012393406A5C37
S1134410013022EA03036B5480B2F1E74FEAD00E75
S113442010F0070005EB0E030FD00122824015F8AF
S11344300E10013AD2B229EA020B0A404BEA020BEF
S1134440083805F80EB0013304445FEAD40B0DD0EC
S1134450184649465A46CDF804C003F017FEB4EB9B
S1134460CB0403465B44DDF804C00AD00122A24019
S11344701978013AD2B221EA020102EA09020A4396
S11344801A700CEB080359110F4A03F01F030120A3
S1134490984052F82130034342F82130009B0CF13C
S11344A0010C1D4400208CE7304602E0012000E0AE
S11344B00A2003B0BDE8F08F9C0B0020600B0020A5
S11344C0640B0020900B00201415002070B50A4CDA
S11344D005460A48234686694168C268B04723688E
S11344E03BB12B60FF211022054803F0CFFD0020D3
S11344F070BD0B2070BD00BF600B0020640B00205A
S113450014150020F7B5174E33781BBBFFF7F8FCE2
S1134510044608BB144D2946FFF708FDF8B9134FAC
S11345203846FFF7D3FF0446B0B93B68B3B1104B2C
S1134530A988AA8919805A8019815A819880D880BB
S11345404A43012333700192009001460246034618
S1134550FFF708FF002002E0204600E00B2003B034
S1134560F0BD00BF9C0B0020640B0020600B0020FA
S1134570900B00202DE9F743234E244FB5683C6887
S11345800023ED084FF001081946F2681E4803EBBA
S11345900109914520D214F0010201D0013312E047
S11345A083B1DFF86CE0DEF800E08DE80A0005FB7B
S11345B001E1D0F820C04368E04708BB09F10101DC
S11345C0034600E001315A18D2060ABF57F82840C2
S11345D0640808F10108D8E733B90C480021102217
S11345E003F054FD00200BE0094A12688DE80A002C
S11345F005FB0121046A43680022A0470028ECD08F
S113460003B0BDE8F08300BF640B00201415002044
S1134610600B0020F8B50C46054638B331B3086882
S11346208A68904224DA4968E368994220DA2E685D
S1134630B788B8421EDBF788B9421BDB378997423B
S113464018DD76899E4215DD89B280B20B4402449E
S11346500132013392B29BB2FFF764FE211D0EC9F1
S11346602668EE6029616A61AB61F8BD0520F8BD7A
S11346700420F8BD0320F8BD30B5054687B0E8B185
S1134680002343606FF07F43836001A8FFF73CFE83
S1134690B8B9019B2B601A885B8802900390013A99
S11346A0013B284602A904920593FFF7B3FF044691
S11346B030B92846044900F04DF901E0052000E036
S11346C0204607B030BD00BF5CC0000030B10368B5
S11346D000201A885B880146FFF724BE0520704736
S11346E037B5054690B14468FFF7F0FF014670B94D
S11346F02A68E3B20093558913896B430193C4F389
S11347000742C4F30723FFF72DFE00E0052003B0A2
S113471030BD73B50E461546044688B10C3000F022
S11347202FF878B1A368DAB2009201220192B0B2F4
S1134730C3F30742A9B2C3F30723FFF713FE02E052
S1134740052000E0012002B070BD73B50E46154689
S11347501C4680B10C3000F013F870B1E3B2009342
S113476001230193B0B2A9B2C4F30742C4F30723EF
S1134770FFF7F8FD02E0052000E0012002B070BD63
S113478078B1036899420BDB8368994208DC43687B
S11347909A4205DBC0688242CCBF002001207047EA
S11347A0002070472DE9F04F85B09B469DF83830C6
S11347B0029392460446002800F08980A1F1200566
S11347C0EBB25E2B00F2858090F82830022B06D1E4
S11347D03A2906D0202906D030398DB204E0ADB292
S11347E002E00A2500E00B25238CAB4271DDE3696E
S11347F000934FF00008474694F825301FFA88F2DA
S1134800934201925FD994F82230012B05D0022BF8
S113481007D1009B33F8159006E0009B13F8059030
S113482002E0009B33F825904FF0000C94F82430FC
S11348301FFA8CF6B34228D919F0010F0AD0019B54
S1134840CDF80CC020460AEB06010BEB0302FFF780
S113485060FF0BE0029B7BB120460AEB06011BFACA
S113486088F26368CDF80CC0FFF76FFF012831D8D8
S1134870DDF80CC000B901374FEA59090CF1010CFD
S1134880D4E7029B4BB90136B6B294F8242094F8CD
S1134890273013449E42F4DB0EE0019B20460BEBD1
S11348A003020AEB06016368FFF74FFF012811D8E2
S11348B00028E8D10137E6E794F823100D44ADB29F
S11348C008F1010898E7B7FA87F0400902E00520EB
S11348D000E0022005B0BDE8F08F2DE9F74F0C9EF3
S11348E09DF834A09B46054670B369B390F8283010
S11348F063B30C4601EB02095F464FF000084C45D8
S11349001ED014F8011B0A2907D195F825301E443E
S113491095F826305F461E44F1E7CDF800A02846FE
S11349203A463346FFF73EFF012810D808B908F18C
S1134930010895F8242095F8273013441F44DEE736
S1134940B8FA88F0400902E0052000E0022003B034
S1134950BDE8F08F08B578B11C3019B9102203F006
S113496095FB09E001F1100351F8042B40F8042BE6
S11349709942F9D1002008BD052008BD10B5FFF704
S1134980BFFA00B1FEE7FFF7BDFD00B1FEE7084C3A
S11349902046FFF771FE00B1FEE76FF07F43A06091
S11349A0636020460349BDE81040FFF7D3BF00BF52
S11349B0A40B00205CC00000FFF7DCBD08B505486F
S11349C0FFF78EFE044B05221A60044B02221A6084
S11349D008BD00BFA40B0020D00B0020A00B0020BA
S11349E073B50D4C0D4D064604F02AFA2368009366
S11349F0002301930A4B0246314628461B68FFF701
S1134A006CFF95F8263095F825201A442368134442
S1134A10236002B070BD00BFA00B0020A40B0020D7
S1134A20D00B0020002070472DE9F74F81460C463B
S1134A307B2017469A4604F00BF81CB140482146E7
S1134A4003F0EEFF0024BB46A046002F5ED058467C
S1134A502C2104F0E7F9074610B1CBEB000603E084
S1134A60584604F0EDF90646364DC8F58073F21C3D
S1134A709342454448D3681E5B461946CBEB030476
S1134A8046B10A780A2A03F1010303D100F8012F81
S1134A90013EF2E77B232B55013432462644281984
S1134AA0741C03F0CDFA4FF07D0B002305F806B01B
S1134AB028462B553A2104F0B5F9064618B9B9F140
S1134AC0000F1BD12FE0431C18463A21019304F038
S1134AD0A9F958BBB9F1010F019B07D1AE1B3444AE
S1134AE0681C1946224603F0B6FA07E0B9F1020F32
S1134AF001BF741B86F800B070700134002C05DB14
S1134B00A04407F1010BA0E76FF00A040D485146D9
S1134B1004F0BCFA002C04DA61420B4803F080FF75
S1134B2007E0002405E06FF00B04EFE76FF00C04DE
S1134B30ECE7064804F018F8204603B0BDE8F08F0F
S1134B408CC30000D40B002093C3000091C3000069
S1134B500EB403B503AB014653F8042B01930020B4
S1134B60FFF762FFB0FA80F0400902B05DF804EB91
S1134B7003B070470CB473B506AB044653F8046B2A
S1134B8001937B200D4603F063FF1CB10D482146C1
S1134B9003F046FF0C4803F043FF0199304604F04C
S1134BA075FA7D2003F054FF2946084803F038FFC6
S1134BB0074803F0D9FF012002B0BDE8704002B0FD
S1134BC0704700BF8CC30000A8C30000B0C300003E
S1134BD091C30000184B1B7810B5184C43B37828C8
S1134BE026DD174AD2F8043123F45F4323F07D0312
S1134BF0C2F80431D2F81C3123F45F4323F07D035F
S1134C00C2F81C31D2F804119338052390FBF3F356
S1134C1009339B0041F457411943C2F80411D2F8F7
S1134C201C1141F457410B43C2F81C31012300E02D
S1134C300023236010BD00BFE00000208C12084355
S1134C4000400840124BD3F8002122F00602C3F8BA
S1134C500021D3F8002142F00402C3F80021D3F864
S1134C600C2122F00702C3F80C21D3F80C2142F0E6
S1134C700502C3F80C21D3F8082122F0C002C3F8BE
S1134C800821D3F8082142F08102C3F808217047B3
S1134C9000400840134BD3F8002122F00602C3F869
S1134CA00021D3F8002142F00202C3F80021D3F816
S1134CB00C2122F00702C3F80C21D3F80C2142F096
S1134CC00602C3F80C21D3F8082122F4800222F052
S1134CD0C102C3F80821D3F8042122F44042C3F8E6
S1134CE00421704700400840094BD3F8242122F4E2
S1134CF0EE42C3F82421D3F8242142F48A42C3F8B3
S1134D002421D3F8202142F00102C3F82021704766
S1134D1000400840054B1B78022B01D1FFF7E4BF8C
S1134D20012B01D1FFF7B6BFFFF78CBF241500207C
S1134D3030B5204A204DD2F888212B68D24323F085
S1134D40F95323F4FE13C0F3431102F4FE12B2FA32
S1134D5082F2C2F1130243F47F53914243F00803F9
S1134D6000F4004405D811B310F01F0008BF01205F
S1134D7002E0E2B111461F2001228A40013A43EACF
S1134D800063D2B243EA82332B600C4B40EA4110F9
S1134D90D3F8082134B142F48002C3F8082140F466
S1134DA0004030BD22F48002C3F8082130BD012147
S1134DB00846E1E700400E40C00F002100400840D3
S1134DC0B1F900309842A8BF1846A0F1C8032822C0
S1134DD093FBF2F25242072AA8BF072201EBC20159
S1134DE00028B1F90630896800FB0313C8BF03F536
S1134DF0FA73072A4FF47A70B3FBF0F005D0034B33
S1134E001B78022B18BF40F4004070472415002083
S1134E10012331F83320824202D30133082BF8D125
S1134E20013B01EBC30120F400404FF47A73584373
S1134E304B68C01A0028C8BF00F5FA70B1F90230F7
S1134E4090FBF3F07047000010B5184C184A216825
S1134E50822821F47F5323F0080311DCC1F3873146
S1134E6043EA81131E2823600FDCD2F8083123F0B3
S1134E700103C2F80831D2F8203123F001030EE017
S1134E8043F47F5343F008032360D2F8083143F01E
S1134E900103C2F80831D2F8203143F00103C2F80B
S1134EA02031BDE81040FFF795BE00BFC00F0021C0
S1134EB00040084038B51E4DB5F9043018442B782D
S1134EC0012B13D11B4B1C4A1B681A4006231B4998
S1134ED031F91340A04201DA013BF8D131F9134012
S1134EE0013342EA0363134A136016E06C780BB98A
S1134EF0234600E0A31C124A442404FB0324214655
S1134F00FFF75EFFFFF714FF212802D1B4F9024036
S1134F1003E0211DFFF77CFF04462046FFF794FFC2
S1134F20AB88E41A034B6C801A68064B1A6038BDD0
S1134F3024150020C00F00213F00C0E0D0C40000B1
S1134F40C0C30000D40C002008B5FFF7B3FF024B28
S1134F50B3F9020008BD00BF2415002010490B68F6
S1134F605A0810B523F47F1302F4FE1423430B6094
S1134F7000F088FE0B4B38B1D3F8002122F47F12E5
S1134F802243C3F8002106E0D3F8182122F47F124B
S1134F902243C3F818214FF00072DA6110BD00BF3C
S1134FA0C00F002100400840044B1A68044B1A60EB
S1134FB0044A136A23F0806313627047D40C002000
S1134FC0C00F00210040084008B500F05BFE0C4B08
S1134FD040B1D3F8002122F0004222F40012C3F8B9
S1134FE0002107E0D3F8182122F0004222F4001235
S1134FF0C3F818211A6A22F000621A6208BD00BFC1
S113500000400840014BD888704700BF2415002099
S1135010064B4268DA669A6E22F47F6222F00F022F
S11350209A66996E02680A439A667047006008405F
S1135030F0B50E4CE06EE26EE16EA56EA76EA66E44
S1135040C0B2C2F30724231AC7F303129340C1F377
S11350500742121BC6F303218A40521102EB631369
S113506005F00F02904003EB6010F0BD00600840B3
S113507073B51F4D2B78022B044604D0012B0CBFB3
S11350803226B42600E096260CB9012318E0FBF77B
S1135090D5F8FF234FF47A72B0FBF2F04443B4FB2B
S11350A0F6F46401B4FBF2F21AB101335208DBB234
S11350B0FAE75BB20F2B02DC002B01DAE5E70F23E2
S11350C01B026846360400930196FFF7A1FFFFF721
S11350D0AFFF0446FBF7B2F842F210736343642255
S11350E0B0FBF2F0B3FBF0F0E88080B202B070BD28
S11350F02415002008B500F0B5FD01380D4B052836
S113510012D8DFE800F003110C0C0E0E0A4A1278D4
S1135110012A4FF0440205D00021996007E00022E3
S113512000E033229A6002E0F7229A60A2225A60D9
S113513008BD00BFC00F00212415002010B504468F
S113514008B9002010BD00F0CBF90C221C48002146
S113515002F09CFF23781B4A022B04D1D2F8883139
S113516013F4001F11E0012B04D1D2F8883113F499
S1135170400F0AE0144B5B6AD2F8882103F0010364
S113518083F0010302F480021343DAD10F4A236847
S1135190136063685360E088FFF76AFFFFF7BAFDA6
S11351A0B4F90200FFF7D0FE094AD2F8583123F0CF
S11351B00703C2F85831FFF79DFF012010BD00BF5F
S11351C0C00F002100400E40B081E00F24150020E4
S11351D00040084070B5044600284BD02648012101
S11351E000F0AEFE01212548FCF72AFE244B62683C
S11351F01A60244B2578F822DA67A27BE17A12043C
S113520042EA0122217A0A439A677DB91E4A207B29
S11352100221116007225A67617B04222B46FDF7A5
S113522095FDE07B217C04222B4609E0012D0AD167
S1135230154AE07B156005225A67217C042200236D
S1135240FDF784FD0EE0022D05D10F4A0521116002
S113525001225A6706E0032D04D10B4900220A609B
S11352605A6770BD607AA17A04220123BDE87040B8
S1135270FDF76CBD70BD00BF0034060000250800BA
S1135280DC0C002000000840D80C002038B50E4D7E
S11352900E4B2868DC6F48B10D4800F06FFE2B6898
S11352A000EB5300B0FBF3F001380002094B01227C
S11352B01A60094A24F47F43126823F0030313435A
S11352C01843024BD86738BDDC0C002000000840AE
S11352D000340600F8120843D80C0020044BD3F81D
S11352E09430002BBCBF034BC3F88000704700BF51
S11352F0004008400000084072B6044B1A68511C74
S11353001CBF01321A601868704700BF04020020F5
S1135310034B186818B10138186000B962B67047B9
S11353200402002070B50C46154606462544FFF7D6
S1135330E3FF2146A94209D03023734303F180439C
S113534003F5012311F8012B9A61F3E7BDE87040DE
S1135350FFF7DEBF3023584303F1844303F5C01342
S113536003F6F87303445B0101221A60704701607D
S1135370704703681943016070470368594001602E
S11353807047036819400160704738B505460C46FC
S1135390FFF7B2FF2B682340A342FBD1BDE838409E
S11353A0FFF7B6BF10B520EAE074084800F0E6FD48
S11353B04FF47A73B0FBF3F0444304F57A644FF48A
S11353C0FA50B4FBF0F080B210BD00BF605107008A
S11353D0084601F0D9BB00F1047001EBC00189005B
S11353E001230B60704700F1047001EBC0018900D8
S11353F000230B607047000007B501A8FDF72AFDE4
S1135400154B164AC3F8442148F2E672C3F8382112
S11354104FF40862C3F83421114AC3F8A0209DF860
S11354200530012B0F4B05D19DF80420012A9CBFA8
S113543028221A654AF63F429A600B4B4FF0C0721D
S11354409A62A3F540530022C3F8FC20074AC3F82C
S11354509C2003B05DF804FB00400840C0E65311F3
S11354607A27000F0030084000700840806D630305
S1135470F0B5164C4FF004556368E567012385B019
S1135480C4F880300E460746FFF736FF3946B200AF
S1135490284602F0D5FDFFF73BFF0D4B23660D4C6C
S11354A094E8070001AD85E80700002194220A482A
S11354B002F0ECFD95E8070084E807003C20FFF7C4
S11354C071FF064B4042186205B0F0BD0040084031
S11354D0CC0F0021C00F00216C0F00219C0F002174
S11354E008B51148012100F02BFD1048012100F0FE
S11354F027FD0F48012100F023FD0E48012100F093
S11355001FFD0D48012100F01BFD0C48012100F096
S113551017FD0B48012100F013FD0A480121BDE8E5
S1135520084000F00DBD00BF003406000004060072
S113553000440600007406000064060000540600DF
S11355400024060000840600F8B500F1080454F8AD
S1135550083C5A1C21D0C3F30361124AC3F3074623
S113556052F821109DB2012E45EA01050BD954F8D9
S1135570047CFFF7C1FE3946B200284602F060FD04
S1135580FFF7C6FE07E01B0F074A54F8041C52F845
S11355902330284698470834D9E7BDE8F840FFF798
S11355A0A9BD00BFE0C40000E8C40000014B43F8FB
S11355B020107047E40C0020014B1B68184700BF03
S11355C0E40C0020014B5B68184700BFE40C00208A
S11355D0014B5B69184700BFE40C0020014B5B6979
S11355E0184700BFE40C0020014B5B6A184700BF5A
S11355F0E40C0020014BDB69184700BFE40C0020D9
S1135600014BDB68184700BFE40C0020014B9B688A
S1135610184700BFE40C0020F8B50E4607460020EA
S113562015461C46FFF796FE002039463246FFF722
S113563079FEC4B1C6F580720B4992B294424F60B0
S11356400E808D604C808A814FF00000294605D978
S1135650FFF768FE054B01221A60F8BD2246BDE83B
S1135660F840FFF75FBEF8BDB00E0020901D024366
S11356700020014602460346FFF7CEBF38B50C466C
S113568005460320FFF766FE224603202946FFF75E
S113569049FE024B0422C3F8B82038BD001008406C
S11356A000200146FFF7EABF034AD2F8EC3023F4A6
S11356B08063C2F8EC30704700100840044B0022AD
S11356C058601A8010B1034B01221A60704700BF62
S11356D0A80E0020802D0243014B5868704700BF7C
S11356E0A80E002008B5054B002201201A80FFF700
S11356F031FE0220BDE80840FFF72CBEA80E0020B2
S1135700234A70B5D2F8E030D2F8EC402340C2F816
S1135710E830D2F8EC401C40600715D51D4EB58921
S11357207288B168521B92B2E02A29444FF00000FB
S113573005D9E022E035FFF7F5FDB58104E0FFF778
S1135740F1FD154B00221A60610501D500F014FA31
S1135750124B23400BB1FFF7C5FF14F0090F04D01F
S11357600F4B01221A60FFF783FFA20701D5FFF751
S11357707FFF14F0106F04D0094B01221A60FFF769
S11357808FFFA30103D5BDE87040FFF789BF70BD4B
S113579000100840B00E0020901D0243000A0A00C9
S11357A0140108430D4BDB6C13F0200F0CBF0020D9
S11357B00420D90644BF0230C0B21A0744BF0230E5
S11357C0C0B2590744BF0230C0B29A0744BF013087
S11357D0C0B2DB0744BF0130C0B2704700000840CC
S11357E0044BD3F88000C0F30C00022894BF0020BF
S11357F00120704700100840024B186DC0F30C00E4
S1135800704700BF00100840024B186AC0F30C0038
S1135810704700BF00100840014B586CC0B270477D
S113582000100840800000F1804000F50020D0F80E
S1135830A03023F44073C0F8A030D0F8A03043EA7D
S11358400121C0F8A010704770B5354CFFF748FE31
S11358500226344B26636363AF236365324B2660B1
S113586000256360314A42F2200363622566626662
S11358703D22C4F884202E4AC4F890502846C4F827
S113588094202946C4F8B430FFF7CCFF0120294600
S1135890FFF7C8FF30460121FFF7C4FF01210320B1
S11358A0FFF7C0FF234B1A6C22F0F0021A641A6C43
S11358B042F0A0021A64204B204ADA60204B802276
S11358C0C3F8802128461A60FFF744FD0120FFF742
S11358D041FD3046FFF73EFD0320FFF73BFDD4F8C2
S11358E0EC20184B1343C4F8EC30FFF7DDFEFFF750
S11358F083FD154AD2F8983043F00303C2F8983078
S1135900124B02F14072A2F59B42C3F8945001235A
S11359101360A2F587521360536042F8043C70BDD3
S1135920001008402C150020240D0020240E002017
S1135930660E002000000840E40C0020015700001F
S113594000E100E00B0A0B0B006008400040084037
S113595010B50A44914206D030244443024B1B59EB
S113596001F8013BF6E710BD1410084003460A464F
S113597001201946FFF7ECBF13B504463CB10DF105
S113598007000121013CFFF7F1FFA4B2F6E702B0E2
S113599010BD10B50446FFF723FF28B94FF0FF33BD
S11359A0A0702370637010BD022021460322FFF70C
S11359B0CFFF2388DBB2238010BDFFF793BE000026
S11359C0632870B506D943F2C823984228BF184605
S11359D0044600E06424094B094E1C80FFF712FBC7
S11359E0201A85B228B2FFF7DDFC3082A5F114003D
S11359F000B2FFF7D7FC7082204670BDE00C002097
S1135A009C0F0021632870B506D943F2C82398423D
S1135A1028BF1846054600E06425FFF7F3FA281A64
S1135A2084B220B2FFF7BEFC044E3081A4F114000E
S1135A3000B2FFF7B7FC7081284670BD9C0F0021AF
S1135A4070B50446FFF7DEFA43F2C82343F2C722D7
S1135A50944294BF22461A46904203D9FFF7D2FAE1
S1135A6084B202E09C4228BF1C46FFF7CBFA201AFE
S1135A7085B228B2FFF796FC044EB083A5F114005A
S1135A8000B2FFF78FFCF083204670BD9C0F00210D
S1135A90632810B506D943F2C823984228BF184694
S1135AA0044600E06424201F00B2FFF77BFC024B95
S1135AB05861204610BD00BF9C0F0021632810B51B
S1135AC005D943F2C823984228BF184600E0642051
S1135AD0044C2080043800B2FFF764FC024B1860C9
S1135AE0208810BD640E00209C0F002110B543F2E5
S1135AF0C824844228BF044620B2FFF753FC024B5B
S1135B005860204610BD00BF9C0F002110B543F221
S1135B10C824844228BF044620B2FFF743FC024B4A
S1135B209861204610BD00BF9C0F002138B5FFF7D7
S1135B30E3FB0F4B0F4A1D6894681B68EDB2DBB2A0
S1135B4044F38914002B18BF002DA4B214BF0125FF
S1135B500025FFF7DDFBB4F57E4F02D1002DE6D121
S1135B6003E0002D08BF4FF47E4420B238BD00BFCF
S1135B700040084000700840F8B5FFF73DFE0446B9
S1135B803CB3FFF749FE1D4A136813B1013B136090
S1135B901DE01B490A6812B91A4B1B78BBB1C0F34C
S1135BA00713194E194DF75C00F00F00013A335CEE
S1135BB028680A603B4450FA83F315482B60036855
S1135BC008330360FFF7B2FF124B80101873013CD7
S1135BD0D6E70F4B1A680F4B59688A4238BF4FF00B
S1135BE0FF325A60094A9B6811680A4A994236BFD3
S1135BF04FF0FF3391609360F8BD00BF381600206A
S1135C0030160020D00E002008C5000034160020F5
S1135C102C160020C00E0020104A936BC3F3C2530D
S1135C20013B032B9CBF0E49C85C936B03F0070335
S1135C3010B588BF0720042B09D8DFE803F0030858
S1135C400806060000EB400402E0C40000E0840003
S1135C50FAF7F4FAB0FBF4F010BD00BF006008409E
S1135C6021C50000064B5B6B03F00700C3F3C503BB
S1135C7013F0070218BF5043DB0818BF584370479E
S1135C8000300840034BD3F8380180F01000C0F313
S1135C90001070470040084070B50446FFF7E2FF6B
S1135CA0064600230EA1D1E90001324601F0A8FD09
S1135CB00025844275EB01030DDB324600230AA163
S1135CC0D1E9000101F09CFDA04271EB0503ACBFDA
S1135CD00120002070BD002070BD00BFAFF3008024
S1135CE00037178900000000007DDAAC00000000D6
